:020000041000EA
:200000008818000873FB001019FC00101DFC0010000000000000000000000000000000006C
:2000200000000000000000000000000035FC0010000000000000000037FC001039FC0010F7
:20004000893F0110B73F0110E33F01100F4001103B4001106740011093400110BF400110F5
:200060003BFC00103DFC00103FFC001041FC001043FC001045FC001047FC001049FC001010
:20008000F0B581B004460A460023E34E35680095002A41D0177825690F26B5433E07360F5B
:2000A0003543256155786E4635709778009E0125FF35AE43FD07ED0D2E430096D778009E32
:2000C00001256D02AE43FD07AD0D2E4300961779009E0125AD02AE43FD076D0D2E4300965C
:2000E0005779009E01256D07AE43FD07AD082E4300969779009E0125AD07AE43FD076D0855
:200100002E430096009ED77976007608FD072E430096009D256000E0C04B00BF184601B010
:20012000F0BD10B5014600220A6000220A6110BD10B502460123FF33D158084610BD10B5B4
:2001400002468123FF33D158084610BD10B502468523FF33D158084610BD10B50246892359
:20016000FF33D158084610BD10B502468D23FF33D158084610BD10B50246A123FF33D158AA
:20018000084610BD10B50246A523FF33D158084610BDF0B586B005460C460026A04B1A68EE
:2001A0000092A04B1A6801929F4B1A6802929F4B1A6803929E4B1A680492002C00D1CDE001
:2001C000284600F001F9049A01239B021A430492049A01235B021A430492049A0123FF336F
:2001E0001A430492049A02231A430492049A01231A430492049A04231A430492049A2A61C0
:200200002378009A0727BA433B401A4300926778009B702293437A07520E13430093A77849
:20022000009B032212029343BA07920D13430093E778009B0122D2029343FA07120D13438E
:2002400000932279131C009A00D0012352005208DB071A430092009A2A606779019A3F2335
:200260009A43BB069B0E1A430192A779019BC0229343BA07120E13430193E779019B0722E3
:20028000120293437A07520D13430193277A019B0122D2029343FA07120D13430193677AB5
:2002A000019B032212039343BA07920C13430193A77A019B032292039343BA07120C1343C7
:2002C00001935C4A019BA78993433A05120913430193019BA77B5B005B08FA071343019397
:2002E000019A6A60E37B029A0727BA433B401A430292277C029B40229343FA07520E1343D9
:200300000293677C029B80229343FA07120E13430293A27C02AB5A70E77C029B1F22120458
:200320009343FA06D20A13430293277D029B032292059343BA07120A13430293029AAA60DF
:20034000E28A03AB1A80228B03AB5A80039AEA6021461A31284600F0CFF800E02F4E324621
:20036000104606B0F0BD30B581B00146324B1A6800920122D2020A6000228A63009A0123A8
:200380009B021A430092009A01235B021A430092009A0123FF331A430092009A02231A43CC
:2003A0000092009A01231A430092009A04231A430092009A0A6101B030BD10B501468A6BAA
:2003C00001231A438A6310BD10B501468A6B01239A438A6310BD10B50146CA6B01231A4364
:2003E000CA6310BDF0B581B007460D4613460024002D2AD0002B28D07E6A00966E463688D6
:200400002E80009EF600F60F1E70009E7600F60F9E70009E12E000BF586C01100100DA00E1
:200420005C6C0110606C0110646C0110686C01106C6C01100000FF0F706C0110B600F60FA1
:200440005E70009EF60FDE7000E0D74C00BF204601B0F0BDF0B581B007460D461346002464
:20046000002D16D0002B14D03E6A00966E4636882E80009EF600F60F1E70009E7600F60FBC
:200480009E70009EB600F60F5E70009EF60FDE7000E0C54C00BF204601B0F0BDF0B581B0EC
:2004A00005460A460023C14E34680094002A1ED0AC6A0094009C6405E40F5471009CA4057B
:2004C000E40F1471009CE405E40FD470009CE403E40F9471009CA407E40F5470009CE407E8
:2004E000E40F1470009C6407E40F947000E0AE4B00BF184601B0F0BDF0B581B006460A46C1
:200500000023AB4D2C680094002A34D05779009D0124A402A543FC07640D25430095177949
:20052000009D01246402A543FC07A40D25430095D778009D0124FF34A543FC07E40D254372
:2005400000955578009C0227BC43ED07AD0F2C4300941578009C0127BC433D402C430094F2
:200560009578009C0427BC43ED076D0F2C430094009CB46100E08C4B00BF184601B0F0BD52
:20058000F0B581B005460A460023002A1AD0AC690094009C6405E40F5471009CA405E40F15
:2005A0001471009CE405E40FD470009CA407E40F5470009CE407E40F1470009C6407E40F04
:2005C000947000E0784B00BF184601B0F0BDF0B581B006460A460023764D2C680094002A4F
:2005E00034D05779009D0124A402A543FC07640D254300951779009D01246402A543FC07C3
:20060000A40D25430095D778009D0124FF34A543FC07E40D254300955578009C0227BC437E
:20062000ED07AD0F2C4300941578009C0127BC433D402C4300949578009C0427BC43ED0770
:200640006D0F2C430094009C346100E0564B00BF184601B0F0BDF0B581B005460A4600235A
:20066000002A1AD02C690094009C6405E40F5471009CA405E40F1471009CE405E40FD47007
:20068000009CA407E40F5470009CE407E40F1470009C6407E40F947000E0434B00BF1846D5
:2006A00001B0F0BDF0B581B005460A460023002A1AD0EC690094009C6405E40F5471009CF2
:2006C000A405E40F1471009CE405E40FD470009CA407E40F5470009CE407E40F1470009CA5
:2006E0006407E40F947000E02F4B00BF184601B0F0BDF0B503460C460022002C08D02778BE
:200700005D680F26B5433E07360F35435D6000E0254A00BF1046F0BD30B501464A68012315
:20072000DB071A434A6030BD30B501464A68520052084A6030BD10B5014698235A58012325
:200740001A4398235A5010BD10B5024698239958C90701D5002100E0012100BF084610BDAE
:20076000F0B581B006460B460022134D2C680094002B14D0009C1F88240B24033D052D0D38
:200780002C4300949F78009D3F242404A543BC06A40A25430095009C8425AC5100E0024A54
:2007A00000BF104601B0F0BD0100DA00746C0110786C01107C6C0110806C0110F0B581B039
:2007C00005460B460022842674590094002B08D0009C2405240D1C80009CA402A40E9C70BB
:2007E00000E0D84A00BF104601B0F0BDF0B581B006460B460022D44D2C680094002B14D097
:20080000009C1F88240B24033D052D0D2C4300949F78009D3F242404A543BC06A40A2543C1
:200820000095009C9425AC5100E0C64A00BF104601B0F0BDF0B581B005460B460022942620
:2008400074590094002B08D0009C2405240D1C80009CA402A40E9C7000E0BA4A00BF1046A9
:2008600001B0F0BDF0B581B006460B460022B74D2C680094002B0FD01C786D462C705F7895
:20088000009D1F242404A543FC06E40A25430095009C8025AC5100E0AA4A00BF104601B0A3
:2008A000F0BDF0B581B005460B460022802674590094002B07D06E4634781C70009CE40280
:2008C000E40E5C7000E09F4A00BF104601B0F0BDF0B581B006460B4600229D4D2C68009477
:2008E000002B0FD01C786D462C705F78009D1F242404A543FC06E40A25430095009C902506
:20090000AC5100E08F4A00BF104601B0F0BDF0B581B005460B460022902674590094002BD8
:2009200007D06E4634781C70009CE402E40E5C7000E0844A00BF104601B0F0BDF0B581B0BD
:2009400006460B4600240022002B1AD01D782A435F780025002F00D002252A439F780025D2
:20096000002F00D004252A43DF780025002F00D008252A4337683F013F0915072F43376081
:2009800000E0704C00BF204601B0F0BDF0B585B006466F460C46FA701D460027042C07D808
:2009A00001B401A8C078052801BC01D2102D01D3644F82E001B401A8C0780590012801BCAD
:2009C0000CD31ED001B40598032801BC2CD343D001B40598042801BC56D06DE003B4A000F9
:2009E0003146203106914118059108680F2188432907090F0691014305980491016003BCC9
:200A00005BE003B4A000314620310691411805910868F02188432907090E069101430598EB
:200A20000491016003BC48E003B4A0003146203106914118059108680F210902884304902A
:200A4000280708210691010D03910498014305980491016003BC30E003B4A00031462031A4
:200A600006914118059108680F2109038843049028070C210691010C0391049801430598D4
:200A80000491016003BC18E003B4A0003146203106914118059108680F21090488430490F8
:200AA000280710210691010B03910498014305980491016003BC00E000BF00BF384605B0DC
:200AC000F0BDF0B585B00D466C460490E2701E460024042D05D86F46FF78022F01D2402E70
:200AE00001D3184C37E06F46FF78012F01D312D030E003B40698AF00403005903918049196
:200B00000F683F218F43B006800E059007430498076003BC1FE003B40698AF00403005903F
:200B20003918049108683F273F02B843B706BF0C082138430591039001460498016003BC65
:200B400009E000BF0100DA00846C0110886C01108C6C011000BF00BF204605B0F0BDF0B518
:200B6000EFB00023059301239B0706930491044600231B931C935DA84822002115F075FA59
:200B80004BA84822002115F070FA2DA81822002115F06BFAF34A13681D9353681E939368FF
:200BA0001F93D2682092002319931A93002317931893002315931693002313931493EA4B8A
:200BC000002239923A93A269E3693B923C93059A069BA069E16913F0EFFE021C3D920B1CD1
:200BE0003E93E14B00223F9240932369626941934292059A069B2069616913F0DDFE021CA4
:200C000043920B1C4493D84E002245924696A368E26847934892059A069BA068E16813F069
:200C2000CBFE021C49920B1C4A93226B636B33923493A26AE36A35923693226A636A3792FC
:200C40003893C94B002225922693226C636C27922893C54B002229922A93A26BE36B2B9290
:200C60002C93A26DE36D21922293226D636D23922493002500BF691C032015F057FFCA0072
:200C80006A44E4323032C0CAA91C032015F04EFFCA006A44FC3203CA321C3B1C14F076FFD9
:200CA000061C0F1CA91C032015F040FFCA006A44E432303203CA11901291691C032015F00D
:200CC00035FFCA006A44FC3203CA119A129B14F05DFF321C3B1C15F053F8EA0039AB9E183C
:200CE0000CCE14F053FF1B9A1C9B15F04EF8021C1B920B1C1C930135EDB2032DBBD30026B3
:200D000000BF002700BFB3009A1BBA18D2005DAB99180391B11C032015F008FF8A00511AE4
:200D20000291791C032015F001FF029A8A18D2006A44E43203CA11901291711C032015F0C9
:200D4000F5FE8A00511A0291B91C032015F0EEFE029A8A18D2006A44E43203CA119A129B36
:200D600014F014FF12911190B11C032015F0DEFE8A00511A0291B91C032015F0D7FE029A51
:200D80008A18D2006A44E43203CA0F901091711C032015F0CBFE8A00511A0291791C032050
:200DA00015F0C4FE029A8A18D2006A44E43203CA0F9A109B14F0EAFE119A129B14F0E0FF50
:200DC0001B9A1C9B14F072FD039B03C30137FFB2032F98D30136F6B2032E92D36A46002302
:200DE000937000BF6A460023D37000BF03B402AA927893009A1A02ABDB789A18D2003BAB3E
:200E00009B1802AAD27890000590821A02A880788218D2005FA98A181068526818605A604C
:200E200003BC6A46D2786B460132DA706A46D278032ADBD36A4692786B4601329A706A469E
:200E40009278032ACED36A460023137000BF01AA0023137000BF6A461278D2006A44B432F5
:200E600003CA1190684612910278930000799A1A8218D20039AB991803910CC901A80078EE
:200E8000C00033A90391029001460398401803904168006814F07AFE0F901091119A129B9E
:200EA00014F073FF11906A4612911278D2006A44B432034613600B46536001AB1A780132A7
:200EC0001A7001AA1278032AC5D36A4612786B4601321A706A461278032AB8D32299129196
:200EE000059A2198069B11902798289913F064FD319A329B14F04AFE119A129B14F01CFB1D
:200F0000024621920A46229224991291059A2398069B11902B982C9913F04EFD319A329B68
:200F200014F034FE119A129B14F006FB024623920A462492279A289B29982A9914F026FEEB
:200F400012912B9A2C9B11902598269914F01EFE119A129B14F014FF021C1B920B1C1C9315
:200F600004E000BF906C01100000F03F1B9A1C9B2B982C9914F09AFC021C4B920B1C4C9303
:200F8000279828990122D20751401B9A1C9B14F08DFC021C4D920B1C4E9329982A9901229F
:200FA000D20751401B9A1C9B14F080FC021C51920B1C529353AA03921B9A1C9B2598269954
:200FC00014F074FC039B03C301AA0023537000BF01AA0023937000BF03B403AB5A789B780F
:200FE00052009A18D20027AB9B1803AA527890000590821A03A880788218D2004DA98A18B7
:201000001068526818605A6003BC01AB9A7801329A7001AA9278022ADED301AB5A7801326F
:201020005A7001AA5278022AD2D36A460023537000BF01AA0023D37000BF6A465278D2002F
:201040001DAB9A1803CA1190684612914278C07952008218D2009918203103910CC901A892
:20106000C078C00021A90391029001460398401803904168006814F089FD0F901091119A35
:20108000129B14F082FE11906A4612915278D2006A447432034613600B46536001ABDA787D
:2010A0000132DA7001AAD278022AC6D36A4652786B4601325A706A465278022AB9D3049803
:2010C000408814F073F9021C0B1C2068616814F0EDFB021C15920B1C16930498008814F099
:2010E00065F9159A169B14F051FD021C17920B1C1893319A329B119212931F9A209B0F9252
:2011000010931D9A1E9B0D920E93179A189B0D980E9914F035FE0B900C91119A2049129B9C
:20112000002014F033FD0B9A0C9B14F02FFD0C91059A069B0B900F98109913F03DFC0B9A36
:201140000C9B14F01DFE021C19920B1C1A930FAA0BCA0122D2074A400C921A46129B0B90D2
:201160000598069914F012FD0A91099019981A9914F098F814F018F814F0E4F80B9A0C9BB4
:2011800014F0DAF9099A0A9B14F090FB021C13920B1C1493139A149B101C191C6FB0F0BD87
:2011A00000001040F0B504460A4601231B03002C01D0002A01D1BF4D3EE0BF4DAC4203D16D
:2011C00000251580536036E0BC4DAC4203D11D46158053602FE0BA4DAC4204D101256D03A7
:2011E0001580536027E0B74DAC4204D103252D03158053601FE0B44DAC4203D100251580BD
:20120000536018E0B14DAC4203D11D461580536011E0AF4DAC4204D101256D03158053602A
:2012200009E0AC4DAC4204D103252D031580536001E0A04D00E000252846F0BD70B505460B
:20124000A54C002200BF9300991AC900091909688D4205D19100881AC0000019043003E052
:201260000132082AEFD3002070BDF0B503460C463F2C01D9002214E01D0C2D0401263604A4
:20128000AA19AC26F5582D04AD0CAD005219BC27FD586D05914E6D0F755D02356543AD0007
:2012A000521900BF1046F0BDF0B503460C461F2C01D9002214E01D0C2D0401263604AA1908
:2012C000C026F5582D04AD0CAD005219C827FD586D07824E6D0F755D02356543AD0052190C
:2012E00000BF1046F0BDF0B581B005460E461746012E01D9002324E02C0C240401231B0487
:20130000E318002E04D1A02464592404A40C03E0B02464592404A40CA4001B19002E04D14F
:20132000BC2464596407640F03E0BC2464596406640F02B469490C5D02347C43A4001B1937
:2013400002BC00BF184601B0F0BD30B502465D4B00219A4200D9042113045B0EC918C9B2A8
:2013600000BF084630BDF0B505465D4E0024002D00D129E02846FFF7E8FF01460C46296D33
:20138000890002D5610001228A53296DC90002D5610002228A53296D090102D561000322F7
:2013A0008A53296D490102D5610004228A53296D890102D5610005228A53296D890202D5E1
:2013C000610006228A5300BFF0BDF0B582B005460B4600220024002D00D136E02E68760062
:2013E000F60F1E721E7A002E04D12E68F600760D5E6003E02E68F600F6085E606E68B60237
:20140000F60F1E706E683603360F4C27FE544C27FE5C082E01D2002404E04C24E65C082761
:20142000F41BA4B200220CE002B496001F460C3729460831019777580199775002BC0132E4
:2014400092B2264E365DB242EED302B0F0BDF0B5AAB00390002600270398FFF7EFFE014689
:2014600002910299002900D13CE1039D1D4A296D114002D00398FFF776FF296D09036ED57C
:20148000296D0122D2041143296598225159002933D0002400BF0121A14098235A591140A6
:2014A00026D003982146FFF7E0FE01460E4601211AE000BF01006200000052400002524061
:2014C00000045240000652400000544000025440000454400006544000080008A06C011055
:2014E000000F0008EEE0F73FA1409822515123E00134E4B2202CCED31EE09C22515900294A
:201500001AD0002400BF0121A1409C235A5911400ED02034E4B203982146FFF7A6FE01468D
:201520000E462146203901228A409C235A5103E00134E4B2202CE6D3002E00D1D2E016A91D
:201540003046FFF742FF029A5168002900D1C9E0029816AA4368214600209847C2E0296D43
:20156000C90756D5296D0122114329654CE0039A8123FF33D158C90720D5039BBC3319683A
:201580004907CA4A490F515C8F1CFFB2002408E0A921039BFF3104AA5B58A1008B500134D0
:2015A000E4B2BC42F4D3029A916800292CD0029804AA836839460020984725E0A4225159F0
:2015C0000091009989048A0E03980021FFF78BFE01460E46002E17D016A93046FFF7F5FEB3
:2015E00000998904A82252593F239A438B0E1A43A8214A51029A5168002905D0029816AA0A
:201600004368002101209847A42251594906AED168E0296DC90656D5296D1022114329653E
:201620004CE0039A8123FF33D158890720D5039BBC33196849069D4A490F515C8F1CFFB2B8
:20164000002408E0B921039BFF3104AA5B58A1008B500134E4B2BC42F4D3029A91680029AB
:201660002CD0029804AA836839460120984725E0B42251590191019989048A0E0398012129
:20168000FFF731FE01460E46002E17D016A93046FFF79BFE01998904B82252593F239A43C6
:2016A0008B0E1A43B8214A51029A5168002905D0029816AA4368012108469847B422515999
:2016C0004906AED10EE0296D89050BD5296D0122520211432965029A1168002902D0029AAF
:2016E000116888472AB0F0BDF0B59DB007460C466F4B1A6800926F4B1A6801926E4B1A68B2
:2017000002926E4B1A6803926D4B1A6804926D4B1A6805926C4B1A6806926C4B1A68079221
:201720006B4B1A6808926B4B1A6809926A4B1A680A926A4B1A680B92694B1A680C92694BD5
:201740001A680D92684B1A680E92684B1A680F92674B1A681092674B1A681192664B1A68DD
:201760001292002F0FD0002C0DD028231A5D002A02D0E26A002A06D030231A5D002A04D0DC
:20178000626B002A01D15D4AF3E33846FFF756FD02461392139A002A01D1584AE9E3139B8A
:2017A00022681A60139B62685A60139BA2689A60139BE268DA60139B22691A613D460122B5
:2017C000AA61AA69D207FCD50322AA611BA93846FFF7E8FC002801D0484ACAE328231A5DFB
:2017E0006B469A701BAA12889610454A009B9343B20013430093009A84235A513022019BB4
:20180000165D7F22120493437206520A1343019384225259920828231B5DD618384A019B50
:201820009343B204120C13430193019A88235A51029AA66B520F5207F300DB081A430292F5
:20184000029A90235A5140220D9B165D0722120293437207520D13430D934122165D0D9BB2
:20186000702293437207520E13430D934222135D0D9A0726B24333401A430D920D9ABC239F
:201880005A514422039B165D5B005B08F207134303934522039B165D7F2212069343720604
:2018A0005208134303934622039B2BE0A06C0110A86C0110AC6C0110B06C0110B46C011008
:2018C000B86C0110BC6C0110C06C0110C46C0110C86C0110CC6C0110D06C0110D46C0110F0
:2018E000D86C0110DC6C0110E06C0110E46C0110E86C0110EC6C0110F06C011001006200DE
:20190000FCFF0000165D7F22120493437206520A134303933022125D530088225259920809
:20192000D618E94A039B9343B204120C13430393039AA0235A514822049B165D5B005B080D
:20194000F207134304934922049B165D7F221206934372065208134304934A22049B165D58
:201960007F22120493437206520A13430493D74A42231B5DD25C023246231B5D5343A02280
:2019800052599208D618D04A049B9343B204120C13430493049AB0235A514722135D129A23
:2019A0000126B24333401A4312924B22135D129A0226B243DB079B0F1A431292129A812314
:2019C000FF33FA50C14A41231B5DD25C02324A231B5D5343B02252599208D618BA4A059B1E
:2019E0009343B204120C13430593059AAC235A514322135D0E9A0726B24333401A430E9227
:201A00000E9AC8235A51069A3F231B069A430692069A3F231B049A430692AC4A40231B5D89
:201A2000D25C02324C231B5D5343AC2252599208D618A54A069B9343B204120C134306939D
:201A4000069AF0235A51079A01239B079A430792079A3F231B069A4307924D22079B165D2D
:201A60003F2212049343B206920A13430793F02252599608944A079B14369343B204120C06
:201A800013430793079AC0235A511BAE3A0C338812049A1801231B04D61814961C9A930869
:201AA0001593002605E0149A131D1493002313600136159A9642F6D3089A01231A43089214
:201AC000089A02231A430892089A01239B039A430892227D1892089B012252029343189A82
:201AE000D207920D13430893227D1892089B0122FF329343189AD207D20D13430893089A6A
:201B000080239A430892089A40239A430892089A20239A430892089A10239A430892089AE5
:201B200004239A430892089AAA61E28A1892684A099B9343189AD205D20913430993227E22
:201B400009AB5A70627E1892099A7F239A43189B5B065B0E1A430992099BA27EDB01DB0962
:201B6000520613430993099AEA61227D002A51D0A28B18920A9B1F2212049343189AD20610
:201B8000D20A13430A93A27F18920A9B1F2212029343189AD206D20C13430A93E27F189275
:201BA0000A9BF0229343189A1207120E13430A932022125D18920A9A0F239A43189B1B07D7
:201BC0001B0F1A430A922222125D18920A9B0122D2059343189AD207120A13430A930A9AD2
:201BE000EA602322125D18920B9B7F2212029343189A5206520C13430B932422125D189251
:201C00000B9A7F239A43189B5B065B0E1A430B920B9AAA643C22125D18920C9B3022934330
:201C2000189A9207920E13430C933D22125D18920C9B0C229343189A9207120F13430C9340
:201C400001B43E22135D0D9A02208243DB079B0F1A430D9201BC01B43F22135D0D9A0120DE
:201C60008243DB07DB0F1A430D9201BC0C9A80235A513B0C1B04842252591204920C920029
:201C80009A1801231B04D2181692002609E001B4B200179BE06AD318121812681A6001BC85
:201CA000013628231A5D9642F1D33B0C1B04882252591204920C92009A1801231B04D218AF
:201CC0001792002614E000BFFCFF0000A06C01100000FF0101B4F200189B606B9B188218F8
:201CE000199010681990526818605A6001BC013630231A5D9642EDD30F9A01235B079A43CC
:201D00000F920F9A01231B079A430F920F9A0123DB069A430F920F9A01239B069A430F929D
:201D20000F9A01235B069A430F920F9A01231B069A430F920F9A0123DB059A430F920F9AB7
:201D400001239B059A430F920F9A01235B059A430F920F9A01231B059A430F920F9A01235E
:201D6000DB041A430F920F9A01239B049A430F920F9A01235B049A430F920F9A01231B0406
:201D80009A430F920F9A0123DB039A430F920F9A01239B039A430F920F9A01235B039A43AB
:201DA0000F920F9A01231B039A430F920F9A0123DB029A430F920F9A01239B029A430F9209
:201DC0000F9A01235B029A430F920F9A0123FF339A430F920F9A80239A430F920F9A402308
:201DE0009A430F920F9A20239A430F920F9A10231A430F920F9A08239A430F920F9A0423FF
:201E00009A430F920F9A02239A430F920F9A01231A430F920F9A6A65109A01235B079A43A8
:201E20001092109A01231B079A431092109A0123DB069A431092109A01239B069A43109275
:201E4000109A01235B069A431092109A01231B069A431092109A0123DB059A431092109A8F
:201E600001239B059A431092109A01235B059A431092109A01231B059A431092109A012337
:201E8000DB049A431092109A01239B049A431092109A01235B049A431092109A01231B045F
:201EA0009A431092109A0123DB039A431092109A01239B039A431092109A01235B039A4384
:201EC0001092109A01231B039A431092109A0123DB029A431092109A01239B029A431092E1
:201EE000109A01235B029A431092109A0123FF339A431092109A80239A431092109A4023E0
:201F00009A431092109A20239A431092109A10239A431092109A08239A431092109A042355
:201F20009A431092109A02239A431092109A01239A431092109AAA65119A01231A431192FF
:201F4000119A02239A431192119AEA653846FFF7FCF901B4B94B42000020D05201BC089A32
:201F600001239A430892089AAA61AA69D207FCD4002210461DB0F0BDF0B585B00546002D19
:201F800001D1AF4974E02846FFF758F901460E46002E01D1AA496BE00021316000217160F1
:201FA0000021F160002131612C460121A161A169C907FCD50321A16103A92846FFF7F2F89B
:201FC000002801D09E4953E00021842211510021882211519B49902211510021BC2211513F
:201FE0000021A02211510021B022115100218122FF32A9500021AC2211510021C82211519B
:202000000021F02211510021C022115103AB290C1A8809045118012212048F1804998A08BC
:2020200002920022009206E03946043700220A600099013100910099029A9142F4D30321DD
:20204000A1618149E1618149E1600021A164002180221151002161650021A1650021E165A7
:202060002846FFF772F9754A410000238B520021084605B0F0BDF0B588B06B460790D97052
:202080001546079B002B01D0002D01D16C4E9DE06B46DB781F2B01D9694E97E00798FFF726
:2020A000CDF803460393039B002B01D1644E8DE0079B0293029CA369DB0708D46E46F67801
:2020C0000123B340029ECC363468234001D05C4E7CE06846C1780798FFF7E6F803461C466C
:2020E000002C01D1564E71E0236801267607B34323602F7A266801239B079E43FB075B0802
:202100001E43266023685B0002D46B689F0400E06F6823685B0F5B07FE00F60833432360A3
:2021200063680126F605B343636063681B021B0A63604C2366685F5D0F231B049E433B07BC
:202140001B0B1E4366602F78666801235B059E43FB079B0A1E4366602F78666801231B05D1
:202160009E43FB07DB0A1E4366604C26735D082B01D2002704E04C235B5D08269F1BBFB29D
:20218000334BDE5D6B469E70002311E003B49E00214608310791069629460C31089170587D
:2021A0000890079970180899016003BC01339BB26E46B678B342E9D301B401A8C0780126CD
:2021C00086400398D030066001BC0026304608B0F0BDF0B505460B46002D01D01F2B01D917
:2021E000002221E02C46002201269E40CC273F593E4009D001269E40D4273F593E4001D159
:20220000012210E003220EE001269E40D8273F593E4001D0022206E001269E40DC273F5903
:202220003E4000D0042200BF1046F0BDF0B504460D46164600231846F0BD00BF000F0008C6
:2022400001006200FFFFFF1F030A0006330A0000A06C0110F0B502460B46C44C002A00D149
:2022600098E0002B00D195E01E6815680327BD433E40354315605F6816680C25AE43BD07B2
:202280002D0F2E4316609F6816683025AE43BD07AD0E2E4316601F691668C025AE43BD074A
:2022A0002D0E2E4316605F6916680125FF35AE43FD07ED0D2E4316609F69166803252D04A7
:2022C000AE43BD07AD0B2E431660DF68166801252D06AE43FD07ED092E431660DF691668F4
:2022E0000125AD06AE43FD076D092E4316601F6A16680125ED06AE43FD072D092E43166081
:202300005F6A166807252D07AE437D076D082E4316609D6A55605D6A012D06D30AD0032DB1
:2023200014D326D0042D2CD031E0DD6A95609D6CD5602DE0DD6A95609D6B013D95811D6BDB
:2023400015825D6B55829D6C556121E0DD6A95609D6B013D95811D6B15825D6B55825D6C68
:20236000013D9582DD6B15831D6C55839D6CD5610EE0DD6A95609D6B013D95819D6C156183
:2023800006E09D6B013D95609D6CD56000E000BF002400E0764C00BF2046F0BD10B501469B
:2023A00000220A6000224A6000228A600022CA6000220A6100224A6100228A610022CA61B9
:2023C00010BDF0B583B00446029301920F46266803252D04AE43BD07AD0B2E4326602668B8
:2023E0000125AD06AE43019DED076D092E43266026680125ED06AE43029DED072D092E4342
:20240000266003B0F0BDF0B583B004460E461546564B002C30D0002D2ED003B437020121FB
:2024200009030919CF192868386203BC03B43702012109030919CF1938680397A968032700
:202440003F02B8438F07BF0D384301460398016003BC03B43702012109030919CF1903979F
:202460003868E96840004008CF07384301460398016003BC002300E03D4B00BF184603B035
:20248000F0BDF0B502460B461C0201252D03AD182C19002525601C0201252D03AD182C19AB
:2024A000002525611C0201252D03AD182C19002525621C0201252D03AD182C1900258826F6
:2024C00035511C0201252D03AD182C19002584263551F0BD30B501460A680123DB071A43F5
:2024E0000A6030BD30B501460A68520052080A6030BD10B502469168084610BDF0B50246D6
:202500000B461C0201252D03AD1864190125802635511C0201252D03AD186419803424686C
:20252000F0BD70B502460B4614686400640F01D1D3601AE014686400640F012C01D15361D8
:2025400013E014686400640F022C01D1D3610CE014686400640F032C01D1136105E01468EC
:202560006400640F042C00D1D36070BD0F004E0001004E00F0B502460B46D54C002A00D11D
:20258000AFE0002B00D1ACE01E6815680327BD433E40354315605F6816680C25AE43BD0761
:2025A0002D0F2E4316609F6816683025AE43BD07AD0E2E4316601F691668C025AE43BD0727
:2025C0002D0E2E4316609F6916680125AD06AE43FD076D092E431660DF6916680125ED0649
:2025E000AE43FD072D092E431660DF68166801252D06AE43FD07ED092E4316605F69166893
:2026000003252D07AE43BD07AD082E43166016681F6AB600B608BD072E4316605D6A55606B
:202620009D6A95601D6A012D04D306D0032D2CD319D053E05D6CD56051E0D568DF6A2D0B04
:202640002D033E05360D3543D560A24DD6681F6BAE433D052D0A2E43D6605D6B013DD57301
:202660005D6C15613BE0D568DF6A2D0B2D033E05360D3543D560974ED568B543D5605D6BC8
:20268000013DD5735D6C156129E0D568DF6A2D0B2D033E05360D3543D5608E4DD6681F6BA8
:2026A000AE433D052D0A2E43D6605D6B013DD57315699F6B2D0B2D033E05360D3543156157
:2026C000844D1669DF6BAE433D052D0A2E4316611D6C013DD5745D6C556100E000BF0024BC
:2026E00000E07D4C00BF2046F0BD10B5014600220A6000224A6000228A600022CA60002281
:202700000A6100224A6110BDF0B583B00446029301920F46266803252D07AE43BD07AD08C1
:202720002E43266026680125AD06AE43019DED076D092E43266026680125ED06AE43029D14
:20274000ED072D092E43266003B0F0BDF0B583B004460E4615465E4B002C47D0002D45D0F9
:2027600003B4B7010121C90309197F182868F86003BC03B4B0010121C903091941186868FB
:202780000391049008680127FF02B84301460498C70703983F0D3943016003BC03B4B001E1
:2027A0000121C90309194118A86803910490086803273F02B8430146049887070398BF0DCA
:2027C0003943016003BC03B4B7010121C9030919781803900068EF6840004008FF073843F3
:2027E00001460398016003BC002300E03A4B00BF184603B0F0BDF0B502460B469C010125D1
:20280000ED03AD186419002525609C010125ED03AD1864190025A5609C010125ED03AD1845
:2028200064190025E5609C010125ED03AD1864190025A5619C010125ED03AD186419002577
:202840006561F0BD30B501460A680123DB071A430A6030BD30B501460A68520052080A60F9
:2028600030BD10B502465168C901C90D084610BD10B50246516A084610BD10B50246916AFF
:20288000084610BDF0B502460B469C010125ED03AD186419012525619C010125ED03AD18C6
:2028A00064192469F0BD70B502460B461468A40F012C04D305D0032C05D302D005E0D360AA
:2028C00004E0136102E0536100E000BF70BD00BF0F004E0000F0FF0001004E00F0B50246F7
:2028E0000B460126FF361D6894590126B44335402C43360294510127FF37D5595E68BD4348
:20290000F407E40D2543D5511127FF371E7AD459FF25AC433443D4511C693125FF355451A7
:20292000DC682125FF3554515C694125FF355451F0BD10B502464923FF33D158084610BD94
:20294000F0B583B005460F46C04E002F01D1012067E0002400BFA200301D002313500134FB
:202960000B2CF8D30020306028680121C907084328603968B86814F0BBF886B23968B868DF
:2029800014F0B6F8002901D001204AE00120FF30864201D8002E01D1012042E0721E286BE9
:2029A000FF2188431106090E08432863387B00281ED13968304614F09BF8020C0292030407
:2029C00001937A6802990198002313F039FD019002910198000A00026862286A012189071A
:2029E00088432862286A0121C9070843286214E0286A0090009801218907084300907A7BF9
:202A000000990720000481435007400B0143009100982862286A0028FCD528690028FCD580
:202A2000002003B0F0BD10B5014600220A6000220A6300224A6200220A620022E123DB0092
:202A4000CA500022E323DB00CA5010BDF0B586B007460C46154603937C4E002D01D101201D
:202A600078E00B2C01D3012074E02878012819D00398002801D101206CE0754AA0008118D2
:202A8000039A0A60724BA000C05869680160704BA000C058E9684160314601220868A24037
:202AA0001043086060010121C902C9194018006800902878012803D10098022108430090A8
:202AC00000980121084300906A780099012000048143D007C00B0143009100980121C907FC
:202AE0000843009009F036FF0290786904900021059160010121C902C91940186968049B17
:202B0000591841602878012808D160010121C902C9194018A968049B59188160029809F0E4
:202B20001DFF60010121C902C9194018009901600121A140E122D200B8580843B85028781C
:202B4000012806D10121A140E322D200B8580843B850002006B0F0BDF0B503460A46540122
:202B60000125ED02ED1864190025256054010125ED02ED1864190025656054010125ED02D4
:202B8000ED1864190025A560314D940000266651F0BDF0B585B004902E4904984058039041
:202BA00000242A480168039808400390039D0498072212028550815800912EE0E9072AD5EB
:202BC000049861010122D202121889184E6800271F4BA100C95800220968761857410498D7
:202BE00061010122D20212188A181168012081431160049861010122D202121889183246A9
:202C00004A60049861010122D20212188A1811680120014311606D080134002DCED1002460
:202C2000039D0EE0E9070AD5094AA10089584968002904D0064BA100C958496888476D08AC
:202C40000134002DEED105B0F0BD00BF100F0008140F00080C070000F0B586B004460B4657
:202C600015460027002C00D1C1E0002D00D1BEE02E68002E03D101269E40666002E001262C
:202C80009E40A66001B42E7A01A8C6706E48261A6E48F6090690360130180390042B01BCD5
:202CA0001AD203B4DEB2F6001F200790B0400690049805960068079006998843039002A8B2
:202CC000C078C006C00EB04007900646039806430498066003BC1AE003B41E1FF6B2F60024
:202CE0001F200790B0400690049805964068079006998843039002A8C078C006C00EB0409F
:202D000007900646039806430498466003BC03B40121A06C99400790069188436E690590C8
:202D2000F607F60F9E400643A66403BC03B40121E06C9940079006918843AE690590F60701
:202D4000F60F9E400643E66403BC03B45E001036E86903210490E06CB140884306910590A6
:202D6000014604988007800FB040079001430E46E66403BC03B49E0068680F210490606C7D
:202D8000B140884306910590014604980007000FB040079001430E46666403BC03B45E0095
:202DA000E86803210490206CB140884306910590014604988007800FB040079001430E467F
:202DC000266403BC666901269E406661666903B40121A06999400790069188432E69059060
:202DE000F607F60F9E400643A66103BC00E0184F3E46304606B0F0BDF0B581B002460B46D1
:202E00000024002A1AD0002B18D00F4D551BEE090E4D37017D19DF692F601F6A6F601F68C5
:202E200017601F6997645F69D764DF6857649F681764084F57615F68976100E0044C00BF54
:202E4000204601B0F0BD00BF000031400000304001005A00FF01000010B502461168002904
:202E600001D5002100E0204900BF084610BD70B581B003460C46DA69002A08D51B4D2A6803
:202E80006D4600922C80009A5A60002200E0164A00BF104601B070BDF0B581B004460D4625
:202EA00016462046FFF7D8FF002809D1E660104F3B686F4600933D80009BA360002300E093
:202EC000094B00BF184601B0F0BD70B503460C46DA69002A03D5DA682260002200E0024A0C
:202EE00000BF104670BD00BF01008A00206D0110246D0110F0B586B0B74A06460292002723
:202F0000B64A31781170B54B1978890071180231497804AB1980B14B1978890089198988DF
:202F200004AB598005AA01211170002500BFA90071180231097801228A4017430135EDB2D1
:202F4000022DF4D3002400BFA44BA5491A78944202D104AA0021515E01AA5180022201A9B8
:202F60008B5E3A46B01CA1004118204600F00FF80134E4B2022CE7D304A809F02DFB002025
:202F800004AA105E029909F06EFB06B0F0BDF0B585B0074604AC039263800E46FC003D19C0
:202FA000904CAD0064193578256075786560039DA5602568082D0AD38B498C48182211F000
:202FC00025FB8B48CA220260002009F01BFC02B488496D016D18256102BC6568082D0AD3E3
:202FE00085498248182211F011FB8148E5220260002009F007FC02B480496D016D1865616C
:2030000002BC03B4A568284603907D4803990068029002A84180058065690298A86003BCB3
:203020000025A56104AD6D88A58105B0F0BDF0B585B003900E460492684B724D0399C8000A
:20304000091889005818041D1978C800091889005818043001900198012341681F468F4063
:203060003F0461680120884002902169002925D00198816900291FD12069FFF7EDFE0028F3
:2030800018D13188316031683943316023693146D96001980121816101980499C1615A4884
:2030A000029A01686846009102802169009B8B60002304E0EB1C02E0EB1C00E02B46184694
:2030C00005B0F0BDF0B504460B46082B04D24F4D9A005451002200E04D4A00BF1046F0BD0F
:2030E00030B503463D4A1178C800091889005018021D136230BD10B538490878C200801817
:2031000080000818043000F001F810BDF0B583B004460021009100266169CD68290C0904EA
:2031200025D061692A0C12040A602169C96900291DD5226969461046FFF7C7FE002812D1ED
:2031400000990968090C09040E0C00990A7801920199082907D201992C4A89008F58002F28
:2031600001D00098B84720693146FFF780FE290412D061692A04120C0A60E169002904D09D
:20318000E16988470021E16104E0216A002901D0216A88470021A1616169096803B0F0BD32
:2031A00030B50E490878C2008018800009180C1D0C20205E09F07DFA002030BD30B50749D3
:2031C0000878C2008018800009180C1D0C20205E09F064FA002030BDF7300010400F0008AF
:2031E000FF030000440F00085C6D0110D00F0008CC0F0008000022402C6D01100010224050
:20320000286D011004028A008C6D01108C0F00080A028A00F0B582B0074600910192864E19
:20322000864DAC1C082F01D3AC1C56E00198002815D10098002812D1082F0AD380498148FA
:20324000182211F0E3F9804BCA201860002009F0D9FA7E4B7801C018306000243DE00198BA
:20326000002839D00098002836D00099C80631D1082F0AD372497348182211F0C7F9724BAC
:20328000CA201860002009F0BDFA704B7801C0183060009870600198B060009BDA08B068BA
:2032A000002112F0E2FE30680021FFF7E0FD3068321D0021FFF7F0FD002809D130680021D9
:2032C000FFF7D5FD002801D1002406E02C4604E02C4602E0AC1C00E0AC1C204602B0F0BD43
:2032E000F0B584B06A460390D170534D0027584C2A68D0680190019802680398904230D239
:203300000398460903987201821A0120904002906846C078002802D109F01CFB07462868C8
:20332000FFF79AFD002814D10198B20043680298D258024008D10198B200416802985358E5
:2033400003435350002400E0424C28680021FFF78EFD6846C078002804D1384609F0FEFA6E
:2033600000E03D4C204604B0F0BDF0B584B06A460390D170304D00210191354C2A68D06845
:20338000029002980268039890422ED20398460903987201821A01231F4697406846C07850
:2033A000002802D109F0D6FA01902868FFF754FD002812D102984368B200D2583A4007D064
:2033C00002984168B2005358BB435350002400E0204C28680021FFF74AFD6846C078002840
:2033E00004D1019809F0BAFA00E01B4C204604B0F0BDF0B50246194D0F4B1968CC682168B9
:203400008A420ED253095901511A01273E468E4067689900C959314001D0691C02E02946C3
:2034200000E00D4900BF0846F0BD00B5024A1068C168086800BD00BFAC0F000801018A00BF
:20344000906D0110D00F0008CC0F000800002240030188000201880004018A000001880003
:2034600070B581B001460023C94C22680092002901D1C84A35E00A68520052080A6000228F
:203480008424625000228824625080256A58FF242402A2436A50009A520052080092009A91
:2034A0000324A243012422430092009A102422430092009A03242402A2430124FF34224396
:2034C0000092009A1F242404A2430324A40422430092009A0124A40722430092009A0A6045
:2034E0001A46104601B070BDF0B582B006460A46A84D0023002E01D0002A01D12B4663E0FE
:203500001478002C07D094780D2C02D394781F2C01D92B4658E094781F2C01D92B4653E053
:203520009D4F3C68009401B41779019C03208443BF07BF0F3C43019401BC54780194009F36
:203540001024A743019CE407E40E274300979478013C0194009F1F242404A743019CE40679
:20356000E40A27430097D4780194009F03242402A743019CA407A40D27430097009C0127E7
:203580003F06BC430094009C0127FF073C43009454790194009F0124A407A743019CE40733
:2035A000640827430097009C0127FF06BC430094009C01273F07BC430094009C01277F075B
:2035C000BC430094009C346000BF184602B0F0BDF0B583B003460E466E4F0024002B01D05A
:2035E000002E01D13C4624E01A69920520D49A6892051DD45A685207520F551C8422D258F0
:2036000000928822D258019200220EE0042A05D203B402A9885CB05403BC04E001B401A851
:20362000805CB05401BC0132D2B2AA42EED300E07C1C00BF204603B0F0BDF0B585B0054667
:203640006B460F46DA70534E0024544B1B680193534B1B680293002D01D0002F01D1344670
:2036600034E06B46DB78082B01D934462EE0AB68DB052AD4002315E0042B09D203B4F85C7F
:2036800003A90690059108460699C15403BC07E003B403A81818F95C05900691017003BC67
:2036A0000133DBB201B401A8C078834201BCE3D303B4039984200691415103BC03B4049948
:2036C00088200691415103BC00E0741C00BF204605B0F0BD70B502460021002A01D12D4963
:2036E00004E013680124E4072343136000BF084670BD70B502460021002A01D1254903E06D
:2037000013685B005B08136000BF084670BDF0B503460D460022002B01D11E4A0CE01F2DC3
:2037200001D91C4A08E01E686F1E1F242404A643FC06E40A26431E6000BF1046F0BDF0B5BC
:2037400003460E460022002B01D1124A07E05D680124FF34A543F407E40D25435D6000BF95
:203760001046F0BDF0B503460C460022002B03D0082C01D8002C01D1064A06E0661E5D685C
:203780000727BD433E4035435D6000BF1046F0BDC06D01100100DE00C46D0110C86D0110E1
:2037A000CC6D0110F0B582B005460B466E4C0126FF3600222F690097002D01D1224620E07E
:2037C00001B4771C38461F40874201BC04D05F0704D5664F1F4001D0224612E0009FFF0747
:2037E00001D5DF050AD4009FFF0501D5DF0705D4009F7F0704D55D4F1F4001D0621C00E0C1
:203800002B6100BF104602B0F0BDF0B582B005460A460024002D01D03F2A01D9524C26E02D
:20382000531053409610734016117340DF076B46FF0FDF705310D61073401611734056112E
:203840007340DB43DF07FF0F6B46DB789E011643FB013343DBB203B480267659FF218E438B
:203860001806000E039006438020465103BC00BF204602B0F0BDF0B581B005460E461746F4
:203880000023002D03D0002E01D0002F01D1364B0CE0802464592406240E01B4A0113870CD
:2038A00001BC01B4A006800E307001BC00BF184601B0F0BD70B503460C460022002B01D1AB
:2038C000294A01E0C825EC5000BF104670BDF0B503460C460022002B01D0002C01D1224A61
:2038E00002E0C826F558256000BF1046F0BDF0B503460C460022002B01D0002C01D11A4AA4
:2039000002E0CC26F558256000BF1046F0BDF0B503460C460022002B01D0002C01D1124A87
:2039200002E0C026F558256000BF1046F0BD70B503460C460022002B01D10B4A01E0C02531
:20394000EC5000BF104670BDF0B503460C460022002B01D0002C01D1034A01E09D682560D5
:2039600000BF1046F0BD00BF0100DE0003030000F0B503460C4600222578012D17D3022D9B
:2039800004D9042D02D0082D01D010E011E0002B06D1094F0126F6033D6835433D6005E047
:2039A000064F0126F6033D6835433D6001E0044A00BF00BF1046F0BD2010264024102640F8
:2039C000FF004200F0B583B005460C46CB4E002D00D1EAE0002C00D1E7E008F0BBFF024692
:2039E000902317465A5903239A4301231A4390235A515A5903239A4302231A4390233846B9
:203A00005A5108F0ABFFBE4B1A680092BD4B1A680192227F2A646A682388120C12041A43E2
:203A20006A60AA686388120C12041A43AA60EA68A388120C12041A43EA60A379009A0327EC
:203A4000BA433B401A430092A379009A0327BA433B401A430092E779009B30229343BA07D4
:203A6000920E13430093277A009B0122FF329343FA07D20D13430093677A009B01221203DA
:203A80009343FA07D20C13430093A77A009B012292079343FA07520813430093009BE77AFA
:203AA0005B005B08FA0713430093009A2A612B4620335A68A789120C12043A435A602B46A7
:203AC00020339A68E789120C12043A439A602B462033DA68278A120C12043A43DA60A37CB5
:203AE000009A0327BA433B401A430092E77C009B30229343BA07920E13430093277D009BEC
:203B00000122FF329343FA07D20D13430093677D009B012212039343FA07D20C134300935D
:203B2000A77D009B012292079343FA07520813430093009BE77D5B005B08FA071343009349
:203B40002A462032009B1361277E019B1F2212049343FA06D20A13430193637E019A0127BC
:203B6000BA433B401A430192A77E019B012292079343FA07520813430193019BE77E5B00E9
:203B80005B08FA0713430193019A84235A5108F0E1FE0246902317465A5903231A439023D2
:203BA00038465A5108F0DAFE00263246104603B0F0BDF0B5044608F0CDFE014690220D46BA
:203BC00011590322914301221143902211511159032291430222114390222846115108F0A2
:203BE000BDFE002600BF7101091900220A600136022EF8D3002180221151002500BF690160
:203C0000091909680029FAD16901091900224A606901091900228A60690109190022CA6055
:203C20006901091900220A616901091900224A610135022DE3D3882211590029FBD10021CD
:203C400021640021842211510321942211510021C943A02211510021A822115108F07AFE6C
:203C6000014690220F4611590322114390223846115108F073FEF0BDF0B504460D4608F031
:203C800069FE0246902316461A5903239A4301231A4390231A511A5903239A4302231A4359
:203CA000902330461A5108F059FE0122AA40D20705D594231A5901231A4394231A51012271
:203CC000AA40920705D594231A5902231A4394231A510122AA405207002008F08AFD08F0BC
:203CE00039FE0246902316461A5903231A43902330461A5108F032FEF0BD00BF0100D60041
:203D0000D06D0110D46D0110F0B584B06C4606466170A270E3700A4D2C68002C01D10127E5
:203D200074E0002E01D1012770E02C68FF273F023C406F467F78240AA74203D9012765E034
:203D400090ED00E0BFF35F8F00246C60002446E0AC606F467F78BC423CD2A7003F1BFF0068
:203D6000BF193F683F0A3F02EF60A7003F1BFF00BF193F790E2F02D20027019706E0A700FE
:203D80003F1BFF00BF193F7D3F02019701B4A7003F1BFF00B819A70004973F1BFF00BF1964
:203DA0000390BF68007907430397A000071BFF00BF19FF68039807430397A000071BFF00AC
:203DC000BF1904907F7D03980743029807432F6101BC03E00027EF6000272F61013402B46A
:203DE0002F68FF2109020F403F0ABC4202BCAFD303B402A9CF7889780F43012007436F60F5
:203E000003BCBFF34F8FBFF36F8F0027384604B0F0BDF0B504460F46094D2A68002A01D175
:203E200001222EE0002C01D101222AE02A68FF231B021A40120A974204D9012221E000BF46
:203E400090ED00E0BFF35F8FAF602268120A1202EA6022790E2A01D2002602E0237D1E46A0
:203E60003602A26823791A43E3681A4323691A43637D1A4332432A61BFF34F8FBFF36F8FF9
:203E800000221046F0BDF0B502460E46184D2B68002B01D1012427E0002A01D1012423E077
:203EA0002B68FF24240223401B0A9E4201D901241AE0AE60EB681B0A1B0213602B691C0AF5
:203EC00014751C0C24041471072424061C4094603F2424041C40D460012424071C401461A3
:203EE000DC07E40F547500242046F0BD00B501E090ED00E0BFF34F8F034908680121084340
:203F00000149086002E000BF94ED00E0BFF34F8FBFF36F8F00BD00B5BFF34F8F02490868F0
:203F200040084000086001E094ED00E0BFF34F8FBFF36F8F00BD30B50246084B1968042429
:203F40000C402346537002240C4023469370CB07DB0F137030BD30B5044601E094ED00E06E
:203F6000BFF34F8F617822781143A278014B1143196001E094ED00E0BFF34F8FBFF36F8F35
:203F800030BD0000F0B584B06C466070A170E2701F460024E24E356801956D466D78E14EC3
:203FA000AD00AE19FD09ED0101D0DF4C30E001B401ADED786D4201350495029D02208543BE
:203FC0000498C007800F04900543029501BC01B4029D0120854301A880780543029501BC45
:203FE00003B4039DED03E80B7D041121059128430490039003BC019D356003B430680399CF
:20400000049005910025884203BC00D0C74D2C4600BF204604B0F0BDF0B582B007460B4677
:204020000022C34D2C680094C24EBC02A519072B01D9BD4A18E0009C0F26B4431E07360F5D
:2040400034430094009E0F242404A6431C07240B26430096009C2C602C6800262407240FE2
:204060009C4200D0B14E324600BF104602B0F0BD70B50346AF4C99020A1911680907090FDF
:20408000084670BDF0B588B005460C46002668462022002111F0E9FF62796B461A7022686B
:2040A000009B120A1B061B0E1202134300932779019B1F2212069343FA06D20813430193D3
:2040C000227A5242571C019B40229343FA07520E13430193A279D307DB0F019A0127BA437F
:2040E0001A430192A2799207D30F019A0227BA435B001A430192A2795207D30F019A042712
:20410000BA439B001A430192E279D7073F0F019B082293433B430193E2799207D70F019B6C
:20412000102293433A0113430193E2795207D70F019B202293437A0113430193019A6A603A
:20414000009A2A60009F2B680022BB4203D16B68019FBB4200D0754A16463246104608B035
:20416000F0BD70B50246002153680124E4072343536054680023002C00D46C4B194600BF6C
:20418000084670BD70B50246002153685B005B08536054680023002C00D5644B194600BF3D
:2041A000084670BDF0B581B005460A460023624E346800945489E409E40101D05A4B57E0B4
:2041C0005E4C009E5789A6437C04240A26430096577A009E0124A407A643FC076408264321
:2041E0000096147A6442671C009E4024A643FC07640E264300969479E607F60F009C012750
:20420000BC43344300949479A407E60F009C0227BC4376003443009494796407E60F009C99
:204220000427BC43B60034430094D479E7073F0F009E0824A6433E430096D479A407E70F52
:20424000009E1024A6433C0126430096D4796407E70F009E2024A6437C0126430096009CD6
:204260006C62009F6E6A0024BE4200D02F4C234600BF184601B0F0BDF0B582B004460A4635
:2042800000232F4E356800952E4E356801955589ED09ED0101D0244B8CE055796E46357008
:2042A0001568009E2D0A3606360E2D022E430096019D0126FF3635430195157A6D426F1C25
:2042C000019E4025AE43FD076D0E2E4301961B4D019E5789AE437D042D0A2E43019617793A
:2042E000019E1F252D06AE43FD06ED082E430196577A019E0125AD07AE43FD076D082E4392
:2043000001969579EE07F60F019D0127BD43354301959579AD07EE0F019D022714E000BFF1
:20432000D86D0110000023400100C2000300C200DC6D011000402340E06D011000FEFF00E4
:20434000E46D0110E86D0110BD4376003543019595796D07EE0F019D0427BD43B60035439B
:204360000195D579EF073F0F019E0825AE433E430196D579AD07EF0F019E1025AE433D013D
:204380002E430196D5796D07EF0F019E2025AE437D012E430196019D6560009D2560009FD6
:2043A00026680025BE4203D16668019FBE4200D0E94D2B4600BF184602B0F0BD70B50246A8
:2043C0000021536A0124E40723435362546A0023002C00D4E04B194600BF084670BD70B50A
:2043E00002460021536A5B005B085362546A0023002C00D5D84B194600BF084670BD70B561
:204400000246002153680124E4072343536054680023002C00D4D04B194600BF084670BDBC
:2044200070B50246002153685B005B08536054680023002C00D5C84B194600BF084670BD36
:20444000F0B587B06B46D97004461346C34E0025C34F3F680197C34F3F680297C24F3F6852
:204460000397C24F3F6804976F46FF78102F02D3374600F0FCFD6F46FF780F2F01D900F075
:20448000F3FD384601A14000095A8F441E00DE00980152022803E6039E0456050E06CC06B6
:2044A00084073C08F408B2096A0A220B276B019701B41F78FF07FF0F0797029F0120874321
:2044C0000798C007C00F07900743029701BC01B41F78BF07FF0F0797029F02208743079886
:2044E000C007800F07900743029701BC01B45F78FF07FF0F0797029F042087430798C007FC
:20450000400F07900743029701BC01B45F78BF07FF0F079702980827B84306900798C70750
:2045200006983F0F07430697029701BC01B49F787F420137079702981027B84306900798EE
:20454000C7070698FF0E07430697029701BC019F276303B4206B039907900891002788427C
:2045600003BC00D0B71C3D4600F080FD276B019703B41F780398FF07F90D0127FF37B84371
:204580000F460821089138430790039003BC03B41F780398BF07F90F01277F02B8434F02F4
:2045A0000921089138430790039003BC03B45F780398FF07790D0127BF02B8430F460A21BB
:2045C000089138430790039003BC03B45F780398BF07F90F0127FF02B843CF020B2108912D
:2045E00038430790039003BC03B49F7803987F42791C01273F03B843CF07FF0C0C2108918C
:2046000038430790039003BC019F276303B4206B0399079008910027884203BC00D0B71CAB
:204620003D4600F023FD276B019703B41F780398FF07F90B01273F04B8430F461021089145
:2046400038430790039003BC03B41F780398BF07F90F01277F04B8434F0411210891384300
:204660000790039003BC03B45F780398FF07790B0127BF04B8430F46122108913843079085
:20468000039003BC03B45F780398BF07F90F0127FF04B843CF041321089138430790039066
:2046A00003BC03B49F7803987F42791C01273F05B843CF07FF0A14210891384307900390C3
:2046C00003BC019F276303B4206B0399079008910027884203BC00D0B71C3D4600F0C6FC5B
:2046E000276B019703B41F780398FF07F90901273F06B8430F46182108913843079003906B
:2047000003BC03B41F780398BF07F90F01277F06B8434F061921089138430790039003BCEF
:2047200003B45F780398FF0779090127BF06B8430F461A21089138430790039003BC03B49C
:204740005F780398BF07F90F0127FF06B843CF061B2108910CE000BF0300C2000100C20014
:20476000EC6D0110F06D0110F46D0110F86D011038430790039003BC03B49F7803987F42EB
:20478000791C01273F07B843CF07FF081C21089138430790039003BC019F276303B4206B98
:2047A0000399079008910027884203BC00D0B71C3D4600F05BFC676B029701B41F78FF0753
:2047C000FF0F0797039F012087430798C007C00F07900743039701BC01B41F78BF07FF0F13
:2047E0000797039F022087430798C007800F07900743039701BC01B45F78FF07FF0F079722
:20480000039F042087430798C007400F07900743039701BC01B45F78BF07FF0F0797039882
:204820000827B84306900798C70706983F0F07430697039701BC01B49F787F4201370797BE
:2048400003981027B84306900798C7070698FF0E07430697039701BC029F676303B4606BB2
:204860000499079008910027884203BC00D0B71C3D46FBE3676B029703B41F780498FF075C
:20488000F90D0127FF37B8430F460821089138430790049003BC03B41F780498BF07F90F85
:2048A00001277F02B8434F020921089138430790049003BC03B45F780498FF07790D0127FD
:2048C000BF02B8430F460A21089138430790049003BC03B45F780498BF07F90F0127FF027D
:2048E000B843CF020B21089138430790049003BC03B49F7804987F42791C01273F03B8439D
:20490000CF07FF0C0C21089138430790049003BC029F676303B4606B0499079008910027AA
:20492000884203BC00D0B71C3D469FE3676B029703B41F780498FF07F90B01273F04B84381
:204940000F461021089138430790049003BC03B41F780498BF07F90F01277F04B8434F0422
:204960001121089138430790049003BC03B45F780498FF07790B0127BF04B8430F461221E5
:20498000089138430790049003BC03B45F780498BF07F90F0127FF04B843CF04132108915B
:2049A00038430790049003BC03B49F7804987F42791C01273F05B843CF07FF0A14210891BE
:2049C00038430790049003BC029F676303B4606B0499079008910027884203BC00D0B71C65
:2049E0003D4643E3676B029703B41F780498FF07F90901273F06B8430F46182108913843A7
:204A00000790049003BC03B41F780498BF07F90F01277F06B8434F06192108913843079012
:204A2000049003BC03B45F780498FF0779090127BF06B8430F461A210891384307900490BA
:204A400003BC03B45F780498BF07F90F0127FF06B843CF061B21089138430790049003BC68
:204A600003B49F7804987F42791C01273F07B843CF07FF081C21089138430790049003BCF5
:204A8000029F676303B4606B0499079008910027884203BC00D0B71C3D46E7E2A76B039711
:204AA00001B41F78FF07FF0F0797049F012087430798C007C00F07900743049701BC01B447
:204AC0001F78BF07FF0F0797049F022087430798C007800F07900743049701BC01B45F7884
:204AE000FF07FF0F0797049F042087430798C007400F07900743049701BC01B45F78BF0733
:204B0000FF0F079704980827B84306900798C70706983F0F07430697049701BC01B49F7829
:204B20007F420137079704981027B84306900798C7070698FF0E07430697049701BC039F81
:204B4000A76303B4A06B0599079008910027884203BC00D0B71C3D4688E2A76B039703B418
:204B60001F780598FF07F90D0127FF37B8430F460821089138430790059003BC03B41F78D1
:204B80000598BF07F90F01277F02B8434F020921089138430790059003BC03B45F78059861
:204BA000FF07790D0127BF02B8430F460A21089138430790059003BC03B45F780598BF0715
:204BC000F90F0127FF02B843CF020B21089138430790059003BC03B49F7805987F42791CEC
:204BE00001273F03B843CF07FF0C0C21089138430790059003BC039FA76303B4A06B059937
:204C0000079008910027884203BC00D0B71C3D462CE2A76B039703B41F780598FF07F90BDF
:204C200001273F04B8430F461021089138430790059003BC03B41F780598BF07F90F0127A8
:204C40007F04B8434F041121089138430790059003BC03B45F780598FF07790B0127BF04B2
:204C6000B8430F461221089138430790059003BC03B45F780598BF07F90F0127FF04B84393
:204C8000CF041321089138430790059003BC03B49F7805987F42791C01273F05B843CF0710
:204CA000FF0A1421089138430790059003BC039FA76303B4A06B059907900891002788428A
:204CC00003BC00D0B71C3D46D0E1A76B039703B41F780598FF07F90901273F06B8430F46E2
:204CE0001821089138430790059003BC03B41F780598BF07F90F01277F06B8434F0619218C
:204D0000089138430790059003BC03B45F780598FF0779090127BF06B8430F461A210891D0
:204D200038430790059003BC03B45F780598BF07F90F0127FF06B843CF061B2108913843C7
:204D40000790059003BC03B49F7805987F42791C01273F07B843CF07FF081C210891384310
:204D60000790059003BC039FA76303B4A06B0599079008910027884203BC00D0B71C3D4636
:204D800074E1E76B049701B41F78FF07FF0F0797059F012087430798C007C00F079007432E
:204DA000059701BC01B41F78BF07FF0F0797059F022087430798C007800F079007430597DA
:204DC00001BC01B45F78FF07FF0F0797059F042087430798C007400F07900743059701BC57
:204DE00001B45F78BF07FF0F079705980827B84306900798C70706983F0F0743069705977C
:204E000001BC01B49F787F420137079705981027B84306900798C7070698FF0E074306970E
:204E2000059701BC049FE76303B4E06B0699079008910027884203BC00D0B71C3D4615E18F
:204E4000E76B049703B41F780698FF07F90D0127FF37B8430F460821089138430790069055
:204E600003BC03B41F780698BF07F90F01277F02B8434F020921089138430790069003BC9A
:204E800003B45F780698FF07790D0127BF02B8430F460A21089138430790069003BC03B43F
:204EA0005F780698BF07F90F0127FF02B843CF020B21089138430790069003BC03B49F78C0
:204EC00006987F42791C01273F03B843CF07FF0C0C21089138430790069003BC049FE7637E
:204EE00003B4E06B0699079008910027884203BC00D0B71C3D46B9E0E76B049703B41F7837
:204F00000698FF07F90B01273F04B8430F461021089138430790069003BC03B41F78069811
:204F2000BF07F90F01277F04B8434F041121089138430790069003BC03B45F780698FF0746
:204F4000790B0127BF04B8430F461221089138430790069003BC03B45F780698BF07F90F65
:204F60000127FF04B843CF041321089138430790069003BC03B49F7806987F42791C01271A
:204F80003F05B843CF07FF0A1421089138430790069003BC049FE76303B4E06B0699079099
:204FA00008910027884203BC00D0B71C3D465DE0E76B049703B41F780698FF07F90901273C
:204FC0003F06B8430F461821089138430790069003BC03B41F780698BF07F90F01277F069C
:204FE000B8434F061921089138430790069003BC03B45F780698FF0779090127BF06B8438B
:205000000F461A21089138430790069003BC03B45F780698BF07F90F0127FF06B843CF0609
:205020001B21089138430790069003BC03B49F7806987F42791C01273F07B843CF07FF082C
:205040001C21089138430790069003BC049FE76303B4E06B0699079008910027884203BCA5
:2050600000D0B71C3D4601E0374600E02F46384607B0F0BDF0B587B06B46D97004461346FC
:20508000F14E0025F14F3F680197F14F3F680297F04F3F680397F04F3F6804976F46FF7880
:2050A000102F02D3374600F0FAFD6F46FF780F2F01D900F0F1FD384601A14000095A8F44C0
:2050C0001E00DE00980152020C03E2039A0452050A06C80680073808F008AE09660A1E0B11
:2050E0002769019701B41F78FF07FF0F0797029F012087430798C007C00F0790074302974F
:2051000001BC01B41F78BF07FF0F0797029F022087430798C007800F07900743029701BC5B
:2051200001B45F78FF07FF0F0797029F042087430798C007400F07900743029701BC01B401
:205140005F78BF07FF0F079702980827B84306900798C70706983F0F07430697029701BC16
:2051600001B49F787F420137079702981027B84306900798C7070698FF0E074306970297D2
:2051800001BC019F276103B420690399079008910027884203BC00D0B71C3D4600F07EFDDD
:2051A0002769019703B41F780398FF07F90D0127FF37B8430F4608210891384307900390BD
:2051C00003BC03B41F780398BF07F90F01277F02B8434F020921089138430790039003BC3D
:2051E00003B45F780398FF07790D0127BF02B8430F460A21089138430790039003BC03B4E2
:205200005F780398BF07F90F0127FF02B843CF020B21089138430790039003BC03B49F7862
:2052200003987F42791C01273F03B843CF07FF0C0C21089138430790039003BC019F2761E5
:2052400003B420690399079008910027884203BC00D0B71C3D4600F021FD2769019703B47F
:205260001F780398FF07F90B01273F04B8430F461021089138430790039003BC03B41F78BB
:205280000398BF07F90F01277F04B8434F041121089138430790039003BC03B45F78039854
:2052A000FF07790B0127BF04B8430F461221089138430790039003BC03B45F780398BF070A
:2052C000F90F0127FF04B843CF041321089138430790039003BC03B49F7803987F42791CDD
:2052E00001273F05B843CF07FF0A1421089138430790039003BC019F276103B42069039932
:20530000079008910027884203BC00D0B71C3D4600F0C4FC2769019703B41F780398FF07C0
:20532000F90901273F06B8430F461821089138430790039003BC03B41F780398BF07F90FC1
:2053400001277F06B8434F061921089138430790039003BC03B45F780398FF077909012740
:20536000BF06B8430F461A21089138430790039003BC03B45F780398BF07F90F0127FF06BC
:20538000B843CF061B21089138430790039003BC03B49F7803987F42791C01273F07B843DC
:2053A000CF07FF081C21089138430790039003BC019F276103B4206903990790089100277B
:2053C000884203BC00D0B71C3D4600F067FC6769029701B41F78FF07FF0F0797039F0120A1
:2053E00087430798C007C00F07900743039701BC01B41F78BF07FF0F0797039F022087432A
:205400000798C007800F07900743039701BC01B45F78FF07FF0F0797039F042087430798F2
:20542000C007400F07900743039701BC01B45F78BF07FF0F079703980827B8430690079826
:20544000C70706980AE000BF0100C200FC6D0110006E0110046E0110086E01103F0F0743D9
:205460000697039701BC01B49F787F420137079703981027B84306900798C7070698FF0E5A
:2054800007430697039701BC029F676103B460690499079008910027884203BC00D0B71CC5
:2054A0003D46FBE36769029703B41F780498FF07F90D0127FF37B8430F4608210891384341
:2054C0000790049003BC03B41F780498BF07F90F01277F02B8434F02092108913843079060
:2054E000049003BC03B45F780498FF07790D0127BF02B8430F460A21089138430790049000
:2055000003BC03B45F780498BF07F90F0127FF02B843CF020B21089138430790049003BCB5
:2055200003B49F7804987F42791C01273F03B843CF07FF0C0C21089138430790049003BC3A
:20554000029F676103B460690499079008910027884203BC00D0B71C3D469FE367690297D4
:2055600003B41F780498FF07F90B01273F04B8430F461021089138430790049003BC03B496
:205580001F780498BF07F90F01277F04B8434F041121089138430790049003BC03B45F7853
:2055A0000498FF07790B0127BF04B8430F461221089138430790049003BC03B45F7804982F
:2055C000BF07F90F0127FF04B843CF041321089138430790049003BC03B49F7804987F42A7
:2055E000791C01273F05B843CF07FF0A1421089138430790049003BC029F676103B46069B4
:205600000499079008910027884203BC00D0B71C3D4643E36769029703B41F780498FF0768
:20562000F90901273F06B8430F461821089138430790049003BC03B41F780498BF07F90FBC
:2056400001277F06B8434F061921089138430790049003BC03B45F780498FF07790901273B
:20566000BF06B8430F461A21089138430790049003BC03B45F780498BF07F90F0127FF06B7
:20568000B843CF061B21089138430790049003BC03B49F7804987F42791C01273F07B843D7
:2056A000CF07FF081C21089138430790049003BC029F676103B460690499079008910027F5
:2056C000884203BC00D0B71C3D46E7E2A769039701B41F78FF07FF0F0797049F012087431C
:2056E0000798C007C00F07900743049701BC01B41F78BF07FF0F0797049F02208743079850
:20570000C007800F07900743049701BC01B45F78FF07FF0F0797049F042087430798C007C5
:20572000400F07900743049701BC01B45F78BF07FF0F079704980827B84306900798C7071A
:2057400006983F0F07430697049701BC01B49F787F420137079704981027B84306900798B8
:20576000C7070698FF0E07430697049701BC039FA76103B4A0690599079008910027884248
:2057800003BC00D0B71C3D4688E2A769039703B41F780598FF07F90D0127FF37B8430F466B
:2057A0000821089138430790059003BC03B41F780598BF07F90F01277F02B8434F020921E9
:2057C000089138430790059003BC03B45F780598FF07790D0127BF02B8430F460A21089116
:2057E00038430790059003BC03B45F780598BF07F90F0127FF02B843CF020B210891384315
:205800000790059003BC03B49F7805987F42791C01273F03B843CF07FF0C0C210891384355
:205820000790059003BC039FA76103B4A0690599079008910027884203BC00D0B71C3D466F
:205840002CE2A769039703B41F780598FF07F90B01273F04B8430F46102108913843079004
:20586000059003BC03B41F780598BF07F90F01277F04B8434F0411210891384307900590B0
:2058800003BC03B45F780598FF07790B0127BF04B8430F461221089138430790059003BC27
:2058A00003B45F780598BF07F90F0127FF04B843CF041321089138430790059003BC03B40C
:2058C0009F7805987F42791C01273F05B843CF07FF0A1421089138430790059003BC039FA2
:2058E000A76103B4A0690599079008910027884203BC00D0B71C3D46D0E1A769039703B42A
:205900001F780598FF07F90901273F06B8430F461821089138430790059003BC03B41F7808
:205920000598BF07F90F01277F06B8434F061921089138430790059003BC03B45F7805989B
:20594000FF0779090127BF06B8430F461A21089138430790059003BC03B45F780598BF0757
:20596000F90F0127FF06B843CF061B21089138430790059003BC03B49F7805987F42791C26
:2059800001273F07B843CF07FF081C21089138430790059003BC039FA76103B4A06905997D
:2059A000079008910027884203BC00D0B71C3D4674E1E769049701B41F78FF07FF0F0797A3
:2059C000059F012087430798C007C00F07900743059701BC01B41F78BF07FF0F0797059F67
:2059E000022087430798C007800F07900743059701BC01B45F78FF07FF0F0797059F042086
:205A000087430798C007400F07900743059701BC01B45F78BF07FF0F079705980827B84308
:205A200006900798C70706983F0F07430697059701BC01B49F787F42013707970598102700
:205A4000B84306900798C7070698FF0E07430697059701BC049FE76103B4E069069907903C
:205A600008910027884203BC00D0B71C3D4615E1E769049703B41F780698FF07F90D0127B6
:205A8000FF37B8430F460821089138430790069003BC03B41F780698BF07F90F01277F02F4
:205AA000B8434F020921089138430790069003BC03B45F780698FF07790D0127BF02B843D4
:205AC0000F460A21089138430790069003BC03B45F780698BF07F90F0127FF02B843CF0257
:205AE0000B21089138430790069003BC03B49F7806987F42791C01273F03B843CF07FF0C72
:205B00000C21089138430790069003BC049FE76103B4E0690699079008910027884203BCEE
:205B200000D0B71C3D46B9E0E769049703B41F780698FF07F90B01273F04B8430F461021D9
:205B4000089138430790069003BC03B41F780698BF07F90F01277F04B8434F0411210891C7
:205B600038430790069003BC03B45F780698FF07790B0127BF04B8430F4612210891384386
:205B80000790069003BC03B45F780698BF07F90F0127FF04B843CF04132108913843079047
:205BA000069003BC03B49F7806987F42791C01273F05B843CF07FF0A1421089138430790A8
:205BC000069003BC049FE76103B4E0690699079008910027884203BC00D0B71C3D465DE0A3
:205BE000E769049703B41F780698FF07F90901273F06B8430F46182108913843079006908F
:205C000003BC03B41F780698BF07F90F01277F06B8434F061921089138430790069003BCD4
:205C200003B45F780698FF0779090127BF06B8430F461A21089138430790069003BC03B481
:205C40005F780698BF07F90F0127FF06B843CF061B21089138430790069003BC03B49F78FA
:205C600006987F42791C01273F07B843CF07FF081C21089138430790069003BC049FE761C2
:205C800003B4E0690699079008910027884203BC00D0B71C3D4601E0374600E02F4638462E
:205CA00007B0F0BDF0B582B002460D460023E24E34680094E14E34680194146800942C6887
:205CC000009EA7080324E443A643BC0026430096009C1460546801942F79019E1F24240670
:205CE000A643FC06E40826430196019C546054680027E400019EE40EF600F60EB44203D160
:205D00001468009EB44200D0CD4F3B4600BF184602B0F0BD70B502460021536A0124E4072F
:205D200023435362546A0023002C00D4C44B194600BF084670BD70B502460021536A5B0019
:205D40005B085362546A0023002C00D5BC4B194600BF084670BD70B502460021536801243B
:205D6000E4072343536054680023002C00D4B44B194600BF084670BD70B50246002153685F
:205D80005B005B08536054680023002C00D5AC4B194600BF084670BDF0B587B06B46D9704C
:205DA00004461346A74E0025A74F3F680197A74F3F680297A64F3F680397A64F3F6804974E
:205DC0006F46FF78102F02D3374600F0FEFD6F46FF780F2F01D900F0F5FD384601A1400095
:205DE000095A8F441E00DE00980172022C03EA03A2045A051206D00688074008F808B609BF
:205E00006E0A260B276B019701B41F78FF07FF0F0797029F012087430798C007C00F079059
:205E20000743029701BC01B41F78BF07FF0F0797029F022087430798C007800F07900743A1
:205E4000029701BC01B45F78FF07FF0F0797029F042087430798C007400F079007430297F0
:205E600001BC01B45F78BF07FF0F079702980827B84306900798C70706983F0F07430697CD
:205E8000029701BC01B49F787F420137079702981027B84306900798C7070698FF0E074385
:205EA0000697029701BC019F276303B4206B0399079008910027884203BC00D0B71C3D46E1
:205EC00000F082FD276B019703B41F780398FF07F90D0127FF37B8430F4608210891384349
:205EE0000790039003BC03B41F780398BF07F90F01277F02B8434F02092108913843079038
:205F0000039003BC03B45F780398FF07790D0127BF02B8430F460A210891384307900390D8
:205F200003BC03B45F780398BF07F90F0127FF02B843CF020B21089138430790039003BC8D
:205F400003B49F7803987F42791C01273F03B843CF07FF0C0C21089138430790039003BC12
:205F6000019F276303B4206B0399079008910027884203BC00D0B71C3D4600F025FD276B6F
:205F8000019703B41F780398FF07F90B01273F04B8430F461021089138430790039003BC8D
:205FA00003B41F780398BF07F90F01277F04B8434F041121089138430790039003BC03B44B
:205FC0005F780398FF07790B0127BF04B8430F461221089138430790039003BC03B45F78CC
:205FE0000398BF07F90F0127FF04B843CF041321089138430790039003BC03B49F780398A5
:206000007F42791C01273F05B843CF07FF0A1421089138430790039003BC019F276303B4D1
:20602000206B0399079008910027884203BC00D0B71C3D4600F0C8FC0C6E0110106E011065
:206040000300C2000100C200146E0110186E01101C6E0110206E0110276B019703B41F78DC
:206060000398FF07F90901273F06B8430F461821089138430790039003BC03B41F780398A1
:20608000BF07F90F01277F06B8434F061921089138430790039003BC03B45F780398FF07CF
:2060A00079090127BF06B8430F461A21089138430790039003BC03B45F780398BF07F90FF2
:2060C0000127FF06B843CF061B21089138430790039003BC03B49F7803987F42791C0127A3
:2060E0003F07B843CF07FF081C21089138430790039003BC019F276303B4206B03990790A9
:2061000008910027884203BC00D0B71C3D4600F05BFC676B029701B41F78FF07FF0F079760
:20612000039F012087430798C007C00F07900743039701BC01B41F78BF07FF0F0797039F05
:20614000022087430798C007800F07900743039701BC01B45F78FF07FF0F0797039F042022
:2061600087430798C007400F07900743039701BC01B45F78BF07FF0F079703980827B843A5
:2061800006900798C70706983F0F07430697039701BC01B49F787F4201370797039810279D
:2061A000B84306900798C7070698FF0E07430697039701BC029F676303B4606B04990790D7
:2061C00008910027884203BC00D0B71C3D46FBE3676B029703B41F780498FF07F90D0127E9
:2061E000FF37B8430F460821089138430790049003BC03B41F780498BF07F90F01277F0291
:20620000B8434F020921089138430790049003BC03B45F780498FF07790D0127BF02B84370
:206220000F460A21089138430790049003BC03B45F780498BF07F90F0127FF02B843CF02F3
:206240000B21089138430790049003BC03B49F7804987F42791C01273F03B843CF07FF0C0E
:206260000C21089138430790049003BC029F676303B4606B0499079008910027884203BC89
:2062800000D0B71C3D469FE3676B029703B41F780498FF07F90B01273F04B8430F4610210B
:2062A000089138430790049003BC03B41F780498BF07F90F01277F04B8434F041121089164
:2062C00038430790049003BC03B45F780498FF07790B0127BF04B8430F4612210891384323
:2062E0000790049003BC03B45F780498BF07F90F0127FF04B843CF041321089138430790E4
:20630000049003BC03B49F7804987F42791C01273F05B843CF07FF0A142108913843079044
:20632000049003BC029F676303B4606B0499079008910027884203BC00D0B71C3D4643E354
:20634000676B029703B41F780498FF07F90901273F06B8430F4618210891384307900490AB
:2063600003BC03B41F780498BF07F90F01277F06B8434F061921089138430790049003BC71
:2063800003B45F780498FF0779090127BF06B8430F461A21089138430790049003BC03B41E
:2063A0005F780498BF07F90F0127FF06B843CF061B21089138430790049003BC03B49F7897
:2063C00004987F42791C01273F07B843CF07FF081C21089138430790049003BC029F6763DF
:2063E00003B4606B0499079008910027884203BC00D0B71C3D46E7E2A76B039701B41F78B7
:20640000FF07FF0F0797049F012087430798C007C00F07900743049701BC01B41F78BF07BC
:20642000FF0F0797049F022087430798C007800F07900743049701BC01B45F78FF07FF0F53
:206440000797049F042087430798C007400F07900743049701BC01B45F78BF07FF0F079721
:2064600004980827B84306900798C70706983F0F07430697049701BC01B49F787F42013763
:20648000079704981027B84306900798C7070698FF0E07430697049701BC039FA76303B440
:2064A000A06B0599079008910027884203BC00D0B71C3D4688E2A76B039703B41F7805982C
:2064C000FF07F90D0127FF37B8430F460821089138430790059003BC03B41F780598BF0729
:2064E000F90F01277F02B8434F020921089138430790059003BC03B45F780598FF07790DBF
:206500000127BF02B8430F460A21089138430790059003BC03B45F780598BF07F90F0127F7
:20652000FF02B843CF020B21089138430790059003BC03B49F7805987F42791C01273F0338
:20654000B843CF07FF0C0C21089138430790059003BC039FA76303B4A06B059907900891F7
:206560000027884203BC00D0B71C3D462CE2A76B039703B41F780598FF07F90B01273F042B
:20658000B8430F461021089138430790059003BC03B41F780598BF07F90F01277F04B8431C
:2065A0004F041121089138430790059003BC03B45F780598FF07790B0127BF04B8430F4667
:2065C0001221089138430790059003BC03B45F780598BF07F90F0127FF04B843CF04132163
:2065E000089138430790059003BC03B49F7805987F42791C01273F05B843CF07FF0A142160
:20660000089138430790059003BC039FA76303B4A06B0599079008910027884203BC00D0BF
:20662000B71C3D46D0E1A76B039703B41F780598FF07F90901273F06B8430F461821089125
:2066400038430790059003BC03B41F780598BF07F90F01277F06B8434F06192108913843D0
:206660000790059003BC03B45F780598FF0779090127BF06B8430F461A2108913843079059
:20668000059003BC03B45F780598BF07F90F0127FF06B843CF061B21089138430790059034
:2066A00003BC03B49F7805987F42791C01273F07B843CF07FF081C21089138430790059097
:2066C00003BC039FA76303B4A06B0599079008910027884203BC00D0B71C3D4674E1E76B42
:2066E000049701B41F78FF07FF0F0797059F012087430798C007C00F07900743059701BC03
:2067000001B41F78BF07FF0F0797059F022087430798C007800F07900743059701BC01B447
:206720005F78FF07FF0F0797059F042087430798C007400F07900743059701BC01B45F78C3
:20674000BF07FF0F079705980827B84306900798C70706983F0F07430697059701BC01B41C
:206760009F787F420137079705981027B84306900798C7070698FF0E07430697059701BCAE
:20678000049FE76303B4E06B0699079008910027884203BC00D0B71C3D4615E1E76B049782
:2067A00003B41F780698FF07F90D0127FF37B8430F460821089138430790069003BC03B453
:2067C0001F780698BF07F90F01277F02B8434F020921089138430790069003BC03B45F7809
:2067E0000698FF07790D0127BF02B8430F460A21089138430790069003BC03B45F780698DF
:20680000BF07F90F0127FF02B843CF020B21089138430790069003BC03B49F7806987F425C
:20682000791C01273F03B843CF07FF0C0C21089138430790069003BC049FE76303B4E06B61
:206840000699079008910027884203BC00D0B71C3D46B9E0E76B049703B41F780698FF071B
:20686000F90B01273F04B8430F461021089138430790069003BC03B41F780698BF07F90F6E
:2068800001277F04B8434F041121089138430790069003BC03B45F780698FF07790B0127EF
:2068A000BF04B8430F461221089138430790069003BC03B45F780698BF07F90F0127FF046D
:2068C000B843CF041321089138430790069003BC03B49F7806987F42791C01273F05B8438D
:2068E000CF07FF0A1421089138430790069003BC049FE76303B4E06B06990790089100279F
:20690000884203BC00D0B71C3D465DE0E76B049703B41F780698FF07F90901273F06B84342
