:020000041005E5
:208000001A4908684FEA102000F00F0090F00E0F08BF1749086820F00B000860BFF34F8FDE
:208020001449012008600220086013490020086012490020086012490120000708601149C4
:20804000002008601049102008600B490F4808600F494FF0010008600649032008600D4865
:208060000D490160BFF34F8F01F0CAB9000020400C00204040C0264000C0264004C02640C3
:1C80800008C026400CC0264010C026400100008044C0264008ED00E000840510F5
:2084000000D000080180051035800810FD7E0810FD7E0810FD7E0810FD7E0810A17F08109D
:20842000A17F0810A17F0810A17F0810357D0810A17F0810A17F0810A17F0810E9790810A8
:20844000E9790810E9790810E9790810E9790810E9790810E9790810E9790810E97908104C
:20846000E9790810E9790810E9790810E9790810E9790810E9790810E9790810E97908102C
:20848000A17F0810A17F0810A17F0810A17F0810A17F0810A17F0810A17F0810A17F08101C
:2084A000A17F0810A17F0810A17F0810A17F0810A17F0810A17F0810A17F0810A17F0810FC
:2084C000A17F0810A17F0810A17F0810A17F0810A17F0810A17F0810A17F0810A17F0810DC
:2084E000A17F0810A17F0810A17F0810A17F0810A17F0810A17F0810A17F0810A17F0810BC
:20850000A17F0810A17F0810A17F0810A17F0810A17F0810A17F0810A17F0810A17F08109B
:20852000A17F0810A17F0810A17F0810A17F0810A17F0810A17F0810A17F0810A17F08107B
:20854000A17F0810A17F0810A17F0810A17F0810A17F0810A17F0810A17F0810A17F08105B
:20856000A17F0810A17F0810A17F0810A17F0810A17F0810A17F0810A17F0810A17F08103B
:20858000A17F0810A17F0810A17F0810A17F0810A17F0810A17F0810A17F0810A17F08101B
:2085A000A17F0810A17F0810A17F0810A17F0810A17F0810A17F0810A17F0810A17F0810FB
:2085C000A17F0810A17F0810A17F0810A17F0810A17F0810A17F0810A17F0810A17F0810DB
:2085E000A17F0810A17F0810A17F0810A17F0810A17F0810A17F0810A17F0810A17F0810BB
:20860000A17F0810A17F0810A17F0810A17F0810A17F0810A17F0810A17F0810A17F08109A
:20862000A17F0810A17F0810A17F0810A17F0810A17F0810A17F0810A17F0810A17F08107A
:20864000A17F0810A17F0810A17F0810A17F0810A17F0810A17F0810A17F0810A17F08105A
:20866000A17F0810A17F0810A17F0810A17F0810A17F0810A17F0810A17F0810A17F08103A
:20868000A17F0810A17F0810A17F0810A17F0810A17F0810A17F0810A17F0810A17F08101A
:2086A000A17F0810A17F0810A17F0810A17F0810A17F0810A17F0810A17F0810A17F0810FA
:2086C000A17F0810A17F0810A17F0810A17F0810A17F0810A17F0810A17F0810A17F0810DA
:2086E000A17F0810A17F0810A17F0810A17F0810A17F0810A17F0810A17F0810A17F0810BA
:20870000A17F0810A17F0810A17F0810A17F0810A17F0810A17F0810A17F0810A17F081099
:20872000A17F0810A17F0810A17F0810A17F0810A17F0810A17F0810A17F0810A17F081079
:20874000A17F0810A17F0810A17F0810A17F0810A17F0810A17F0810A17F0810A17F081059
:20876000A17F0810A17F0810A17F0810A17F0810A17F0810A17F0810A17F0810A17F081039
:20878000A17F0810A17F0810A17F0810A17F0810A17F0810A17F0810A17F0810A17F081019
:2087A000A17F0810A17F0810A17F0810A17F0810A17F0810A17F0810A17F0810A17F0810F9
:2087C000A17F0810A17F0810A17F0810A17F0810A17F0810A17F0810A17F0810A17F0810D9
:2087E000A17F0810A17F0810A17F0810A17F0810A17F0810A17F0810A17F0810FFFFFFFFF5
:208B000017128019FFFFFFFF17128019FFFFFFFF422448900000000042244890000000005D
:208C0C00FFFFFFFFFFFFFFFFFFFFFFFFFFFFFFFFFFFFFFFF30B40346104600248C420FD206
:208C2C004FF25435C1F21A0513F8012B42401206D20D525B82EA102080B201348C42F3D398
:208C4C0030BC70472DE9F00C01004FF0010000F0A0800C68002C00F09C8065884FF6FF71B4
:208C6C008D4218BF002D00F0948034F8091C0023AB4280F08A8004EBC3067268B668B2F1E3
:208C8C00FF3F18BF964203D822888A427FD080E0B61A06F1010C5FEADC075DD04FF25436E3
:208CAC00C1F21A0632F808AB8AEA010B4FEA0B6B4FEADB5B3BF806B08BEA212181EA1A2A0B
:208CCC004FEA0A6A4FEADA5A3AF806B032F806AC8BEA21218AEA010B4FEA0B6B4FEADB5B55
:208CEC003BF806B08BEA212181EA1A2A4FEA0A6A4FEADA5A3AF806B032F804AC8BEA212186
:208D0C008AEA010B4FEA0B6B4FEADB5B3BF806B08BEA212181EA1A2A4FEA0A6A4FEADA5A40
:208D2C003AF806B032F802AC8BEA21218AEA010B4FEA0B6B4FEADB5B3BF806B08BEA212172
:208D4C0081EA1A2A4FEA0A6A4FEADA5A3AF806A08AEA2121013FA5D11CF0070611D04FF2BF
:208D6C005437C1F21A0712F801CB8CEA010C4FEA0C6C4FEADC5C3CF807C08CEA2121013E1B
:208D8C00F1D10133AB42FFF476AF22888A4208BF0020BDE8F00C70472DE9F04442F6A0767F
:208DAC00C0F6040600214FF48870FCF0F8FB4EF63410C1F21A000024057B3470AC420FD240
:208DCC002746D0F808A0380E0AEBC000FFF73AFF08B10124347007F18077B5EB176FF2D81F
:208DEC000CB9022030707CF0C4FB01214FF48870BDE8F044FCF0D3BBFFF7CEBFF0B542F6A5
:208E0C00A076C0F6040602204EF63411C1F21A0130700C790025A54228BFF0BD0F68280E85
:208E2C0007EBC000FFF70EFF08B10120307005F18075B4EB156FF2D8F0BD00B505F144FD86
:208E4C00002814BF0420032000BD42F6A071C0F604010878022808BF7047003818BF0120AB
:028E6C0070474D
:20900000FA1A18E8924835097FE88F0C38246580272710C40EF381EC3D385DE918F5A908D8
:209020005F0BBCBE806A33B8F389A1B0E9264C28B58EF64FBB914A8BB04E2B83F21AF318BB
:20904000608B2315C80999AF413A7EFD31EE1E41EDB659F7EF7F7BBE1C79F7BDBCB16F950C
:20906000A90F0DF0A043BB84A0EF918E61AEF48C9E1021EDCAC0D1110F207AE1A8EA6195A2
:20908000317EC0E46C14BFD9ABB3FBD2430D5730C93A9474D65B3205CF76E4F73AF3B336BA
:2090A00001CEB8F7969513E8E270D105B4CDAD873B4616A8D575DBC29BE9AF73EF6B1029D0
:2090C00045BF39763C19473C80EE212423D51B2CCDCE12263F9A99B1341BFDBF9D1FA9ECC1
:2090E000CEBE64C1941A0192618B1AA99422EC5F56DD1820A33A3E119BE5C8BA3F95CB0F87
:049100000100010069
:2092000069626F6D5435363130000000000000000000000000000000000000000000000087
:2092200000000000000000000000000000000000000000000000000000000000000000002E
:2092400000000000000000000000000000000000000000000000000000000000000000000E
:209260000000000000000000000000000000000000000000000000000000000000000000EE
:209280000000000000000000000000000000000000000000000000000000000000000000CE
:2092A0000000000000000000000000000000000000000000000000000000000000000000AE
:2092C00000000000000000000000000000000000000000000000000000000000000000008E
:2092E00000000000000000000000000000000000000000000000000000000000000000006E
:2093000000000000000000000000000000000000000000000000000000000000000000004D
:2093200000000000000000000000000000000000000000000000000000000000000000002D
:2093400000000000000000000000000000000000000000000000000000000000000000000D
:209360000000000000000000000000000000000000000000000000000000000000000000ED
:209380000000000000000000000000000000000000000000000000000000000000000000CD
:2093A0000000000000000000000000000000000000000000000000000000000000000000AD
:2093C00000000000000000000000000000000000000000000000000000000000000000008D
:2093E00000000000000000000000000000000000000000000000000000000000000000006D
:2094000006460F4690462EF05DFA4FF014004FF00101F5F041FC49F22745C1F20505A5F1B0
:2094200001057A46A2EB05059146002803D131463A4643460AE04DF20000C0F600008546D2
:209440004FF000014FF000024FF0000340F20200012817D308D04EF68850CEF200000468E2
:2094600044F4700404600DE011EE500F40F4A00001EE500FBFF36F8FF8EE100A40F08040CF
:20948000E8EE100A4FF0000448F20000C1F20500814506DB47F6FF70C1F21F00814500DCE0
:2094A0002C464BF24C70C1F20D00A0EB040000EB05004FF000044FF000054FF0000681F0C5
:2094C000F2FB00BFFDE7000030B505460C4630F0F6FC01280ED130F04CFC00696100085ACC
:2094E0004FF6FF71884205D030F054FCBDE830402FF0F2BC2846BDE830402FF0ECBD40F645
:209500000000C4F290000021FFF7DEBF40F60000C4F290000021FFF7D7BF40F64000C4F2FC
:2095200090000121FFF7D0BF40F64000C4F290000121FFF7C9BF00B5002032F0A6FA40F2CF
:209540005041C4F25201086800BD00B5002032F09CFA40F25041C4F25201086800BD00B509
:20956000012032F092FA40F25061C4F25401086800BD00B5012032F088FA40F25061C4F2EE
:209580005401086800BD01004FF0000008BF70474CF2B072C1F20D02914208BF01207047F7
:2095A00070474CF6C023C1F20D031A680021904208BF0121080018BF0120704730B50546C7
:2095C0004BF6D841C1F214010878012804D141F03AFB002808BF30BD46F20024C0F604048F
:2095E00028000BD14CF6C821C1F20D014CF6FC20C1F20D0084E80300012030BDFFF7D1FF1A
:20960000002808BF30BD4CF6C021C1F20D0101EB8000006820606560012030BD2DE9F04815
:2096200046F20024C0F6040400224FF6FF7194E818001E68248EA2421AD215461F46D7F80E
:2096400004C0B7F80CB00BFB0C6E704505D2811BB1FBFCF189B222460AE005F580354FEA25
:20966000154C5A4403EB0C1792B23E68A242E6D30846BDE8F08846F20821C0F60401088044
:20968000704746F20820C0F604000188013101807047F0B446F20025C0F6040500210A46D5
:2096A0002E890C4695E828002D8E270C03EB0717BF89C91989B28E4201D2294605E0D219BB
:2096C00092B204F58034A942EFD3210C03EB01135968B21A4A439C6814194160846049F6AE
:2096E0002C601B68C0F60400D2180260C160F0BC70472DE9F04846F20024C0F60404002148
:209700000A4694E818009F68248EA14219D20E461D46D5F804B0B5F80CC00CFB0B7E7045E8
:2097200005D2ABF1010120EA0102214609E006F58036350C614403EB051589B2AF68A14283
:20974000E7D31046BDE8F0882DE9F04C044617460025AB460E18AA462046042140F019FEE5
:2097600068B90435BD420BD1201D49F6FB51C0F60401A0EB070B0878341D48B107E00025BE
:2097800049F6FB51C0F604010878043400B18246B442E1D3BAF1000F05D049F6FB50C0F6D9
:2097A000040080F800A05846BDE8F08C2DE9F04C83460E461746002440F02AFE002F08BF90
:2097C000BDE8F08C46F20C2AC0F6040A802F94BF3D4680252A4604EB0B01504640F093FE4A
:2097E00052460021B1EB950F08D252F8040B46F8040B01310434B1EB950FF6D37F1BE5D12D
:20980000BDE8F08C49F6FB51C0F604010878704741F0C6B941F0C4B941F0D6B941F0D4B9CE
:2098200041F0E7B940F28011C4F23801022043F024BA40F28011C4F23801022043F01DBA94
:2098400040F28031C4F23801002043F016BA40F28031C4F23801002043F00FBA40F20051A2
:20986000C4F23801012043F008BA40F20051C4F23801012043F001BA4CF67C62C1F20D0280
:2098800090420CBF01200020704740F20030C4F231000322002146F031B840F20030C4F26D
:2098A00031000322002146F029B840F20040C4F231000222012146F021B840F20040C4F244
:2098C00031000222012146F019B840F68010C4F231000122022146F011B840F68010C4F29C
:2098E00031000122022146F009B801004FF0000008BF70474CF61472C1F20D02914208BF18
:20990000012070474BF001BC4BF0FFBB4CF6C472C1F20D0290420CBF0120002070470000B3
:20992000772800F272830FF20802D2E810F000BF790079008B0099006E036E036E036E0343
:20994000A900C000CA00DA006E036E036E036E031301EA00EA00EA006E036E036E036E03A0
:20996000EF00F400F9000201130122016E036E032701340141014D016E036E036E036E033E
:20998000520179015F016E036E036E036E036E036401640164016E036E036E036E036E0301
:2099A0006C017901870187016E036E036E036E039501A401B401CC01D901E501F301020277
:2099C000100219026E036E036E036E036E036E03230237024C025A0269026E027A028C02C7
:2099E000A102BA026E036E036E036E036E036E03D302E902DD02E9026E036E036E036E0314
:209A0000F102FA026E036E036E036E036E036E036E036E036E030B0329033E03490355033F
:209A2000081C1CBF0438B0F1030040F2EC820A38013840F2E88202381CBF0A28082940F0E8
:209A4000DC82E0E2081C1CBF0438B0F1030040F2DA820D38012840F2D6820E290CD1D2E2B9
:209A6000081C1CBF0438B0F1030040F2CC820E2818BF0E2900F0C7821E2940F06082C2E20D
:209A8000081C1CBF0438B0F1030040F2BC820D38013840F2B88205381CBF0338012884BFCE
:209AA000A1F10800B0F1030000F20D82ABE2081F033840F2A8820E2818BF11F1000007D1B5
:209AC000A1E2081F032840F29E82081C00F09B8214381EBFB0F106000428122940F0EE8158
:209AE00091E2081C1CBF0438B0F1030040F28B8213281CBFA1F10800B0F1030000F2E3812B
:209B000081E2081F032840F27E8269E0081F032840F2798239E0081F032840F2748241E0E2
:209B2000081F033840F26F820E2818BF002948D169E2081C1CBF0438B0F1030040F2638210
:209B40000D38013840F25F82062818BF132940F0F68158E2081C1CBF0438B0F1030040F241
:209B600052820C38012840F24E82082940F0018249E2081F032840F246821BE2081F0338E8
:209B800040F241820F2800F03E82002918BF142940F0928037E2081F033840F234820F28D0
:209BA00000F03182002918BF142940F0C4812AE2081F033840F227820F2818BF002900F0E0
:209BC0002282142975D11EE2081F032840F21B82A5E1081F033840F216820E2800F01382D0
:209BE000002918BF142940F0C2810CE2081F032840F209821BE000391CBF0439032984BFFD
:209C000000207047FFE1081C1CBF0438B0F1030040F2F9810E2818BF1A2940F0A881F2E186
:209C2000081F033840F2EF810E2800F0EC8100291CBF14291A2940F09A81E4E1081C1CBFFA
:209C40000438B0F1030040F2DE8109381CBF0428082940F08E81D6E1081C1CBF0438B0F148
:209C6000030040F2D08109381EBFB0F104000228132924D1C7E1081C1CBF0438B0F10300B9
:209C800040F2C18109381EBFB0F104000228122940F05381B7E1081C1CBF0438B0F10300AD
:209CA00040F2B18109381CBFB0F10400022800F0AA81122900F0A781132900F0A48111295C
:209CC00040F055819FE1081C1CBF0438B0F1030040F29981092818BF132940F0308192E13B
:209CE000081C1CBF0438B0F1030040F28C810D2818BF13294CD186E1081C1CBF0438B0F19E
:209D0000030040F280810D381CBF0228132940F0A68078E1081C1CBF0438B0F1030040F2C7
:209D200072810D381EBFB0F10200042813292FD169E1081C1CBF0438B0F1030040F26381C4
:209D40000F381CBF0428082940F08C805BE1081F033840F258810E2818BF002913D152E152
:209D6000081F033840F24F810E2818BF11F100001ED148E1081F033840F24581142818BFEB
:209D8000002900F04081132918BF112900F03B81082918BF102940F0EC8034E1081F03389C
:209DA00040F23181142818BF11F1000000F02B810838013884BF0738032840F224810B29DD
:209DC00040F0DB801FE1081C1CBF0438B0F1030040F219810A38022840F2158108292ED1E9
:209DE00011E1081C1CBF0438B0F1030040F20B810A381EBFB0F102000828082932D102E1CB
:209E0000081F032840F2FF8012E0081C1CBF0438B0F1030040F2F780142818BF13291ED187
:209E2000F1E0081F033840F2EE800E2800F0EB801B291EBF00291329082900F0E48010297A
:209E400040F0DB80DFE0081C1CBF0438B0F1030040F2D9800E3818BF062800F0D48008298E
:209E600000F0D180092918BF102940F0C880CAE0B1F113000CD2023000F0C58005300830D6
:209E800080F0C180043018BF102940F0BE80BAE000381EBFB0F102000628102940F0B58041
:209EA000B1E0081C1CBF0438B0F1030040F2AB800E381CBF0628122900F0A580A1F108009C
:209EC000033840F2A08006381CBF0228102940F09C8098E0081C1CBF0438032840F293800A
:209EE000132940F088808EE0081C1CBF0438B0F1030040F28880142818BF1F2979D182E060
:209F0000081C1CBF043803287DD9082975D17AE0081F033877D90E3818BF062873D061B95A
:209F200071E0081C1CBF0438B0F103006BD90E3818BF062867D0122965D0132963D0112912
:209F400059D160E0B1F1130009D202305BD00930043058D2043018BF08290AD153E0003891
:209F60001CBF0738B0F101004DD904284BD0082949D0092918BF0B2945D00A2945D142E0B1
:209F8000B1F11A0009D207303DD00B3004303AD2043018BF082930D135E0013833D902389A
:209FA0001CBF0228082928D12DE0081F03382AD9162828D000291CBF142913291BD122E05F
:209FC000081C1CBF0438B0F103001CD90D381CBF0928082911D116E0081C1CBF0438B0F177
:209FE000030010D90D381EBFB0F1070002281F2909D01A2907D0082905D0092903D00A2908
:20A0000018BF0B2901D1012070470020704710380CD210300A287DD80FF20402D2E800F016
:20A020000B1015192129474C54576A000A2884BF002070476AE0362984BF0020704706E0F0
:20A040003C2984BF0020704701E0042962D801207047563984BF02390329F8D94FF0000018
:20A0600070475E3984BF02390329F0D94FF0000070476D390FD2B1F1FF3103313CBFA1F10F
:20A08000FF3111F10301E2D2B1F1FF316431DED24FF0000070470E3984BF0239B1F102015F
:20A0A000D5D902390729D2D94FF0000070475329CDD94FF000007047033984BF02390329E8
:20A0C000C5D94FF0000070470A29C0D922E0773984BF0239B1F10201B9D90239023984BF00
:20A0E0000239B1F10201B2D902396829AFD94FF000007047973984BF0239B1F10201A6D939
:20A1000002391F29A3D94FF000007047002918BF01299CD0002070471A2849D80FF2040273
:20A12000D2E800F0414138413B0E351215181846464646461B21272C35353E383B3E41001E
:20A140000A2935D8012070470229FBD92DE00529F8D904E00429F5D92AE00429F2D9881F54
:20A160000328EFD924E0282984BF29391629E9D90BE02729E6D92829E4D003E02729E1D905
:20A180002829DFD029391629DCD9002070470B29D8D90DE00329D5D90AE00F29D2D907E032
:20A1A0000229CFD904E00329CCD9081F0328C9D9002070470A3883BF06380A280020012017
:20A1C000704703460020083B84BF083B0A2B05D9002918BF7047002A18BF7047012070473C
:20A1E00001004FF0000008BF704741F2A022C1F20E02914208BF012070477047704700B554
:20A2000051F080F8002818BF51F076F800BD41F23C40C1F20E00704746F25C31C0F6040173
:20A220000860704741F23C42C1F20E0290420CBF01200020704701004FF0000008BF704738
:20A2400041F27052C1F20E02914208BF0120704704280FDB104A402012180120106000BF8A
:20A260000220106000BF0120506000BF0320106000BF10E0094A9021521800028018012290
:20A28000026000BF0222026000BF0122426000BF0322026000BF704700C0264000802640CB
:20A2A00030B405460C464FF00002A2704FF0000262702278954205D01DB94FF00102A27047
:20A2C00000E065702278E270257030BC704770B505460C46164621462878FFF7E1FF6378CF
:20A2E00003B1A680A378012B02D14FF00003A380A3882BB1A388A3F101039BB2A38002E0E9
:20A300004FF000032B7070BD10B404464FF0010121704FF00001618010BC704710B50446A0
:20A320002046FFF7F1FF10BD10B404464FF0000121704FF00001618010BC704730B4044653
:20A340000D464FF000020AE04FF0000323704FF00003638004F1040402F10103DAB2AA4219
:20A36000F2D330BC704770B404460D464FF0000215E02378012B0AD163884FF6FF76B34242
:20A3800008D2638803F101039BB2638002E04FF00003638004F1040402F10103DAB2AA425D
:20A3A000E7D370BC704700002DE930414AF21C28C0F6010898F8C001013801D31DD0B9E056
:20A3C0004AF21C20C0F6010040F2C11100EB010005F1A5FD4AF21C28C0F6010898F8C10135
:20A3E000012809D100F071FA4FF001004AF21C28C0F6010888F8C001A5E000F0A6F801F03B
:20A400007EFF4AF21C28C0F6010898F8A6514FF0000489E04AF2E830C0F6010000F1010050
:20A4200004EB440101EB00004FF0000101704AF2DE30C0F6010004EB0000017820464FF03D
:20A44000010200F0B1FA4AF2DE30C0F6010004EB00004AF2E031C0F6010104EB0101007800
:20A460000978884224D104EB44004AF2E831C0F6010100EB01000078012819D04AF2E83092
:20A48000C0F6010000F1010004EB440101EB0000007801280CD04AF2E830C0F6010000F17A
:20A4A000020004EB440101EB00000078012825D14AF2DE30C0F6010004EB00000178204614
:20A4C0004FF0020200F070FA4AF2E030C0F6010004EB0000017820464FF0000200F064FA7F
:20A4E0004AF2DE30C0F6010004EB00004AF2E031C0F6010104EB010109780170204601F02D
:20A50000A4FB4FF00B0014FB00F04FEA80004AF26871C0F6010100EB01004FF00B01FFF7A0
:20A5200022FF04F10100C4B2AC42FFF473AF00F02DF908E04FF000004AF21C28C0F601080F
:20A5400088F8C00100BFBDE830812DE970414AF21C20C0F6010003F1BBFA4AF21C20C0F6D8
:20A56000010000F17A0003F1C8FA4AF21C20C0F6010000F1060003F1D5FA4AF21C20C0F6A2
:20A58000010000F11A0003F1E2FA4AF21C20C0F6010000F5817003F119FB4AF21C20C0F694
:20A5A000010000F5987003F1E7FA4AF21C28C0F6010898F8A6514AF21C20C0F6010000F1E2
:20A5C000B80003F1EEFA4AF21C28C0F6010898F8C100042866D14AF2DD20C0F6010000F113
:20A5E000010000784FEA00204AF2DD21C0F6010101F10201097801EB000080B244F2705805
:20A60000C0F60508A8F800004AF2DD20C0F6010000F10300007844F26A58C0F6050888F840
:20A6200000004AF2DD20C0F6010000F10400007844F26B58C0F6050888F800004AF2DD2048
:20A64000C0F6010000F10500007844F26C58C0F6050888F800004AF2DD20C0F6010000F1B7
:20A660000600007844F26D58C0F6050888F800004AF2DD20C0F6010000F10700007844F288
:20A680006E58C0F6050888F800004AF2DD20C0F6010000F10800007844F26F58C0F6050890
:20A6A00088F800004AF21C20C0F6010000F5A66001464AF21C28C0F6010898F8AC00FFF738
:20A6C000EFFD4AF21C28C0F6010898F8AC004AF21C28C0F6010888F83C054AF21C28C0F6DD
:20A6E000010898F84A01052807D04AF21C28C0F6010898F84A0106281DD14AF21C20C0F60E
:20A70000010040F2365100EB010001464AF21C28C0F6010898F8AD00FFF7C2FD4AF2587017
:20A72000C0F6010000F101004AF21C28C0F6010898F8AD1001704FF0000423E04AF2207061
:20A74000C0F6010004EB0006204602F025F930704AF22270C0F6010004EB0006204602F065
:20A76000A3F9307020464FEA40004AF22471C0F6010100EB0106204602F0BAF9308004F193
:20A780000100C4B2AC42D9D3BDE870812DE970414AF21C28C0F6010898F8A6514FF0000442
:20A7A00084E020464FEAC0004AF2C071C0F6010100EB01004AF2DE31C0F6010104EB0101D1
:20A7C0000978017020464FEAC0004AF2C071C0F6010100EB0106204601F0DFFFB070204656
:20A7E0004FEAC0004AF2C071C0F6010100EB0106204602F089F8707120464FEA8001A1EBE3
:20A8000000004FEA40004AF22871C0F6010100EB0100014620464FEAC0004AF2C072C0F67C
:20A82000010200EB020000F102004FF01802FFF74EFD20464FEA8001A1EB00004FEA400076
:20A840004AF23471C0F6010100EB0100014620464FEAC0004AF2C072C0F6010200EB0200B9
:20A8600000F103004FF01802FFF731FD20464FEA8001A1EB00004FEA40004AF24071C0F69F
:20A88000010100EB0100014620464FEAC0004AF2C072C0F6010200EB020000F105004FF0DB
:20A8A0000402FFF714FD04F10100C4B2AC42FFF478AF4AF21C20C0F6010040F2A45100EBD6
:20A8C000010002F1ECFCBDE870812DE930414AF21C20C0F6010000F5987003F14DF94AF2DD
:20A8E0001C28C0F6010898F8A6514FF0000443E020464FEAC0004AF2C071C0F6010100EBF9
:20A9000001004FF008024FF0000180F073F94AF2DE30C0F6010004EB00004FF00001017030
:20A920004AF2E030C0F6010004EB00004FF0000101704AF2E230C0F6010004EB00004FF041
:20A94000000101704AF2E430C0F6010004EB00004FF0000101704AF2E630C0F6010004EBE6
:20A9600000004FF00001017020464FF0000100F056F804F10100C4B2AC42B9D3BDE8308106
:20A9800010B504464FF00B0114FB01F14FEA81014AF26872C0F6010201EB020108464FF056
:20A9A0000B01FFF7CBFC10BD2DE9704104460E4615463346072B2FD80FF20408D8E803F0CF
:20A9C00004090E13181D22272946204600F027F823E02946204600F048F91EE0294620460B
:20A9E00000F07DFA19E02946204600F080FB14E02946204600F032FC0FE02946204600F01C
:20AA00005AFD0AE02946204600F06BFE05E02946204600F075FF00E000BFBDE870812DE95E
:20AA2000304104460D462A46013A04D310D0013A00F0178116E12046FFF7A2FF4AF2F03291
:20AA4000C0F6010204EB02024FF0000313700AE14AF2DE32C0F6010204EB02024AF2E03353
:20AA6000C0F6010304EB030312781B789A4240F0F78022464FEA8203A3EB02024FEA420252
:20AA80004AF21E33C0F6010302EB03029278012A1BD14AF2E032C0F6010204EB02024FF023
:20AAA000010313704AF2E432C0F6010204EB02024FF0000313704AF2E632C0F6010204EB50
:20AAC00002024FF000031370CAE022464FEA8203A3EB02024FEA02124AF23623C0F60103AF
:20AAE00002EB03021279042A20D022464FEA8203A3EB02024FEA02124AF23623C0F6010367
:20AB000002EB03021279032A10D022464FEA8203A3EB02024FEA02124AF23623C0F6010357
:20AB200002EB03021279052A40F097804AF21C28C0F6010898F80220002A40F08E804AF28D
:20AB4000F032C0F6010204EB02021278012A40F0848022464FEA8203A3EB02024FEA021239
:20AB60004AF23623C0F6010302EB03021279042A1BD14AF2E032C0F6010204EB02024FF0B6
:20AB8000030313704AF2E432C0F6010204EB02024FF0010313704AF2E632C0F6010204EB6C
:20ABA00002024FF0000313705AE022464FEA8203A3EB02024FEA02124AF23623C0F601033E
:20ABC00002EB03021279032A1BD14AF2E032C0F6010204EB02024FF0040313704AF2E432CA
:20ABE000C0F6010204EB02024FF0010313704AF2E632C0F6010204EB02024FF0000313701E
:20AC00002EE022464FEA8203A3EB02024FEA02124AF23623C0F6010302EB03021279052A26
:20AC20001ED14AF2E032C0F6010204EB02024FF0050313704AF2E432C0F6010204EB020263
:20AC40004FF0010313704AF2E632C0F6010204EB02024FF00003137002E0204601F0B8F880
:20AC600001E000E000BFBDE830812DE9304104460D462A46013A04D319D0013A00F01F81A4
:20AC80002AE14AF2EE32C0F6010204EB02024FF00003137022464FEAC2024AF2C073C0F652
:20ACA000010302EB03024FF00003937115E14AF2DE32C0F6010204EB02024AF2E033C0F665
:20ACC000010304EB030312781B789A4240F0F68022464FEA8203A3EB02024FEA42024AF26B
:20ACE0001E33C0F6010302EB03029278DAB94AF2E032C0F6010204EB02024FF000031370FB
:20AD00004AF2E432C0F6010204EB02024FF0000313704AF2E632C0F6010204EB02024FF031
:20AD200000031370CAE022464FEA8203A3EB02024FEA02124AF23623C0F6010302EB03029D
:20AD40001279042A20D022464FEA8203A3EB02024FEA02124AF23623C0F6010302EB030204
:20AD60001279032A10D022464FEA8203A3EB02024FEA02124AF23623C0F6010302EB0302F5
:20AD80001279052A40F097804AF21C28C0F6010898F80220002A40F08E804AF2F032C0F645
:20ADA000010204EB02021278012A40F0848022464FEA8203A3EB02024FEA02124AF236231A
:20ADC000C0F6010302EB03021279042A1BD14AF2E032C0F6010204EB02024FF00303137060
:20ADE0004AF2E432C0F6010204EB02024FF0010313704AF2E632C0F6010204EB02024FF050
:20AE0000000313705AE022464FEA8203A3EB02024FEA02124AF23623C0F6010302EB03022C
:20AE20001279032A1BD14AF2E032C0F6010204EB02024FF0040313704AF2E432C0F60102A0
:20AE400004EB02024FF0010313704AF2E632C0F6010204EB02024FF0000313702EE02246FE
:20AE60004FEA8203A3EB02024FEA02124AF23623C0F6010302EB03021279052A1ED14AF20F
:20AE8000E032C0F6010204EB02024FF0050313704AF2E432C0F6010204EB02024FF00103E9
:20AEA00013704AF2E632C0F6010204EB02024FF00003137002E0204601F00FF90DE02246B4
:20AEC0004FEAC2024AF2C073C0F6010302EB03024FF00003937100E000BFBDE830812DE909
:20AEE000300104460D462A46013A04D310D0013A00F0EC80F7E022464FEA420246F2B433B0
:20AF0000C0F6040302EB03024FF000031380EBE04AF2DE32C0F6010204EB02024AF2E0339B
:20AF2000C0F6010304EB030312781B789A4240F0CC8022464FEA8203A3EB02024FEA0212E8
:20AF40004AF23623C0F6010302EB03021279BAB122464FEA8203A3EB02024FEA02124AF279
:20AF60003623C0F6010302EB03021279012A07D04AF21C28C0F6010898F80220012A1BD137
:20AF80004AF2E032C0F6010204EB02024FF0000313704AF2E432C0F6010204EB02024FF0B5
:20AFA000000313704AF2E632C0F6010204EB02024FF00103137088E04AF25872C0F601021E
:20AFC00004EB02021278022A7FD14AF2DE32C0F6010204EB02021278042A24D14AF2207205
:20AFE000C0F6010204EB02021278012A36D14AF2E032C0F6010204EB02024FF00603137024
:20B000004AF2E432C0F6010204EB02024FF0000313704AF2E632C0F6010204EB02024FF02E
:20B02000000313701AE04AF2E032C0F6010204EB02024FF0060313704AF2E432C0F60102C0
:20B0400004EB02024FF0000313704AF2E632C0F6010204EB02024FF00003137022464FEAD2
:20B06000420246F2B433C0F6040302EB03021288B2F5C87F1BD34AF2E032C0F6010204EB52
:20B0800002024FF0060313704AF2E432C0F6010204EB02024FF0000313704AF2E632C0F614
:20B0A000010204EB02024FF0000313700DE022464FEA420246F2B433C0F6040302EB030334
:20B0C0001A8802F1010292B21A800DE022464FEA420246F2B433C0F6040302EB03024FF01B
:20B0E0000003138000E000BFBDE83001704730B504460D462A46013A04D320D0013A00F06F
:20B100009180A9E04AF2E432C0F6010204EB02021278002A0FD94AF2E432C0F6010204EB01
:20B1200002031A78A2F10102D2B21A7020464FF00001FFF7D4FE204601F08FFA8DE02046B3
:20B140004FF00101FFF7CBFE4AF2DE32C0F6010204EB02024AF2E033C0F6010304EB0303F9
:20B1600012781B789A425CD122464FEA8203A3EB02024FEA02124AF23623C0F6010302EB68
:20B1800003021279032A1BD14AF2E032C0F6010204EB02024FF0070313704AF2E432C0F638
:20B1A000010204EB02024FF0000313704AF2E632C0F6010204EB02024FF00003137030E0FF
:20B1C0004AF25C72C0F6010204EB02021278012A24D14AF25C72C0F6010204EB02024FF01A
:20B1E000000313704AF2E032C0F6010204EB02024FF0070313704AF2E432C0F6010204EB09
:20B2000002024FF0000313704AF2E632C0F6010204EB02024FF00003137002E0204600F068
:20B22000F2FD1AE04AF2E632C0F6010204EB02021278002A0FD94AF2E632C0F6010204EB8D
:20B2400002031A78A2F10102D2B21A7020464FF00201FFF744FE00E000BF30BD2DE93041C0
:20B2600004460D462A46013A04D339D0013A00F0F1801DE14AF2E432C0F6010204EB02020E
:20B280001278002A0FD94AF2E432C0F6010204EB02031A78A2F10102D2B21A7020464FF038
:20B2A0000001FFF71CFE4FF000024AF21C28C0F6010888F8D6214AF26872C0F6010202F1C4
:20B2C00014034FF00B0214FB02F24FEA820202EB03021046FFF718F8204601F00AFAE8E0DA
:20B2E00020464FF00101FFF7FAFD4AF2DE32C0F6010204EB02024AF2E033C0F6010304EBCA
:20B30000030312781B789A4240F0A38022464FEA8203A3EB02024FEA02124AF23623C0F68B
:20B32000010302EB03021279042A0FD022464FEA8203A3EB02024FEA02124AF23623C0F62F
:20B34000010302EB03021279052A1BD14AF2E032C0F6010204EB02024FF0070313704AF24F
:20B36000E432C0F6010204EB02024FF0000313704AF2E632C0F6010204EB02024FF0000304
:20B38000137066E022464FEA8203A3EB02024FEA42024AF24C73C0F6010302EB030252783E
:20B3A000012A53D14AF2E032C0F6010204EB02024FF0040313704AF2E432C0F6010204EB81
:20B3C00002024FF0000313704AF2E632C0F6010204EB02024FF0000313704AF2E832C0F6D3
:20B3E000010202F1010204EB440303EB02024FF0010313704AF25A72C0F6010204EB0202B2
:20B400004FF0010313704AF26872C0F6010202F10C034FF00B0214FB02F24FEA820202EB9C
:20B4200003021046FEF770FF4AF26872C0F6010202F114034FF00B0214FB02F24FEA820268
:20B4400002EB03021046FEF769FF02E0204600F0F6FC2EE0204601F00BFB4AF26872C0F6E6
:20B46000010202F114034FF00B0214FB02F24FEA820202EB03021046FEF756FF4AF2E632CD
:20B48000C0F6010204EB02021278002A0FD94AF2E632C0F6010204EB02031A78A2F101023B
:20B4A000D2B21A7020464FF00201FFF718FD00E000BFBDE8308130B504460D462A46013AA9
:20B4C00004D34FD0013A00F0D08008E14AF2E432C0F6010204EB02021278002A0FD94AF23C
:20B4E000E432C0F6010204EB02031A78A2F10102D2B21A7020464FF00001FFF7F0FC4AF28F
:20B500006272C0F6010204EB02024FF0000313704AF26072C0F6010204EB02024FF00003EA
:20B52000137022464FEAC2024AF2C073C0F6010302EB03024FF0000313714AF26872C0F676
:20B54000010202F11C034FF00B0214FB02F24FEA820202EB03021046FEF7D6FE204601F062
:20B5600000F9BDE020464FF00101FFF7B8FC4AF2DE32C0F6010204EB02024AF2E033C0F6E7
:20B58000010304EB030312781B789A426CD122464FEA8203A3EB02024FEA02124AF23623E2
:20B5A000C0F6010302EB03021279042A0FD022464FEA8203A3EB02024FEA02124AF23623AD
:20B5C000C0F6010302EB03021279032A1BD14AF2E032C0F6010204EB02024FF00703137055
:20B5E0004AF2E432C0F6010204EB02024FF0000313704AF2E632C0F6010204EB02024FF049
:20B600000003137030E04AF25E72C0F6010204EB02021278012A24D14AF25E72C0F601026D
:20B6200004EB02024FF0000313704AF2E032C0F6010204EB02024FF0070313704AF2E4323A
:20B64000C0F6010204EB02024FF0000313704AF2E632C0F6010204EB02024FF000031370B4
:20B6600002E0204600F06DFC3AE022464FEAC2024AF2C073C0F6010302EB03024FF000034D
:20B680001371204601F0F4F94AF26872C0F6010202F11C034FF00B0214FB02F24FEA8202F5
:20B6A00002EB03021046FEF73FFE4AF2E632C0F6010204EB02021278002A0FD94AF2E63220
:20B6C000C0F6010204EB02031A78A2F10102D2B21A7020464FF00201FFF701FC00E000BF4D
:20B6E00030BD30B504460D462A46013A04D34CD0013A00F0C98001E14AF2E432C0F60102DC
:20B7000004EB02021278002A0FD94AF2E432C0F6010204EB02031A78A2F10102D2B21A7065
:20B7200020464FF00001FFF7DAFB204600F0EBF922464FEAC2024AF2C073C0F6010302EBE3
:20B7400003024FF00003D3704FF00B0214FB02F24FEA82024AF26873C0F6010302EB030290
:20B760001046FEF7D1FD4AF26872C0F6010202F110034FF00B0214FB02F24FEA820202EBE2
:20B7800003021046FEF7C0FDB9E020464FF00101FFF7A5FB4AF2DE32C0F6010204EB0202CE
:20B7A0004AF2E033C0F6010304EB030312781B789A4268D14AF26872C0F6010202F1100384
:20B7C0004FF00B0214FB02F24FEA820202EB030252886E2A54D322464FEA8203A3EB02021A
:20B7E0004FEA02124AF23623C0F6010302EB03021279042A28D022464FEA8203A3EB020252
:20B800004FEA02124AF23623C0F6010302EB03021279032A18D022464FEA8203A3EB020242
:20B820004FEA02124AF23623C0F6010302EB03021279052A08D04AF25872C0F6010204EB3A
:20B8400002021278012A1ED14AF2E032C0F6010204EB02024FF0070313704AF2E432C0F672
:20B86000010204EB02024FF0000313704AF2E632C0F6010204EB02024FF00003137002E066
:20B88000204600F040F93AE04FF00B0214FB02F24FEA82024AF26873C0F6010302EB030230
:20B8A0001046FEF741FD4AF26872C0F6010202F110034FF00B0214FB02F24FEA820202EB31
:20B8C00003021046FEF730FD4AF2E632C0F6010204EB02021278002A0FD94AF2E632C0F645
:20B8E000010204EB02031A78A2F10102D2B21A7020464FF00201FFF7F2FA00E000BF30BD05
:20B9000030B504460D462A46013A04D326D0013A00F0DD80F5E04AF2E432C0F6010204EBD6
:20B9200002021278002A0FD94AF2E432C0F6010204EB02031A78A2F10102D2B21A702046CC
:20B940004FF00001FFF7CBFA4AF2F032C0F6010204EB02024FF000031370D3E020464FF0C5
:20B960000101FFF7BCFA4AF2DE32C0F6010204EB02024AF2E033C0F6010304EB0303127899
:20B980001B789A4240F0A28022464FEA8203A3EB02024FEA02124AF23623C0F6010302EBA5
:20B9A00003021279042A24D14AF2F032C0F6010204EB02021278012A1BD14AF2E032C0F625
:20B9C000010204EB02024FF0030313704AF2E432C0F6010204EB02024FF0000313704AF2AA
:20B9E000E632C0F6010204EB02024FF0000313706CE022464FEA8203A3EB02024FEA02126D
:20BA00004AF23623C0F6010302EB03021279032A24D14AF2F032C0F6010204EB02021278A4
:20BA2000012A1BD14AF2E032C0F6010204EB02024FF0040313704AF2E432C0F6010204EB32
:20BA400002024FF0000313704AF2E632C0F6010204EB02024FF00003137037E022464FEAA0
:20BA60008203A3EB02024FEA02124AF23623C0F6010302EB03021279052A24D14AF2F03214
:20BA8000C0F6010204EB02021278012A1BD14AF2E032C0F6010204EB02024FF00503137095
:20BAA0004AF2E432C0F6010204EB02024FF0000313704AF2E632C0F6010204EB02024FF084
:20BAC0000003137002E0204600F082F91AE04AF2E632C0F6010204EB02021278002A0FD997
:20BAE0004AF2E632C0F6010204EB02031A78A2F10102D2B21A7020464FF00201FFF7EFF989
:20BB000000E000BF30BD10B504464FF00B0114FB01F14FEA81014AF26872C0F6010201EBC8
:20BB2000020149880A291AD321464FEAC1014AF2C072C0F6010201EB02014FF00102CA701D
:20BB40004FF00B0114FB01F14FEA81014AF26872C0F6010201EB02010846FEF7E5FB10BD30
:20BB600000B581B04FF000008DF803000DF1030004F1E4F99DF8030001B000BD00B581B059
:20BB80004FF000008DF803000DF1030004F1E4F99DF8030001B000BD10B50446204604F19B
:20BBA000D4F910BD10B50446204604F1DCF910BD2DE9004181B00DF102014AF21C20C0F628
:20BBC000010000F5ED7002F136FEBDF802204AF2F631C0F601014AF21260C0F601007FF025
:20BBE0004DF8BDF802204AF2F630C0F601004FF000017EF0FFFFBDF802004AF21C38C0F667
:20BC00000108A8F8D8004FF001004AF21C28C0F6010888F8D60101B0BDE800814DF8048D20
:20BC20004FF000004AF21C28C0F6010888F8C0015DF8048B704700B54FF0000004F185F943
:20BC40004FF0000004F18FF900BD10B404464AF2DE31C0F6010104EB0101097861B121466F
:20BC60004FEAC1014AF2C072C0F6010201EB02014FF000024A700BE021464FEAC1014AF22F
:20BC8000C072C0F6010201EB02014FF001024A7010BC70472DE9F04C05460E4617469A461D
:20BCA00053463A463146284651F022F984466446F4B9284651F06AF98446644664B944F230
:20BCC000725BC0F6050BBBF800C00CF1010C1FFA8CFCABF800C00BE044F2725BC0F6050B9C
:20BCE000BBF800C0ACF1010C1FFA8CFCABF800C000BF2046BDE8F08C10B54FF0000051F098
:20BD0000CBFA04464CB144F27451C0F605010888A0F1010080B2088008E044F27451C0F6EB
:20BD20000501088800F1010080B2088010BD10B54FF0000051F0D3FA04464CB144F276519E
:20BD4000C0F605010888A0F1010080B2088008E044F27651C0F60501088800F1010080B2F6
:20BD6000088010BD10B54FF0010051F095FA04464CB144F27851C0F605010888A0F1010075
:20BD800080B2088008E044F27851C0F60501088800F1010080B2088010BD10B54FF0010038
:20BDA00051F09DFA04464CB144F27A51C0F605010888A0F1010080B2088008E044F27A51E2
:20BDC000C0F60501088800F1010080B2088010BD30B504464FF000054AF2F031C0F6010116
:20BDE00004EB0101097869B9204600F0F9FD014641B94AF2F031C0F6010104EB01014FF0DD
:20BE000001020A7030BD2DE9104104464AF21C28C0F6010898F8481501290BD14AF21C2855
:20BE2000C0F6010898F849158C4206D1204600F0F8FB02E0204600F0F4FBBDE810812DE9F4
:20BE4000304104464AF26871C0F6010101F10C024FF00B0114FB01F14FEA810101EB020164
:20BE60004988502919D94AF25A71C0F6010104EB01014FF000020A704AF26871C0F601014E
:20BE800001F10C024FF00B0114FB01F14FEA810101EB02010846FEF747FA4AF25A71C0F66B
:20BEA000010104EB01010978B9B94AF21C38C0F60108B8F8D8304AF21C21C0F6010140F232
:20BEC000F63201EB02010A464AF21C28C0F6010898F8D611204600F0DCFB204600F0A8FC1E
:20BEE000014601292BD14AF20450C0F601004FF487724FF000017EF07DFE204600F0E0FCF7
:20BF000001460D46204600F0B7FC01462A464AF20450C0F601007EF0B1FE29464AF21C227A
:20BF2000C0F6010202F53A72104602F179FC4FF000014AF21C28C0F6010888F8D611BDE85C
:20BF400030812DE9304104464AF21C28C0F6010898F84A1589B14AF21C28C0F6010898F828
:20BF60004A15012940F0B7804AF21C28C0F6010898F84B158C4240F0AE804AF26071C0F6B3
:20BF8000010104EB0101097801290BD1204600F0E8FB4AF26071C0F6010104EB01014FF0F9
:20BFA00000020A704AF26271C0F6010104EB0101097841B9204600F0B8FB204600F0C8FCAF
:20BFC00001460D4625E04FF000054AF26271C0F6010104EB01021178A1F10101C9B21170AC
:20BFE0004AF26271C0F6010104EB0101097881B94AF26871C0F6010101F11C024FF00B01A6
:20C0000014FB01F14FEA810101EB02010846FEF77BF9294602392FD121464FEAC1014AF276
:20C02000C072C0F6010201EB02014FF002020A714AF26071C0F6010104EB01014FF0010270
:20C040000A704AF26271C0F6010104EB01014FF064020A704AF26871C0F6010101F11C02B2
:20C060004FF00B0114FB01F14FEA810101EB02010846FEF759F92EE04AF26871C0F601015A
:20C0800001F11C024FF00B0114FB01F14FEA810101EB02014988C8291CD321464FEAC10187
:20C0A0004AF2C072C0F6010201EB02014FF001020A714AF26871C0F6010101F11C024FF091
:20C0C0000B0114FB01F14FEA810101EB02010846FEF72AF900BFBDE830812DE9F04104469D
:20C0E0004FF000054AF2EE31C0F6010104EB01010978013904D31AD0013900F0DB80F2E025
:20C100004AF2F031C0F6010104EB01010978012909D14AF2EE31C0F6010104EB01014FF051
:20C1200001020A7002E02046FFF752FEE5E040F20808C4F23908D8F80070AFE021464FEA87
:20C140008102A2EB01014FEA41014AF21E32C0F6010201EB0201897851B94AF2EE31C0F602
:20C16000010104EB01014FF000020A704FF0010521464FEAC1014AF2C072C0F6010201EB57
:20C180000201897902290BD021464FEAC1014AF2C072C0F6010201EB0201897901290AD115
:20C1A0004AF2EE31C0F6010104EB01014FF002020A704FF00105012D00D17AE0204600F0CA
:20C1C00033FC01460E463146033903D2023131D823D008E001393AD346D04DF6FC78B1EB46
:20C1E00008010DD04DE021464FEAC1014AF2C072C0F6010201EB02014FF000028A714DE04B
:20C2000021464FEAC1014AF2C072C0F6010201EB02014FF000028A7140E021464FEAC101E8
:20C220004AF2C072C0F6010201EB02014FF000028A7133E021464FEAC1014AF2C072C0F613
:20C24000010201EB02014FF002028A7126E021464FEAC1014AF2C072C0F6010201EB020130
:20C260004FF001028A7119E021464FEAC1014AF2C072C0F6010201EB02014FF000028A71D4
:20C280000CE021464FEAC1014AF2C072C0F6010201EB02014FF000028A7100BF40F20808FD
:20C2A000C4F23908D8F80010A1EB0701FA29FFF445AF22E021464FEA8102A2EB01014FEA1C
:20C2C00041014AF21E32C0F6010201EB0201897841B94AF2EE31C0F6010104EB01014FF0AA
:20C2E00000020A7009E04AF2EE31C0F6010104EB01014FF000020A7000BFBDE8F0812DE92F
:20C3000000414AF21C28C0F6010898F84A01052807D04AF21C28C0F6010898F84A01062876
:20C3200003D100F004F800F0BCF8BDE800812DE900414AF21C28C0F6010898F81E00042803
:20C3400040F081804AF23620C0F6010000F130000079042877D146F2B938C0F6040898F8DA
:20C360000000013801D319D064E04AF21C20C0F6010000F5AE60FDF7C7FF4FF001004AF21B
:20C380001C28C0F6010888F848054FF0010046F2B938C0F6040888F8000074E04AF26870BA
:20C3A000C0F6010000F124004088C82841D346F2B838C0F6040898F80000C8B94FF00100AA
:20C3C00046F2B838C0F6040888F800004FF001004AF21C28C0F6010888F840054AF25C70A7
:20C3E000C0F6010000F101004FF00001017018E04FF0000046F2B838C0F6040888F8000042
:20C400004FF000004AF21C28C0F6010888F840054AF25C70C0F6010000F101004FF00101E7
:20C4200001704AF21C20C0F6010000F5AE60FDF775FF28E04FF0000046F2B938C0F60408BF
:20C4400088F800001FE04AF21C20C0F6010000F5AE60FDF769FF4FF000004AF21C28C0F65A
:20C46000010888F848054FF0000046F2B838C0F6040888F800004FF0000046F2B938C0F61F
:20C48000040888F8000046F2B838C0F6040898F800004AF21C28C0F6010888F84905BDE8E4
:20C4A00000812DE900414AF21C28C0F6010898F81E00052840F085804AF23620C0F601000C
:20C4C00000F13000007905287BD146F2BB38C0F6040898F80000013801D31BD068E04AF250
:20C4E0001C20C0F6010040F2745100EB0100FDF70BFF4FF001004AF21C28C0F6010888F869
:20C500004A054FF0010046F2BB38C0F6040888F8000078E04AF26870C0F6010000F12800E3
:20C520004088C82843D346F2BA38C0F6040898F80000C8B94FF0010046F2BA38C0F6040804
:20C5400088F800004FF001004AF21C28C0F6010888F842054AF25E70C0F6010000F1010062
:20C560004FF00001017018E04FF0000046F2BA38C0F6040888F800004FF000004AF21C28A8
:20C58000C0F6010888F842054AF25E70C0F6010000F101004FF0010101704AF21C20C0F682
:20C5A000010040F2745100EB0100FDF7B7FE2AE04FF0000046F2BB38C0F6040888F8000038
:20C5C00021E04AF21C20C0F6010040F2745100EB0100FDF7A9FE4FF000004AF21C28C0F638
:20C5E000010888F84A054FF0000046F2BA38C0F6040888F800004FF0000046F2BB38C0F698
:20C60000040888F8000046F2BA38C0F6040898F800004AF21C28C0F6010888F84B05BDE85E
:20C6200000812DE9104104464AF21C28C0F6010898F84A11052907D04AF21C28C0F601085A
:20C6400098F84A11062904D1012C02D175F0FEFD01E075F0A9FABDE810812DE910410446BB
:20C660004AF21C28C0F6010898F84A11052907D04AF21C28C0F6010898F84A11062904D15D
:20C68000012C02D175F053FE01E075F0FEFABDE810812DE9F04582460D4616461F464FF00A
:20C6A00000044AF21C28C0F6010898F84AC1BCF1050F08D04AF21C28C0F6010898F84AC129
:20C6C000BCF1060F0AD1BAF1010F07D13A463146284675F054FE8446644606E03A463146BD
:20C6E000284675F0FAFA8446644600BF2046BDE8F0852DE9104104464AF21C28C0F60108D0
:20C7000098F84A11052907D04AF21C28C0F6010898F84A11062904D1012C02D175F045FF52
:20C7200001E075F0F0FBBDE810812DE9104104464AF21C28C0F6010898F84A11052907D0B2
:20C740004AF21C28C0F6010898F84A11062904D1012C02D175F060FF01E075F00BFCBDE8F5
:20C7600010812DE9104104464AF21C28C0F6010898F84A11052907D04AF21C28C0F6010809
:20C7800098F84A11062904D1012C02D175F0A1FF01E075F04CFCBDE810812DE9304105460F
:20C7A0004FF000044AF21C28C0F6010898F84A11052907D04AF21C28C0F6010898F84A11DD
:20C7C000062906D1012D04D175F00DFF01460C4603E075F0B6FB01460C46012C11D14AF269
:20C7E0006871C0F6010101F114024FF00B0115FB01F14FEA810101EB02010846FDF794FDD6
:20C8000012E04AF26871C0F6010101F114024FF00B0115FB01F14FEA810101EB0201498889
:20C82000C82901D34FF0020421460846BDE830812DE9304105464FF000044AF21C28C0F698
:20C84000010898F84A11052907D04AF21C28C0F6010898F84A11062906D1012D04D175F047
:20C86000C7FE01460C4603E075F070FB01460C4621460846BDE830812DE9304105464FF0F2
:20C8800000044AF21C28C0F6010898F84A11052907D04AF21C28C0F6010898F84A1106290C
:20C8A00006D1012D04D175F0AEFE01460C4603E075F057FB01460C4621460846BDE83081B6
:20C8C0002DE9304105464FF000044AF21C28C0F6010898F84A11052907D04AF21C28C0F6DE
:20C8E000010898F84A11062906D1012D04D175F08EFE01460C4603E075F037FB01460C469E
:20C9000021460846BDE830812DE9304105464FF000044AF21C28C0F6010898F84A1105299F
:20C9200007D04AF21C28C0F6010898F84A11062906D1012D04D175F017FD01460C4603E0F8
:20C9400075F0C0F901460C4621460846BDE830812DE9304105464FF000044AF21C28C0F6CA
:20C96000010898F84A11052907D04AF21C28C0F6010898F84A11062906D1012D04D175F026
:20C98000ACFE01460C4603E075F055FB01460C4621460846BDE830812DE9304105464FF007
:20C9A00000044AF21C28C0F6010898F84A11052907D04AF21C28C0F6010898F84A110629EB
:20C9C00006D1012D04D175F0A6FE01460C4603E075F04FFB01460C4621460846BDE83081A5
:20C9E0002DE9304105464FF000044AF21C28C0F6010898F84A11052907D04AF21C28C0F6BD
:20CA0000010898F84A11062906D1012D04D175F0C3FB01460C4603E075F06CF801460C4618
:20CA200021460846BDE830812DE9304105464FF000044AF21C28C0F6010898F84A1105297E
:20CA400007D04AF21C28C0F6010898F84A11062906D1012D04D175F0EBFE01460C4603E002
:20CA600075F094FB01460C4621460846BDE830812DE9104104464AF21C28C0F6010898F89E
:20CA80004A11052907D04AF21C28C0F6010898F84A11062904D1012C02D175F052FE01E072
:20CAA00075F0FDFABDE810812DE9304105464FF000044AF21C28C0F6010898F84A11052977
:20CAC00007D04AF21C28C0F6010898F84A11062906D1012D04D175F070FE01460C4603E0FD
:20CAE00075F019FB01460C4621460846BDE830812DE9304105464FF000044AF21C28C0F6CE
:20CB0000010898F84A11052907D04AF21C28C0F6010898F84A11062906D1012D04D175F084
:20CB200067FE01460C4603E075F010FB01460C4621460846BDE8308110B40446D4F808120C
:20CB40004FEAC1514FEAD151084610BC704710B40446D4F808124FEA01414FEAD171084626
:20CB600010BC704730B504462046FFF7E5FF05462046FFF7ECFF014601EB050100290CBF04
:20CB800001210021084630BD30B404460D46C4F8C85F30BC704710B40446216841F0004107
:20CBA000216010BC704770B504460D46164632462946204601F060F80346184670BD10B524
:20CBC00004462046FFF7CEFF0146C9B2084610BD70B406460C46154600BF2C6370BC7047B7
:20CBE00030B404460D46C4F8C85F30BC704710B40446216841F00041216010BC704770B4FD
:20CC000006460C46154600BF2C6370BC70472DE9F04404460D4616461F469DF818A03A4675
:20CC20002946204600F055F852462946204600F007F832462946204600F05DF8BDE8F084DB
:20CC40002DE9F04C82460E46174640F20003C4F23103AAEB03034FEAD31C63464FEA03132F
:20CC600040F20004C4F2300403EB0405042E16D2F4B223464FEAC30B4FF01F0E0EFA0BFBF3
:20CC8000D5F800E02EEA0B0407F01F0B4FEAC30E0BFA0EFB4BEA040BC5F800B017E0A6F148
:20CCA0000404E4B223464FEAC30B4FF01F0E0EFA0BFBD5F804E02EEA0B0407F01F0B4FEABA
:20CCC000C30E0BFA0EFB4BEA040BC5F804B0BDE8F08C70B404460D4616462EB94FF0010358
:20CCE00003FA05F3636004E04FF0010303FA05F3A36070BC70472DE9F00404460E46174675
:20CD00004FEA86034FF00F0C0CFA03FCD4F844A02AEA0C0507F00F0C0CFA03FC4CEA050CBF
:20CD2000C4F844C0BDE8F004704770474AF20001C0F60001086070474AF21000C0F6000017
:20CD4000704710B5044600F06BFC002142F242422069C9F24802904240D1206A01219042EE
:20CD60003CD1206B0221904238D1206C0321904234D1206D0421904230D1206E052190428B
:20CD80002CD1206F0621904228D1D4F880000721904223D1D4F89000082190421ED1D4F8C9
:20CDA000A0000921904219D1D4F8B0000A21904214D1D4F8C0000B2190420FD1D4F8D00089
:20CDC0000C2190420AD1D4F8E0000D21904205D1D4F8F0000E21904208BF0F210C4600F001
:20CDE00020FC204610BD00EB01100069704700EB01104069704770B50E46012400F08CFB57
:20CE00004CF68031C1F21A01086945682846FFF798FF01380BD3C0B205EB0010006942F212
:20CE20004241C9F24801884204BF0024347000F074FB204670BD46F20872C0F60402002393
:20CE4000A2F80530D371A2F80930D372A2F80D30D373538003468C4682E80B1070472DE94A
:20CE6000F04C81B000218DF803100DF103010446FFF7C1FF4CF68037C1F21A073E69D0B98D
:20CE8000756800F049FB2846FFF75BFF0138C0B205EB0010456900F040FB05F1010C74B117
:20CEA00046F20875C0F60405002001460246034685E80F0037E04FF0000C002CF0D1022316
:20CEC00046F20875C0F6040528462246210C01F1010A1FFA8AFA425400F80A2001F1030A8A
:20CEE00001F1020B1FFA8BFB1FFA8AFA00F80B2000F80A2001F1050A01F1040B1FFA8BFB11
:20CF00001FFA8AFA00F80B2001F1060B1FFA8BFB00F80A20073189B200F80B20425404F568
:20CF20000024013BD2D142F24243C9F248031946624685E80E1097F82C70766800F0ECFABE
:20CF40003046FFF7FEFE044606F1100101EB001600F0E3FA0F2C06D22A463146384610239D
:20CF600018F1E6FE00E0F02001B0BDE8F08C10B500240146204600F0EFFA002818BF01246F
:20CF8000204610BDF0B44CF68031C1F21A0191F82C30096946F2087249681031C0F6040242
:20CFA000040032D102250646300C471CBFB21454D455C71C00F1020C1FFA8CFCBFB202F868
:20CFC0000C40D455471D00F1040C1FFA8CFCBFB202F80C4000F1060C1FFA8CFCD45507301B
:20CFE00080B202F80C40145406F50026013DDBD142F24240C9F248000546A44682E83110AD
:20D0000018461023F0BC18F193BE4FF0000CA2F802C0A2F806C0A2F80AC0A2F80EC042F272
:20D020004246C9F248063046654682E8611018461023F0BC18F17CBE10B50024014620464D
:20D0400000F0ABFA002818BF0124204610BD10B44CF68031C1F21A0191F82C00096946F200
:20D0600008724968C0F604024FF0000CA2F802C0A2F805C082F807C0A2F809C082F80BC0DA
:20D08000A2F80DC082F80FC041F21724C1F6801482E810109460C2F80CC0102310BC18F11B
:20D0A00047BE00B541F23531C0F60401087818F1B4FE002808BF00BD012818BF022000BD9C
:20D0C00020B582B0DDF810C09DF814E08DE800507CF055FD003818BF012002B020BD00B524
:20D0E0007CF0D6FD003818BF012000BD00B57CF0E3FD003818BF012041F23432C0F604027E
:20D100000021117000BD70472DE9F04C8BB082461646DDF848B01F464AF6D461C1F21401D9
:20D12000086820258DE821004AF6D861C1F214010868029003A808217DF0B5FF41F23932CE
:20D14000C0F6040240F2E9313046012317F187F8139B0BEB0A02044630460D2117F17FF889
:20D160006A460443304604230E2117F178F802AA0443304604230F2117F171F80443304686
:20D1800017F1A5F803AA044338462B46012117F166F80443384617F19AF80443E4B2002C17
:20D1A0007BD13946304616F123FF01AB03AA04463846012116F1B8FF04436ED120460222F4
:20D1C00048F6BC71C0F6040103ABD1F800C01E5C0CF80060451CEDB20E6813F805C006F8D0
:20D1E00005C0851CEDB20E6813F805C006F805C0C51CEDB20E6813F805C006F805C0051D76
:20D20000EDB20E6813F805C006F805C0451DEDB20E6813F805C006F805C0851DEDB20E68A5
:20D2200013F805C006F805C0C51DEDB20E6813F805C006F805C00830C0B2013AC5D1022331
:20D2400007A8D1F808C010F8086B0CF802608D68551910F8076C6E708D68551910F8066C14
:20D26000AE708D68551910F8056CEE708D68551910F8046C2E718D68551910F8036C6E7123
:20D280008D6810F8026C5519AE718D68551910F8016CEE710832013BD3D120460BB0BDE87F
:20D2A000F08C41F60001C4F226010868C0F3001080F001007047BFF34F8F4EF60C52CEF290
:20D2C0000002106800F4E06040F20001C0F2FA51084340F004001060BFF34F8FFEE741F6D5
:20D2E0000001C4F226010868C0F3001080F0010070470020704700207047BFF34F8F4EF673
:20D300000C52CEF20002106800F4E06040F20001C0F2FA51084340F004001060BFF34F8F92
:20D32000FEE70320704730B581B002240DF1030036F1C7FF002857D19DF803000A2850D0CA
:20D3400042F60022C0F60502156946F269212868C6F66F51884247D153691868884243D16E
:20D36000287910701979117295F805C082F801C093F805C082F809C095F806C082F802C0C8
:20D3800093F806C082F80AC095F807C082F803C093F807C082F80BC095F808C082F804C03D
:20D3A0001B7A1373412802D3E0301070C0B2412902D3E0311172C9B2814212D814D3517867
:20D3C000507A88420DD80FD39178907A884208D80AD3D178D07A884203D805D31179107B33
:20D3E000884228BF002000D2204601B030BD002070477047F0B591B046F21875C0F604058E
:20D400000224002600964AF6DC67C1F2140701AA0BCF0BC20BCF0BC20BCF0BC2386848F25F
:20D4200000011060C1F202214FF4106248F60043C1F2022301A84FF43D3780E88E00012020
:20D44000ADF8260048F60810C1F202200A900EA803217DF028FE0BA803217DF024FE2878C9
:20D46000013805D327D002282DD347D0204651E00EA8F5F01CFCE0B90BA8F5F0ADFBC0B9C7
:20D480000E98012814BF0C28304643D09DF831009DF83310C1EA00409DF8321040EA012082
:20D4A000B0F5023F05D32878012101302870084630E020462EE001A905F10C00F7F0EFFBD4
:20D4C000022804D105E005F10C00F5F0C6F903280BD16868411C696040F6B831884298BF85
:20D4E000012017D92E70204614E00028FAD16860287801210130287008460BE06846F7F00F
:20D5000048FC28B90098022802D12E70304601E02E70204611B0F0BD7047704731201870A3
:20D520000120704700207047009931200870012070470199312008700120704701207047EF
:20D5400031201870012070470099312008700120704700207047704710B582B04CF6803069
:20D56000C1F21A000124026990F82C0052684FF4807394468DE8081031B96B4601AA214696
:20D5800018F188FC30B9019A1046FFF7DAFB002818BF0024204602B010BD10B582B04CF618
:20D5A0008030C1F21A000124026990F82C0052684FF4807394468DE8081031B96B4601AA0D
:20D5C000214618F167FC50B9019A106841F21721C1F68011884202BF9068884200242046D2
:20D5E00002B010BD0120704770477047002070470020704700207047002070470020704733
:20D60000002070470020704700207047002070470020704700207047002070470120704751
:20D620007047704700B5F5F086FB01280CBF0020F5F08CFB00BD00B5F5F07DFB002818BF13
:20D64000F5F017FC00BD0020704700207047014646F23470C0F60400F5F054BD014646F215
:20D660003470C0F60400F5F01FBD46F23470C0F60400F5F0F2B84FF20041C4F224010120E8
:20D68000086070474FF20041C4F2240100200860704770B581B004460D1E22D046F2487121
:20D6A000C0F60401002002460346064684468646A1E84D5081E84D1046F24471C0F6040188
:20D6C0000860206840F0004020602E68A868B6FBF0F202FB106392B21BB9511EB1F5807F95
:20D6E00001D3012029E0206B61F307002063287B90B9B6FBF2F0010C6A6800047DF00AFDED
:20D7000020F0FF006062206A6FF39E702062206A40F0004020620BE0206A697B40F08040F7
:20D7200061F3124000902062206A10F0004FFBD0206910F0004FFBD0002001B070BD0021CB
:20D740000160016341620162C0F80817C0F818177047F0B581B005460E46141E05D00B29D9
:20D7600003D21078012816D00BB901204AE046F24872C0F6040242F8213061681960E1686A
:20D780005960012146F24472C0F6040201FA06F311681943116005EB4617D7F80018009105
:20D7A000012802BF41F002000090014641F00100617861F3104040F0004000904FF01CFF6C
:20D7C000686962688218C7F80428227807F50067012A02D1A2688018B8604FF00FFF00988F
:20D7E0003860012000FA06F1D5F808070843C5F808072078012804D1D5F818070843C5F802
:20D800001807002001B0F0BD00EB41120020C2F80008C2F80408C2F8080846F24872C0F613
:20D82000040242F8210070472DE9F04881B046F24472C0F604021168D0F80CB71BEA010B92
:20D84000C0F800B7D0F800175C46009146F24875C0F60405AC461FD04FF0000314F0010F5C
:20D8600014D01A18D2F80478D2F800186FF30001C2F80018DCF800603668B919C2F80418BB
:20D88000D2F8001841F00101C2F8001803F120030CF1040C6408E1D1BBF100040CD00026AD
:20D8A00014F0010F04D0A8594068002818BF804706F104066408F3D101B0BDE8F08803000F
:20D8C00018BF002A00F09D8000202DE9F04C01248C40D2F800C00546C4F23005BCF1000F5B
:20D8E0001AD15C6040F20004C4F231041C1BE409167A05EB041516F01F0604291AD2CCB2E1
:20D90000E4001F27D5F800C0A7402CEA070706FA04F43C432C601BE09C6040F20004C4F25F
:20D9200031041C1BE409167A05EB041516F01F060429E4D301F1FC04E4B2E4001F27D5F867
:20D9400004C0A7402CEA070706FA04F43C436C6055694FF0010C0CFA01F69F6CF443274005
:20D9600015F001058D403D439D64DF6C9569274015F001058D403D43DD64D3F84CE04D00C1
:20D9800005F1100C032707FA0CFBD2F81CA02EEA0B0B0AF0030A0AFA0CFC4CEA0B0CC3F874
:20D9A0004CC04FEA810C4FF00F0BD3F844E00BFA0CFBD2F804A02EEA0B0B0AF00F0A0AFA8E
:20D9C0000CFC4CEA0B0CC3F844C0D3F840A0AF40D2F80CC02AEA07070CF0030C0CFA05F5D6
:20D9E0003D431D645D695E615D699D6912692C4012F0010202FA01F121439961BDE8F04CBC
:20DA0000704740F20100C0F25A007047020018BF002922D010B440F20003C4F23103D31A95
:20DA2000DB0940F20004C4F2300404EB0313CC691C600C6A5C600B6813600B6993644B69F5
:20DA4000D364CB6853648B68136440F2FF13536149689161002010BC704740F20100C0F218
:20DA60005A00704710B4D0F8003313F01F03082B2DD2D40821D0D0F8403301F8083BD0F873
:20DA8000403301F8073CD0F8403301F8063CD0F8403301F8053CD0F8403301F8043CD0F8B0
:20DAA000403301F8033CD0F8403301F8023CD0F8403301F8013C013CDDD112F0070233D0DF
:20DAC000D0F8403301F8013B013AF9D12CE0D40821D0D0F8403321F8103BD0F8403321F805
:20DAE0000E3CD0F8403321F80C3CD0F8403321F80A3CD0F8403321F8083CD0F8403321F8BA
:20DB0000063CD0F8403321F8043CD0F8403321F8023C013CDDD112F0070205D0D0F8403397
:20DB200021F8023B013AF9D110BC704710B5D0F80843C4F30804944228BF14462246FFF7F7
:20DB400091FF204610BDF0B507460C46161E08BFF0BDD7F80853C5F30805B54228BF3546CE
:20DB60002A4621463846FFF77DFFD7F8001311F01F01082903D26419761BEAD1F0BD04EB70
:20DB80004504761BE5D1F0BD10B4024603684024002013F4404F08BF8024D2F80832C3F392
:20DBA00008039C421CBFC2F84012012010BC704710B4D0F8003213F01F03082B2DD2D40800
:20DBC00021D011F8083BC0F8403211F8073CC0F8403211F8063CC0F8403211F8053CC0F8F1
:20DBE000403211F8043CC0F8403211F8033CC0F8403211F8023CC0F8403211F8013CC0F85F
:20DC00004032013CDDD112F0070233D011F8013BC0F84032013AF9D12CE0D40821D031F823
:20DC2000103BC0F8403231F80E3CC0F8403231F80C3CC0F8403231F80A3CC0F8403231F875
:20DC4000083CC0F8403231F8063CC0F8403231F8043CC0F8403231F8023CC0F84032013C60
:20DC6000DDD112F0070205D031F8023BC0F84032013AF9D110BC704710B50368402413F463
:20DC8000404F08BF8024D0F80832C3F30803E41A944228BF14462246FFF78AFF204610BD98
:20DCA000F0B507460C46161E08BFF0BD3868402110F4404F08BF8021D7F80802C0F30800E8
:20DCC0000D1AB54228BF35462A4621463846FFF76FFFD7F8001211F01F01082903D2641986
:20DCE000761BE3D1F0BD04EB4504761BDED1F0BD30B400240268402312F4404F0BD10D7842
:20DD000080235DB1D0F80822C2F308029342F9D0C0F8405201340D5D002DF3D130BC704786
:20DD2000002A08BF7047C0F84012013AFBD1704710B40368402413F4404F08BF8024D0F817
:20DD40000832C3F30803E31A934228BF13461C0018BF1C46E20811D0C0F84012C0F8401282
:20DD6000C0F84012C0F84012C0F84012C0F84012C0F84012C0F84012013AEDD114F0070261
:20DD800003D0C0F84012013AFBD1184610BC70472DE9F0048AB003004BF26430C1F21400DF
:20DDA000006800904BF26830C1F21400006801904BF26C30C1F21400006802904BF270305F
:20DDC000C1F21400006803904BF27430C1F21400006804904BF27830C1F214000068059034
:20DDE0004BF27C30C1F21400006806904BF28030C1F21400006807904BF28430C1F214000A
:20DE0000006808904BF28830C1F214000068099046F20100C0F2AA0018BF002900F0BA8086
:20DE20000C68022C07BF91F82650002D4868451E91F82400C6070098760F66F3903065F333
:20DE400003004FF0020C6CF3196000901860019864F319600190186491F825C002986CF3B5
:20DE60008610B1F8195091F81BC005F00106C5F3002545EA4C0546EA450565F30A208D6B49
:20DE8000013D65F313400D696E1E0546486966F3020560F3000060F3051502959D640D7B5B
:20DEA00091F818C005F0010747EA4C0C039F6CF30927D1F808C0ACF1010A27F01F0C0AF0D5
:20DEC0001F074CEA070CCDF80CC0C3F800C3D1F81CC08DF810C0D1F820C08DF812C0DDF8F5
:20DEE00010C0C3F810C391F827A0DDF814C06AF3082C66F3020C60F3051CCDF814C0C3F80B
:20DF000044C00698012C6FF3082040EA052067F3040020F4803008BF40F480300690C3F83B
:20DF20000002C86B8DF81C000798C3F80403C86A91F82840012818BF002040EA4404089855
:20DF400064F319604C6B012C20F4803008BF40F480300890086B8DF8200008981865486C1D
:20DF60008DF824000998C3F80402886CC3F8880F086CC3F8C80F62B1002090605060106007
:20DF8000D0601062D06210634CF6EF50C0F2AB00506300200AB0BDE8F004704740F20F013D
:20DFA000C0F2003101604FF4401101640021816440F20712C0F80023C0F80413C0F810134E
:20DFC0004164C0F80022C0F804120165C0F8C81EC0F8881EC0F8C81FC0F8881FC0F8081FB5
:20DFE000C0F8481F704702686FF3DF720260002908BF70470020486008600862C8627047AA
:20E00000002914BF002A704710B481B0D0F800C040241CF4404F08BF80249960DA600021E4
:20E020001961596161088A4228BF0A46D0F804130091D0F804136FF30701C0F80413511E49
:20E040008DF800100099C0F804130121C0F8C81F01B010BC70474869086170470022C0F823
:20E06000C82F486908618A60CA60704708694A69904202D34969401A7047CA684969511AE7
:20E08000401870472DE9F04C81B017465A68D20700F197801C4606460025C0F8C85F98683C
:20E0A0008A46002867D01A695B699A4203D36369D51A60D006E0E368D4F814C0A3EB0C03DF
:20E0C000D51858D06269D6F8003313F01F03082B34BF4FF0010C4FF0000CBD4228BF3D4614
:20E0E0000023BCF1000F13D0AB4228D2D4F80CB001325A4500D10022805CC8540133AB4211
:20E100001DD2A068D4F80CB001325A45F4D1F2E7AB4214D2D4F80CB001325A4506D104E028
:20E12000D4F80CB001325A4500D162464FEA420B3BF800B021F802BB0133AB42F0D3626126
:20E1400025627F1B0FD14FF44870C6F8C80F206A002803D9216B09B1042088470120C6F888
:20E16000C80F67B308E0BCF1000F02D0AA4437B302E00AEB450A17B33168402011F4404FE3
:20E1800008BF802001216160E76125624108D6F804030090D6F80403B9426FF30700C6F8C1
:20E1A000040388BF3946481E8DF800000098C6F80403C4F818A040F62130C6F8C80F00209A
:20E1C00003E046F20200C0F2AA0001B0BDE8F08C8A68002A08BFC0F8C82F0020C8610862AF
:20E1E00048607047086A70474868704730B481B01D68ED072AD459620446012018609A620A
:20E200002068402110F4404F08BF8021D4F804020090D4F804026FF30700C4F8040248086B
:20E220008DF800000098C4F80402206C00F04070B0F1807F05D140F20150C4F8880F002067
:20E2400008E00120C4F8880F002003E046F20300C0F2AA0001B030BC70470022C0F8882FE3
:20E26000D0F8043243F48033C0F80432D0F804326FF31043C0F80432D0F804028A62CA6241
:20E280000A607047C86A70470868704770B582B006460D460168402011F4404F08BF802093
:20E2A0004408EA69A9693046FFF740FC296A09182962E969091AE961E969002943D1AA6866
:20E2C000B2B3E868A04219D3D6F804030090D6F804036FF30700C6F80403601E8DF8000050
:20E2E0000098C6F804030122C6F8C82F686820F00100296B6860002942D021E0EA68D6F850
:20E3000004030090D6F804036FF30700C6F80403501E8DF800000098C6F804030122C6F832
:20E32000C82F686820F00100296B686041B307E0C6F8C82F686820F00100296B6860F9B132
:20E34000042088471CE0D6F80023A96912F01F02082A28BF40000918E869A961A0420FD210
:20E36000E869411ED6F804030190D6F804036FF30700C6F804038DF804100198C6F804038D
:20E3800002B070BD2DE9F04481B007460D460168402011F4404F08BF8020D7F808634FEA4C
:20E3A000500AF6054FEAD6562C6938D0E8680134844208BF0024686984421FD1296B09B1FB
:20E3C000082088476869844218D10020C7F8C80F64B1601E286128696969884224D36969FE
:20E3E000401AE9680E1A564538D225E0E8680138286128696969884216D3F0E7D7F840137F
:20E40000D7F80003AA6810F01F00082803D21155013ECBD103E060008152013EC6D12C613A
:20E42000286969698842DAD2E9686A69891A4018E9680E1A564511D20021002E18BF711E38
:20E44000D7F804030090D7F804036FF30700C7F804038DF800100098C7F8040301B0BDE808
:20E46000F0842DE9F04405460C460068402710F4404F08BF8027D5F8000210F01F00082853
:20E48000886A34BF4FF0010A4FF0000A012811D9886AC862886A4E6A3146421E2846FFF7F0
:20E4A000EBFBA16A091AA162BAF1000F08BF400030186062D5F80802C0F30800874208BF58
:20E4C000BDE8F084A06A012818BFBDE8F0840020A062606ABAF1000F03D006784FF08CF846
:20E4E00002E006884FF088F8C5F840624FF40070C5F8800FD5F8800F4FF080F8D5F8880F18
:20E5000020F0010040F40070C5F8880F206840F00200216B2060002908BFBDE8F084012002
:20E52000BDE8F044084730B504460D46D0F8000E00073ED5D4F8CC0F10F448700AD0496853
:20E5400001436960C4F8C00F296BD4F8C00F09B110208847D4F8CC0F000509D5686840F4AD
:20E56000006068604FF40060C4F8C00FD4F8C00FD4F8CC0FC0071CD5E86900280ED929467C
:20E580002046FFF783FE0120C4F8C00FD4F8C00FD4F8000E400758BF30BD0FE0A86818B16A
:20E5A00029462046FFF7EEFE0120C4F8C00FD4F8C00FD4F8000E400758BF30BDD4F88C0FD1
:20E5C00010F4A0600AD0296801432960C4F8800F296BD4F8800F09B120208847D4F88C0F95
:20E5E000C00708D529462046FFF73BFF0120C4F8800FD4F8800FD4F88C0F800558BF30BDBB
:20E600000021C4F8881F286820F001002860E962296B002908BF30BD0220BDE8304008470B
:20E62000014603284FF0020098BF08467047014603284FF0010098BF08467047014602284C
:20E640004FF0000098BF0846704746F63011C0F60401002046F66C02C0F60402A1F8320393
:20E66000107070472DE9F04F81B00D4646F27474C0F60404071E00F05D8394F8F80001280A
:20E6800000F0588346F63016C0F6040696F83303002840F04481012086F833038A7D501E42
:20E6A000032804D94BF23841C1F2140105E04BF28831C1F2140151F8221046F6780AC0F642
:20E6C000040A5046B6227CF0D9FADAF80000E082000C2083DAF804006083000CA083DAF8E2
:20E6E0000800E083000C2084DAF80C006084000CA084DAF81000E084000C2085DAF8140030
:20E700006085000CA085DAF81800E085000C2086DAF81C006086000CA086DAF82000E08684
:20E72000000C2087DAF824006087000CA087DAF82800E087000CA4F84000DAF82C00A4F833
:20E740004200000CA4F84400DAF83000A4F84600000CA4F84800DAF83400A4F84A00000CBF
:20E76000A4F84C00DAF83800A4F84E00000CA4F85000DAF83C00A4F85200000CA4F85400CD
:20E78000DAF84000A4F85600000CA4F85800DAF84400A4F85A00000CA4F85C00DAF848004B
:20E7A000A4F85E00000CA4F86000DAF84C00A4F86200000CA4F86400DAF85000A4F866000B
:20E7C000000CA4F86800DAF85400A4F86A00000CA4F86C00DAF85800A4F86E00000CA4F80D
:20E7E0007000DAF85C00A4F87200000CA4F87400DAF86000A4F87600000CA4F87800DAF81B
:20E800006400A4F87A00000CA4F87C00DAF86800A4F87E00000CA4F88000DAF86C00A4F804
:20E820008200000CA4F88400DAF87000A4F88600000CA4F88800DAF87400A4F88A00000C1E
:20E84000A4F88C00DAF87800A4F88E00000CA4F89000DAF87C00A4F89200000CA4F894002C
:20E86000DAF88000A4F89600000CA4F89800DAF88400A4F89A00000CA4F89C00DAF88800AA
:20E88000A4F89E00000CA4F8A000DAF88C00A4F8A200000CA4F8A400DAF89000A4F8A6006A
:20E8A000000CA4F8A800DAF89400A4F8AA00000CA4F8AC00DAF89800A4F8AE00000CA4F8AC
:20E8C000B000DAF89C00A4F8B200000CA4F8B400DAF8A000A4F8B600000CA4F8B800DAF87A
:20E8E000A400A4F8BA00000CA4F8BC00DAF8A800A4F8BE00000CA4F8C000DAF8AC00A4F864
:20E90000C200000CA4F8C400DAF8B000A4F8C600000CA4F8C800BAF8B400A4F8CA00287809
:20E920004FF0020E032898BF864684F806E068784FF0020B032898BF834684F807B0A9780D
:20E940004FF00208032998BF884684F80980E9784FF00209032998BF894684F80890297965
:20E960000220032998BF0846207168794FF0010C032898BF844684F80BC0A87901230328E3
:20E9800098BF03466373E8790122032898BF02462274287A0121032898BF0146617495F82E
:20E9A00009A00121BAF1030F98BF5146A17400212170A4F8131095F88E10042918BF022901
:20E9C00035D1A97A0220032998BF08466070E97A0220032998BF0846A070297B02200329F3
:20E9E00098BF0846E070697B0220032998BF08466071E97B0120032998BF0846A072297C6D
:20EA00000120032998BF08462073697C0120032998BF0846E073A97C0120032998BF084630
:20EA2000A07396F83203002840F084811BE084F8059084F8038084F802B084F801E084F891
:20EA40000AC02373E273032806D8A07396F83203002840F06F8106E0012196F83203A173FB
:20EA6000002840F06781012086F8320347F60040C0F604004BF2B431AA7DC1F21401042A0C
:20EA800000F2EB800FF20403D3E802F0032F5F8FBB000246022351F8165B22F8165B2D0C9E
:20EAA00022F8145C51F8125C22F8125C2D0C22F8105C51F80E5C22F80E5C2D0C22F80C5CDC
:20EAC00051F80A5C22F80A5C2D0C22F8085C51F8065C22F8065C2D0C31F802CC22F8045C7F
:20EAE00022F802CC013BD6D1E2E04BF2E032C1F214020146022352F8165B21F8165B2D0C87
:20EB000021F8145C52F8125C21F8125C2D0C21F8105C52F80E5C21F80E5C2D0C21F80C5C7E
:20EB200052F80A5C21F80A5C2D0C21F8085C52F8065C21F8065C2D0C32F802CC21F8045C1F
:20EB400021F802CC013BD6D1B2E04BF20C42C1F214020146022352F8165B21F8165B2D0C1B
:20EB600021F8145C52F8125C21F8125C2D0C21F8105C52F80E5C21F80E5C2D0C21F80C5C1E
:20EB800052F80A5C21F80A5C2D0C21F8085C52F8065C21F8065C2D0C32F802CC21F8045CBF
:20EBA00021F802CC013BD6D182E00246022351F8165B22F8165B2D0C22F8145C51F8125CFD
:20EBC00022F8125C2D0C22F8105C51F80E5C22F80E5C2D0C22F80C5C51F80A5C22F80A5CCD
:20EBE0002D0C22F8085C51F8065C22F8065C2D0C31F802CC22F8045C22F802CC013BD6D1C2
:20EC000056E00246022351F8165B22F8165B2D0C22F8145C51F8125C22F8125C2D0C22F8B7
:20EC2000105C51F80E5C22F80E5C2D0C22F80C5C51F80A5C22F80A5C2D0C22F8085C51F847
:20EC4000065C22F8065C2D0C31F802CC22F8045C22F802CC013BD6D12AE00246022351F8A1
:20EC6000165B22F8165B2D0C22F8145C51F8125C22F8125C2D0C22F8105C51F80E5C22F80A
:20EC80000E5C2D0C22F80C5C51F80A5C22F80A5C2D0C22F8085C51F8065C22F8065C2D0C09
:20ECA00031F802CC22F8045C22F802CC013BD6D10168A4F8CC10090CA4F8CE104168A4F863
:20ECC000D010090CA4F8D2108168A4F8D410090CA4F8D610C168A4F8D810090CA4F8DA1079
:20ECE0000169A4F8DC10090CA4F8DE104169A4F8E010090CA4F8E2108169A4F8E410090C1B
:20ED0000A4F8E610C169A4F8E810090CA4F8EA10016AA4F8EC10090CA4F8EE10416AA4F8FF
:20ED2000F010090CA4F8F210806AA4F8F400000CA4F8F600380018BF012084F8F80001B0B3
:20ED4000BDE8F08F417C01390ED0012918BF7047016801290ED312D04268511C914238BFCB
:20ED60004FF0FF31416070470168012904BF02214174704701214174002141607047002176
:20ED8000416002214174704730B50546C07B01380ED0012818BF30BDA97C0020B1B12C6899
:20EDA00028602846FFF7CEFF2C600020E87330BDA97C002041B12C6828602846FFF7C2FF2E
:20EDC0002C600020E87330BDE87330BDE87330BD30B50546807B01380ED0012818BF30BD80
:20EDE000A97C0020B1B12C6828602846FFF7AAFF2C600020A87330BDA97C002041B12C68C4
:20EE000028602846FFF79EFF2C600020A87330BDA87330BDA87330BD30B50546407B013881
:20EE20000ED0012818BF30BDA97C0020B1B12C6828602846FFF786FF2C600020687330BDE7
:20EE4000A97C002041B12C6828602846FFF77AFF2C600020687330BD687330BD687330BD7E
:20EE600030B50446C07A013838BF30BD05D0023809D30ED0012812D030BD2046FFF784FF6C
:20EE80000020E07230BD2046FFF7A2FF0020E07230BD2046FFF7C0FF0020E07230BD2568B0
:20EEA000A17C002019B120602046FFF74BFF25600020A4F80B0030BD2DE9F04407460C4603
:20EEC000C97C207D81421FD040B92046FFF7C8FF0220607200203870BDE8F084062813D19B
:20EEE0002046FFF7BDFF03206072256802202074A07C012118B121602046FFF723FF256037
:20EF000009203870BDE8F084E27A0126013A38BFBDE8F08425D0023A74D300F0D780012A4F
:20EF200018BFBDE8F084814200F03481022840F03181D4F800A0A57C00211DB1216020460A
:20EF4000FFF700FF00202073E672E6731DB126602046FFF7F7FEC4F800A002203870BDE8E8
:20EF6000F084814227D0012811D12046FFF70CFF26730420E072A07C256818B12660204684
:20EF8000FFF7E0FE256008203870BDE8F084032811D12046FFF7F8FEA6730220E072A07C27
:20EFA000256818B126602046FFF7CCFE256004203870BDE8F084E07B013807D0012818BF7A
:20EFC000BDE8F08403203870BDE8F084022038706068642838BFBDE8F0842668A57C002136
:20EFE0001DB121602046FFF7ADFE0220E07301211DB121602046FFF7A5FE26600320387085
:20F00000BDE8F08481423AD0012811D12046FFF7DFFE26730420E072A07C256818B12660BF
:20F020002046FFF78FFE256008203870BDE8F084042811D12046FFF7CBFE66730320E072F8
:20F04000A07C256818B126602046FFF77BFE256006203870BDE8F084022810D12046FFF710
:20F06000B7FEE672E673A07C256818B126602046FFF768FE256002203870BDE8F084A07BED
:20F08000013807D0012818BFBDE8F08405203870BDE8F084042038706068642838BFBDE8A5
:20F0A000F0842668A57C00211DB121602046FFF749FE0220A07301211DB121602046FFF718
:20F0C00041FE266005203870BDE8F08481423AD0012811D12046FFF79FFE26730420E072A5
:20F0E000A07C256818B126602046FFF72BFE256008203870BDE8F084032811D12046FFF7BC
:20F100008BFEA6730220E072A07C256818B126602046FFF717FE256004203870BDE8F08406
:20F12000022810D12046FFF777FEE672E673A07C256818B126602046FFF704FE2560022045
:20F140003870BDE8F084607B013807D0012818BFBDE8F08407203870BDE8F0840620387034
:20F160006068642838BFBDE8F0842668A57C00211DB121602046FFF7E5FD022060730121B7
:20F180001DB121602046FFF7DDFD266007203870BDE8F084207B012804BF08203870BDE880
:20F1A000F08430B50546007C013804D001284FF000000BD013E0A97C002081B12C68286059
:20F1C0002846FFF7BFFD2C60002008E0A97C31B12C6828602846FFF7B5FD2C6000202874FA
:20F1E00030BD4FF0000C81F808C0A1F811C0A1F80EC081F80DC0C1F809C081F810C04FF075
:20F20000FF3281E8041080F800C0A1F813C070474FF0000C81F808C0A1F811C0A1F80EC088
:20F2200081F80DC0C1F809C081F810C04FF0FF3281E8041080F800C0A1F813C070472DE95F
:20F24000F04C0F46157D10754FF0FF311160117A4FF0020A59B9D07401201072907450748F
:20F260005160907282F809A03970BDE8F08C1646044692F812B0D574BBF1000F02D01046D0
:20F28000FFF760FDB07A002808BFBDE8F08C707A013838BFBDE8F08C10D0022814D318BFDE
:20F2A000BDE8F08CA54200F0A480B4BB3046FFF778FF86F809A03C70BDE8F08C31463846F7
:20F2C000BDE8F04CFFF7F8BD00203870347DF07CA04208BFBDE8F08C042C12D101207072DD
:20F2E0000321F172B17C86F80DA019B130603046FFF728FD4FF0FF30306007203870BDE8D2
