:020000041005E5
:208000001A4908684FEA102000F00F0090F00E0F08BF1749086820F00B000860BFF34F8FDE
:208020001449012008600220086013490020086012490020086012490120000708601149C4
:20804000002008601049102008600B490F4808600F494FF0010008600649032008600D4865
:208060000D490160BFF34F8F01F0CEB9000020400C00204040C0264000C0264004C02640BF
:1C80800008C026400CC0264010C026400100008044C0264008ED00E000840510F5
:2084000000D00008018005106913071031120710311207103112071031120710D5120710F5
:20842000D5120710D5120710D512071069100710D5120710D5120710D51207101D0D071077
:208440001D0D07101D0D07101D0D07101D0D07101D0D07101D0D07101D0D07101D0D071014
:208460001D0D07101D0D07101D0D07101D0D07101D0D07101D0D07101D0D07101D0D0710F4
:20848000D5120710D5120710D5120710D5120710D5120710D5120710D5120710D5120710EC
:2084A000D5120710D5120710D5120710D5120710D5120710D5120710D5120710D5120710CC
:2084C000D5120710D5120710D5120710D5120710D5120710D5120710D5120710D5120710AC
:2084E000D5120710D5120710D5120710D5120710D5120710D5120710D5120710D51207108C
:20850000D5120710D5120710D5120710D5120710D5120710D5120710D5120710D51207106B
:20852000D5120710D5120710D5120710D5120710D5120710D5120710D5120710D51207104B
:20854000D5120710D5120710D5120710D5120710D5120710D5120710D5120710D51207102B
:20856000D5120710D5120710D5120710D5120710D5120710D5120710D5120710D51207100B
:20858000D5120710D5120710D5120710D5120710D5120710D5120710D5120710D5120710EB
:2085A000D5120710D5120710D5120710D5120710D5120710D5120710D5120710D5120710CB
:2085C000D5120710D5120710D5120710D5120710D5120710D5120710D5120710D5120710AB
:2085E000D5120710D5120710D5120710D5120710D5120710D5120710D5120710D51207108B
:20860000D5120710D5120710D5120710D5120710D5120710D5120710D5120710D51207106A
:20862000D5120710D5120710D5120710D5120710D5120710D5120710D5120710D51207104A
:20864000D5120710D5120710D5120710D5120710D5120710D5120710D5120710D51207102A
:20866000D5120710D5120710D5120710D5120710D5120710D5120710D5120710D51207100A
:20868000D5120710D5120710D5120710D5120710D5120710D5120710D5120710D5120710EA
:2086A000D5120710D5120710D5120710D5120710D5120710D5120710D5120710D5120710CA
:2086C000D5120710D5120710D5120710D5120710D5120710D5120710D5120710D5120710AA
:2086E000D5120710D5120710D5120710D5120710D5120710D5120710D5120710D51207108A
:20870000D5120710D5120710D5120710D5120710D5120710D5120710D5120710D512071069
:20872000D5120710D5120710D5120710D5120710D5120710D5120710D5120710D512071049
:20874000D5120710D5120710D5120710D5120710D5120710D5120710D5120710D512071029
:20876000D5120710D5120710D5120710D5120710D5120710D5120710D5120710D512071009
:20878000D5120710D5120710D5120710D5120710D5120710D5120710D5120710D5120710E9
:2087A000D5120710D5120710D5120710D5120710D5120710D5120710D5120710D5120710C9
:2087C000D5120710D5120710D5120710D5120710D5120710D5120710D5120710D5120710A9
:2087E000D5120710D5120710D5120710D5120710D5120710D5120710D5120710FFFFFFFF8B
:208B000017128019FFFFFFFF17128019FFFFFFFF422448900000000042244890000000005D
:208C0C00FFFFFFFFFFFFFFFFFFFFFFFFFFFFFFFFFFFFFFFF30B40346104600248C420FD206
:208C2C0048F2A835C1F2190513F8012B42401206D20D525B82EA102080B201348C42F3D34C
:208C4C0030BC70472DE9F00C01004FF0010000F0A0800C68002C00F09C8065884FF6FF71B4
:208C6C008D4218BF002D00F0948034F8091C0023AB4280F08A8004EBC3067268B668B2F1E3
:208C8C00FF3F18BF964203D822888A427FD080E0B61A06F1010C5FEADC075DD048F2A83696
:208CAC00C1F2190632F808AB8AEA010B4FEA0B6B4FEADB5B3BF806B08BEA212181EA1A2A0C
:208CCC004FEA0A6A4FEADA5A3AF806B032F806AC8BEA21218AEA010B4FEA0B6B4FEADB5B55
:208CEC003BF806B08BEA212181EA1A2A4FEA0A6A4FEADA5A3AF806B032F804AC8BEA212186
:208D0C008AEA010B4FEA0B6B4FEADB5B3BF806B08BEA212181EA1A2A4FEA0A6A4FEADA5A40
:208D2C003AF806B032F802AC8BEA21218AEA010B4FEA0B6B4FEADB5B3BF806B08BEA212172
:208D4C0081EA1A2A4FEA0A6A4FEADA5A3AF806A08AEA2121013FA5D11CF0070611D048F2C6
:208D6C00A837C1F2190712F801CB8CEA010C4FEA0C6C4FEADC5C3CF807C08CEA2121013EC8
:208D8C00F1D10133AB42FFF476AF22888A4208BF0020BDE8F00C70472DE9F04442F27C36E7
:208DAC00C0F6040600214FF48870E6F0F8FB47F6A420C1F219000024057B3470AC420FD2DE
:208DCC002746D0F808A0380E0AEBC000FFF73AFF08B10124347007F18077B5EB176FF2D81F
:208DEC000CB90220307065F092FD01214FF48870BDE8F044E6F0D3BBFFF7CEBFF0B542F206
:208E0C007C36C0F60406022047F6A421C1F2190130700C790025A54228BFF0BD0F68280E71
:208E2C0007EBC000FFF70EFF08B10120307005F18075B4EB156FF2D8F0BD00B5EFF0BEFB25
:208E4C00002814BF0420032000BD42F27C31C0F604010878022808BF7047003818BF012013
:028E6C0070474D
:2092000069626F6D5435323154000000000000000000000000000000000000000000000067
:2092200000000000000000000000000000000000000000000000000000000000000000002E
:2092400000000000000000000000000000000000000000000000000000000000000000000E
:209260000000000000000000000000000000000000000000000000000000000000000000EE
:209280000000000000000000000000000000000000000000000000000000000000000000CE
:2092A0000000000000000000000000000000000000000000000000000000000000000000AE
:2092C00000000000000000000000000000000000000000000000000000000000000000008E
:2092E00000000000000000000000000000000000000000000000000000000000000000006E
:2093000000000000000000000000000000000000000000000000000000000000000000004D
:2093200000000000000000000000000000000000000000000000000000000000000000002D
:2093400000000000000000000000000000000000000000000000000000000000000000000D
:209360000000000000000000000000000000000000000000000000000000000000000000ED
:209380000000000000000000000000000000000000000000000000000000000000000000CD
:2093A0000000000000000000000000000000000000000000000000000000000000000000AD
:2093C00000000000000000000000000000000000000000000000000000000000000000008D
:2093E00000000000000000000000000000000000000000000000000000000000000000006D
:2094000001808FE218FF2FE106460F46904617F0F3FB4FF014004FF00101DEF025FF49F206
:209420002F45C1F20505A5F101057A46A2EB05059146002803D131463A4643460AE04DF28C
:209440000000C0F6000085464FF000014FF000024FF0000340F20200012817D308D04EF665
:209460008850CEF20000046844F4700404600DE011EE500F40F4A00001EE500FBFF36F8FBB
:20948000F8EE100A40F08040E8EE100A4FF0000448F20000C1F20500814506DB47F6FF7064
:2094A000C1F21F00814500DC2C4644F66850C1F20C00A0EB040000EB05004FF000044FF014
:2094C00000054FF000066AF0FBFE00BFFDE7000030B505460C4619F08CFE01280ED119F026
:2094E000E2FD00696100085A4FF6FF71884205D019F0EAFDBDE8304018F088BE2846BDE8A7
:20950000304018F082BF40F60000C4F290000021FFF7DEBF40F60000C4F290000021FFF7CF
:20952000D7BF40F64000C4F290000121FFF7D0BF40F64000C4F290000121FFF7C9BF00B521
:2095400000201BF03CFC40F25041C4F25201086800BD00B500201BF032FC40F25041C4F228
:209560005201086800BD00B501201BF028FC40F25061C4F25401086800BD00B501201BF06A
:209580001EFC40F25061C4F25401086800BD01004FF0000008BF704745F6CC52C1F20C02BE
:2095A000914208BF01207047704746F2CC03C1F20C031A680021904208BF0121080018BF7C
:2095C0000120704730B5054645F26C41C1F213010878012804D12AF020FD002808BF30BD47
:2095E00045F2DC54C0F6040428000BD146F2D401C1F20C0146F20810C1F20C0084E80300F7
:20960000012030BDFFF7D1FF002808BF30BD46F2CC01C1F20C0101EB8000006820606560BC
:20962000012030BD2DE9F04845F2DC54C0F6040400224FF6FF7194E818001E68248EA24222
:209640001AD215461F46D7F804C0B7F80CB00BFB0C6E704505D2811BB1FBFCF189B222467C
:209660000AE005F580354FEA154C5A4403EB0C1792B23E68A242E6D30846BDE8F08845F2DF
:20968000E451C0F604010880704745F2E450C0F604000188013101807047F0B445F2DC5577
:2096A000C0F6040500210A462E890C4695E828002D8E270C03EB0717BF89C91989B28E429D
:2096C00001D2294605E0D21992B204F58034A942EFD3210C03EB01135968B21A4A439C688D
:2096E00014194160846048F260001B68C0F60400D2180260C160F0BC70472DE9F04845F28C
:20970000DC54C0F6040400210A4694E818009F68248EA14219D20E461D46D5F804B0B5F8EA
:209720000CC00CFB0B7E704505D2ABF1010120EA0102214609E006F58036350C614403EBC1
:20974000051589B2AF68A142E7D31046BDE8F0882DE9F04C044617460025AB460E18AA4668
:209760002046042129F0FFFF68B90435BD420BD1201D48F22F01C0F60401A0EB070B087893
:20978000341D48B107E0002548F22F01C0F604010878043400B18246B442E1D3BAF1000FB9
:2097A00005D048F22F00C0F6040080F800A05846BDE8F08C2DE9F04C83460E4617460024EA
:2097C0002AF010F8002F08BFBDE8F08C45F2E85AC0F6040A802F94BF3D4680252A4604EB8A
:2097E0000B0150462AF079F852460021B1EB950F08D252F8040B46F8040B01310434B1EBBD
:20980000950FF6D37F1BE5D1BDE8F08C48F22F01C0F60401087870472AF0ACBB2AF0AABB0E
:209820002AF0BCBB2AF0BABB2AF0CDBB40F28011C4F2380102202CF00ABC40F28011C4F237
:20984000380102202CF003BC40F28031C4F2380100202CF0FCBB40F28031C4F2380100201B
:209860002CF0F5BB40F20051C4F2380101202CF0EEBB40F20051C4F2380101202CF0E7BB73
:2098800046F28842C1F20C0290420CBF01200020704740F20030C4F23100032200212FF0C2
:2098A00017BA40F20030C4F23100032200212FF00FBA40F20040C4F23100022201212FF0A2
:2098C00007BA40F20040C4F23100022201212FF0FFB940F68010C4F23100012202212FF03F
:2098E000F7B940F68010C4F23100012202212FF0EFB901004FF0000008BF704746F2205296
:20990000C1F20C02914208BF0120704734F0E7BD34F0E5BD46F2D052C1F20C0290420CBFCE
:209920000120002070470000772800F272830FF20802D2E810F000BF790079008B0099000F
:209940006E036E036E036E03A900C000CA00DA006E036E036E036E031301EA00EA00EA00A0
:209960006E036E036E036E03EF00F400F9000201130122016E036E032701340141014D013E
:209980006E036E036E036E03520179015F016E036E036E036E036E036401640164016E0301
:2099A0006E036E036E036E036C017901870187016E036E036E036E039501A401B401CC016B
:2099C000D901E501F3010202100219026E036E036E036E036E036E03230237024C025A02F4
:2099E00069026E027A028C02A102BA026E036E036E036E036E036E03D302E902DD02E902F3
:209A00006E036E036E036E03F102FA026E036E036E036E036E036E036E036E036E030B038C
:209A200029033E0349035503081C1CBF0438B0F1030040F2EC820A38013840F2E882023845
:209A40001CBF0A28082940F0DC82E0E2081C1CBF0438B0F1030040F2DA820D38012840F26B
:209A6000D6820E290CD1D2E2081C1CBF0438B0F1030040F2CC820E2818BF0E2900F0C782EA
:209A80001E2940F06082C2E2081C1CBF0438B0F1030040F2BC820D38013840F2B882053853
:209AA0001CBF0338012884BFA1F10800B0F1030000F20D82ABE2081F033840F2A8820E28E4
:209AC00018BF11F1000007D1A1E2081F032840F29E82081C00F09B8214381EBFB0F10600AD
:209AE0000428122940F0EE8191E2081C1CBF0438B0F1030040F28B8213281CBFA1F108001F
:209B0000B0F1030000F2E38181E2081F032840F27E8269E0081F032840F2798239E0081F5C
:209B2000032840F2748241E0081F033840F26F820E2818BF002948D169E2081C1CBF043857
:209B4000B0F1030040F263820D38013840F25F82062818BF132940F0F68158E2081C1CBF98
:209B60000438B0F1030040F252820C38012840F24E82082940F0018249E2081F032840F2FD
:209B800046821BE2081F033840F241820F2800F03E82002918BF142940F0928037E2081F03
:209BA000033840F234820F2800F03182002918BF142940F0C4812AE2081F033840F22782AD
:209BC0000F2818BF002900F02282142975D11EE2081F032840F21B82A5E1081F033840F2FC
:209BE00016820E2800F01382002918BF142940F0C2810CE2081F032840F209821BE0003931
:209C00001CBF0439032984BF00207047FFE1081C1CBF0438B0F1030040F2F9810E2818BF6E
:209C20001A2940F0A881F2E1081F033840F2EF810E2800F0EC8100291CBF14291A2940F06A
:209C40009A81E4E1081C1CBF0438B0F1030040F2DE8109381CBF0428082940F08E81D6E145
:209C6000081C1CBF0438B0F1030040F2D08109381EBFB0F104000228132924D1C7E1081C98
:209C80001CBF0438B0F1030040F2C18109381EBFB0F104000228122940F05381B7E1081CAD
:209CA0001CBF0438B0F1030040F2B18109381CBFB0F10400022800F0AA81122900F0A7812C
:209CC000132900F0A481112940F055819FE1081C1CBF0438B0F1030040F29981092818BF40
:209CE000132940F0308192E1081C1CBF0438B0F1030040F28C810D2818BF13294CD186E1EA
:209D0000081C1CBF0438B0F1030040F280810D381CBF0228132940F0A68078E1081C1CBFFD
:209D20000438B0F1030040F272810D381EBFB0F10200042813292FD169E1081C1CBF04386C
:209D4000B0F1030040F263810F381CBF0428082940F08C805BE1081F033840F258810E28AF
:209D600018BF002913D152E1081F033840F24F810E2818BF11F100001ED148E1081F0338DF
:209D800040F24581142818BF002900F04081132918BF112900F03B81082918BF102940F074
:209DA000EC8034E1081F033840F23181142818BF11F1000000F02B810838013884BF073830
:209DC000032840F224810B2940F0DB801FE1081C1CBF0438B0F1030040F219810A380228AB
:209DE00040F2158108292ED111E1081C1CBF0438B0F1030040F20B810A381EBFB0F102001A
:209E00000828082932D102E1081F032840F2FF8012E0081C1CBF0438B0F1030040F2F7807E
:209E2000142818BF13291ED1F1E0081F033840F2EE800E2800F0EB801B291EBF00291329FA
:209E4000082900F0E480102940F0DB80DFE0081C1CBF0438B0F1030040F2D9800E3818BF73
:209E6000062800F0D480082900F0D180092918BF102940F0C880CAE0B1F113000CD20230D5
:209E800000F0C5800530083080F0C180043018BF102940F0BE80BAE000381EBFB0F102006B
:209EA0000628102940F0B580B1E0081C1CBF0438B0F1030040F2AB800E381CBF062812297F
:209EC00000F0A580A1F10800033840F2A08006381CBF0228102940F09C8098E0081C1CBF07
:209EE0000438032840F29380132940F088808EE0081C1CBF0438B0F1030040F2888014287F
:209F000018BF1F2979D182E0081C1CBF043803287DD9082975D17AE0081F033877D90E38F1
:209F200018BF062873D061B971E0081C1CBF0438B0F103006BD90E3818BF062867D012298E
:209F400065D0132963D0112959D160E0B1F1130009D202305BD00930043058D2043018BF2A
:209F600008290AD153E000381CBF0738B0F101004DD904284BD0082949D0092918BF0B29BA
:209F800045D00A2945D142E0B1F11A0009D207303DD00B3004303AD2043018BF082930D1AE
:209FA00035E0013833D902381CBF0228082928D12DE0081F03382AD9162828D000291CBF32
:209FC000142913291BD122E0081C1CBF0438B0F103001CD90D381CBF0928082911D116E0EC
:209FE000081C1CBF0438B0F1030010D90D381EBFB0F1070002281F2909D01A2907D0082939
:20A0000005D0092903D00A2918BF0B2901D1012070470020704710380CD210300A287DD8BA
:20A020000FF20402D2E800F00B1015192129474C54576A000A2884BF002070476AE036293F
:20A0400084BF0020704706E03C2984BF0020704701E0042962D801207047563984BF023954
:20A060000329F8D94FF0000070475E3984BF02390329F0D94FF0000070476D390FD2B1F1C4
:20A08000FF3103313CBFA1F1FF3111F10301E2D2B1F1FF316431DED24FF0000070470E3991
:20A0A00084BF0239B1F10201D5D902390729D2D94FF0000070475329CDD94FF000007047AB
:20A0C000033984BF02390329C5D94FF0000070470A29C0D922E0773984BF0239B1F1020165
:20A0E000B9D90239023984BF0239B1F10201B2D902396829AFD94FF000007047973984BF4D
:20A100000239B1F10201A6D902391F29A3D94FF000007047002918BF01299CD0002070477E
:20A120001A2849D80FF20402D2E800F0414138413B0E351215181846464646461B21272C4E
:20A1400035353E383B3E41000A2935D8012070470229FBD92DE00529F8D904E00429F5D963
:20A160002AE00429F2D9881F0328EFD924E0282984BF29391629E9D90BE02729E6D92829FD
:20A18000E4D003E02729E1D92829DFD029391629DCD9002070470B29D8D90DE00329D5D945
:20A1A0000AE00F29D2D907E00229CFD904E00329CCD9081F0328C9D9002070470A3883BF14
:20A1C00006380A2800200120704703460020083B84BF083B0A2B05D9002918BF7047002AF1
:20A1E00018BF70470120704701004FF0000008BF70474AF6AC02C1F20C02914208BF0120D1
:20A2000070477047704700B53AF066FA002818BF3AF05CFA00BD4AF64820C1F20C00704780
:20A2200045F23871C0F60401086070474AF64822C1F20C0290420CBF012000207047010063
:20A240004FF0000008BF70474AF67C32C1F20C02914208BF0120704704280FDB104A402050
:20A2600012180120106000BF0220106000BF0120506000BF0320106000BF10E0094A90213D
:20A280005218000280180122026000BF0222026000BF0122426000BF0322026000BF7047B0
:20A2A00000C026400080264030B405460C464FF00002A2704FF0000262702278954205D065
:20A2C0001DB94FF00102A27000E065702278E270257030BC704770B505460C4616462146F6
:20A2E0002878FFF7E1FF637803B1A680A378012B02D14FF00003A380A3882BB1A388A3F1EE
:20A3000001039BB2A38002E04FF000032B7070BD10B404464FF0010121704FF000016180DC
:20A3200010BC704710B504462046FFF7F1FF10BD10B404464FF0000121704FF00001618072
:20A3400010BC704730B404460D464FF000020AE04FF0000323704FF00003638004F10404D7
:20A3600002F10103DAB2AA42F2D330BC704770B404460D464FF0000215E02378012B0AD16D
:20A3800063884FF6FF76B34208D2638803F101039BB2638002E04FF00003638004F1040432
:20A3A00002F10103DAB2AA42E7D370BC704700002DE9104149F65008C0F6010898F89C01A7
:20A3C000013801D31DD0CBE049F65000C0F6010040F29D1100EB0100EFF01BFC49F6500839
:20A3E000C0F6010898F89D01012809D100F07DFA4FF0010049F65008C0F6010888F89C0153
:20A40000B7E000F0B8F849F65008C0F6010898F82C01052807D049F65008C0F6010898F808
:20A420002C01062803D101F0B6FF02F074F84FF0000489E049F6F810C0F6010000F101004D
:20A4400004EB440101EB00004FF00001017049F6EE10C0F6010004EB0000017820464FF02A
:20A46000010200F0B0FA49F6EE10C0F6010004EB000049F6F011C0F6010104EB01010078FB
:20A480000978884224D104EB440049F6F811C0F6010100EB01000078012819D049F6F8108C
:20A4A000C0F6010000F1010004EB440101EB0000007801280CD049F6F810C0F6010000F167
:20A4C000020004EB440101EB00000078012825D149F6EE10C0F6010004EB00000178204601
:20A4E0004FF0020200F06FFA49F6F010C0F6010004EB0000017820464FF0000200F063FA6E
:20A5000049F6EE10C0F6010004EB000049F6F011C0F6010104EB010109780170204601F026
:20A5200092FB4FF00B0014FB00F04FEA800049F67851C0F6010100EB01004FF00B01FFF79F
:20A5400016FF04F10100C4B249F65008C0F6010898F889018442FFF46DAF00F02FF908E035
:20A560004FF0000049F65008C0F6010888F89C0100BFBDE810812DE9304149F65000C0F668
:20A580000100EDF01FF949F65000C0F6010000F16A00EDF02CF949F65000C0F6010000F1EB
:20A5A0000600EDF039F949F65000C0F6010000F11A00EDF046F949F65000C0F6010000F1E2
:20A5C000F000EDF07DF949F65000C0F6010000F58F70EDF04BF949F65000C0F6010000F1A6
:20A5E000A600EDF058F949F65008C0F6010898F8AF00042866D149F6FF00C0F6010000F1A9
:20A60000010049F6FF01C0F6010101F10201097801F10801007800FA01F080B244F24C5862
:20A62000C0F60508A8F8000049F6FF00C0F6010000F10300007844F24658C0F6050888F83F
:20A64000000049F6FF00C0F6010000F10400007844F24758C0F6050888F8000049F6FF0042
:20A66000C0F6010000F10500007844F24858C0F6050888F8000049F6FF00C0F6010000F1B6
:20A680000600007844F24958C0F6050888F8000049F6FF00C0F6010000F10700007844F287
:20A6A0004A58C0F6050888F8000049F6FF00C0F6010000F10800007844F24B58C0F60508B3
:20A6C00088F8000049F65000C0F6010040F20C5100EB0100014649F65008C0F6010898F80C
:20A6E0009A00FFF7E1FD49F65008C0F6010898F89A0049F65008C0F6010888F8180549F63A
:20A700005008C0F6010898F82C01052807D049F65008C0F6010898F82C0106281DD149F6F3
:20A720005000C0F6010040F2125100EB0100014649F65008C0F6010898F89B00FFF7B4FD22
:20A7400049F66850C0F6010000F1010049F65008C0F6010898F89B1001704FF0000423E011
:20A7600049F63050C0F6010004EB0005204602F04CF9287049F63250C0F6010004EB0005CE
:20A78000204602F0D0F9287020464FEA400049F63451C0F6010100EB0105204602F0E7F97C
:20A7A000288004F10100C4B249F65008C0F6010898F889018442D3D3BDE830812DE93041CC
:20A7C0004FF000047EE0C4EBC40049F6D051C0F6010100EB010049F6EE11C0F6010104EB7C
:20A7E000010109780170C4EBC40049F6D051C0F6010100EB0105204602F00BF8A870C4EBC7
:20A80000C40049F6D051C0F6010100EB0105204602F0B3F8687120464FEA8001A1EB0000E3
:20A820004FEA400049F63851C0F6010100EB01000146C4EBC40049F6D052C0F6010200EB74
:20A84000020000F102004FF01802FFF744FD20464FEA8001A1EB00004FEA400049F644517A
:20A86000C0F6010100EB01000146C4EBC40049F6D052C0F6010200EB020000F103004FF040
:20A880001802FFF728FD20464FEA8001A1EB00004FEA400049F65051C0F6010100EB0100DA
:20A8A0000146C4EBC40049F6D052C0F6010200EB020000F105004FF00402FFF70CFD04F1A8
:20A8C0000100C4B249F65008C0F6010898F889018442FFF478AF49F65000C0F6010000F576
:20A8E000B060ECF054FBBDE830812DE9104149F65000C0F6010000F58F70ECF0B7FF4FF055
:20A90000000442E0C4EBC40049F6D051C0F6010100EB01004FF007024FF0000169F077FC46
:20A9200049F6EE10C0F6010004EB00004FF00001017049F6F010C0F6010004EB00004FF05F
:20A940000001017049F6F210C0F6010004EB00004FF00001017049F6F410C0F6010004EB04
:20A9600000004FF00001017049F6F610C0F6010004EB00004FF00001017020464FF00001E4
:20A9800000F05DF804F10100C4B249F65008C0F6010898F889018442B4D3BDE8108110B54E
:20A9A00004464FF00B0114FB01F14FEA810149F67852C0F6010201EB020108464FF00B01FC
:20A9C000FFF7C0FC10BD2DE9704104460E4615463346072B30D80FF20808D8E803F000BF02
:20A9E000050A0F14191E23282946204600F027F823E02946204600F048F91EE029462046E3
:20AA000000F07BFA19E02946204600F072FB14E02946204600F024FC0FE02946204600F019
:20AA20004CFD0AE02946204600F05BFE05E02946204600F064FF00E000BFBDE870812DE96D
:20AA4000304104460D462A46013A04D310D0013A00F0178116E12046FFF7A1FF49F602226D
:20AA6000C0F6010204EB02024FF0000313700AE149F6EE12C0F6010204EB020249F6F0134D
:20AA8000C0F6010304EB030312781B789A4240F0F78022464FEA8203A3EB02024FEA420232
:20AAA00049F64013C0F6010302EB03029278012A1BD149F6F012C0F6010204EB02024FF00B
:20AAC0000103137049F6F412C0F6010204EB02024FF00003137049F6F612C0F6010204EB4A
:20AAE00002024FF000031370CAE022464FEA820302EB03024FEAC20249F66A03C0F6010368
:20AB000002EB03021279042A20D022464FEA820302EB03024FEAC20249F66A03C0F601031F
:20AB200002EB03021279032A10D022464FEA820302EB03024FEAC20249F66A03C0F6010310
:20AB400002EB03021279052A40F0978049F65008C0F6010898F80220002A40F08E8049F653
:20AB60000222C0F6010204EB02021278012A40F0848022464FEA820302EB03024FEAC20207
:20AB800049F66A03C0F6010302EB03021279042A1BD149F6F012C0F6010204EB02024FF08C
:20ABA0000303137049F6F412C0F6010204EB02024FF00103137049F6F612C0F6010204EB66
:20ABC00002024FF0000313705AE022464FEA820302EB03024FEAC20249F66A03C0F60103F7
:20ABE00002EB03021279032A1BD149F6F012C0F6010204EB02024FF00403137049F6F412C4
:20AC0000C0F6010204EB02024FF00103137049F6F612C0F6010204EB02024FF0000313700A
:20AC20002EE022464FEA820302EB03024FEAC20249F66A03C0F6010302EB03021279052ADF
:20AC40001ED149F6F012C0F6010204EB02024FF00503137049F6F412C0F6010204EB02025D
:20AC60004FF00103137049F6F612C0F6010204EB02024FF00003137002E0204601F0A6F87F
:20AC800001E000E000BFBDE830812DE9304104460D462A46013A04D318D0013A00F01E8186
:20ACA00028E149F60022C0F6010204EB02024FF000031370C4EBC40249F6D053C0F6010328
:20ACC00002EB03024FF00003937114E149F6EE12C0F6010204EB020249F6F013C0F6010360
:20ACE00004EB030312781B789A4240F0F68022464FEA8203A3EB02024FEA420249F64013F9
:20AD0000C0F6010302EB03029278DAB949F6F012C0F6010204EB02024FF00003137049F6F9
:20AD2000F412C0F6010204EB02024FF00003137049F6F612C0F6010204EB02024FF0000367
:20AD40001370CAE022464FEA820302EB03024FEAC20249F66A03C0F6010302EB03021279CE
:20AD6000042A20D022464FEA820302EB03024FEAC20249F66A03C0F6010302EB03021279BD
:20AD8000032A10D022464FEA820302EB03024FEAC20249F66A03C0F6010302EB03021279AE
:20ADA000052A40F0978049F65008C0F6010898F80220002A40F08E8049F60222C0F6010291
:20ADC00004EB02021278012A40F0848022464FEA820302EB03024FEAC20249F66A03C0F620
:20ADE000010302EB03021279042A1BD149F6F012C0F6010204EB02024FF00303137049F6C4
:20AE0000F412C0F6010204EB02024FF00103137049F6F612C0F6010204EB02024FF0000385
:20AE200013705AE022464FEA820302EB03024FEAC20249F66A03C0F6010302EB030212795D
:20AE4000032A1BD149F6F012C0F6010204EB02024FF00403137049F6F412C0F6010204EB36
:20AE600002024FF00103137049F6F612C0F6010204EB02024FF0000313702EE022464FEAA1
:20AE8000820302EB03024FEAC20249F66A03C0F6010302EB03021279052A1ED149F6F012FC
:20AEA000C0F6010204EB02024FF00503137049F6F412C0F6010204EB02024FF00103137065
:20AEC00049F6F612C0F6010204EB02024FF00003137002E0204601F0FEF80CE0C4EBC4022A
:20AEE00049F6D053C0F6010302EB03024FF00003937100E000BFBDE830812DE93001044678
:20AF00000D462A46013A04D30DD0013A00F0E380EBE045F2A472C0F6040204EB02024FF0EB
:20AF200000031370E2E049F6EE12C0F6010204EB020249F6F013C0F6010304EB0303127863
:20AF40001B789A4240F0C68022464FEA820302EB03024FEAC20249F66A03C0F6010302EBA4
:20AF600003021279BAB122464FEA820302EB03024FEAC20249F66A03C0F6010302EB030269
:20AF80001279012A07D049F65008C0F6010898F80220012A1BD149F6F012C0F6010204EB1C
:20AFA00002024FF00003137049F6F412C0F6010204EB02024FF00003137049F6F612C0F615
:20AFC000010204EB02024FF00103137082E049F66852C0F6010204EB02021278022A79D1AE
:20AFE00049F6EE12C0F6010204EB02021278042A24D149F63052C0F6010204EB02021278C2
:20B00000012A36D149F6F012C0F6010204EB02024FF00603137049F6F412C0F6010204EB59
:20B0200002024FF00003137049F6F612C0F6010204EB02024FF0000313701AE049F6F01254
:20B04000C0F6010204EB02024FF00603137049F6F412C0F6010204EB02024FF000031370C3
:20B0600049F6F612C0F6010204EB02024FF00003137045F2A472C0F6040204EB0202127892
:20B08000B2F5C87F1BD349F6F012C0F6010204EB02024FF00603137049F6F412C0F601021E
:20B0A00004EB02024FF00003137049F6F612C0F6010204EB02024FF0000313700AE045F2FF
:20B0C000A472C0F6040204EB02031A7802F10102D2B21A700AE045F2A472C0F6040204EB32
:20B0E00002024FF00003137000E000BFBDE83001704730B504460D462A46013A04D320D067
:20B10000013A00F09180A9E049F6F412C0F6010204EB02021278002A0FD949F6F412C0F6E2
:20B12000010204EB02031A78A2F10102D2B21A7020464FF00001FFF7E0FE204601F0C1FA56
:20B140008DE020464FF00101FFF7D7FE49F6EE12C0F6010204EB020249F6F013C0F6010329
:20B1600004EB030312781B789A425CD122464FEA820302EB03024FEAC20249F66A03C0F63D
:20B18000010302EB03021279032A1BD149F6F012C0F6010204EB02024FF00703137049F61D
:20B1A000F412C0F6010204EB02024FF00003137049F6F612C0F6010204EB02024FF00003E3
:20B1C000137030E049F66C52C0F6010204EB02021278012A24D149F66C52C0F6010204EBE4
:20B1E00002024FF00003137049F6F012C0F6010204EB02024FF00703137049F6F412C0F6D2
:20B20000010204EB02024FF00003137049F6F612C0F6010204EB02024FF00003137002E0D9
:20B22000204600F0EEFD1AE049F6F612C0F6010204EB02021278002A0FD949F6F612C0F647
:20B24000010204EB02031A78A2F10102D2B21A7020464FF00201FFF750FE00E000BF30BD49
:20B260002DE9304104460D462A46013A04D339D0013A00F0F1801DE149F6F412C0F6010287
:20B2800004EB02021278002A0FD949F6F412C0F6010204EB02031A78A2F10102D2B21A70F7
:20B2A00020464FF00001FFF728FE4FF0000249F65008C0F6010888F8B42149F67852C0F621
:20B2C000010202F114034FF00B0214FB02F24FEA820202EB03021046FFF71AF8204601F0AE
:20B2E0003CFAE8E020464FF00101FFF706FE49F6EE12C0F6010204EB020249F6F013C0F6CC
:20B30000010304EB030312781B789A4240F0A38022464FEA820302EB03024FEAC20249F694
:20B320006A03C0F6010302EB03021279042A0FD022464FEA820302EB03024FEAC20249F608
:20B340006A03C0F6010302EB03021279052A1BD149F6F012C0F6010204EB02024FF00703F8
:20B36000137049F6F412C0F6010204EB02024FF00003137049F6F612C0F6010204EB0202A1
:20B380004FF00003137066E022464FEA8203A3EB02024FEA420249F65C53C0F6010302EBD8
:20B3A00003025278012A53D149F6F012C0F6010204EB02024FF00403137049F6F412C0F6BE
:20B3C000010204EB02024FF00003137049F6F612C0F6010204EB02024FF00003137049F6BB
:20B3E000F812C0F6010202F1010204EB440303EB02024FF00103137049F66A52C0F60102F2
:20B4000004EB02024FF00103137049F67852C0F6010202F10C034FF00B0214FB02F24FEA27
:20B42000820202EB03021046FEF772FF49F67852C0F6010202F114034FF00B0214FB02F2BF
:20B440004FEA820202EB03021046FEF76BFF02E0204600F0F2FC2EE0204601F042FB49F681
:20B460007852C0F6010202F114034FF00B0214FB02F24FEA820202EB03021046FEF758FF9F
:20B4800049F6F612C0F6010204EB02021278002A0FD949F6F612C0F6010204EB02031A7897
:20B4A000A2F10102D2B21A7020464FF00201FFF724FD00E000BFBDE8308130B504460D46B2
:20B4C0002A46013A04D34ED0013A00F0CF8006E149F6F412C0F6010204EB02021278002AC6
:20B4E0000FD949F6F412C0F6010204EB02031A78A2F10102D2B21A7020464FF00001FFF7A0
:20B50000FCFC49F67252C0F6010204EB02024FF00003137049F67052C0F6010204EB020212
:20B520004FF000031370C4EBC40249F6D053C0F6010302EB03024FF00003137149F67852F4
:20B54000C0F6010202F11C034FF00B0214FB02F24FEA820202EB03021046FEF7D9FE20469A
:20B5600001F03BF9BCE020464FF00101FFF7C5FC49F6EE12C0F6010204EB020249F6F0137F
:20B58000C0F6010304EB030312781B789A426CD122464FEA820302EB03024FEAC20249F672
:20B5A0006A03C0F6010302EB03021279042A0FD022464FEA820302EB03024FEAC20249F686
:20B5C0006A03C0F6010302EB03021279032A1BD149F6F012C0F6010204EB02024FF0070378
:20B5E000137049F6F412C0F6010204EB02024FF00003137049F6F612C0F6010204EB02021F
:20B600004FF00003137030E049F66E52C0F6010204EB02021278012A24D149F66E52C0F64B
:20B62000010204EB02024FF00003137049F6F012C0F6010204EB02024FF00703137049F657
:20B64000F412C0F6010204EB02024FF00003137049F6F612C0F6010204EB02024FF000033E
:20B66000137002E0204600F06AFC39E0C4EBC40249F6D053C0F6010302EB03024FF00003CB
:20B680001371204601F02DFA49F67852C0F6010202F11C034FF00B0214FB02F24FEA8202C8
:20B6A00002EB03021046FEF743FE49F6F612C0F6010204EB02021278002A0FD949F6F61236
:20B6C000C0F6010204EB02031A78A2F10102D2B21A7020464FF00201FFF70FFC00E000BF3F
:20B6E00030BD30B504460D462A46013A04D34BD0013A00F0C88000E149F6F412C0F60102EC
:20B7000004EB02021278002A0FD949F6F412C0F6010204EB02031A78A2F10102D2B21A7072
:20B7200020464FF00001FFF7E8FB204600F0EAF9C4EBC40249F6D053C0F6010302EB0302CE
:20B740004FF00003D3704FF00B0214FB02F24FEA820249F67853C0F6010302EB030210464C
:20B76000FEF7D6FD49F67852C0F6010202F110034FF00B0214FB02F24FEA820202EB03023B
:20B780001046FEF7C5FDB9E020464FF00101FFF7B4FB49F6EE12C0F6010204EB020249F68D
:20B7A000F013C0F6010304EB030312781B789A4268D149F67852C0F6010202F110034FF09E
:20B7C0000B0214FB02F24FEA820202EB030252886E2A54D322464FEA820302EB03024FEAC0
:20B7E000C20249F66A03C0F6010302EB03021279042A28D022464FEA820302EB03024FEA2B
:20B80000C20249F66A03C0F6010302EB03021279032A18D022464FEA820302EB03024FEA1B
:20B82000C20249F66A03C0F6010302EB03021279052A08D049F66852C0F6010204EB0202B5
:20B840001278012A1ED149F6F012C0F6010204EB02024FF00703137049F6F412C0F601028D
:20B8600004EB02024FF00003137049F6F612C0F6010204EB02024FF00003137002E0204610
:20B8800000F040F93AE04FF00B0214FB02F24FEA820249F67853C0F6010302EB030210464D
:20B8A000FEF746FD49F67852C0F6010202F110034FF00B0214FB02F24FEA820202EB03028A
:20B8C0001046FEF735FD49F6F612C0F6010204EB02021278002A0FD949F6F612C0F601025C
:20B8E00004EB02031A78A2F10102D2B21A7020464FF00201FFF701FB00E000BF30BD30B513
:20B9000004460D462A46013A04D326D0013A00F0DD80F5E049F6F412C0F6010204EB0202C4
:20B920001278002A0FD949F6F412C0F6010204EB02031A78A2F10102D2B21A7020464FF09E
:20B940000001FFF7DAFA49F60222C0F6010204EB02024FF000031370D3E020464FF00101EE
:20B96000FFF7CBFA49F6EE12C0F6010204EB020249F6F013C0F6010304EB030312781B7813
:20B980009A4240F0A28022464FEA820302EB03024FEAC20249F66A03C0F6010302EB03020C
:20B9A0001279042A24D149F60222C0F6010204EB02021278012A1BD149F6F012C0F601022F
:20B9C00004EB02024FF00303137049F6F412C0F6010204EB02024FF00003137049F6F612AF
:20B9E000C0F6010204EB02024FF0000313706CE022464FEA820302EB03024FEAC20249F636
:20BA00006A03C0F6010302EB03021279032A24D149F60222C0F6010204EB02021278012A9C
:20BA20001BD149F6F012C0F6010204EB02024FF00403137049F6F412C0F6010204EB020273
:20BA40004FF00003137049F6F612C0F6010204EB02024FF00003137037E022464FEA82032C
:20BA600002EB03024FEAC20249F66A03C0F6010302EB03021279052A24D149F60222C0F6B7
:20BA8000010204EB02021278012A1BD149F6F012C0F6010204EB02024FF00503137049F619
:20BAA000F412C0F6010204EB02024FF00003137049F6F612C0F6010204EB02024FF00003DA
:20BAC000137002E0204600F081F91AE049F6F612C0F6010204EB02021278002A0FD949F669
:20BAE000F612C0F6010204EB02031A78A2F10102D2B21A7020464FF00201FFF7FEF900E0E6
:20BB000000BF30BD10B504464FF00B0114FB01F14FEA810149F67852C0F6010201EB0201B2
:20BB200049880A2919D3C4EBC40149F6D052C0F6010201EB02014FF00102CA704FF00B01D1
:20BB400014FB01F14FEA810149F67852C0F6010201EB02010846FEF7EBFB10BD00B581B09C
:20BB60004FF000008DF803000DF10300EEF060F89DF8030001B000BD00B581B04FF000009C
:20BB80008DF803000DF10300EEF060F89DF8030001B000BD10B504462046EEF050F810BD78
:20BBA00010B504462046EEF058F810BD2DE9004181B00DF1020149F65000C0F6010000F551
:20BBC000DB70ECF0B2FCBDF8022049F60621C0F6010149F62240C0F6010068F05CFBBDF8DF
:20BBE000022049F60620C0F601004FF0000168F00EFB9DF8020049F65008C0F6010888F8F9
:20BC0000B5014FF0010049F65008C0F6010888F8B40101B0BDE800814DF8048D4FF00000B7
:20BC200049F65008C0F6010888F89C015DF8048B704700B54FF00000EEF001F84FF00000EC
:20BC4000EEF00BF800BD10B4044649F6EE11C0F6010104EB0101097859B1C4EBC40149F613
:20BC6000D052C0F6010201EB02014FF000024A700AE0C4EBC40149F6D052C0F6010201EB9B
:20BC800002014FF001024A7010BC70472DE9F04C05460E4617469A464FF0010453463A4697
:20BCA000314628463AF00EFB84466446F4B928463AF056FB8446644664B944F24E5BC0F63C
:20BCC000050BBBF800C00CF1010C1FFA8CFCABF800C00BE044F24E5BC0F6050BBBF800C0D0
:20BCE000ACF1010C1FFA8CFCABF800C000BF2046BDE8F08C10B54FF000003AF0B7FC044625
:20BD00004CB144F25051C0F605010888A0F1010080B2088008E044F25051C0F605010888AC
:20BD200000F1010080B2088010BD10B54FF000003AF0BFFC04464CB144F25251C0F60501C5
:20BD40000888A0F1010080B2088008E044F25251C0F60501088800F1010080B2088010BD81
:20BD600010B54FF001003AF081FC04464CB144F25451C0F605010888A0F1010080B208805D
:20BD800008E044F25451C0F60501088800F1010080B2088010BD10B54FF001003AF089FC67
:20BDA00004464CB144F25651C0F605010888A0F1010080B2088008E044F25651C0F6050146
:20BDC000088800F1010080B2088010BD30B504464FF0000549F60221C0F6010104EB0101DC
:20BDE000097869B9204600F034FE014641B949F60221C0F6010104EB01014FF001020A7010
:20BE000030BD2DE91041044649F65008C0F6010898F8241501290BD149F65008C0F6010809
:20BE200098F825158C4206D1204600F02EFC02E0204600F02AFCBDE810812DE930410446AE
:20BE400049F67851C0F6010101F10C024FF00B0114FB01F14FEA810101EB020149885029E2
:20BE600019D949F66A51C0F6010104EB01014FF000020A7049F67851C0F6010101F10C02B2
:20BE80004FF00B0114FB01F14FEA810101EB02010846FEF74DFA49F66A51C0F6010104EB81
:20BEA00001010978B9B949F65008C0F6010898F8B53149F65001C0F6010140F2D23201EB57
:20BEC00002010A4649F65008C0F6010898F8B411204600F012FC204600F0E8FC0146012955
:20BEE0002BD149F61430C0F601004FF487724FF0000168F08CF9204600F01BFD01460D46AB
:20BF0000204600F0F7FC01462A4649F61430C0F6010068F0C0F9294649F65002C0F601021D
:20BF200002F531721046ECF0F5FA4FF0000149F65008C0F6010888F8B411BDE830812DE9FF
:20BF40007041044649F65008C0F6010898F8261589B149F65008C0F6010898F82615012940
:20BF600040F0B78049F65008C0F6010898F827158C4240F0AE8049F67051C0F6010104EB65
:20BF80000101097801290BD1204600F026FC49F67051C0F6010104EB01014FF000020A703C
:20BFA00049F67251C0F6010104EB0101097851B9204600F0EEFB01460E46204600F001FD1D
:20BFC00001460D4625E04FF0000549F67251C0F6010104EB01021178A1F10101C9B21170B9
:20BFE00049F67251C0F6010104EB0101097881B949F67851C0F6010101F11C024FF00B01C0
:20C0000014FB01F14FEA810101EB02010846FEF77FF9294602392ED1C4EBC40149F6D0523C
:20C02000C0F6010201EB02014FF002020A7149F67051C0F6010104EB01014FF001020A7035
:20C0400049F67251C0F6010104EB01014FF064020A7049F67851C0F6010101F11C024FF007
:20C060000B0114FB01F14FEA810101EB02010846FEF75EF92DE049F67851C0F6010101F1B0
:20C080001C024FF00B0114FB01F14FEA810101EB02014988C8291BD3C4EBC40149F6D05207
:20C0A000C0F6010201EB02014FF001020A7149F67851C0F6010101F11C024FF00B0114FBF1
:20C0C00001F14FEA810101EB02010846FEF730F900BFBDE870812DE93041044649F60021D2
:20C0E000C0F6010104EB01010978013904D31AD0013900F02B8142E149F60221C0F6010108
:20C1000004EB01010978012909D149F60021C0F6010104EB01014FF001020A7002E020469C
:20C12000FFF754FE35E140F20808C4F23908D8F8001045F29078C0F60408C8F80010DFE0F8
:20C1400021464FEA8102A2EB01014FEA410149F64012C0F6010201EB0201897849B949F637
:20C160000021C0F6010104EB01014FF000020A70D7E0204600F091FC01460D46294603395B
:20C1800003D2023148D832D008E0013959D36DD04DF6FC78B1EB080114D07CE0C4EBC401DA
:20C1A00049F6D052C0F6010201EB02014FF000028A7145F29C72C0F60402116801F10101CC
:20C1C00011607DE0C4EBC40149F6D052C0F6010201EB02014FF000028A7145F29772C0F6E2
:20C1E0000402117801F10101C9B2117068E0C4EBC40149F6D052C0F6010201EB02014FF0BC
:20C2000000028A7145F29672C0F60402117801F10101C9B2117053E0C4EBC40149F6D052A5
:20C22000C0F6010201EB02014FF002028A7145F29472C0F60402117801F10101C9B21170A6
:20C240003EE0C4EBC40149F6D052C0F6010201EB02014FF001028A7145F29572C0F604020C
:20C26000117801F10101C9B2117029E0C4EBC40149F6D052C0F6010201EB02014FF000027E
:20C280008A7145F29872C0F60402117801F10101C9B2117014E0C4EBC40149F6D052C0F6AE
:20C2A000010201EB02014FF000028A7145F29972C0F60402117801F10101C9B2117000BF1A
:20C2C000C4EBC40149F6D052C0F6010201EB0201897902290AD0C4EBC40149F6D052C0F64F
:20C2E000010201EB02018979012909D149F60021C0F6010104EB01014FF002020A7010E090
:20C3000040F20808C4F23908D8F8001045F29078C0F60408D8F80020A1EB0201FA29FFF46E
:20C320000FAF40F20808C4F23908D8F8001045F29078C0F60408D8F80020A1EB020145F26F
:20C34000A078C0F60408C8F8001022E021464FEA8102A2EB01014FEA410149F64012C0F6BD
:20C36000010201EB0201897841B949F60021C0F6010104EB01014FF000020A7009E049F6E4
:20C380000021C0F6010104EB01014FF000020A7000BFBDE830812DE9004149F65008C0F65F
:20C3A000010898F81E00042840F0858049F66A00C0F6010000F12800007904287BD145F2C4
:20C3C000A778C0F6040898F80000013801D31BD068E049F65000C0F6010040F24C5100EBAC
:20C3E0000100FDF795FF4FF0010049F65008C0F6010888F824054FF0010045F2A778C0F629
:20C40000040888F8000078E049F67850C0F6010000F124004088C82843D345F2A678C0F68C
:20C42000040898F80000C8B94FF0010045F2A678C0F6040888F800004FF0010049F6500831
:20C44000C0F6010888F81C0549F66C50C0F6010000F101004FF00001017018E04FF00000F0
:20C4600045F2A678C0F6040888F800004FF0000049F65008C0F6010888F81C0549F66C50F4
:20C48000C0F6010000F101004FF00101017049F65000C0F6010040F24C5100EB0100FDF74C
:20C4A00041FF2AE04FF0000045F2A778C0F6040888F8000021E049F65000C0F6010040F2E2
:20C4C0004C5100EB0100FDF733FF4FF0000049F65008C0F6010888F824054FF0000045F2F9
:20C4E000A678C0F6040888F800004FF0000045F2A778C0F6040888F8000045F2A678C0F6FA
:20C50000040898F8000049F65008C0F6010888F82505BDE800812DE9004149F65008C0F6B5
:20C52000010898F81E00052840F0818049F66A00C0F6010000F128000079052877D145F248
:20C54000A978C0F6040898F80000013801D319D064E049F65000C0F6010000F5AA60FDF7F5
:20C56000D7FE4FF0010049F65008C0F6010888F826054FF0010045F2A978C0F6040888F8CB
:20C58000000074E049F67850C0F6010000F128004088C82841D345F2A878C0F6040898F8FB
:20C5A0000000C8B94FF0010045F2A878C0F6040888F800004FF0010049F65008C0F601088B
:20C5C00088F81E0549F66E50C0F6010000F101004FF00001017018E04FF0000045F2A878D3
:20C5E000C0F6040888F800004FF0000049F65008C0F6010888F81E0549F66E50C0F601000D
:20C6000000F101004FF00101017049F65000C0F6010000F5AA60FDF785FE28E04FF0000073
:20C6200045F2A978C0F6040888F800001FE049F65000C0F6010000F5AA60FDF779FE4FF072
:20C64000000049F65008C0F6010888F826054FF0000045F2A878C0F6040888F800004FF0C2
:20C66000000045F2A978C0F6040888F8000045F2A878C0F6040898F8000049F65008C0F62A
:20C68000010888F82705BDE800812DE91041044649F65008C0F6010898F82C11052907D0E6
:20C6A00049F65008C0F6010898F82C11062904D1012C02D15EF09AFF01E05EF047FCBDE855
:20C6C00010812DE91041044649F65008C0F6010898F82C11052907D049F65008C0F601089A
:20C6E00098F82C11062904D1012C02D15EF0EFFF01E05EF09CFCBDE810812DE9F04582461D
:20C700000D4616461F464FF0000449F65008C0F6010898F82CC1BCF1050F08D049F65008BF
:20C72000C0F6010898F82CC1BCF1060F0AD1BAF1010F07D13A46314628465EF0F0FF844621
:20C74000644606E03A46314628465EF098FC8446644600BF2046BDE8F0852DE9104104469E
:20C7600049F65008C0F6010898F82C11052907D049F65008C0F6010898F82C11062904D16A
:20C78000012C02D15FF0E1F801E05EF08EFDBDE810812DE9304105464FF0000449F65008D5
:20C7A000C0F6010898F82C11052907D049F65008C0F6010898F82C11062906D1012D04D1BC
:20C7C0005FF0FAF801460C4603E05EF0A5FD01460C4621460846BDE830812DE91041044657
:20C7E00049F65008C0F6010898F82C11052907D049F65008C0F6010898F82C11062904D1EA
:20C80000012C02D15FF035F901E05EF0E2FDBDE810812DE9304105464FF0000449F65008AB
:20C82000C0F6010898F82C11052907D049F65008C0F6010898F82C11062906D1012D04D13B
:20C840005FF0A1F801460C4603E05EF04CFD01460C46012C12D149F67851C0F6010101F182
:20C8600014024FF00B0115FB01F14FEA810101EB02010846FDF75CFD214614E049F67851AD
:20C88000C0F6010101F114024FF00B0115FB01F14FEA810101EB02014988C82902D34FF00B
:20C8A000020100E021460846BDE830812DE9304105464FF0000449F65008C0F6010898F88F
:20C8C0002C11052907D049F65008C0F6010898F82C11062906D1012D04D15FF059F8014603
:20C8E0000C4603E05EF004FD01460C4621460846BDE830812DE91041044649F65008C0F612
:20C90000010898F82C11052907D049F65008C0F6010898F82C11062905D1012C03D15FF0C4
:20C9200042F8014602E05EF0EEFC01460846BDE810812DE9304105464FF0000449F65008E5
:20C94000C0F6010898F82C11052907D049F65008C0F6010898F82C11062906D1012D04D11A
:20C960005FF025F801460C4603E05EF0D0FC01460C4621460846BDE830812DE9304105463F
:20C980004FF0000449F65008C0F6010898F82C11052907D049F65008C0F6010898F82C1109
:20C9A000062906D1012D04D15EF0AEFE01460C4603E05EF059FB01460C4621460846BDE863
:20C9C00030812DE9304105464FF0000449F65008C0F6010898F82C11052907D049F65008D2
:20C9E000C0F6010898F82C11062906D1012D04D15FF043F801460C4603E05EF0EEFC01461D
:20CA00000C4621460846BDE830812DE9304105464FF0000449F65008C0F6010898F82C1181
:20CA2000052907D049F65008C0F6010898F82C11062906D1012D04D15FF03BF801460C46AA
:20CA400003E05EF0E6FC01460C4621460846BDE830812DE9304105464FF0000449F6500873
:20CA6000C0F6010898F82C11052907D049F65008C0F6010898F82C11062906D1012D04D1F9
:20CA80005EF05AFD01460C4603E05EF005FA01460C4621460846BDE830812DE930410546B2
:20CAA0004FF0000449F65008C0F6010898F82C11052907D049F65008C0F6010898F82C11E8
:20CAC000062906D1012D04D15FF080F801460C4603E05EF02BFD01460C4621460846BDE8A1
:20CAE00030812DE9304105464FF0000449F65008C0F6010898F82C11052907D049F65008B1
:20CB0000C0F6010898F82C11062906D1012D04D15EF0E5FF01460C4603E05EF090FC0146B1
:20CB20000C46BDE830812DE9304105464FF0000449F65008C0F6010898F82C11052907D010
:20CB400049F65008C0F6010898F82C11062906D1012D04D15EF0FFFF01460C4603E05EF093
:20CB6000AAFC01460C4621460846BDE830812DE9304105464FF0000449F65008C0F6010800
:20CB800098F82C11052907D049F65008C0F6010898F82C11062906D1012D04D15EF0F6FF54
:20CBA00001460C4603E05EF0A1FC01460C4621460846BDE8308110B40446D4F808124FEA3D
:20CBC000C1514FEAD151084610BC704710B40446D4F808124FEA01414FEAD171084610BC13
:20CBE000704730B504462046FFF7E5FF05462046FFF7ECFF014601EB050100290CBF01212E
:20CC00000021084630BD30B404460D46C4F8C85F30BC704710B40446216841F00041216027
:20CC200010BC704770B504460D46164632462946204601F060F80346184670BD10B50446DA
:20CC40002046FFF7CEFF0146C9B2084610BD70B406460C46154600BF2C6370BC704730B49C
:20CC600004460D46C4F8C85F30BC704710B40446216841F00041216010BC704770B4064614
:20CC80000C46154600BF2C6370BC70472DE9F04404460D4616461F469DF818A03A462946D2
:20CCA000204600F055F852462946204600F007F832462946204600F05DF8BDE8F0842DE9B4
:20CCC000F04C82460E46174640F20003C4F23103AAEB03034FEAD31C63464FEA031340F293
:20CCE0000004C4F2300403EB0405042E16D2F4B223464FEAC30B4FF01F0E0EFA0BFBD5F8D8
:20CD000000E02EEA0B0407F01F0B4FEAC30E0BFA0EFB4BEA040BC5F800B017E0A6F104048C
:20CD2000E4B223464FEAC30B4FF01F0E0EFA0BFBD5F804E02EEA0B0407F01F0B4FEAC30E70
:20CD40000BFA0EFB4BEA040BC5F804B0BDE8F08C70B404460D4616462EB94FF0010303FAAB
:20CD600005F3636004E04FF0010303FA05F3A36070BC70472DE9F00404460E4617464FEAB8
:20CD800086034FF00F0C0CFA03FCD4F844A02AEA0C0507F00F0C0CFA03FC4CEA050CC4F8BC
:20CDA00044C0BDE8F004704770474AF20001C0F60001086070474AF21000C0F6000070479C
:20CDC00010B5044600F06BFC002142F242422069C9F24802904240D1206A012190423CD118
:20CDE000206B0221904238D1206C0321904234D1206D0421904230D1206E052190422CD11B
:20CE0000206F0621904228D1D4F880000721904223D1D4F89000082190421ED1D4F8A000A5
:20CE20000921904219D1D4F8B0000A21904214D1D4F8C0000B2190420FD1D4F8D0000C217B
:20CE400090420AD1D4F8E0000D21904205D1D4F8F0000E21904208BF0F210C4600F020FC91
:20CE6000204610BD00EB01100069704700EB01104069704770B50E46012400F08CFB45F6B7
:20CE8000C051C1F21901086945682846FFF798FF01380BD3C0B205EB0010006942F24241F2
:20CEA000C9F24801884204BF0024347000F074FB204670BD45F6C822C0F604020023A2F889
:20CEC0000530D371A2F80930D372A2F80D30D373538003468C4682E80B1070472DE9F04C28
:20CEE00081B000218DF803100DF103010446FFF7C1FF45F6C057C1F219073E69D0B9756814
:20CF000000F049FB2846FFF75BFF0138C0B205EB0010456900F040FB05F1010C74B145F638
:20CF2000C825C0F60405002001460246034685E80F0037E04FF0000C002CF0D1022345F622
:20CF4000C825C0F6040528462246210C01F1010A1FFA8AFA425400F80A2001F1030A01F1DF
:20CF6000020B1FFA8BFB1FFA8AFA00F80B2000F80A2001F1050A01F1040B1FFA8BFB1FFA69
:20CF80008AFA00F80B2001F1060B1FFA8BFB00F80A20073189B200F80B20425404F50024DD
:20CFA000013BD2D142F24243C9F248031946624685E80E1097F82C70766800F0ECFA3046EC
:20CFC000FFF7FEFE044606F1100101EB001600F0E3FA0F2C06D22A4631463846102302F1A0
:20CFE00069FA00E0F02001B0BDE8F08C10B500240146204600F0EFFA002818BF0124204613
:20D0000010BDF0B445F6C051C1F2190191F82C30096945F6C82249681031C0F60402040058
:20D0200032D102250646300C471CBFB21454D455C71C00F1020C1FFA8CFCBFB202F80C409F
:20D04000D455471D00F1040C1FFA8CFCBFB202F80C4000F1060C1FFA8CFCD455073080B2B4
:20D0600002F80C40145406F50026013DDBD142F24240C9F248000546A44682E83110184600
:20D080001023F0BC02F116BA4FF0000CA2F802C0A2F806C0A2F80AC0A2F80EC042F242465F
:20D0A000C9F248063046654682E8611018461023F0BC02F1FFB910B500240146204600F0FD
:20D0C000ABFA002818BF0124204610BD10B445F6C051C1F2190191F82C00096945F6C8222B
:20D0E0004968C0F604024FF0000CA2F802C0A2F805C082F807C0A2F809C082F80BC0A2F83A
:20D100000DC082F80FC041F21724C1F6801482E810109460C2F80CC0102310BC02F1CAB9C7
:20D1200000B540F26871C0F60401087802F13FFA002808BF00BD012818BF022000BD20B568
:20D1400082B0DDF810C09DF814E08DE8005065F0E4FE003818BF012002B020BD00B565F0AA
:20D1600065FF003818BF012000BD00B565F072FF003818BF012040F26772C0F604020021CB
:20D18000117000BD70472DE9F04C8BB082461646DDF848B01F4644F60001C1F21301086845
:20D1A00020258DE8210044F60401C1F213010868029003A8082167F084FA40F26D72C0F61C
:20D1C000040240F2E9313046012300F145FB139B0BEB0A02044630460D2100F13DFB6A46BB
:20D1E0000443304604230E2100F136FB02AA0443304604230F2100F12FFB0443304600F171
:20D2000063FB03AA044338462B46012100F124FB0443384600F158FB0443E4B2002C7BD13D
:20D220003946304600F1E1F901AB03AA04463846012100F176FA04436ED12046022247F241
:20D240007421C0F6040103ABD1F800C01E5C0CF80060451CEDB20E6813F805C006F805C060
:20D26000851CEDB20E6813F805C006F805C0C51CEDB20E6813F805C006F805C0051DEDB21B
:20D280000E6813F805C006F805C0451DEDB20E6813F805C006F805C0851DEDB20E6813F8B9
:20D2A00005C006F805C0C51DEDB20E6813F805C006F805C00830C0B2013AC5D1022307A80D
:20D2C000D1F808C010F8086B0CF802608D68551910F8076C6E708D68551910F8066CAE7025
:20D2E0008D68551910F8056CEE708D68551910F8046C2E718D68551910F8036C6E718D68CC
:20D3000010F8026C5519AE718D68551910F8016CEE710832013BD3D120460BB0BDE8F08C77
:20D3200041F60001C4F226010868C0F3001080F001007047BFF34F8F4EF60C52CEF2000289
:20D34000106800F4E06040F20001C0F2FA51084340F004001060BFF34F8FFEE741F6000155
:20D36000C4F226010868C0F3001080F0010070470020704700207047BFF34F8F4EF60C5295
:20D38000CEF20002106800F4E06040F20001C0F2FA51084340F004001060BFF34F8FFEE78B
:20D3A0000320704730B581B002240DF1030020F155FB002857D19DF803000A2850D042F683
:20D3C0000822C0F60502156946F269212868C6F66F51884247D153691868884243D128797D
:20D3E00010701979117295F805C082F801C093F805C082F809C095F806C082F802C093F85E
:20D4000006C082F80AC095F807C082F803C093F807C082F80BC095F808C082F804C01B7AB2
:20D420001373412802D3E0301070C0B2412902D3E0311172C9B2814212D814D35178507AB1
:20D4400088420DD80FD39178907A884208D80AD3D178D07A884203D805D31179107B8842B2
:20D4600028BF002000D2204601B030BD002070477047F0B591B045F6D825C0F6040502243E
:20D480000026009644F60807C1F2130701AA0BCF0BC20BCF0BC20BCF0BC2386848F200013F
:20D4A0001060C1F202214FF4106248F60043C1F2022301A84FF43D3780E88E000120ADF8FC
:20D4C000260048F60810C1F202200A900EA8032167F0F7F80BA8032167F0F3F8287801384F
:20D4E00005D327D002282DD347D0204651E00EA8DEF0BDFEE0B90BA8DEF04EFEC0B90E98C1
:20D50000012814BF0C28304643D09DF831009DF83310C1EA00409DF8321040EA0120B0F502
:20D52000023F05D32878012101302870084630E020462EE001A905F10C00E0F00CFF0228C4
:20D5400004D105E005F10C00DEF066FC03280BD16868411C696040F6B831884298BF012081
:20D5600017D92E70204614E00028FAD16860287801210130287008460BE06846E0F064FF63
:20D5800028B90098022802D12E70304601E02E70204611B0F0BD7047704731201870012046
:20D5A00070470020704700993120087001207047019931200870012070470120704731203F
:20D5C0001870012070470099312008700120704700207047704710B582B045F6C050C1F22E
:20D5E00019000124026990F82C0052684FF4807394468DE8081031B96B4601AA214602F1D7
:20D6000017F830B9019A1046FFF7DAFB002818BF0024204602B010BD10B582B045F6C0500C
:20D62000C1F219000124026990F82C0052684FF4807394468DE8081031B96B4601AA2146D6
:20D6400001F1F6FF50B9019A106841F21721C1F68011884202BF906888420024204602B08B
:20D6600010BD01207047704770470020704700207047002070470020704700207047002044
:20D6800070470020704700207047002070470020704700207047002070470120704770473A
:20D6A000704700B5DEF027FE01280CBF0020DEF02DFE00BD00B5DEF01EFE002818BFDEF0D5
:20D6C000B8FE00BD0020704700207047014645F6F420C0F60400DEF0F3BF014645F6F420C3
:20D6E000C0F60400DEF0BEBF45F6F420C0F60400DEF092BB4FF20041C4F22401012008601B
:20D7000070474FF20041C4F2240100200860704770B581B004460D1E22D045F60831C0F6CF
:20D720000401002002460346064684468646A1E84D5081E84D1045F60431C0F604010860D2
:20D74000206840F0004020602E68A868B6FBF0F202FB106392B21BB9511EB1F5807F01D3A8
:20D76000012029E0206B61F307002063287B90B9B6FBF2F0010C6A68000466F0D9FF20F076
:20D78000FF006062206A6FF39E702062206A40F0004020620BE0206A697B40F0804061F333
:20D7A000124000902062206A10F0004FFBD0206910F0004FFBD0002001B070BD002101603E
:20D7C000016341620162C0F80817C0F818177047F0B581B005460E46141E05D00B2903D2E5
:20D7E0001078012816D00BB901204AE045F60832C0F6040242F8213061681960E168596083
:20D80000012145F60432C0F6040201FA06F311681943116005EB4617D7F800180091012891
:20D8200002BF41F002000090014641F00100617861F3104040F00040009039F0C7F86869B5
:20D8400062688218C7F80428227807F50067012A02D1A2688018B86039F0BAF800983860B9
:20D86000012000FA06F1D5F808070843C5F808072078012804D1D5F818070843C5F81807FA
:20D88000002001B0F0BD00EB41120020C2F80008C2F80408C2F8080845F60832C0F6040229
:20D8A00042F8210070472DE9F04881B045F60432C0F604021168D0F80CB71BEA010BC0F8DD
:20D8C00000B7D0F800175C46009145F60835C0F60405AC461FD04FF0000314F0010F14D02D
:20D8E0001A18D2F80478D2F800186FF30001C2F80018DCF800603668B919C2F80418D2F855
:20D90000001841F00101C2F8001803F120030CF1040C6408E1D1BBF100040CD0002614F0F2
:20D92000010F04D0A8594068002818BF804706F104066408F3D101B0BDE8F088030018BFBB
:20D94000002A00F09D8000202DE9F04C01248C40D2F800C00546C4F23005BCF1000F1AD1C6
:20D960005C6040F20004C4F231041C1BE409167A05EB041516F01F0604291AD2CCB2E40067
:20D980001F27D5F800C0A7402CEA070706FA04F43C432C601BE09C6040F20004C4F231048E
:20D9A0001C1BE409167A05EB041516F01F060429E4D301F1FC04E4B2E4001F27D5F804C058
:20D9C000A7402CEA070706FA04F43C436C6055694FF0010C0CFA01F69F6CF443274015F044
:20D9E00001058D403D439D64DF6C9569274015F001058D403D43DD64D3F84CE04D0005F150
:20DA0000100C032707FA0CFBD2F81CA02EEA0B0B0AF0030A0AFA0CFC4CEA0B0CC3F84CC0DD
:20DA20004FEA810C4FF00F0BD3F844E00BFA0CFBD2F804A02EEA0B0B0AF00F0A0AFA0CFC11
:20DA40004CEA0B0CC3F844C0D3F840A0AF40D2F80CC02AEA07070CF0030C0CFA05F53D43DD
:20DA60001D645D695E615D699D6912692C4012F0010202FA01F121439961BDE8F04C704704
:20DA800040F20100C0F25A007047020018BF002922D010B440F20003C4F23103D31ADB09E8
:20DAA00040F20004C4F2300404EB0313CC691C600C6A5C600B6813600B6993644B69D36422
:20DAC000CB6853648B68136440F2FF13536149689161002010BC704740F20100C0F25A0075
:20DAE000704710B4D0F8003313F01F03082B2DD2D40821D0D0F8403301F8083BD0F84033DA
:20DB000001F8073CD0F8403301F8063CD0F8403301F8053CD0F8403301F8043CD0F840332F
:20DB200001F8033CD0F8403301F8023CD0F8403301F8013C013CDDD112F0070233D0D0F809
:20DB4000403301F8013B013AF9D12CE0D40821D0D0F8403321F8103BD0F8403321F80E3C02
:20DB6000D0F8403321F80C3CD0F8403321F80A3CD0F8403321F8083CD0F8403321F8063C41
:20DB8000D0F8403321F8043CD0F8403321F8023C013CDDD112F0070205D0D0F8403321F840
:20DBA000023B013AF9D110BC704710B5D0F80843C4F30804944228BF14462246FFF791FF00
:20DBC000204610BDF0B507460C46161E08BFF0BDD7F80853C5F30805B54228BF35462A466E
:20DBE00021463846FFF77DFFD7F8001311F01F01082903D26419761BEAD1F0BD04EB450417
:20DC0000761BE5D1F0BD10B4024603684024002013F4404F08BF8024D2F80832C3F308034F
:20DC20009C421CBFC2F84012012010BC704710B4D0F8003213F01F03082B2DD2D40821D099
:20DC400011F8083BC0F8403211F8073CC0F8403211F8063CC0F8403211F8053CC0F84032EF
:20DC600011F8043CC0F8403211F8033CC0F8403211F8023CC0F8403211F8013CC0F84032DE
:20DC8000013CDDD112F0070233D011F8013BC0F84032013AF9D12CE0D40821D031F8103BCA
:20DCA000C0F8403231F80E3CC0F8403231F80C3CC0F8403231F80A3CC0F8403231F8083CFC
:20DCC000C0F8403231F8063CC0F8403231F8043CC0F8403231F8023CC0F84032013CDDD176
:20DCE00012F0070205D031F8023BC0F84032013AF9D110BC704710B50368402413F4404F02
:20DD000008BF8024D0F80832C3F30803E41A944228BF14462246FFF78AFF204610BDF0B501
:20DD200007460C46161E08BFF0BD3868402110F4404F08BF8021D7F80802C0F308000D1AE5
:20DD4000B54228BF35462A4621463846FFF76FFFD7F8001211F01F01082903D26419761B9B
:20DD6000E3D1F0BD04EB4504761BDED1F0BD30B400240268402312F4404F0BD10D788023AF
:20DD80005DB1D0F80822C2F308029342F9D0C0F8405201340D5D002DF3D130BC7047002A7F
:20DDA00008BF7047C0F84012013AFBD1704710B40368402413F4404F08BF8024D0F8083287
:20DDC000C3F30803E31A934228BF13461C0018BF1C46E20811D0C0F84012C0F84012C0F884
:20DDE0004012C0F84012C0F84012C0F84012C0F84012C0F84012013AEDD114F0070203D0C6
:20DE0000C0F84012013AFBD1184610BC70472DE9F0048AB0030044F69040C1F21300006891
:20DE2000009044F69440C1F213000068019044F69840C1F213000068029044F69C40C1F2EA
:20DE400013000068039044F6A040C1F213000068049044F6A440C1F213000068059044F6BD
:20DE6000A840C1F213000068069044F6AC40C1F213000068079044F6B040C1F213000068B3
:20DE8000089044F6B440C1F213000068099046F20100C0F2AA0018BF002900F0BA800C68C2
:20DEA000022C07BF91F82650002D4868451E91F82400C6070098760F66F3903065F3030024
:20DEC0004FF0020C6CF3196000901860019864F319600190186491F825C002986CF38610A2
:20DEE000B1F8195091F81BC005F00106C5F3002545EA4C0546EA450565F30A208D6B013D21
:20DF000065F313400D696E1E0546486966F3020560F3000060F3051502959D640D7B91F88F
:20DF200018C005F0010747EA4C0C039F6CF30927D1F808C0ACF1010A27F01F0C0AF01F07B7
:20DF40004CEA070CCDF80CC0C3F800C3D1F81CC08DF810C0D1F820C08DF812C0DDF810C0CA
:20DF6000C3F810C391F827A0DDF814C06AF3082C66F3020C60F3051CCDF814C0C3F844C056
:20DF80000698012C6FF3082040EA052067F3040020F4803008BF40F480300690C3F80002BD
:20DFA000C86B8DF81C000798C3F80403C86A91F82840012818BF002040EA4404089864F380
:20DFC00019604C6B012C20F4803008BF40F480300890086B8DF8200008981865486C8DF86F
:20DFE00024000998C3F80402886CC3F8880F086CC3F8C80F62B10020906050601060D060DC
:20E000001062D06210634CF6EF50C0F2AB00506300200AB0BDE8F004704740F20F01C0F23A
:20E02000003101604FF4401101640021816440F20712C0F80023C0F80413C0F810134164DA
:20E04000C0F80022C0F804120165C0F8C81EC0F8881EC0F8C81FC0F8881FC0F8081FC0F821
:20E06000481F704702686FF3DF720260002908BF70470020486008600862C86270470029B8
:20E0800014BF002A704710B481B0D0F800C040241CF4404F08BF80249960DA600021196113
:20E0A000596161088A4228BF0A46D0F804130091D0F804136FF30701C0F80413511E8DF8BE
:20E0C00000100099C0F804130121C0F8C81F01B010BC70474869086170470022C0F8C82F31
:20E0E000486908618A60CA60704708694A69904202D34969401A7047CA684969511A401806
:20E1000070472DE9F04C81B017465A68D20700F197801C4606460025C0F8C85F98688A4643
:20E12000002867D01A695B699A4203D36369D51A60D006E0E368D4F814C0A3EB0C03D51841
:20E1400058D06269D6F8003313F01F03082B34BF4FF0010C4FF0000CBD4228BF3D4600235D
:20E16000BCF1000F13D0AB4228D2D4F80CB001325A4500D10022805CC8540133AB421DD2C4
:20E18000A068D4F80CB001325A45F4D1F2E7AB4214D2D4F80CB001325A4506D104E0D4F8CB
:20E1A0000CB001325A4500D162464FEA420B3BF800B021F802BB0133AB42F0D362612562EB
:20E1C0007F1B0FD14FF44870C6F8C80F206A002803D9216B09B1042088470120C6F8C80FB8
:20E1E00067B308E0BCF1000F02D0AA4437B302E00AEB450A17B33168402011F4404F08BF73
:20E20000802001216160E76125624108D6F804030090D6F80403B9426FF30700C6F8040300
:20E2200088BF3946481E8DF800000098C6F80403C4F818A040F62130C6F8C80F002003E03D
:20E2400046F20200C0F2AA0001B0BDE8F08C8A68002A08BFC0F8C82F0020C8610862486069
:20E260007047086A70474868704730B481B01D68ED072AD459620446012018609A622068A9
:20E28000402110F4404F08BF8021D4F804020090D4F804026FF30700C4F8040248088DF8EE
:20E2A00000000098C4F80402206C00F04070B0F1807F05D140F20150C4F8880F002008E084
:20E2C0000120C4F8880F002003E046F20300C0F2AA0001B030BC70470022C0F8882FD0F883
:20E2E000043243F48033C0F80432D0F804326FF31043C0F80432D0F804028A62CA620A601F
:20E300007047C86A70470868704770B582B006460D460168402011F4404F08BF8020440830
:20E32000EA69A9693046FFF740FC296A09182962E969091AE961E969002943D1AA68B2B3CC
:20E34000E868A04219D3D6F804030090D6F804036FF30700C6F80403601E8DF8000000989C
:20E36000C6F804030122C6F8C82F686820F00100296B6860002942D021E0EA68D6F8040360
:20E380000090D6F804036FF30700C6F80403501E8DF800000098C6F804030122C6F8C82FC2
:20E3A000686820F00100296B686041B307E0C6F8C82F686820F00100296B6860F9B1042085
:20E3C00088471CE0D6F80023A96912F01F02082A28BF40000918E869A961A0420FD2E86963
:20E3E000411ED6F804030190D6F804036FF30700C6F804038DF804100198C6F8040302B0AC
:20E4000070BD2DE9F04481B007460D460168402011F4404F08BF8020D7F808634FEA500A23
:20E42000F6054FEAD6562C6938D0E8680134844208BF0024686984421FD1296B09B10820AC
:20E4400088476869844218D10020C7F8C80F64B1601E286128696969884224D36969401A4B
:20E46000E9680E1A564538D225E0E8680138286128696969884216D3F0E7D7F84013D7F889
:20E480000003AA6810F01F00082803D21155013ECBD103E060008152013EC6D12C612869F8
:20E4A00069698842DAD2E9686A69891A4018E9680E1A564511D20021002E18BF711ED7F87A
:20E4C00004030090D7F804036FF30700C7F804038DF800100098C7F8040301B0BDE8F084E3
:20E4E0002DE9F04405460C460068402710F4404F08BF8027D5F8000210F01F000828886A55
:20E5000034BF4FF0010A4FF0000A012811D9886AC862886A4E6A3146421E2846FFF7EBFB7B
:20E52000A16A091AA162BAF1000F08BF400030186062D5F80802C0F30800874208BFBDE818
:20E54000F084A06A012818BFBDE8F0840020A062606ABAF1000F03D0067838F037FA02E0F2
:20E56000068838F033FAC5F840624FF40070C5F8800FD5F8800F38F02BFAD5F8880F20F03D
:20E58000010040F40070C5F8880F206840F00200216B2060002908BFBDE8F0840120BDE8ED
:20E5A000F044084730B504460D46D0F8000E00073ED5D4F8CC0F10F448700AD04968014334
:20E5C0006960C4F8C00F296BD4F8C00F09B110208847D4F8CC0F000509D5686840F4006011
:20E5E00068604FF40060C4F8C00FD4F8C00FD4F8CC0FC0071CD5E86900280ED929462046F6
:20E60000FFF783FE0120C4F8C00FD4F8C00FD4F8000E400758BF30BD0FE0A86818B12946E0
:20E620002046FFF7EEFE0120C4F8C00FD4F8C00FD4F8000E400758BF30BDD4F88C0F10F4BB
:20E64000A0600AD0296801432960C4F8800F296BD4F8800F09B120208847D4F88C0FC00751
:20E6600008D529462046FFF73BFF0120C4F8800FD4F8800FD4F88C0F800558BF30BD0021E0
:20E68000C4F8881F286820F001002860E962296B002908BF30BD0220BDE830400847014665
:20E6A00003284FF0020098BF08467047014602284FF0000098BF0846704745F65831C0F60C
:20E6C00004010020087070472DE9F044074645F63434C0F6040445F6E040C0F6040090F851
:20E6E0006951002D1CBF94F82400012800F0CB8146F2401AC0F6040A9AF87A01002840F088
:20E700001E8101208AF87A01BA7A501E032804D944F6FC41C1F2130105E044F6B441C1F28D
:20E72000130151F8221045F62846C0F604063046B62265F0B0FD30682081000C6081706893
:20E74000A081000CE081B0682082000C6082F068A082000CE08230692083000C6083706997
:20E76000A083000CE083B0692084000C6084F069E084000C2085306A6085000CA085706A62
:20E78000E085000C2086B06A6086000CA086F06AE086000C2087306B6087000CA087706B2D
:20E7A000E087000CA4F84000B06BA4F84200000CA4F84400F06BA4F84600000CA4F84800F8
:20E7C000306CA4F84A00000CA4F84C00706CA4F84E00000CA4F85000B06CA4F85200000CEF
:20E7E000A4F85400F06CA4F85600000CA4F85800306DA4F85A00000CA4F85C00706DA4F8CB
:20E800005E00000CA4F86000B06DA4F86200000CA4F86400F06DA4F86600000CA4F86800FC
:20E82000306EA4F86A00000CA4F86C00706EA4F86E00000CA4F87000B06EA4F87200000CE8
:20E84000A4F87400F06EA4F87600000CA4F87800306FA4F87A00000CA4F87C00706FA4F8C4
:20E860007E00000CA4F88000B06FA4F88200000CA4F88400F06FA4F88600000CA4F88800D8
:20E88000D6F88000A4F88A00000CA4F88C00D6F88400A4F88E00000CA4F89000D6F88800C6
:20E8A000A4F89200000CA4F89400D6F88C00A4F89600000CA4F89800D6F89000A4F89A008E
:20E8C000000CA4F89C00D6F89400A4F89E00000CA4F8A000D6F89800A4F8A200000CA4F8C4
:20E8E000A400D6F89C00A4F8A600000CA4F8A800D6F8A000A4F8AA00000CA4F8AC00D6F8A2
:20E90000A400A4F8AE00000CA4F8B000D6F8A800A4F8B200000CA4F8B400D6F8AC00A4F87B
:20E92000B600000CA4F8B800D6F8B000A4F8BA00000CA4F8BC00B6F8B400A4F8BE0039781C
:20E940000220032998BF0846607079780220032998BF0846E070B9780220032998BF08469C
:20E96000607139790220032998BF0846207079790220032998BF0846A070B979022003291C
:20E9800098BF084620710020A071A4F8EC009AF87901002877D101208AF8790144F6D042A3
:20E9A000C1F2130246F61016C0F604063146022352F8160B21F8160B000C21F8140C52F89D
:20E9C000120C21F8120C000C21F8100C52F80E0C21F80E0C000C21F80C0C52F80A0C21F854
:20E9E0000A0C000C21F8080C52F8060C21F8060C000C32F802CC21F8040C21F802CC013BF1
:20EA0000D6D13068A4F8C000000CA4F8C2007068A4F8C400000CA4F8C600B068A4F8C800CF
:20EA2000000CA4F8CA00F068A4F8CC00000CA4F8CE003069A4F8D000000CA4F8D2007069D6
:20EA4000A4F8D400000CA4F8D600B069A4F8D800000CA4F8DA00F069A4F8DC00000CA4F840
:20EA6000DE00306AA4F8E000000CA4F8E200706AA4F8E400000CA4F8E600B06AA4F8E80092
:20EA8000000CA4F8EA0084F82450BDE8F08400210170704700220A800270704710B414786D
:20EAA00001231CB9137053700C700EE05478012C06D100230B7040B9022050700C7004E004
:20EAC0000B7010B153700020087010BC704700210170704700220A8002707047F0B4049DB9
:20EAE000059C012627781FB9267066702F7016E094F801C011431943BCF1010F08D1002221
:20EB00002A7061B901280AD0022060702E7006E02E7009B9012802D1667000202870F0BC32
:20EB2000704700210170704700220A800270704710B4147801231CB9137053700C7014E001
:20EB40005478012C0AD100230B7004281CBF032805280AD0022050700C7006E00B70033810
:20EB6000022802D853700020087010BC704700210170704700220A800270704770B4039CD2
:20EB8000012526781EB9257065701E7016E06678012E0AD14FF0000C83F800C008431043E0
:20EBA0000CD1022060701E7008E01D70012802D052EA010002D065700020187070BC704719
:20EBC00000210170704700220A800270704730B41D7801241DB91C705C70157013E05D78FE
:20EBE000012D09D14FF0000C82F800C008430AD102205870157006E01470012800D011B1CE
:20EC00005C700020107030BC704700210170704700220A800270704710B4147801231CB97E
:20EC2000137053700C700FE05478012C06D100230B7048B9022050700C7005E00B700128CD
:20EC400002D150700020087010BC704700210170704700220A800270704730B41D7801244A
:20EC60001DB91C705C70157013E05D78012D09D14FF0000C82F800C008430AD1022058707C
:20EC8000157006E01470012800D011B15C700020107030BC704700210170704700220A80C6
:20ECA0000270704710B4147801231CB9137053700C7010E05478012C07D100230B70012898
:20ECC00009D0022050700C7005E00B70012802D150700020087010BC704746F24011C0F687
:20ECE000040191F8D90001380ED0012818BF7047486801280FD314D04A6A501C904238BF57
:20ED00004FF0FF30486270474868012804BF022081F8D9007047012081F8D9000020486220
:20ED2000704700204862022081F8D900704730B546F24015C0F6040595F8850195F88611BF
:20ED400088420BD195F8870195F88811884205D195F8890195F88A1188420ED0002095F89E
:20ED6000DA1085F8DB00002908BF30BD6C6801206860FFF7B2FF6C6030BD686A642838BF02
:20ED800030BD012095F8DA1085F8DB00002908BF30BD6C6800206860FFF79FFF6C6030BDB0
:20EDA00046F24011C0F6040191F8D30001380ED0012818BF7047086801280FD314D00A6A12
:20EDC000501C904238BF4FF0FF30086270470868012804BF022081F8D3007047012081F854
:20EDE000D30000200862704700200862022081F8D300704730B546F24015C0F6040595F892
:20EE00007F0195F8801188420BD195F8810195F88211884205D195F8830195F884118842E2
:20EE20000ED0002095F8D41085F8D500002908BF30BD2C6801202860FFF7B2FF2C6030BDD7
:20EE4000286A642838BF30BD012095F8D41085F8D500002908BF30BD2C6800202860FFF7BD
:20EE60009FFF2C6030BD2DE9F04FADF5117D45F63437C0F604076FA8E8F0FCFB71A8E8F0B8
:20EE80004DFC35A8E8F074FC60A8E8F008FC48A8E8F02FFC45F6E044C0F604042046E8F0D2
:20EEA00052FC29A8E8F079FC40F269102018EAF0A1FE71A8FFF708FC46F2401694F86901F3
:20EEC000C0F60406002801F00F80012086F813029DF8D00184F898019DF8BC0184F8990133
:20EEE0009DF880019DF8841184F89A019DF882019DF8882184F893019DF8860184F88B1121
:20EF000084F871019DF88B0184F892219DF88C3184F8940184F895319DF895C19DF89AB143
:20EF200084F897C19DF899C19DF881A184F89BC19DF89BC196F8DCE09DF89C51BEF1000F04
:20EF400003D14FF0010E86F8DCE09DF8A6E1BEF1010F06D084F8A0B184F8A2C184F8A1A13A
:20EF60000DE09DF8A1C184F8A1C19DF8A0C184F8A0C19DF89FC184F8A2C19DF8A2519DF80B
:20EF8000A3C184F876C19DF8B0C184F882C19DF8B1C184F883C19DF8B4C184F884C19DF86E
:20EFA000B5C184F87BC19DF822C184F880C19DF824C184F8A35184F87CC19DF826C1B4F823
:20EFC000075084F887C14FEA152C84F88551257B84F89CC184F89D5104F5C87C40F28F1554
:20EFE00065198DE821109DF8D5000BF0A1FC04F5B6700F909DF8BE010E9096F8C0000D9050
:20F0000096F8BD000C9096F8C5000B9094F8A1010A9096F8B800099096F8B900089096F807
:20F02000CC00079096F8BF00069096F8BE00059094F88001049094F87C01039094F890014F
:20F04000029094F87B01019094F88401009094F8993194F8832194F882119DF8D50009F0DC
:20F06000ECFC04F5B37104F5DD708DE8030094F89D1194F86C0100231A460BF0CFFA40F221
:20F08000BB10201804900025039594F8A301029094F8A201019094F8A101009094F8A0317F
:20F0A00094F89A2194F89B1194F86C010BF05BF904F58E70009040F2BD10221894F86C01D0
:20F0C000618804F5B4730AF0D3FE40F267102018029004F5DE70019094F885010090B4F9C2
:20F0E0000A1094F86C012B462A460BF01BF840F2B910211894F887010EF068FD04F5DC7C12
:20F1000004F58D7904F58C7804F58B7504F5DB7304F5DA7140F2BF1004EB000B40F2B7107B
:20F1200004EB000A40F2B510221840F2B3100DF1300E20188EE82F1F04F5C5700B9094F823
:20F14000B9010A9096F8CB00099096F8BB00089096F8BA00079094F89901069094F86C01F4
:20F16000059094F88501049094F89C01039094F8A101029094F8A001019094F8BC01009041
:20F1800094F8903194F8BA2194F8BD1194F8BB010DF0B6F894F8B30101F0ECF9ADF8A20011
:20F1A00004F5B87240F29110211840F26F1008AB201883E8070094F89201079094F871015E
:20F1C000069094F89801059094F89501049094F89401039096F8BC00029096F8BA000190C0
:20F1E00096F8C900009096F8C73094F88A2194F8761196F8C40002F077FD04F5927304F5AA
:20F20000917204F5907107AD04F58F7085E80F0094F89701069094F89301059096F8BA0012
:20F22000049094F8B4319DF891219DF8CF119DF883018DE80F0096F8CB3096F8BC2094F8F1
:20F24000B5119DF8CD0106F094FB9DF8A91184F88C119DF829519DF8D23184F88151052B73
:20F2600016BF062B9DF82B0101209DF82D2184F88821B4F81F2084F87D014FEA122C84F8C6
:20F28000862194F8242084F89EC184F89F214FF0010A052B1CBF062B4FF0000A96F815224C
:20F2A000BAF1000F00F08881002A4ED140F26310211840F2AF1020180BF0CFF904F5D87047
:20F2C0000BF079F804F1E60240F26510211804F5D9700AF0EAFD04F5B27140F2B11020189B
:20F2E0000AF040FF04F5D7700EF081FC04F5DF7804F5D67504F1E40304F1E20204F1E001FB
:20F3000040F2AD1004EB000C40F2AB1020188DE82F1104F5D57304F5D47140F2A910221885
:20F3200040F2891020180EF039FA04F58A7001F032F904F5BA7140F27310201803F04DFE3B
:20F34000012086F8150294F88C1104F5C770029040F28D102018019094F89401009094F837
:20F36000953194F892219DF8D5000BF063FD04F5B5700F909DF8BE010E9096F8C0000D9029
:20F3800094F882010C9096F8C3000B9096F8C6000A9094F8A101099096F8B800089096F8B5
:20F3A000B900079096F8CD00069096F8BF00059096F8BE00049094F88101039094F87D019F
:20F3C000029094F87B01019094F88401009094F88E3194F8832194F899119DF8D5000AF04C
:20F3E000EEF940F26310211840F2AF1020188DE8030094F89F1194F86A0100231A460BF0F6
