:020000041005E5
:208000001A4908684FEA102000F00F0090F00E0F08BF1749086820F00B000860BFF34F8FDE
:208020001449012008600220086013490020086012490020086012490120000708601149C4
:20804000002008601049102008600B490F4808600F494FF0010008600649032008600D4865
:208060000D490160BFF34F8F01F0CAB9000020400C00204040C0264000C0264004C02640C3
:1C80800008C026400CC0264010C026400100008044C0264008ED00E000840510F5
:2084000000D0000801800510A912071071110710711107107111071071110710151207107A
:20842000151207101512071015120710A90F07101512071015120710151207105D0C071079
:208440005D0C07105D0C07105D0C07105D0C07105D0C07105D0C07105D0C07105D0C07101C
:208460005D0C07105D0C07105D0C07105D0C07105D0C07105D0C07105D0C07105D0C0710FC
:208480001512071015120710151207101512071015120710151207101512071015120710EC
:2084A0001512071015120710151207101512071015120710151207101512071015120710CC
:2084C0001512071015120710151207101512071015120710151207101512071015120710AC
:2084E00015120710151207101512071015120710151207101512071015120710151207108C
:2085000015120710151207101512071015120710151207101512071015120710151207106B
:2085200015120710151207101512071015120710151207101512071015120710151207104B
:2085400015120710151207101512071015120710151207101512071015120710151207102B
:2085600015120710151207101512071015120710151207101512071015120710151207100B
:208580001512071015120710151207101512071015120710151207101512071015120710EB
:2085A0001512071015120710151207101512071015120710151207101512071015120710CB
:2085C0001512071015120710151207101512071015120710151207101512071015120710AB
:2085E00015120710151207101512071015120710151207101512071015120710151207108B
:2086000015120710151207101512071015120710151207101512071015120710151207106A
:2086200015120710151207101512071015120710151207101512071015120710151207104A
:2086400015120710151207101512071015120710151207101512071015120710151207102A
:2086600015120710151207101512071015120710151207101512071015120710151207100A
:208680001512071015120710151207101512071015120710151207101512071015120710EA
:2086A0001512071015120710151207101512071015120710151207101512071015120710CA
:2086C0001512071015120710151207101512071015120710151207101512071015120710AA
:2086E00015120710151207101512071015120710151207101512071015120710151207108A
:20870000151207101512071015120710151207101512071015120710151207101512071069
:20872000151207101512071015120710151207101512071015120710151207101512071049
:20874000151207101512071015120710151207101512071015120710151207101512071029
:20876000151207101512071015120710151207101512071015120710151207101512071009
:208780001512071015120710151207101512071015120710151207101512071015120710E9
:2087A0001512071015120710151207101512071015120710151207101512071015120710C9
:2087C0001512071015120710151207101512071015120710151207101512071015120710A9
:2087E00015120710151207101512071015120710151207101512071015120710FFFFFFFFCB
:208B000017128019FFFFFFFF17128019FFFFFFFF422448900000000042244890000000005D
:208C0C00FFFFFFFFFFFFFFFFFFFFFFFFFFFFFFFFFFFFFFFF30B40346104600248C420FD206
:208C2C0046F2A825C1F2190513F8012B42401206D20D525B82EA102080B201348C42F3D35E
:208C4C0030BC70472DE9F00C01004FF0010000F0A0800C68002C00F09C8065884FF6FF71B4
:208C6C008D4218BF002D00F0948034F8091C0023AB4280F08A8004EBC3067268B668B2F1E3
:208C8C00FF3F18BF964203D822888A427FD080E0B61A06F1010C5FEADC075DD046F2A826A8
:208CAC00C1F2190632F808AB8AEA010B4FEA0B6B4FEADB5B3BF806B08BEA212181EA1A2A0C
:208CCC004FEA0A6A4FEADA5A3AF806B032F806AC8BEA21218AEA010B4FEA0B6B4FEADB5B55
:208CEC003BF806B08BEA212181EA1A2A4FEA0A6A4FEADA5A3AF806B032F804AC8BEA212186
:208D0C008AEA010B4FEA0B6B4FEADB5B3BF806B08BEA212181EA1A2A4FEA0A6A4FEADA5A40
:208D2C003AF806B032F802AC8BEA21218AEA010B4FEA0B6B4FEADB5B3BF806B08BEA212172
:208D4C0081EA1A2A4FEA0A6A4FEADA5A3AF806A08AEA2121013FA5D11CF0070611D046F2C8
:208D6C00A827C1F2190712F801CB8CEA010C4FEA0C6C4FEADC5C3CF807C08CEA2121013ED8
:208D8C00F1D10133AB42FFF476AF22888A4208BF0020BDE8F00C70472DE9F04442F2CC3697
:208DAC00C0F6040600214FF48870E4F0F8FB45F6A410C1F219000024057B3470AC420FD2F2
:208DCC002746D0F808A0380E0AEBC000FFF73AFF08B10124347007F18077B5EB176FF2D81F
:208DEC000CB90220307065F032FD01214FF48870BDE8F044E4F0D3BBFFF7CEBFF0B542F268
:208E0C00CC36C0F60406022045F6A411C1F2190130700C790025A54228BFF0BD0F68280E33
:208E2C0007EBC000FFF70EFF08B10120307005F18075B4EB156FF2D8F0BD00B5EDF0BEFB27
:208E4C00002814BF0420032000BD42F2CC31C0F604010878022808BF7047003818BF0120C3
:028E6C0070474D
:20900000FA1A18E8924835097FE88F0C38246580272710C40EF381EC3D385DE918F5A908D8
:209020005F0BBCBE806A33B8F389A1B0E9264C28B58EF64FBB914A8BB04E2B83F21AF318BB
:20904000608B2315C80999AF413A7EFD31EE1E41EDB659F7EF7F7BBE1C79F7BDBCB16F950C
:20906000A90F0DF0A043BB84A0EF918E61AEF48C9E1021EDCAC0D1110F207AE1A8EA6195A2
:20908000317EC0E46C14BFD9ABB3FBD2430D5730C93A9474D65B3205CF76E4F73AF3B336BA
:2090A00001CEB8F7969513E8E270D105B4CDAD873B4616A8D575DBC29BE9AF73EF6B1029D0
:2090C00045BF39763C19473C80EE212423D51B2CCDCE12263F9A99B1341BFDBF9D1FA9ECC1
:2090E000CEBE64C1941A0192618B1AA99422EC5F56DD1820A33A3E119BE5C8BA3F95CB0F87
:049100000100010069
:2092000069626F6D5435323154000000000000000000000000000000000000000000000067
:2092200000000000000000000000000000000000000000000000000000000000000000002E
:2092400000000000000000000000000000000000000000000000000000000000000000000E
:209260000000000000000000000000000000000000000000000000000000000000000000EE
:209280000000000000000000000000000000000000000000000000000000000000000000CE
:2092A0000000000000000000000000000000000000000000000000000000000000000000AE
:2092C00000000000000000000000000000000000000000000000000000000000000000008E
:2092E00000000000000000000000000000000000000000000000000000000000000000006E
:2093000000000000000000000000000000000000000000000000000000000000000000004D
:2093200000000000000000000000000000000000000000000000000000000000000000002D
:2093400000000000000000000000000000000000000000000000000000000000000000000D
:209360000000000000000000000000000000000000000000000000000000000000000000ED
:209380000000000000000000000000000000000000000000000000000000000000000000CD
:2093A0000000000000000000000000000000000000000000000000000000000000000000AD
:2093C00000000000000000000000000000000000000000000000000000000000000000008D
:2093E00000000000000000000000000000000000000000000000000000000000000000006D
:2094000006460F46904617F097FB4FF014004FF00101DDF045FC49F22745C1F20505A5F1A0
:2094200001057A46A2EB05059146002803D131463A4643460AE04DF20000C0F600008546D2
:209440004FF000014FF000024FF0000340F20200012817D308D04EF68850CEF200000468E2
:2094600044F4700404600DE011EE500F40F4A00001EE500FBFF36F8FF8EE100A40F08040CF
:20948000E8EE100A4FF0000448F20000C1F20500814506DB47F6FF70C1F21F00814500DCE0
:2094A0002C4644F6A840C1F20C00A0EB040000EB05004FF000044FF000054FF000066AF0B4
:2094C0009FFE00BFFDE7000030B505460C4619F030FE01280ED119F086FD00696100085AD3
:2094E0004FF6FF71884205D019F08EFDBDE8304018F02CBE2846BDE8304018F026BF40F6D7
:209500000000C4F290000021FFF7DEBF40F60000C4F290000021FFF7D7BF40F64000C4F2FC
:2095200090000121FFF7D0BF40F64000C4F290000121FFF7C9BF00B500201BF0E0FB40F2AB
:209540005041C4F25201086800BD00B500201BF0D6FB40F25041C4F25201086800BD00B5E5
:2095600001201BF0CCFB40F25061C4F25401086800BD00B501201BF0C2FB40F25061C4F2A6
:209580005401086800BD01004FF0000008BF704745F60C52C1F20C02914208BF01207047BF
:2095A000704746F20C03C1F20C031A680021904208BF0121080018BF0120704730B50546A6
:2095C00043F6A461C1F213010878012804D12AF0C4FC002808BF30BD45F22864C0F60404D1
:2095E00028000BD146F21401C1F20C0146F24800C1F20C0084E80300012030BDFFF7D1FFD8
:20960000002808BF30BD46F20C01C1F20C0101EB8000006820606560012030BD2DE9F048F4
:2096200045F22864C0F6040400224FF6FF7194E818001E68248EA2421AD215461F46D7F8A7
:2096400004C0B7F80CB00BFB0C6E704505D2811BB1FBFCF189B222460AE005F580354FEA25
:20966000154C5A4403EB0C1792B23E68A242E6D30846BDE8F08845F23061C0F604010880DD
:20968000704745F23060C0F604000188013101807047F0B445F22865C0F6040500210A4607
:2096A0002E890C4695E828002D8E270C03EB0717BF89C91989B28E4201D2294605E0D219BB
:2096C00092B204F58034A942EFD3210C03EB01135968B21A4A439C6814194160846048F2B3
:2096E000AC101B68C0F60400D2180260C160F0BC70472DE9F04845F22864C0F604040021B1
:209700000A4694E818009F68248EA14219D20E461D46D5F804B0B5F80CC00CFB0B7E7045E8
:2097200005D2ABF1010120EA0102214609E006F58036350C614403EB051589B2AF68A14283
:20974000E7D31046BDE8F0882DE9F04C044617460025AB460E18AA462046042129F0A3FF71
:2097600068B90435BD420BD1201D48F27B11C0F60401A0EB070B0878341D48B107E0002583
:2097800048F27B11C0F604010878043400B18246B442E1D3BAF1000F05D048F27B10C0F663
:2097A000040080F800A05846BDE8F08C2DE9F04C83460E461746002429F0B4FF002F08BF1C
:2097C000BDE8F08C45F2346AC0F6040A802F94BF3D4680252A4604EB0B0150462AF01DF875
:2097E00052460021B1EB950F08D252F8040B46F8040B01310434B1EB950FF6D37F1BE5D12D
:20980000BDE8F08C48F27B11C0F60401087870472AF050BB2AF04EBB2AF060BB2AF05EBBBF
:209820002AF071BB40F28011C4F2380102202CF0AEBB40F28011C4F2380102202CF0A7BB37
:2098400040F28031C4F2380100202CF0A0BB40F28031C4F2380100202CF099BB40F20051BA
:20986000C4F2380101202CF092BB40F20051C4F2380101202CF08BBB46F2C832C1F20C0287
:2098800090420CBF01200020704740F20030C4F23100032200212FF0BBB940F20030C4F2F9
:2098A0003100032200212FF0B3B940F20040C4F23100022201212FF0ABB940F20040C4F25C
:2098C0003100022201212FF0A3B940F68010C4F23100012202212FF09BB940F68010C4F2B4
:2098E0003100012202212FF093B901004FF0000008BF704746F26042C1F20C02914208BF93
:209900000120704734F08BBD34F089BD46F21052C1F20C0290420CBF0120002070470000A9
:20992000772800F272830FF20802D2E810F000BF790079008B0099006E036E036E036E0343
:20994000A900C000CA00DA006E036E036E036E031301EA00EA00EA006E036E036E036E03A0
:20996000EF00F400F9000201130122016E036E032701340141014D016E036E036E036E033E
:20998000520179015F016E036E036E036E036E036401640164016E036E036E036E036E0301
:2099A0006C017901870187016E036E036E036E039501A401B401CC01D901E501F301020277
:2099C000100219026E036E036E036E036E036E03230237024C025A0269026E027A028C02C7
:2099E000A102BA026E036E036E036E036E036E03D302E902DD02E9026E036E036E036E0314
:209A0000F102FA026E036E036E036E036E036E036E036E036E030B0329033E03490355033F
:209A2000081C1CBF0438B0F1030040F2EC820A38013840F2E88202381CBF0A28082940F0E8
:209A4000DC82E0E2081C1CBF0438B0F1030040F2DA820D38012840F2D6820E290CD1D2E2B9
:209A6000081C1CBF0438B0F1030040F2CC820E2818BF0E2900F0C7821E2940F06082C2E20D
:209A8000081C1CBF0438B0F1030040F2BC820D38013840F2B88205381CBF0338012884BFCE
:209AA000A1F10800B0F1030000F20D82ABE2081F033840F2A8820E2818BF11F1000007D1B5
:209AC000A1E2081F032840F29E82081C00F09B8214381EBFB0F106000428122940F0EE8158
:209AE00091E2081C1CBF0438B0F1030040F28B8213281CBFA1F10800B0F1030000F2E3812B
:209B000081E2081F032840F27E8269E0081F032840F2798239E0081F032840F2748241E0E2
:209B2000081F033840F26F820E2818BF002948D169E2081C1CBF0438B0F1030040F2638210
:209B40000D38013840F25F82062818BF132940F0F68158E2081C1CBF0438B0F1030040F241
:209B600052820C38012840F24E82082940F0018249E2081F032840F246821BE2081F0338E8
:209B800040F241820F2800F03E82002918BF142940F0928037E2081F033840F234820F28D0
:209BA00000F03182002918BF142940F0C4812AE2081F033840F227820F2818BF002900F0E0
:209BC0002282142975D11EE2081F032840F21B82A5E1081F033840F216820E2800F01382D0
:209BE000002918BF142940F0C2810CE2081F032840F209821BE000391CBF0439032984BFFD
:209C000000207047FFE1081C1CBF0438B0F1030040F2F9810E2818BF1A2940F0A881F2E186
:209C2000081F033840F2EF810E2800F0EC8100291CBF14291A2940F09A81E4E1081C1CBFFA
:209C40000438B0F1030040F2DE8109381CBF0428082940F08E81D6E1081C1CBF0438B0F148
:209C6000030040F2D08109381EBFB0F104000228132924D1C7E1081C1CBF0438B0F10300B9
:209C800040F2C18109381EBFB0F104000228122940F05381B7E1081C1CBF0438B0F10300AD
:209CA00040F2B18109381CBFB0F10400022800F0AA81122900F0A781132900F0A48111295C
:209CC00040F055819FE1081C1CBF0438B0F1030040F29981092818BF132940F0308192E13B
:209CE000081C1CBF0438B0F1030040F28C810D2818BF13294CD186E1081C1CBF0438B0F19E
:209D0000030040F280810D381CBF0228132940F0A68078E1081C1CBF0438B0F1030040F2C7
:209D200072810D381EBFB0F10200042813292FD169E1081C1CBF0438B0F1030040F26381C4
:209D40000F381CBF0428082940F08C805BE1081F033840F258810E2818BF002913D152E152
:209D6000081F033840F24F810E2818BF11F100001ED148E1081F033840F24581142818BFEB
:209D8000002900F04081132918BF112900F03B81082918BF102940F0EC8034E1081F03389C
:209DA00040F23181142818BF11F1000000F02B810838013884BF0738032840F224810B29DD
:209DC00040F0DB801FE1081C1CBF0438B0F1030040F219810A38022840F2158108292ED1E9
:209DE00011E1081C1CBF0438B0F1030040F20B810A381EBFB0F102000828082932D102E1CB
:209E0000081F032840F2FF8012E0081C1CBF0438B0F1030040F2F780142818BF13291ED187
:209E2000F1E0081F033840F2EE800E2800F0EB801B291EBF00291329082900F0E48010297A
:209E400040F0DB80DFE0081C1CBF0438B0F1030040F2D9800E3818BF062800F0D48008298E
:209E600000F0D180092918BF102940F0C880CAE0B1F113000CD2023000F0C58005300830D6
:209E800080F0C180043018BF102940F0BE80BAE000381EBFB0F102000628102940F0B58041
:209EA000B1E0081C1CBF0438B0F1030040F2AB800E381CBF0628122900F0A580A1F108009C
:209EC000033840F2A08006381CBF0228102940F09C8098E0081C1CBF0438032840F293800A
:209EE000132940F088808EE0081C1CBF0438B0F1030040F28880142818BF1F2979D182E060
:209F0000081C1CBF043803287DD9082975D17AE0081F033877D90E3818BF062873D061B95A
:209F200071E0081C1CBF0438B0F103006BD90E3818BF062867D0122965D0132963D0112912
:209F400059D160E0B1F1130009D202305BD00930043058D2043018BF08290AD153E0003891
:209F60001CBF0738B0F101004DD904284BD0082949D0092918BF0B2945D00A2945D142E0B1
:209F8000B1F11A0009D207303DD00B3004303AD2043018BF082930D135E0013833D902389A
:209FA0001CBF0228082928D12DE0081F03382AD9162828D000291CBF142913291BD122E05F
:209FC000081C1CBF0438B0F103001CD90D381CBF0928082911D116E0081C1CBF0438B0F177
:209FE000030010D90D381EBFB0F1070002281F2909D01A2907D0082905D0092903D00A2908
:20A0000018BF0B2901D1012070470020704710380CD210300A287DD80FF20402D2E800F016
:20A020000B1015192129474C54576A000A2884BF002070476AE0362984BF0020704706E0F0
:20A040003C2984BF0020704701E0042962D801207047563984BF02390329F8D94FF0000018
:20A0600070475E3984BF02390329F0D94FF0000070476D390FD2B1F1FF3103313CBFA1F10F
:20A08000FF3111F10301E2D2B1F1FF316431DED24FF0000070470E3984BF0239B1F102015F
:20A0A000D5D902390729D2D94FF0000070475329CDD94FF000007047033984BF02390329E8
:20A0C000C5D94FF0000070470A29C0D922E0773984BF0239B1F10201B9D90239023984BF00
:20A0E0000239B1F10201B2D902396829AFD94FF000007047973984BF0239B1F10201A6D939
:20A1000002391F29A3D94FF000007047002918BF01299CD0002070471A2849D80FF2040273
:20A12000D2E800F0414138413B0E351215181846464646461B21272C35353E383B3E41001E
:20A140000A2935D8012070470229FBD92DE00529F8D904E00429F5D92AE00429F2D9881F54
:20A160000328EFD924E0282984BF29391629E9D90BE02729E6D92829E4D003E02729E1D905
:20A180002829DFD029391629DCD9002070470B29D8D90DE00329D5D90AE00F29D2D907E032
:20A1A0000229CFD904E00329CCD9081F0328C9D9002070470A3883BF06380A280020012017
:20A1C000704703460020083B84BF083B0A2B05D9002918BF7047002A18BF7047012070473C
:20A1E00001004FF0000008BF70474AF2EC72C1F20C02914208BF012070477047704700B5B1
:20A200003AF00AFA002818BF3AF000FA00BD4AF68810C1F20C00704745F28471C0F60401FB
:20A22000086070474AF68812C1F20C0290420CBF01200020704701004FF0000008BF704711
:20A240004AF6BC22C1F20C02914208BF0120704704280FDB104A402012180120106000BF63
:20A260000220106000BF0120506000BF0320106000BF10E0094A9021521800028018012290
:20A28000026000BF0222026000BF0122426000BF0322026000BF704700C0264000802640CB
:20A2A00030B405460C464FF00002A2704FF0000262702278954205D01DB94FF00102A27047
:20A2C00000E065702278E270257030BC704770B505460C46164621462878FFF7E1FF6378CF
:20A2E00003B1A680A378012B02D14FF00003A380A3882BB1A388A3F101039BB2A38002E0E9
:20A300004FF000032B7070BD10B404464FF0010121704FF00001618010BC704710B50446A0
:20A320002046FFF7F1FF10BD10B404464FF0000121704FF00001618010BC704730B4044653
:20A340000D464FF000020AE04FF0000323704FF00003638004F1040402F10103DAB2AA4219
:20A36000F2D330BC704770B404460D464FF0000215E02378012B0AD163884FF6FF76B34242
:20A3800008D2638803F101039BB2638002E04FF00003638004F1040402F10103DAB2AA425D
:20A3A000E7D370BC704700002DE9104149F66C08C0F6010898F8A001013801D31DD0CBE051
:20A3C00049F66C00C0F6010040F2A11100EB0100EDF01FFC49F66C08C0F6010898F8A101AF
:20A3E000012809D100F083FA4FF0010049F66C08C0F6010888F8A001B7E000F0B8F849F6A4
:20A400006C08C0F6010898F82E01052807D049F66C08C0F6010898F82E01062803D101F022
:20A42000CFFF02F087F84FF0000489E049F61820C0F6010000F1010004EB440101EB0000F1
:20A440004FF00001017049F60E20C0F6010004EB0000017820464FF0010200F0B7FA49F637
:20A460000E20C0F6010004EB000049F61021C0F6010104EB010100780978884224D104EB48
:20A48000440049F61821C0F6010100EB01000078012819D049F61820C0F6010000F10100B2
:20A4A00004EB440101EB0000007801280CD049F61820C0F6010000F1020004EB440101EBBE
:20A4C00000000078012825D149F60E20C0F6010004EB0000017820464FF0020200F076FA50
:20A4E00049F61020C0F6010004EB0000017820464FF0000200F06AFA49F60E20C0F60100AF
:20A5000004EB000049F61021C0F6010104EB010109780170204601F09EFB4FF00B0014FBF8
:20A5200000F04FEA800049F69851C0F6010100EB01004FF00B01FFF716FF04F10100C4B2E4
:20A5400049F66C08C0F6010898F88B018442FFF46DAF00F02DF908E04FF0000049F66C08A8
:20A56000C0F6010888F8A00100BFBDE810812DE9304149F66C00C0F60100EBF023F949F6E7
:20A580006C00C0F6010000F16A00EBF030F949F66C00C0F6010000F10600EBF03DF949F690
:20A5A0006C00C0F6010000F11A00EBF04AF949F66C00C0F6010000F1F000EBF081F949F678
:20A5C0006C00C0F6010000F58F70EBF04FF949F66C00C0F6010000F1A600EBF05CF949F6D9
:20A5E0006C08C0F6010898F8AF00042866D149F61B10C0F6010000F1010049F61B11C0F652
:20A60000010101F10201097801F10801007800FA01F080B244F2D048C0F60508A8F8000081
:20A6200049F61B10C0F6010000F10300007844F2CA48C0F6050888F8000049F61B10C0F6E2
:20A64000010000F10400007844F2CB48C0F6050888F8000049F61B10C0F6010000F10500E9
:20A66000007844F2CC48C0F6050888F8000049F61B10C0F6010000F10600007844F2CD48FA
:20A68000C0F6050888F8000049F61B10C0F6010000F10700007844F2CE48C0F6050888F857
:20A6A000000049F61B10C0F6010000F10800007844F2CF48C0F6050888F8000049F66C00CD
:20A6C000C0F6010000F5A260014649F66C08C0F6010898F89A00FFF7E3FD49F66C08C0F6AA
:20A6E000010898F89A0049F66C08C0F6010888F81C0549F66C08C0F6010898F82E010528B6
:20A7000007D049F66C08C0F6010898F82E0106281DD149F66C00C0F6010040F2165100EB2F
:20A720000100014649F66C08C0F6010898F89B00FFF7B6FD49F68850C0F6010000F10100CB
:20A7400049F66C08C0F6010898F89B1001704FF0000423E049F65050C0F6010004EB00050B
:20A76000204602F067F9287049F65250C0F6010004EB0005204602F0EBF9287020464FEA8A
:20A78000400049F65451C0F6010100EB0105204602F002FA288004F10100C4B249F66C08D1
:20A7A000C0F6010898F88B018442D3D3BDE830812DE930414FF0000484E020464FEAC0006F
:20A7C00049F6F051C0F6010100EB010049F60E21C0F6010104EB01010978017020464FEAAD
:20A7E000C00049F6F051C0F6010100EB0105204602F024F8A87020464FEAC00049F6F05105
:20A80000C0F6010100EB0105204602F0CBF8687120464FEA8001A1EB00004FEA400049F637
:20A820005851C0F6010100EB0100014620464FEAC00049F6F052C0F6010200EB020000F10D
:20A8400002004FF01802FFF742FD20464FEA8001A1EB00004FEA400049F66451C0F6010197
:20A8600000EB0100014620464FEAC00049F6F052C0F6010200EB020000F103004FF01802D2
:20A88000FFF725FD20464FEA8001A1EB00004FEA400049F67051C0F6010100EB0100014690
:20A8A00020464FEAC00049F6F052C0F6010200EB020000F105004FF00402FFF708FD04F1E7
:20A8C0000100C4B249F66C08C0F6010898F88B018442FFF472AF49F66C00C0F6010040F205
:20A8E000845100EB0100EAF052FBBDE830812DE9104149F66C00C0F6010000F58F70EAF083
:20A90000B5FF4FF0000443E020464FEAC00049F6F051C0F6010100EB01004FF008024FF012
:20A92000000169F014FC49F60E20C0F6010004EB00004FF00001017049F61020C0F60100C3
:20A9400004EB00004FF00001017049F61220C0F6010004EB00004FF00001017049F614201C
:20A96000C0F6010004EB00004FF00001017049F61620C0F6010004EB00004FF000010170B4
:20A9800020464FF0000100F05CF804F10100C4B249F66C08C0F6010898F88B018442B3D387
:20A9A000BDE8108110B504464FF00B0114FB01F14FEA810149F69852C0F6010201EB02017A
:20A9C00008464FF00B01FFF7B9FC10BD2DE9704104460E4615463346072B2FD80FF20408E7
:20A9E000D8E803F004090E13181D22272946204600F027F823E02946204600F048F91EE00D
:20AA00002946204600F07DFA19E02946204600F074FB14E02946204600F026FC0FE0294694
:20AA2000204600F04EFD0AE02946204600F05FFE05E02946204600F069FF00E000BFBDE813
:20AA400070812DE9304104460D462A46013A04D310D0013A00F0178116E12046FFF7A2FFC8
:20AA600049F62222C0F6010204EB02024FF0000313700AE149F60E22C0F6010204EB0202DC
:20AA800049F61023C0F6010304EB030312781B789A4240F0F78022464FEA8203A3EB02023D
:20AAA0004FEA420249F65C13C0F6010302EB03029278012A1BD149F61022C0F6010204EB85
:20AAC00002024FF00103137049F61422C0F6010204EB02024FF00003137049F61622C0F699
:20AAE000010204EB02024FF000031370CAE022464FEA820302EB03024FEAC20249F6860314
:20AB0000C0F6010302EB03021279042A20D022464FEA820302EB03024FEAC20249F6860303
:20AB2000C0F6010302EB03021279032A10D022464FEA820302EB03024FEAC20249F68603F4
:20AB4000C0F6010302EB03021279052A40F0978049F66C08C0F6010898F80220002A40F0CA
:20AB60008E8049F62222C0F6010204EB02021278012A40F0848022464FEA820302EB030297
:20AB80004FEAC20249F68603C0F6010302EB03021279042A1BD149F61022C0F6010204EB86
:20ABA00002024FF00303137049F61422C0F6010204EB02024FF00103137049F61622C0F6B5
:20ABC000010204EB02024FF0000313705AE022464FEA820302EB03024FEAC20249F68603A3
:20ABE000C0F6010302EB03021279032A1BD149F61022C0F6010204EB02024FF0040313701F
:20AC000049F61422C0F6010204EB02024FF00103137049F61622C0F6010204EB02024FF0EB
:20AC2000000313702EE022464FEA820302EB03024FEAC20249F68603C0F6010302EB0302F7
:20AC40001279052A1ED149F61022C0F6010204EB02024FF00503137049F61422C0F6010236
:20AC600004EB02024FF00103137049F61622C0F6010204EB02024FF00003137002E02046EB
:20AC800001F0AEF801E000E000BFBDE830812DE9304104460D462A46013A04D319D0013A7D
:20ACA00000F01F812AE149F62022C0F6010204EB02024FF00003137022464FEAC20249F663
:20ACC000F053C0F6010302EB03024FF00003937115E149F60E22C0F6010204EB020249F6EF
:20ACE0001023C0F6010304EB030312781B789A4240F0F68022464FEA8203A3EB02024FEAE2
:20AD0000420249F65C13C0F6010302EB03029278DAB949F61022C0F6010204EB02024FF09C
:20AD20000003137049F61422C0F6010204EB02024FF00003137049F61622C0F6010204EB88
:20AD400002024FF000031370CAE022464FEA820302EB03024FEAC20249F68603C0F60103E9
:20AD600002EB03021279042A20D022464FEA820302EB03024FEAC20249F68603C0F60103A1
:20AD800002EB03021279032A10D022464FEA820302EB03024FEAC20249F68603C0F6010392
:20ADA00002EB03021279052A40F0978049F66C08C0F6010898F80220002A40F08E8049F6D5
:20ADC0002222C0F6010204EB02021278012A40F0848022464FEA820302EB03024FEAC20285
:20ADE00049F68603C0F6010302EB03021279042A1BD149F61022C0F6010204EB02024FF0DE
:20AE00000303137049F61422C0F6010204EB02024FF00103137049F61622C0F6010204EBA3
:20AE200002024FF0000313705AE022464FEA820302EB03024FEAC20249F68603C0F6010378
:20AE400002EB03021279032A1BD149F61022C0F6010204EB02024FF00403137049F6142201
:20AE6000C0F6010204EB02024FF00103137049F61622C0F6010204EB02024FF00003137078
:20AE80002EE022464FEA820302EB03024FEAC20249F68603C0F6010302EB03021279052A61
:20AEA0001ED149F61022C0F6010204EB02024FF00503137049F61422C0F6010204EB02029B
:20AEC0004FF00103137049F61622C0F6010204EB02024FF00003137002E0204601F007F98B
:20AEE0000DE022464FEAC20249F6F053C0F6010302EB03024FF00003937100E000BFBDE848
:20AF000030812DE9300104460D462A46013A04D30DD0013A00F0E380EBE045F2F072C0F695
:20AF2000040204EB02024FF000031370E2E049F60E22C0F6010204EB020249F61023C0F64E
:20AF4000010304EB030312781B789A4240F0C68022464FEA820302EB03024FEAC20249F635
:20AF60008603C0F6010302EB03021279BAB122464FEA820302EB03024FEAC20249F68603C9
:20AF8000C0F6010302EB03021279012A07D049F66C08C0F6010898F80220012A1BD149F6FE
:20AFA0001022C0F6010204EB02024FF00003137049F61422C0F6010204EB02024FF000038B
:20AFC000137049F61622C0F6010204EB02024FF00103137082E049F68852C0F6010204EBE2
:20AFE00002021278022A79D149F60E22C0F6010204EB02021278042A24D149F65052C0F6EE
:20B00000010204EB02021278012A36D149F61022C0F6010204EB02024FF00603137049F657
:20B020001422C0F6010204EB02024FF00003137049F61622C0F6010204EB02024FF0000304
:20B0400013701AE049F61022C0F6010204EB02024FF00603137049F61422C0F6010204EB6E
:20B0600002024FF00003137049F61622C0F6010204EB02024FF00003137045F2F072C0F6D0
:20B08000040204EB02021278B2F5C87F1BD349F61022C0F6010204EB02024FF00603137069
:20B0A00049F61422C0F6010204EB02024FF00003137049F61622C0F6010204EB02024FF048
:20B0C000000313700AE045F2F072C0F6040204EB02031A7802F10102D2B21A700AE045F200
:20B0E000F072C0F6040204EB02024FF00003137000E000BFBDE83001704730B504460D46CC
:20B100002A46013A04D320D0013A00F09180A9E049F61422C0F6010204EB02021278002A23
:20B120000FD949F61422C0F6010204EB02031A78A2F10102D2B21A7020464FF00001FFF733
:20B14000E0FE204601F0D2FA8DE020464FF00101FFF7D7FE49F60E22C0F6010204EB0202F4
:20B1600049F61023C0F6010304EB030312781B789A425CD122464FEA820302EB03024FEA37
:20B18000C20249F68603C0F6010302EB03021279032A1BD149F61022C0F6010204EB0202B6
:20B1A0004FF00703137049F61422C0F6010204EB02024FF00003137049F61622C0F60102AD
:20B1C00004EB02024FF00003137030E049F68C52C0F6010204EB02021278012A24D149F6F5
:20B1E0008C52C0F6010204EB02024FF00003137049F61022C0F6010204EB02024FF007039A
:20B20000137049F61422C0F6010204EB02024FF00003137049F61622C0F6010204EB0202A2
:20B220004FF00003137002E0204600F0F4FD1AE049F61622C0F6010204EB02021278002A4F
:20B240000FD949F61622C0F6010204EB02031A78A2F10102D2B21A7020464FF00201FFF70E
:20B2600050FE00E000BF30BD2DE9304104460D462A46013A04D339D0013A00F0F1801DE1AB
:20B2800049F61422C0F6010204EB02021278002A0FD949F61422C0F6010204EB02031A783D
:20B2A000A2F10102D2B21A7020464FF00001FFF728FE4FF0000249F66C08C0F6010888F8F5
:20B2C000B82149F69852C0F6010202F114034FF00B0214FB02F24FEA820202EB0302104655
:20B2E000FFF712F8204601F04DFAE8E020464FF00101FFF706FE49F60E22C0F6010204EB30
:20B30000020249F61023C0F6010304EB030312781B789A4240F0A38022464FEA820302EBA9
:20B3200003024FEAC20249F68603C0F6010302EB03021279042A0FD022464FEA820302EBEC
:20B3400003024FEAC20249F68603C0F6010302EB03021279052A1BD149F61022C0F60102A7
:20B3600004EB02024FF00703137049F61422C0F6010204EB02024FF00003137049F61622B1
:20B38000C0F6010204EB02024FF00003137066E022464FEA8203A3EB02024FEA420249F682
:20B3A0007C53C0F6010302EB03025278012A53D149F61022C0F6010204EB02024FF0040396
:20B3C000137049F61422C0F6010204EB02024FF00003137049F61622C0F6010204EB0202E1
:20B3E0004FF00003137049F61822C0F6010202F1010204EB440303EB02024FF00103137072
:20B4000049F68A52C0F6010204EB02024FF00103137049F69852C0F6010202F10C034FF07C
:20B420000B0214FB02F24FEA820202EB03021046FEF76AFF49F69852C0F6010202F11403AD
:20B440004FF00B0214FB02F24FEA820202EB03021046FEF763FF02E0204600F0F8FC2EE007
:20B46000204601F053FB49F69852C0F6010202F114034FF00B0214FB02F24FEA820202EB42
:20B4800003021046FEF750FF49F61622C0F6010204EB02021278002A0FD949F61622C0F621
:20B4A000010204EB02031A78A2F10102D2B21A7020464FF00201FFF724FD00E000BFBDE85C
:20B4C000308130B504460D462A46013A04D34FD0013A00F0D08008E149F61422C0F6010206
:20B4E00004EB02021278002A0FD949F61422C0F6010204EB02031A78A2F10102D2B21A7065
:20B5000020464FF00001FFF7FCFC49F69252C0F6010204EB02024FF00003137049F69052E2
:20B52000C0F6010204EB02024FF00003137022464FEAC20249F6F053C0F6010302EB030207
:20B540004FF00003137149F69852C0F6010202F11C034FF00B0214FB02F24FEA820202EB38
:20B5600003021046FEF7D0FE204601F04BF9BDE020464FF00101FFF7C4FC49F60E22C0F6F3
:20B58000010204EB020249F61023C0F6010304EB030312781B789A426CD122464FEA820338
:20B5A00002EB03024FEAC20249F68603C0F6010302EB03021279042A0FD022464FEA82036A
:20B5C00002EB03024FEAC20249F68603C0F6010302EB03021279032A1BD149F61022C0F63D
:20B5E000010204EB02024FF00703137049F61422C0F6010204EB02024FF00003137049F664
:20B600001622C0F6010204EB02024FF00003137030E049F68E52C0F6010204EB020212781C
:20B62000012A24D149F68E52C0F6010204EB02024FF00003137049F61022C0F6010204EB41
:20B6400002024FF00703137049F61422C0F6010204EB02024FF00003137049F61622C0F607
:20B66000010204EB02024FF00003137002E0204600F06FFC3AE022464FEAC20249F6F0536B
:20B68000C0F6010302EB03024FF000031371204601F03CFA49F69852C0F6010202F11C03B7
:20B6A0004FF00B0214FB02F24FEA820202EB03021046FEF739FE49F61622C0F6010204EBEB
:20B6C00002021278002A0FD949F61622C0F6010204EB02031A78A2F10102D2B21A7020460A
:20B6E0004FF00201FFF70DFC00E000BF30BD30B504460D462A46013A04D34CD0013A00F032
:20B70000C98001E149F61422C0F6010204EB02021278002A0FD949F61422C0F6010204EB24
:20B7200002031A78A2F10102D2B21A7020464FF00001FFF7E6FB204600F0EBF922464FEA76
:20B74000C20249F6F053C0F6010302EB03024FF00003D3704FF00B0214FB02F24FEA820266
:20B7600049F69853C0F6010302EB03021046FEF7CBFD49F69852C0F6010202F110034FF0B9
:20B780000B0214FB02F24FEA820202EB03021046FEF7BAFDB9E020464FF00101FFF7B1FB06
:20B7A00049F60E22C0F6010204EB020249F61023C0F6010304EB030312781B789A4268D11B
:20B7C00049F69852C0F6010202F110034FF00B0214FB02F24FEA820202EB030252886E2A11
:20B7E00054D322464FEA820302EB03024FEAC20249F68603C0F6010302EB03021279042AE0
:20B8000028D022464FEA820302EB03024FEAC20249F68603C0F6010302EB03021279032AEF
:20B8200018D022464FEA820302EB03024FEAC20249F68603C0F6010302EB03021279052ADD
:20B8400008D049F68852C0F6010204EB02021278012A1ED149F61022C0F6010204EB02028A
:20B860004FF00703137049F61422C0F6010204EB02024FF00003137049F61622C0F60102E6
:20B8800004EB02024FF00003137002E0204600F040F93AE04FF00B0214FB02F24FEA820259
:20B8A00049F69853C0F6010302EB03021046FEF73BFD49F69852C0F6010202F110034FF008
:20B8C0000B0214FB02F24FEA820202EB03021046FEF72AFD49F61622C0F6010204EB020214
:20B8E0001278002A0FD949F61622C0F6010204EB02031A78A2F10102D2B21A7020464FF0AD
:20B900000201FFF7FEFA00E000BF30BD30B504460D462A46013A04D326D0013A00F0DD8028
:20B92000F5E049F61422C0F6010204EB02021278002A0FD949F61422C0F6010204EB020353
:20B940001A78A2F10102D2B21A7020464FF00001FFF7D7FA49F62222C0F6010204EB020215
:20B960004FF000031370D3E020464FF00101FFF7C8FA49F60E22C0F6010204EB020249F696
:20B980001023C0F6010304EB030312781B789A4240F0A28022464FEA820302EB03024FEA29
:20B9A000C20249F68603C0F6010302EB03021279042A24D149F62222C0F6010204EB020272
:20B9C0001278012A1BD149F61022C0F6010204EB02024FF00303137049F61422C0F60102B3
:20B9E00004EB02024FF00003137049F61622C0F6010204EB02024FF0000313706CE02246F3
:20BA00004FEA820302EB03024FEAC20249F68603C0F6010302EB03021279032A24D149F619
:20BA20002222C0F6010204EB02021278012A1BD149F61022C0F6010204EB02024FF0040312
:20BA4000137049F61422C0F6010204EB02024FF00003137049F61622C0F6010204EB02025A
:20BA60004FF00003137037E022464FEA820302EB03024FEAC20249F68603C0F6010302EB66
:20BA800003021279052A24D149F62222C0F6010204EB02021278012A1BD149F61022C0F6FB
:20BAA000010204EB02024FF00503137049F61422C0F6010204EB02024FF00003137049F6A1
:20BAC0001622C0F6010204EB02024FF00003137002E0204600F084F91AE049F61622C0F6E1
:20BAE000010204EB02021278002A0FD949F61622C0F6010204EB02031A78A2F10102D2B2E4
:20BB00001A7020464FF00201FFF7FBF900E000BF30BD10B504464FF00B0114FB01F14FEAE9
:20BB2000810149F69852C0F6010201EB020149880A291AD321464FEAC10149F6F052C0F628
:20BB4000010201EB02014FF00102CA704FF00B0114FB01F14FEA810149F69852C0F601028E
:20BB600001EB02010846FEF7DFFB10BD00B581B04FF000008DF803000DF10300ECF058F812
:20BB80009DF8030001B000BD00B581B04FF000008DF803000DF10300ECF058F89DF803002D
:20BBA00001B000BD10B504462046ECF048F810BD10B504462046ECF050F810BD2DE90041FC
:20BBC00081B00DF1020149F66C00C0F6010000F5DD70EAF0AAFCBDF8022049F62621C0F6FC
:20BBE000010149F64240C0F6010068F0F4FABDF8022049F62620C0F601004FF0000168F0DA
:20BC0000A6FA9DF8020049F66C08C0F6010888F8B9014FF0010049F66C08C0F6010888F80F
:20BC2000B80101B0BDE800814DF8048D4FF0000049F66C08C0F6010888F8A0015DF8048BE8
:20BC4000704700B54FF00000EBF0F9FF4FF00000ECF003F800BD10B4044649F60E21C0F661
:20BC6000010104EB0101097861B121464FEAC10149F6F052C0F6010201EB02014FF0000272
:20BC80004A700BE021464FEAC10149F6F052C0F6010201EB02014FF001024A7010BC7047F5
:20BCA0002DE9F04C05460E4617469A464FF0010453463A46314628463AF0A4FA84466446D8
:20BCC000F4B928463AF0ECFA8446644664B944F2D24BC0F6050BBBF800C00CF1010C1FFAF9
:20BCE0008CFCABF800C00BE044F2D24BC0F6050BBBF800C0ACF1010C1FFA8CFCABF800C034
:20BD000000BF2046BDE8F08C10B54FF000003AF04DFC04464CB144F2D441C0F60501088888
:20BD2000A0F1010080B2088008E044F2D441C0F60501088800F1010080B2088010BD10B5FA
:20BD40004FF000003AF055FC04464CB144F2D641C0F605010888A0F1010080B2088008E015
:20BD600044F2D641C0F60501088800F1010080B2088010BD10B54FF001003AF017FC044625
:20BD80004CB144F2D841C0F605010888A0F1010080B2088008E044F2D841C0F6050108883C
:20BDA00000F1010080B2088010BD10B54FF001003AF01FFC04464CB144F2DA41C0F605016C
:20BDC0000888A0F1010080B2088008E044F2DA41C0F60501088800F1010080B2088010BD89
:20BDE00030B504464FF0000549F62221C0F6010104EB0101097869B9204600F03FFE014628
:20BE000041B949F62221C0F6010104EB01014FF001020A7030BD2DE91041044649F66C08F0
:20BE2000C0F6010898F8281501290BD149F66C08C0F6010898F829158C4206D1204600F035
:20BE400039FC02E0204600F035FCBDE810812DE93041044649F69851C0F6010101F10C025D
:20BE60004FF00B0114FB01F14FEA810101EB02014988502919D949F68A51C0F6010104EBCF
:20BE800001014FF000020A7049F69851C0F6010101F10C024FF00B0114FB01F14FEA8101FE
:20BEA00001EB02010846FEF73FFA49F68A51C0F6010104EB01010978B9B949F66C08C0F6F8
:20BEC000010898F8B93149F66C01C0F6010140F2D63201EB02010A4649F66C08C0F6010890
:20BEE00098F8B811204600F01DFC204600F0F3FC014601292BD149F63430C0F601004FF42B
:20BF000087724FF0000168F022F9204600F026FD01460D46204600F002FD01462A4649F617
:20BF20003430C0F6010068F056F9294649F66C02C0F6010202F532721046EAF0EBFA4FF07B
:20BF4000000149F66C08C0F6010888F8B811BDE830812DE97041044649F66C08C0F601084C
:20BF600098F82A1589B149F66C08C0F6010898F82A15012940F0B98049F66C08C0F6010872
:20BF800098F82B158C4240F0B08049F69051C0F6010104EB0101097801290BD1204600F0FD
:20BFA00031FC49F69051C0F6010104EB01014FF000020A7049F69251C0F6010104EB010105
:20BFC000097851B9204600F0F9FB01460E46204600F00CFD01460D4625E04FF0000549F670
:20BFE0009251C0F6010104EB01021178A1F10101C9B2117049F69251C0F6010104EB0101D0
:20C00000097881B949F69851C0F6010101F11C024FF00B0114FB01F14FEA810101EB02017F
:20C020000846FEF771F9294602392FD121464FEAC10149F6F052C0F6010201EB02014FF0DF
:20C0400002020A7149F69051C0F6010104EB01014FF001020A7049F69251C0F6010104EB13
:20C0600001014FF064020A7049F69851C0F6010101F11C024FF00B0114FB01F14FEA8101A8
:20C0800001EB02010846FEF74FF92EE049F69851C0F6010101F11C024FF00B0114FB01F1DC
:20C0A0004FEA810101EB02014988C8291CD321464FEAC10149F6F052C0F6010201EB02019A
:20C0C0004FF001020A7149F69851C0F6010101F11C024FF00B0114FB01F14FEA810101EBC0
:20C0E00002010846FEF720F900BFBDE870812DE93041044649F62021C0F6010104EB010192
:20C100000978013904D31AD0013900F034814BE149F62221C0F6010104EB010109780129C2
:20C1200009D149F62021C0F6010104EB01014FF001020A7002E02046FFF752FE3EE140F261
:20C140000808C4F23908D8F8001045F2DC78C0F60408C8F80010E8E021464FEA8102A2EB63
:20C1600001014FEA410149F65C12C0F6010201EB0201897849B949F62021C0F6010104EBC3
:20C1800001014FF000020A70E0E0204600F09AFC01460D462946033903D202314BD834D0C2
:20C1A00008E001395DD372D04DF6FC78B1EB080115D082E021464FEAC10149F6F052C0F6AF
:20C1C000010201EB02014FF000028A7145F2E872C0F60402116801F10101116083E021463C
:20C1E0004FEAC10149F6F052C0F6010201EB02014FF000028A7145F2E372C0F6040211780E
:20C2000001F10101C9B211706DE021464FEAC10149F6F052C0F6010201EB02014FF0000215
:20C220008A7145F2E272C0F60402117801F10101C9B2117057E021464FEAC10149F6F05229
:20C24000C0F6010201EB02014FF002028A7145F2E072C0F60402117801F10101C9B211703A
:20C2600041E021464FEAC10149F6F052C0F6010201EB02014FF001028A7145F2E172C0F695
:20C280000402117801F10101C9B211702BE021464FEAC10149F6F052C0F6010201EB020189
:20C2A0004FF000028A7145F2E472C0F60402117801F10101C9B2117015E021464FEAC10129
:20C2C00049F6F052C0F6010201EB02014FF000028A7145F2E572C0F60402117801F1010132
:20C2E000C9B2117000BF21464FEAC10149F6F052C0F6010201EB0201897902290BD0214689
:20C300004FEAC10149F6F052C0F6010201EB02018979012909D149F62021C0F6010104EBCC
:20C3200001014FF002020A7010E040F20808C4F23908D8F8001045F2DC78C0F60408D8F818
:20C340000020A1EB0201FA29FFF406AF40F20808C4F23908D8F8001045F2DC78C0F60408FD
:20C36000D8F80020A1EB020145F2EC78C0F60408C8F8001022E021464FEA8102A2EB01015D
:20C380004FEA410149F65C12C0F6010201EB0201897841B949F62021C0F6010104EB0101A9
:20C3A0004FF000020A7009E049F62021C0F6010104EB01014FF000020A7000BFBDE83081E0
:20C3C0002DE9004149F66C08C0F6010898F81E00042840F0818049F68600C0F6010000F11C
:20C3E00028000079042877D145F2F378C0F6040898F80000013801D319D064E049F66C004F
:20C40000C0F6010000F5AA60FDF77EFF4FF0010049F66C08C0F6010888F828054FF0010056
:20C4200045F2F378C0F6040888F8000074E049F69850C0F6010000F124004088C82841D305
:20C4400045F2F278C0F6040898F80000C8B94FF0010045F2F278C0F6040888F800004FF006
:20C46000010049F66C08C0F6010888F8200549F68C50C0F6010000F101004FF0000101702F
:20C4800018E04FF0000045F2F278C0F6040888F800004FF0000049F66C08C0F6010888F851
:20C4A000200549F68C50C0F6010000F101004FF00101017049F66C00C0F6010000F5AA6080
:20C4C000FDF72CFF28E04FF0000045F2F378C0F6040888F800001FE049F66C00C0F60100B1
:20C4E00000F5AA60FDF720FF4FF0000049F66C08C0F6010888F828054FF0000045F2F278EC
:20C50000C0F6040888F800004FF0000045F2F378C0F6040888F8000045F2F278C0F6040853
:20C5200098F8000049F66C08C0F6010888F82905BDE800812DE9004149F66C08C0F601085C
:20C5400098F81E00052840F0858049F68600C0F6010000F12800007905287BD145F2F578A0
:20C56000C0F6040898F80000013801D31BD068E049F66C00C0F6010040F2545100EB010004
:20C58000FDF7C2FE4FF0010049F66C08C0F6010888F82A054FF0010045F2F578C0F60408E0
:20C5A00088F8000078E049F69850C0F6010000F128004088C82843D345F2F478C0F6040879
:20C5C00098F80000C8B94FF0010045F2F478C0F6040888F800004FF0010049F66C08C0F67C
:20C5E000010888F8220549F68E50C0F6010000F101004FF00001017018E04FF0000045F2A6
:20C60000F478C0F6040888F800004FF0000049F66C08C0F6010888F8220549F68E50C0F641
:20C62000010000F101004FF00101017049F66C00C0F6010040F2545100EB0100FDF76EFED0
:20C640002AE04FF0000045F2F578C0F6040888F8000021E049F66C00C0F6010040F2545171
:20C6600000EB0100FDF760FE4FF0000049F66C08C0F6010888F82A054FF0000045F2F4783A
:20C68000C0F6040888F800004FF0000045F2F578C0F6040888F8000045F2F478C0F60408CE
:20C6A00098F8000049F66C08C0F6010888F82B05BDE800812DE91041044649F66C08C0F688
:20C6C000010898F82E11052907D049F66C08C0F6010898F82E11062904D1012C02D15EF0EA
:20C6E00025FF01E05EF0D2FBBDE810812DE91041044649F66C08C0F6010898F82E110529C4
:20C7000007D049F66C08C0F6010898F82E11062904D1012C02D15EF07AFF01E05EF027FCE4
:20C72000BDE810812DE9F04582460D4616461F464FF0000449F66C08C0F6010898F82EC168
:20C74000BCF1050F08D049F66C08C0F6010898F82EC1BCF1060F0AD1BAF1010F07D13A469F
:20C76000314628465EF07BFF8446644606E03A46314628465EF023FC8446644600BF204647
:20C78000BDE8F0852DE91041044649F66C08C0F6010898F82E11052907D049F66C08C0F61F
:20C7A000010898F82E11062904D1012C02D15FF06CF801E05EF019FDBDE810812DE93041E8
:20C7C00005464FF0000449F66C08C0F6010898F82E11052907D049F66C08C0F6010898F883
:20C7E0002E11062906D1012D04D15FF085F801460C4603E05EF030FD01460C4621460846E0
:20C80000BDE830812DE91041044649F66C08C0F6010898F82E11052907D049F66C08C0F662
:20C82000010898F82E11062904D1012C02D15FF0C0F801E05EF06DFDBDE810812DE93041BF
:20C8400005464FF0000449F66C08C0F6010898F82E11052907D049F66C08C0F6010898F802
:20C860002E11062906D1012D04D15FF02CF801460C4603E05EF0D7FC01460C46012C12D1B7
:20C8800049F69851C0F6010101F114024FF00B0115FB01F14FEA810101EB02010846FDF777
:20C8A00043FD214614E049F69851C0F6010101F114024FF00B0115FB01F14FEA810101EB01
:20C8C00002014988C82902D34FF0020100E021460846BDE830812DE9304105464FF000047C
:20C8E00049F66C08C0F6010898F82E11052907D049F66C08C0F6010898F82E11062906D1AB
:20C90000012D04D15EF0E4FF01460C4603E05EF08FFC01460C4621460846BDE830812DE9D4
:20C920001041044649F66C08C0F6010898F82E11052907D049F66C08C0F6010898F82E11D5
:20C94000062905D1012C03D15EF0CDFF014602E05EF079FC01460846BDE810812DE9304179
:20C9600005464FF0000449F66C08C0F6010898F82E11052907D049F66C08C0F6010898F8E1
:20C980002E11062906D1012D04D15EF0B0FF01460C4603E05EF05BFC01460C4621460846E3
:20C9A000BDE830812DE9304105464FF0000449F66C08C0F6010898F82E11052907D049F687
:20C9C0006C08C0F6010898F82E11062906D1012D04D15EF039FE01460C4603E05EF0E4FA1F
:20C9E00001460C4621460846BDE830812DE9304105464FF0000449F66C08C0F6010898F87C
:20CA00002E11052907D049F66C08C0F6010898F82E11062906D1012D04D15EF0CEFF014626
:20CA20000C4603E05EF079FC01460C4621460846BDE830812DE9304105464FF0000449F606
:20CA40006C08C0F6010898F82E11052907D049F66C08C0F6010898F82E11062906D1012D5A
:20CA600004D15EF0C6FF01460C4603E05EF071FC01460C4621460846BDE830812DE930416C
:20CA800005464FF0000449F66C08C0F6010898F82E11052907D049F66C08C0F6010898F8C0
:20CAA0002E11062906D1012D04D15EF0E5FC01460C4603E05EF090F901460C46214608465E
:20CAC000BDE830812DE9304105464FF0000449F66C08C0F6010898F82E11052907D049F666
:20CAE0006C08C0F6010898F82E11062906D1012D04D15FF00BF801460C4603E05EF0B6FC5D
:20CB000001460C4621460846BDE830812DE9304105464FF0000449F66C08C0F6010898F85A
:20CB20002E11052907D049F66C08C0F6010898F82E11062906D1012D04D15EF070FF014663
:20CB40000C4603E05EF01BFC01460C46BDE830812DE9304105464FF0000449F66C08C0F6CE
:20CB6000010898F82E11052907D049F66C08C0F6010898F82E11062906D1012D04D15EF040
:20CB80008AFF01460C4603E05EF035FC01460C4621460846BDE830812DE9304105464FF05C
:20CBA000000449F66C08C0F6010898F82E11052907D049F66C08C0F6010898F82E110629BB
:20CBC00006D1012D04D15EF081FF01460C4603E05EF02CFC01460C4621460846BDE8308117
:20CBE00010B40446D4F808124FEAC1514FEAD151084610BC704710B40446D4F808124FEA9D
:20CC000001414FEAD171084610BC704730B504462046FFF7E5FF05462046FFF7ECFF01463E
:20CC200001EB050100290CBF01210021084630BD30B404460D46C4F8C85F30BC704710B4C5
:20CC40000446216841F00041216010BC704770B504460D46164632462946204601F060F8D7
:20CC60000346184670BD10B504462046FFF7CEFF0146C9B2084610BD70B406460C461546AE
:20CC800000BF2C6370BC704730B404460D46C4F8C85F30BC704710B40446216841F0004153
:20CCA000216010BC704770B406460C46154600BF2C6370BC70472DE9F04404460D461646DF
:20CCC0001F469DF818A03A462946204600F055F852462946204600F007F832462946204667
:20CCE00000F05DF8BDE8F0842DE9F04C82460E46174640F20003C4F23103AAEB03034FEA18
:20CD0000D31C63464FEA031340F20004C4F2300403EB0405042E16D2F4B223464FEAC30BE5
:20CD20004FF01F0E0EFA0BFBD5F800E02EEA0B0407F01F0B4FEAC30E0BFA0EFB4BEA040B28
:20CD4000C5F800B017E0A6F10404E4B223464FEAC30B4FF01F0E0EFA0BFBD5F804E02EEA87
:20CD60000B0407F01F0B4FEAC30E0BFA0EFB4BEA040BC5F804B0BDE8F08C70B404460D46D4
:20CD800016462EB94FF0010303FA05F3636004E04FF0010303FA05F3A36070BC70472DE93D
:20CDA000F00404460E4617464FEA86034FF00F0C0CFA03FCD4F844A02AEA0C0507F00F0C7C
:20CDC0000CFA03FC4CEA050CC4F844C0BDE8F004704770474AF20001C0F60001086070472D
:20CDE0004AF21000C0F60000704710B5044600F06BFC002142F242422069C9F248029042DB
:20CE000040D1206A012190423CD1206B0221904238D1206C0321904234D1206D04219042E2
:20CE200030D1206E052190422CD1206F0621904228D1D4F880000721904223D1D4F8900057
:20CE4000082190421ED1D4F8A0000921904219D1D4F8B0000A21904214D1D4F8C0000B2180
:20CE600090420FD1D4F8D0000C2190420AD1D4F8E0000D21904205D1D4F8F0000E2190424B
:20CE800008BF0F210C4600F020FC204610BD00EB01100069704700EB01104069704770B56D
:20CEA0000E46012400F08CFB43F6C041C1F21901086945682846FFF798FF01380BD3C0B2D9
:20CEC00005EB0010006942F24241C9F24801884204BF0024347000F074FB204670BD45F6AC
:20CEE0001C32C0F604020023A2F80530D371A2F80930D372A2F80D30D373538003468C46CF
:20CF000082E80B1070472DE9F04C81B000218DF803100DF103010446FFF7C1FF43F6C04757
:20CF2000C1F219073E69D0B9756800F049FB2846FFF75BFF0138C0B205EB0010456900F0D6
:20CF400040FB05F1010C74B145F61C35C0F60405002001460246034685E80F0037E04FF059
:20CF6000000C002CF0D1022345F61C35C0F6040528462246210C01F1010A1FFA8AFA425415
:20CF800000F80A2001F1030A01F1020B1FFA8BFB1FFA8AFA00F80B2000F80A2001F1050AEF
:20CFA00001F1040B1FFA8BFB1FFA8AFA00F80B2001F1060B1FFA8BFB00F80A20073189B2DA
:20CFC00000F80B20425404F50024013BD2D142F24243C9F248031946624685E80E1097F8BC
:20CFE0002C70766800F0ECFA3046FFF7FEFE044606F1100101EB001600F0E3FA0F2C06D245
:20D000002A4631463846102300F108FA00E0F02001B0BDE8F08C10B500240146204600F03D
:20D02000EFFA002818BF0124204610BDF0B443F6C041C1F2190191F82C30096945F61C3225
:20D0400049681031C0F60402040032D102250646300C471CBFB21454D455C71C00F1020C25
:20D060001FFA8CFCBFB202F80C40D455471D00F1040C1FFA8CFCBFB202F80C4000F1060C6F
:20D080001FFA8CFCD455073080B202F80C40145406F50026013DDBD142F24240C9F24800EB
:20D0A0000546A44682E8311018461023F0BC00F1B5B94FF0000CA2F802C0A2F806C0A2F853
:20D0C0000AC0A2F80EC042F24246C9F248063046654682E8611018461023F0BC00F19EB9D8
:20D0E00010B500240146204600F0ABFA002818BF0124204610BD10B443F6C041C1F21901E3
:20D1000091F82C00096945F61C324968C0F604024FF0000CA2F802C0A2F805C082F807C0AB
:20D12000A2F809C082F80BC0A2F80DC082F80FC041F21724C1F6801482E810109460C2F8A6
:20D140000CC0102310BC00F169B900B540F2B571C0F60401087800F1D6F9002808BF00BD3D
:20D16000012818BF022000BD20B582B0DDF810C09DF814E08DE8005065F06FFE003818BF05
:20D18000012002B020BD00B565F0F0FE003818BF012000BD00B565F0FDFE003818BF0120C5
:20D1A00040F2B472C0F604020021117000BD70472DE9F04C8BB082461646DDF848B01F4662
:20D1C00043F23821C1F21301086820258DE8210043F23C21C1F213010868029003A8082180
:20D1E00067F00FFA40F2B972C0F6040240F2E93130460123FEF0A9FB139B0BEB0A02044644
:20D2000030460D21FEF0A1FB6A460443304604230E21FEF09AFB02AA0443304604230F21DA
:20D22000FEF093FB04433046FEF0C7FB03AA044338462B460121FEF088FB04433846FEF0DC
:20D24000BCFB0443E4B2002C7BD139463046FEF045FA01AB03AA044638460121FEF0DAFA9B
:20D2600004436ED12046022247F2C431C0F6040103ABD1F800C01E5C0CF80060451CEDB2A0
:20D280000E6813F805C006F805C0851CEDB20E6813F805C006F805C0C51CEDB20E6813F83B
:20D2A00005C006F805C0051DEDB20E6813F805C006F805C0451DEDB20E6813F805C006F8D7
:20D2C00005C0851DEDB20E6813F805C006F805C0C51DEDB20E6813F805C006F805C008307D
:20D2E000C0B2013AC5D1022307A8D1F808C010F8086B0CF802608D68551910F8076C6E70E9
:20D300008D68551910F8066CAE708D68551910F8056CEE708D68551910F8046C2E718D6869
:20D32000551910F8036C6E718D6810F8026C5519AE718D68551910F8016CEE710832013B84
:20D34000D3D120460BB0BDE8F08C41F60001C4F226010868C0F3001080F001007047BFF3C5
:20D360004F8F4EF60C52CEF20002106800F4E06040F20001C0F2FA51084340F004001060A0
:20D38000BFF34F8FFEE741F60001C4F226010868C0F3001080F001007047002070470020B1
:20D3A0007047BFF34F8F4EF60C52CEF20002106800F4E06040F20001C0F2FA51084340F06B
:20D3C00004001060BFF34F8FFEE70320704730B581B002240DF103001EF1C0FA002857D134
:20D3E0009DF803000A2850D042F6B412C0F60502156946F269212868C6F66F51884247D15A
:20D4000053691868884243D1287910701979117295F805C082F801C093F805C082F809C09C
:20D4200095F806C082F802C093F806C082F80AC095F807C082F803C093F807C082F80BC0A0
:20D4400095F808C082F804C01B7A1373412802D3E0301070C0B2412902D3E0311172C9B290
:20D46000814212D814D35178507A88420DD80FD39178907A884208D80AD3D178D07A8842FD
:20D4800003D805D31179107B884228BF002000D2204601B030BD002070477047F0B591B0A9
:20D4A00045F62C35C0F6040502240026009643F24027C1F2130701AA0BCF0BC20BCF0BC2CD
:20D4C0000BCF0BC2386848F200011060C1F202214FF4106248F60043C1F2022301A84FF48A
:20D4E0003D3780E88E000120ADF8260048F60810C1F202200A900EA8032167F082F80BA8B3
:20D50000032167F07EF82878013805D327D002282DD347D0204651E00EA8DDF088FBE0B9FB
:20D520000BA8DDF019FBC0B90E98012814BF0C28304643D09DF831009DF83310C1EA0040F6
:20D540009DF8321040EA0120B0F5023F05D32878012101302870084630E020462EE001A9E4
:20D5600005F10C00DFF05BFB022804D105E005F10C00DDF032F903280BD16868411C6960A9
:20D5800040F6B831884298BF012017D92E70204614E00028FAD168602878012101302870FC
:20D5A00008460BE06846DFF0B4FB28B90098022802D12E70304601E02E70204611B0F0BD29
:20D5C0007047704731201870012070470020704700993120087001207047019931200870B8
:20D5E000012070470120704731201870012070470099312008700120704700207047704702
:20D6000010B582B043F6C040C1F219000124026990F82C0052684FF4807394468DE8081073
:20D6200031B96B4601AA2146FFF0AAFF30B9019A1046FFF7DAFB002818BF0024204602B0C5
:20D6400010BD10B582B043F6C040C1F219000124026990F82C0052684FF4807394468DE87E
:20D66000081031B96B4601AA2146FFF089FF50B9019A106841F21721C1F68011884202BF14
:20D68000906888420024204602B010BD0120704770477047002070470020704700207047F4
:20D6A0000020704700207047002070470020704700207047002070470020704700207047B2
:20D6C00000207047012070477047704700B5DDF0F2FA01280CBF0020DDF0F8FA00BD00B57A
:20D6E000DDF0E9FA002818BFDDF083FB00BD0020704700207047014645F64830C0F6040011
:20D70000DDF0C0BC014645F64830C0F60400DDF08BBC45F64830C0F60400DDF05EB84FF267
:20D720000041C4F224010120086070474FF20041C4F2240100200860704770B581B0044651
:20D740000D1E22D045F65C31C0F60401002002460346064684468646A1E84D5081E84D10AA
:20D7600045F65831C0F604010860206840F0004020602E68A868B6FBF0F202FB106392B25D
:20D780001BB9511EB1F5807F01D3012029E0206B61F307002063287B90B9B6FBF2F0010CAE
:20D7A0006A68000466F064FF20F0FF006062206A6FF39E702062206A40F0004020620BE026
:20D7C000206A697B40F0804061F3124000902062206A10F0004FFBD0206910F0004FFBD0EC
:20D7E000002001B070BD00210160016341620162C0F80817C0F818177047F0B581B00546A9
:20D800000E46141E05D00B2903D21078012816D00BB901204AE045F65C32C0F6040242F83F
:20D82000213061681960E1685960012145F65832C0F6040201FA06F311681943116005EB86
:20D840004617D7F800180091012802BF41F002000090014641F00100617861F3104040F020
:20D860000040009039F052F8686962688218C7F80428227807F50067012A02D1A2688018A8
:20D88000B86039F045F800983860012000FA06F1D5F808070843C5F808072078012804D13F
:20D8A000D5F818070843C5F81807002001B0F0BD00EB41120020C2F80008C2F80408C2F837
:20D8C000080845F65C32C0F6040242F8210070472DE9F04881B045F65832C0F60402116828
:20D8E000D0F80CB71BEA010BC0F800B7D0F800175C46009145F65C35C0F60405AC461FD09F
:20D900004FF0000314F0010F14D01A18D2F80478D2F800186FF30001C2F80018DCF800600A
:20D920003668B919C2F80418D2F8001841F00101C2F8001803F120030CF1040C6408E1D178
:20D94000BBF100040CD0002614F0010F04D0A8594068002818BF804706F104066408F3D18D
:20D9600001B0BDE8F088030018BF002A00F09D8000202DE9F04C01248C40D2F800C0054690
:20D98000C4F23005BCF1000F1AD15C6040F20004C4F231041C1BE409167A05EB041516F055
:20D9A0001F0604291AD2CCB2E4001F27D5F800C0A7402CEA070706FA04F43C432C601BE0EB
:20D9C0009C6040F20004C4F231041C1BE409167A05EB041516F01F060429E4D301F1FC046C
:20D9E000E4B2E4001F27D5F804C0A7402CEA070706FA04F43C436C6055694FF0010C0CFA78
:20DA000001F69F6CF443274015F001058D403D439D64DF6C9569274015F001058D403D4305
:20DA2000DD64D3F84CE04D0005F1100C032707FA0CFBD2F81CA02EEA0B0B0AF0030A0AFA5E
:20DA40000CFC4CEA0B0CC3F84CC04FEA810C4FF00F0BD3F844E00BFA0CFBD2F804A02EEA0A
:20DA60000B0B0AF00F0A0AFA0CFC4CEA0B0CC3F844C0D3F840A0AF40D2F80CC02AEA070713
:20DA80000CF0030C0CFA05F53D431D645D695E615D699D6912692C4012F0010202FA01F14F
:20DAA00021439961BDE8F04C704740F20100C0F25A007047020018BF002922D010B440F290
:20DAC0000003C4F23103D31ADB0940F20004C4F2300404EB0313CC691C600C6A5C600B680D
:20DAE00013600B6993644B69D364CB6853648B68136440F2FF13536149689161002010BC82
:20DB0000704740F20100C0F25A00704710B4D0F8003313F01F03082B2DD2D40821D0D0F8AD
:20DB2000403301F8083BD0F8403301F8073CD0F8403301F8063CD0F8403301F8053CD0F80C
:20DB4000403301F8043CD0F8403301F8033CD0F8403301F8023CD0F8403301F8013C013C86
:20DB6000DDD112F0070233D0D0F8403301F8013B013AF9D12CE0D40821D0D0F8403321F847
:20DB8000103BD0F8403321F80E3CD0F8403321F80C3CD0F8403321F80A3CD0F8403321F812
:20DBA000083CD0F8403321F8063CD0F8403321F8043CD0F8403321F8023C013CDDD112F078
:20DBC000070205D0D0F8403321F8023B013AF9D110BC704710B5D0F80843C4F308049442DD
:20DBE00028BF14462246FFF791FF204610BDF0B507460C46161E08BFF0BDD7F80853C5F3F5
:20DC00000805B54228BF35462A4621463846FFF77DFFD7F8001311F01F01082903D2641951
:20DC2000761BEAD1F0BD04EB4504761BE5D1F0BD10B4024603684024002013F4404F08BF67
:20DC40008024D2F80832C3F308039C421CBFC2F84012012010BC704710B4D0F8003213F031
:20DC60001F03082B2DD2D40821D011F8083BC0F8403211F8073CC0F8403211F8063CC0F894
:20DC8000403211F8053CC0F8403211F8043CC0F8403211F8033CC0F8403211F8023CC0F8BA
:20DCA000403211F8013CC0F84032013CDDD112F0070233D011F8013BC0F84032013AF9D115
:20DCC0002CE0D40821D031F8103BC0F8403231F80E3CC0F8403231F80C3CC0F8403231F86C
:20DCE0000A3CC0F8403231F8083CC0F8403231F8063CC0F8403231F8043CC0F8403231F8CC
:20DD0000023CC0F84032013CDDD112F0070205D031F8023BC0F84032013AF9D110BC7047B8
:20DD200010B50368402413F4404F08BF8024D0F80832C3F30803E41A944228BF144622460E
:20DD4000FFF78AFF204610BDF0B507460C46161E08BFF0BD3868402110F4404F08BF802129
:20DD6000D7F80802C0F308000D1AB54228BF35462A4621463846FFF76FFFD7F8001211F0F4
:20DD80001F01082903D26419761BE3D1F0BD04EB4504761BDED1F0BD30B4002402684023F4
:20DDA00012F4404F0BD10D7880235DB1D0F80822C2F308029342F9D0C0F8405201340D5D84
:20DDC000002DF3D130BC7047002A08BF7047C0F84012013AFBD1704710B40368402413F4A5
:20DDE000404F08BF8024D0F80832C3F30803E31A934228BF13461C0018BF1C46E20811D034
:20DE0000C0F84012C0F84012C0F84012C0F84012C0F84012C0F84012C0F84012C0F84012B2
:20DE2000013AEDD114F0070203D0C0F84012013AFBD1184610BC70472DE9F0048AB00300D0
:20DE400043F2C860C1F213000068009043F2CC60C1F213000068019043F2D060C1F213005C
:20DE60000068029043F2D460C1F213000068039043F2D860C1F213000068049043F2DC60DE
:20DE8000C1F213000068059043F2E060C1F213000068069043F2E460C1F213000068079048
:20DEA00043F2E860C1F213000068089043F2EC60C1F213000068099046F20100C0F2AA0042
:20DEC00018BF002900F0BA800C68022C07BF91F82650002D4868451E91F82400C60700985F
:20DEE000760F66F3903065F303004FF0020C6CF3196000901860019864F319600190186486
:20DF000091F825C002986CF38610B1F8195091F81BC005F00106C5F3002545EA4C0546EA05
:20DF2000450565F30A208D6B013D65F313400D696E1E0546486966F3020560F3000060F330
:20DF4000051502959D640D7B91F818C005F0010747EA4C0C039F6CF30927D1F808C0ACF141
:20DF6000010A27F01F0C0AF01F074CEA070CCDF80CC0C3F800C3D1F81CC08DF810C0D1F819
:20DF800020C08DF812C0DDF810C0C3F810C391F827A0DDF814C06AF3082C66F3020C60F3D3
:20DFA000051CCDF814C0C3F844C00698012C6FF3082040EA052067F3040020F4803008BF5B
:20DFC00040F480300690C3F80002C86B8DF81C000798C3F80403C86A91F82840012818BFB2
:20DFE000002040EA4404089864F319604C6B012C20F4803008BF40F480300890086B8DF83C
:20E00000200008981865486C8DF824000998C3F80402886CC3F8880F086CC3F8C80F62B1A5
:20E020000020906050601060D0601062D06210634CF6EF50C0F2AB00506300200AB0BDE859
:20E04000F004704740F20F01C0F2003101604FF4401101640021816440F20712C0F800236A
:20E06000C0F80413C0F810134164C0F80022C0F804120165C0F8C81EC0F8881EC0F8C81FA8
:20E08000C0F8881FC0F8081FC0F8481F704702686FF3DF720260002908BF7047002048607E
:20E0A00008600862C8627047002914BF002A704710B481B0D0F800C040241CF4404F08BF89
:20E0C00080249960DA6000211961596161088A4228BF0A46D0F804130091D0F804136FF3F7
:20E0E0000701C0F80413511E8DF800100099C0F804130121C0F8C81F01B010BC7047486937
:20E10000086170470022C0F8C82F486908618A60CA60704708694A69904202D34969401A52
:20E120007047CA684969511A401870472DE9F04C81B017465A68D20700F197801C46064699
:20E140000025C0F8C85F98688A46002867D01A695B699A4203D36369D51A60D006E0E36877
:20E16000D4F814C0A3EB0C03D51858D06269D6F8003313F01F03082B34BF4FF0010C4FF0AB
:20E18000000CBD4228BF3D460023BCF1000F13D0AB4228D2D4F80CB001325A4500D1002214
:20E1A000805CC8540133AB421DD2A068D4F80CB001325A45F4D1F2E7AB4214D2D4F80CB0FC
:20E1C00001325A4506D104E0D4F80CB001325A4500D162464FEA420B3BF800B021F802BBA0
:20E1E0000133AB42F0D3626125627F1B0FD14FF44870C6F8C80F206A002803D9216B09B113
:20E20000042088470120C6F8C80F67B308E0BCF1000F02D0AA4437B302E00AEB450A17B3FD
:20E220003168402011F4404F08BF802001216160E76125624108D6F804030090D6F80403B5
:20E24000B9426FF30700C6F8040388BF3946481E8DF800000098C6F80403C4F818A040F6DD
:20E260002130C6F8C80F002003E046F20200C0F2AA0001B0BDE8F08C8A68002A08BFC0F8B2
:20E28000C82F0020C861086248607047086A70474868704730B481B01D68ED072AD459629E
:20E2A0000446012018609A622068402110F4404F08BF8021D4F804020090D4F804026FF305
:20E2C0000700C4F8040248088DF800000098C4F80402206C00F04070B0F1807F05D140F272
:20E2E0000150C4F8880F002008E00120C4F8880F002003E046F20300C0F2AA0001B030BCC7
:20E3000070470022C0F8882FD0F8043243F48033C0F80432D0F804326FF31043C0F804323E
:20E32000D0F804028A62CA620A607047C86A70470868704770B582B006460D460168402007
:20E3400011F4404F08BF80204408EA69A9693046FFF740FC296A09182962E969091AE9616B
:20E36000E969002943D1AA68B2B3E868A04219D3D6F804030090D6F804036FF30700C6F818
:20E380000403601E8DF800000098C6F804030122C6F8C82F686820F00100296B68600029D8
:20E3A00042D021E0EA68D6F804030090D6F804036FF30700C6F80403501E8DF80000009805
:20E3C000C6F804030122C6F8C82F686820F00100296B686041B307E0C6F8C82F686820F0F3
:20E3E0000100296B6860F9B1042088471CE0D6F80023A96912F01F02082A28BF4000091887
:20E40000E869A961A0420FD2E869411ED6F804030190D6F804036FF30700C6F804038DF840
:20E4200004100198C6F8040302B070BD2DE9F04481B007460D460168402011F4404F08BF4C
:20E440008020D7F808634FEA500AF6054FEAD6562C6938D0E8680134844208BF002468694B
:20E4600084421FD1296B09B1082088476869844218D10020C7F8C80F64B1601E28612869BE
:20E480006969884224D36969401AE9680E1A564538D225E0E868013828612869696988425B
:20E4A00016D3F0E7D7F84013D7F80003AA6810F01F00082803D21155013ECBD103E06000EE
:20E4C0008152013EC6D12C61286969698842DAD2E9686A69891A4018E9680E1A564511D217
:20E4E0000021002E18BF711ED7F804030090D7F804036FF30700C7F804038DF800100098CF
:20E50000C7F8040301B0BDE8F0842DE9F04405460C460068402710F4404F08BF8027D5F8E7
:20E52000000210F01F000828886A34BF4FF0010A4FF0000A012811D9886AC862886A4E6A39
:20E540003146421E2846FFF7EBFBA16A091AA162BAF1000F08BF400030186062D5F80802C7
:20E56000C0F30800874208BFBDE8F084A06A012818BFBDE8F0840020A062606ABAF1000F6E
:20E5800003D0067838F0C2F902E0068838F0BEF9C5F840624FF40070C5F8800FD5F8800F3E
:20E5A00038F0B6F9D5F8880F20F0010040F40070C5F8880F206840F00200216B2060002928
:20E5C00008BFBDE8F0840120BDE8F044084730B504460D46D0F8000E00073ED5D4F8CC0FF9
:20E5E00010F448700AD0496801436960C4F8C00F296BD4F8C00F09B110208847D4F8CC0FAD
:20E60000000509D5686840F4006068604FF40060C4F8C00FD4F8C00FD4F8CC0FC0071CD5C3
:20E62000E86900280ED929462046FFF783FE0120C4F8C00FD4F8C00FD4F8000E400758BFAF
:20E6400030BD0FE0A86818B129462046FFF7EEFE0120C4F8C00FD4F8C00FD4F8000E4007E6
:20E6600058BF30BDD4F88C0F10F4A0600AD0296801432960C4F8800F296BD4F8800F09B1FF
:20E6800020208847D4F88C0FC00708D529462046FFF73BFF0120C4F8800FD4F8800FD4F8C8
:20E6A0008C0F800558BF30BD0021C4F8881F286820F001002860E962296B002908BF30BDCD
:20E6C0000220BDE830400847014603284FF0020098BF08467047014602284FF0000098BF9E
:20E6E0000846704745F6AC31C0F604010020087070472DE9F044074645F68834C0F60404A7
:20E7000045F63450C0F6040090F86951002D1CBF94F82400012800F0CB8146F2941AC0F685
:20E72000040A9AF87A01002840F01E8101208AF87A013A7B501E032804D943F23471C1F2F1
:20E74000130105E043F2EC61C1F2130151F8221045F67C46C0F604063046B62265F03BFD64
:20E7600030682081000C60817068A081000CE081B0682082000C6082F068A082000CE0827D
:20E7800030692083000C60837069A083000CE083B0692084000C6084F069E084000C2085C8
:20E7A000306A6085000CA085706AE085000C2086B06A6086000CA086F06AE086000C208713
:20E7C000306B6087000CA087706BE087000CA4F84000B06BA4F84200000CA4F84400F06B1A
:20E7E000A4F84600000CA4F84800306CA4F84A00000CA4F84C00706CA4F84E00000CA4F863
:20E800005000B06CA4F85200000CA4F85400F06CA4F85600000CA4F85800306DA4F85A00C1
:20E82000000CA4F85C00706DA4F85E00000CA4F86000B06DA4F86200000CA4F86400F06D71
:20E84000A4F86600000CA4F86800306EA4F86A00000CA4F86C00706EA4F86E00000CA4F85E
:20E860007000B06EA4F87200000CA4F87400F06EA4F87600000CA4F87800306FA4F87A009B
:20E88000000CA4F87C00706FA4F87E00000CA4F88000B06FA4F88200000CA4F88400F06F6B
:20E8A000A4F88600000CA4F88800D6F88000A4F88A00000CA4F88C00D6F88400A4F88E00E2
:20E8C000000CA4F89000D6F88800A4F89200000CA4F89400D6F88C00A4F89600000CA4F80C
:20E8E0009800D6F89000A4F89A00000CA4F89C00D6F89400A4F89E00000CA4F8A000D6F8F6
:20E900009800A4F8A200000CA4F8A400D6F89C00A4F8A600000CA4F8A800D6F8A000A4F8CF
:20E92000AA00000CA4F8AC00D6F8A400A4F8AE00000CA4F8B000D6F8A800A4F8B200000CF5
:20E94000A4F8B400D6F8AC00A4F8B600000CA4F8B800D6F8B000A4F8BA00000CA4F8BC0003
:20E96000B6F8B400A4F8BE0039780220032998BF0846607079780220032998BF0846E07033
:20E98000B9780220032998BF0846607179790220032998BF08462070B9790220032998BF36
:20E9A0000846A070F9790220032998BF084620710020A071A4F8EC009AF87901002877D1CE
:20E9C00001208AF8790143F20872C1F2130246F66416C0F604063146022352F8160B21F80D
:20E9E000160B000C21F8140C52F8120C21F8120C000C21F8100C52F80E0C21F80E0C000C2E
:20EA000021F80C0C52F80A0C21F80A0C000C21F8080C52F8060C21F8060C000C32F802CC72
:20EA200021F8040C21F802CC013BD6D13068A4F8C000000CA4F8C2007068A4F8C400000C41
:20EA4000A4F8C600B068A4F8C800000CA4F8CA00F068A4F8CC00000CA4F8CE003069A4F8FB
:20EA6000D000000CA4F8D2007069A4F8D400000CA4F8D600B069A4F8D800000CA4F8DA0076
:20EA8000F069A4F8DC00000CA4F8DE00306AA4F8E000000CA4F8E200706AA4F8E400000C19
:20EAA000A4F8E600B06AA4F8E800000CA4F8EA0084F82450BDE8F084002101707047002230
:20EAC0000A800270704710B4147801231CB9137053700C700EE05478012C06D100230B701C
:20EAE00040B9022050700C7004E00B7010B153700020087010BC7047002101707047002256
:20EB00000A8002707047F0B4049D059C012627781FB9267066702F7016E094F801C011431C
:20EB20001943BCF1010F08D100222A7061B901280AD0022060702E7006E02E7009B901280B
:20EB400002D1667000202870F0BC704700210170704700220A800270704710B4147801235F
:20EB60001CB9137053700C7014E05478012C0AD100230B7004281CBF032805280AD002203D
:20EB800050700C7006E00B700338022802D853700020087010BC7047002101707047002250
:20EBA0000A800270704770B4039C012526781EB9257065701E7016E06678012E0AD14FF02F
:20EBC000000C83F800C0084310430CD1022060701E7008E01D70012802D052EA010002D074
:20EBE00065700020187070BC704700210170704700220A800270704730B41D7801241DB923
:20EC00001C705C70157013E05D78012D09D14FF0000C82F800C008430AD10220587015702D
:20EC200006E01470012800D011B15C700020107030BC704700210170704700220A80027039
:20EC4000704710B4147801231CB9137053700C700FE05478012C06D100230B7048B9022072
:20EC600050700C7005E00B70012802D150700020087010BC704700210170704700220A802C
:20EC80000270704730B41D7801241DB91C705C70157013E05D78012D09D14FF0000C82F865
:20ECA00000C008430AD102205870157006E01470012800D011B15C700020107030BC7047CB
:20ECC00000210170704700220A800270704710B4147801231CB9137053700C7010E054784F
:20ECE000012C07D100230B70012809D0022050700C7005E00B70012802D15070002008705D
:20ED000010BC704746F29411C0F6040191F8D90001380ED0012818BF7047486801280FD3ED
:20ED200014D04A6A501C904238BF4FF0FF30486270474868012804BF022081F8D900704770
:20ED4000012081F8D90000204862704700204862022081F8D900704730B546F29415C0F64E
:20ED6000040595F8850195F8861188420BD195F8870195F88811884205D195F8890195F82E
:20ED80008A1188420ED0002095F8DA1085F8DB00002908BF30BD6C6801206860FFF7B2FF00
:20EDA0006C6030BD686A642838BF30BD012095F8DA1085F8DB00002908BF30BD6C68002097
:20EDC0006860FFF79FFF6C6030BD46F29411C0F6040191F8D30001380ED0012818BF70475C
:20EDE000086801280FD314D00A6A501C904238BF4FF0FF30086270470868012804BF0220FE
:20EE000081F8D3007047012081F8D30000200862704700200862022081F8D300704730B5AD
:20EE200046F29415C0F6040595F87F0195F8801188420BD195F8810195F88211884205D192
:20EE400095F8830195F8841188420ED0002095F8D41085F8D500002908BF30BD2C68012062
:20EE60002860FFF7B2FF2C6030BD286A642838BF30BD012095F8D41085F8D500002908BF14
:20EE800030BD2C6800202860FFF79FFF2C6030BD2DE9F04FADF5137D45F68837C0F60407FA
:20EEA00070A8E6F0E7FB72A8E6F038FC35A8E6F05FFC61A8E6F0F3FB48A8E6F01AFC45F66C
:20EEC0003454C0F604042046E6F03DFC29A8E6F064FC40F269102018E8F08CFE72A8FFF71B
:20EEE00008FC46F2941694F86901C0F60406002801F00F80012086F813029DF8D60184F832
:20EF000098019DF8C00184F899019DF884019DF8881184F89A019DF886019DF88C2184F8B3
:20EF200093019DF88A0184F88B1184F871019DF88F0184F892219DF8903184F8940184F8E0
:20EF400095319DF899C19DF89EB184F897C19DF89DC19DF885A184F89BC19DF89FC196F83B
:20EF6000DCE09DF8A051BEF1000F03D14FF0010E86F8DCE09DF8AAE1BEF1010F06D084F804
:20EF8000A0B184F8A2C184F8A1A10DE09DF8A5C184F8A1C19DF8A4C184F8A0C19DF8A3C1ED
:20EFA00084F8A2C19DF8A6519DF8A7C184F876C19DF8B4C184F882C19DF8B5C184F883C1A2
:20EFC0009DF8B8C184F884C19DF8B9C184F87BC19DF822C184F880C19DF824C184F8A3517C
:20EFE00084F87CC19DF826C1B4F8075084F887C14FEA152C84F88551257B84F89CC184F854
:20F000009D5104F5C87C40F28F1565198DE821109DF8D5000BF0A2FC04F5B6700F909DF875
:20F02000C2010E9096F8C0000D9096F8BD000C9096F8C5000B9094F8A1010A9096F8B800A1
:20F04000099096F8B900089096F8CC00079096F8BF00069096F8BE00059094F880010490E2
:20F0600094F87C01039094F89001029094F87B01019094F88401009094F8993194F8832185
:20F0800094F882119DF8D50009F0EDFC04F5B37104F5DD708DE8030094F89D1194F86C01F7
:20F0A00000231A460BF0D0FA40F2BB10201804900025039594F8A301029094F8A201019000
:20F0C00094F8A101009094F8A03194F89A2194F89B1194F86C010BF05CF904F58E700090C6
:20F0E00040F2BD10221894F86C01618804F5B4730AF0D4FE40F267102018029004F5DE704F
:20F10000019094F885010090B4F90A1094F86C012B462A460BF01CF840F2B910211894F84C
:20F1200087010EF069FD04F5DC7C04F58D7904F58C7804F58B7504F5DB7304F5DA7140F2E0
:20F14000BF1004EB000B40F2B71004EB000A40F2B510221840F2B3100DF1300E20188EE8E4
:20F160002F1F04F5C5700B9094F8B9010A9096F8CB00099096F8BB00089096F8BA000790E6
:20F1800094F89901069094F86C01059094F88501049094F89C01039094F8A101029094F877
:20F1A000A001019094F8BC01009094F8903194F8BA2194F8BD1194F8BB010DF0B7F894F8B6
:20F1C000B30101F0ECF9ADF8A20004F5B87240F29110211840F26F1008AB201883E8070021
:20F1E00094F89201079094F87101069094F89801059094F89501049094F89401039096F813
:20F20000BC00029096F8BA00019096F8C900009096F8C73094F88A2194F8761196F8C400BF
:20F2200002F078FD04F5927304F5917204F5907107AD04F58F7085E80F0094F89701069091
:20F2400094F89301059096F8BA00049094F8B4319DF895219DF8D5119DF887018DE80F0045
:20F2600096F8CB3096F8BC2094F8B5119DF8D30106F095FB9DF8AD1184F88C119DF82A51DE
:20F280009DF8D83184F88151052B16BF062B9DF82C0101209DF82E2184F88821B4F81F2075
:20F2A00084F87D014FEA122C84F8862194F8242084F89EC184F89F214FF0010A052B1CBF7E
:20F2C000062B4FF0000A96F81522BAF1000F00F08881002A4ED140F26310211840F2AF1024
:20F2E00020180BF0D0F904F5D8700BF07AF804F1E60240F26510211804F5D9700AF0EBFD83
