:020000041002E8
:2080000000B40008018C0210CDA3021095A2021095A2021095A2021095A2021039A3021071
:2080200039A3021039A3021039A30210CDA0021039A3021039A3021039A30210819D0210FD
:20804000819D0210819D0210819D0210819D0210819D0210819D0210819D0210819D0210A0
:20806000819D0210819D0210819D0210819D0210819D0210819D0210819D0210819D021080
:2080800039A3021039A3021039A3021039A3021039A3021039A3021039A3021039A3021070
:2080A00039A3021039A3021039A3021039A3021039A3021039A3021039A3021039A3021050
:2080C00039A3021039A3021039A3021039A3021039A3021039A3021039A3021039A3021030
:2080E00039A3021039A3021039A3021039A3021039A3021039A3021039A3021039A3021010
:2081000039A3021039A3021039A3021039A3021039A3021039A3021039A3021039A30210EF
:2081200039A3021039A3021039A3021039A3021039A3021039A3021039A3021039A30210CF
:2081400039A3021039A3021039A3021039A3021039A3021039A3021039A3021039A30210AF
:2081600039A3021039A3021039A3021039A3021039A3021039A3021039A3021039A302108F
:2081800039A3021039A3021039A3021039A3021039A3021039A3021039A3021039A302106F
:2081A00039A3021039A3021039A3021039A3021039A3021039A3021039A3021039A302104F
:2081C00039A3021039A3021039A3021039A3021039A3021039A3021039A3021039A302102F
:2081E00039A3021039A3021039A3021039A3021039A3021039A3021039A3021039A302100F
:2082000039A3021039A3021039A3021039A3021039A3021039A3021039A3021039A30210EE
:2082200039A3021039A3021039A3021039A3021039A3021039A3021039A3021039A30210CE
:2082400039A3021039A3021039A3021039A3021039A3021039A3021039A3021039A30210AE
:2082600039A3021039A3021039A3021039A3021039A3021039A3021039A3021039A302108E
:2082800039A3021039A3021039A3021039A3021039A3021039A3021039A3021039A302106E
:2082A00039A3021039A3021039A3021039A3021039A3021039A3021039A3021039A302104E
:2082C00039A3021039A3021039A3021039A3021039A3021039A3021039A3021039A302102E
:2082E00039A3021039A3021039A3021039A3021039A3021039A3021039A3021039A302100E
:2083000039A3021039A3021039A3021039A3021039A3021039A3021039A3021039A30210ED
:2083200039A3021039A3021039A3021039A3021039A3021039A3021039A3021039A30210CD
:2083400039A3021039A3021039A3021039A3021039A3021039A3021039A3021039A30210AD
:2083600039A3021039A3021039A3021039A3021039A3021039A3021039A3021039A302108D
:2083800039A3021039A3021039A3021039A3021039A3021039A3021039A3021039A302106D
:2083A00039A3021039A3021039A3021039A3021039A3021039A3021039A3021039A302104D
:2083C00039A3021039A3021039A3021039A3021039A3021039A3021039A3021039A302102D
:2083E00039A3021039A3021039A3021039A3021039A3021039A3021039A30210FFFFFFFFFF
:208B000017128019FFFFFFFF17128019FFFFFFFF422448900000000042244890000000005D
:208BF000323534313030313034323130000000001A4908684FEA102000F00F0090F00E0F39
:208C100008BF1749086820F00B000860BFF34F8F1449012008600220086013490020086046
:208C300012490020086012490120000708601149002008601049102008600B490F48086070
:208C50000F494FF0010008600649032008600D480D490160BFF34F8F00F01CB8000020406A
:208C70000C00204040C0264000C0264004C0264008C026400CC0264010C0264001000080AB
:208C900044C0264008ED00E00080021001808FE218FF2FE106460F46904600F0D9FF4FF05C
:208CB00014004FF0010110F0ABF948F6CB45C1F20205A5F101057A46A2EB050591460028B1
:208CD00003D131463A4643460AE04BF20040C0F6000085464FF000014FF000024FF0000385
:208CF00040F20200012817D308D04EF68850CEF20000046844F4700404600DE011EE500FA2
:208D100040F4A00001EE500FBFF36F8FF8EE100A40F08040E8EE100A4FF0000448F2000014
:208D3000C1F20200814506DB47F60060C1F20500814500DC2C4645F27040C1F20300A0EB36
:208D5000040000EB05004FF000044FF000054FF000060BF00BFE00BFFDE70000000000BFDD
:208D7000000000B5002002F03CFC0149086800BD500452400146002019B1024A914200D166
:208D900001207047CC5603100349022003F078BD0249002003F074BD80013840800338409D
:208DB000024A90420CBF01200020704784570310024A90420CBF0120002070471C5803106C
:208DD00005487047054908607047034A90420CBF01200020704700BFE06A03105C4001086F
:208DF0000146002019B1024A914200D101207047A06B031004280FDB104A40201218012031
:208E1000106000BF0220106000BF0120506000BF0320106000BF10E0094A90215218000280
:208E300080180122026000BF0222026000BF0122426000BF0322026000BF704700C026405A
:208E5000008026400249086070470248704700BF00A0000810A0000800000C4A01201060AB
:208E70000B4A106830F0004010600A4A106850F000401060084A106830F480201060074A3A
:208E90000020106062B6BFF36F8F704700F424400004244008042440000024405403214067
:208EB00010B5044600F0D6F9002114EB01102F4A0069904202D101310F29F6D3CCB200F07B
:208ED000CAF9204610BD10B500240146204600F053F900B10124204610BDD0B50346244976
:208EF00091F82C000969234A49681031002423B9D4540133102BFBD304E02346D4540133CE
:208F1000102BFBD3194B27461E46D8C2103A102315F017FAD0BD10B500240146204600F0C3
:208F300045F900B10124204610BDE0B5104991F82C000969002349680E4A0025D554013317
:208F5000102BF9D30C4E2F463346E8C2103A102315F0F7F9E0BD00B50849087815F02DFA47
:208F700010B1012800D0022000BD00BF422448907CEA041090400108171280194C130108CE
:208F9000F0B582B008AC24780194079C00940BF0CAFA003818BF012002B0F0BD00B50BF0D0
:208FB0004BFB003818BF012000BD00B50BF058FB8C4A003818BF01200021117000BD000006
:208FD000F0B58BB0074615461E464FF4806000902020019081200290082103A80BF0C7FE4A
:208FF000814A40F2E9312846012314F037FA04461098119BC2190D21284614F02FFA6A4691
:20901000044328460E21042314F028FA02AA044328460F21042314F021FA0443284614F07F
:209030004DFA03AA044330462023012114F016FA0443304614F042FA0443E4B2F4B93146F8
:20905000284614F0A1F901AB03AA04463046012114F0D0F9044311D12146644803AB026898
:209070005B5C535401311029F7D32146826803ABCB181B7C535401311029F7D320460BB0D7
:20909000F0BD00005A4A1068C0F3001090F0010070470020704700B584B0BFF34F8F554A0D
:2090B0005549106800F4E060084350F004001060BFF34F8FFEE770B581B002246846033085
:2090D0001CF056FDA8BB6846C0780A282FD04B48C3684B491A688A4223D105692E688E423F
:2090F0001FD10021CA1812794254421D4C192479545401310529F5D30178412901D3E03153
:2091100001701178412901D3E03111700021445C535CA3420BD80CD3002401310529F6D311
:2091300008E0013206D100690068884202D1002400E00224204601B070BD002070477047C3
:2091500070477047002070470099312008700120704701993120087001207047012070476D
:2091700031201870012070470099312008700120704700207047704710B582B025480124DD
:2091900002692C305268019200782202009229B96B4601AA214615F022F920B90198FFF750
:2091B0007FFE00B10024204602B010BD10B582B01848012402692C3052680192007822023C
:2091D000009229B96B4601AA214615F008F930BB0198114A0168914221D1806890421ED18C
:2091F0001CE000BF4B13010851130108044A0108001826400CED00E00000FA0500540108C6
:2092100069626F6D0000000000800212008C0212088902127CEA04101712801900242046F8
:2092300002B010BD01207047704700000020704700207047002070470020704700207047DD
:2092500000207047002070470020704700207047002070477047704701460E4823F06CB889
:2092700001460C4823F03AB80A4822F077BE4FF4967102201AF00ABB4FF4967101201AF0F5
:2092900005BB0549012008607047034900200860704700BFBC40010800F4244000B515F00F
:2092B00005F813F039FAA54901200870A449087000BD0000000070B581B01D46002119705F
:2092D000A14CA24E10000ED1A149327014F055FF9F4A0121107815F0B7F8032020700C20A8
:2092F0000021297003E10120012A02D0032A40F0FE80207803380D2800F2F68001A1D1E8FC
:2093100000F000BF0817263556F3F3848F99C0ECF1EFFFF7D0FE10B904202070DBE002287A
:2093300040F0D9800C2020700020009040230CE0FFF703FF08B90520EFE7022840F0CB8080
:2093500011202070002000904123FF205BE00020FFF7E1FD10B90620207098E01120207022
:209370000020009031231022FF20B1E030780021FFF702FF317860B9481C3070307868BBA6
:20939000734914F0FAFE724A0121107815F05CF87DE00120FFF7A1FD08B90720DCE7112058
:2093B0002070002000901022FF20052390E0FFF7D2FD00BB30780021FFF7DEFE80B9307878
:2093D00001303070307848B9614914F0D6FE604A0121107815F038F80620BDE70A20BBE762
:2093F0001120207000200090FF2006230522002114F0F4FD4BE0022849D111202070002017
:209410000090FF200623052262E014F0BCFF08B90B20A1E711202070012000902423A2E786
:20943000002014F0CAFF08B90E2095E702282ED1112047E03078FFF72CFEC0B9444B012151
:20945000187815F001F84348414B41698069401A421C187814F059FF08B90D205DE71020BE
:209470002070012000901022FF20032330E03A4A30781178013988421BDB00203070102075
:209490004BE73349087814F098FF012802D10020287020E0A8B9304A30781178013988422F
:2094B00007DB0020307010202070012000902D2359E7013030702649307814F05EFE0C2085
:2094D0002BE710202070012000901022FF200723002114F083FD0A2009E00020187006E038
:2094F000F42002E0722000E010201870012001B070BDF0B584B00391099C184D1020207006
:20951000174E134FA2BB084610492A7214F044FE0E4A05463946107814F02FFE11493878A9
:2095300014F0B1FF05B30095312020700E22FF200123002114F052FDB3E000BF5213010892
:2095500053130108000000001C5401084E1301084C1301087CEA041038540108D440010815
:209570001E54010844540108042030700C2598E0032A02D0012A40F08E80307802380428DC
:2095900000F2858001A1D1E800F000BF041627627100012014F067F8002804D10320307062
:2095B0000020207051E007203070002000900E22FF20032346E014F068F830B9C44A3946CE
:2095D000107814F0DAFD0420E9E7012807BF002020700720307038E0BD4B18783022504329
:2095F000BC4A831801933878012114F02DFF019988694B690293C01A431C4868039318B108
:20961000002240682A71286003990298002214F0E9FD050010D1039A0299387814F075FEC6
:20963000002801D10520BAE7072030700020009025230E22FF2005E00095072030700E22DB
:20965000FF200223002114F0C9FC0A2529E0387814F0B3FE0A25012802D020B90620307066
:20967000002020701DE0072030701AE02A7A012A01D10A2003E00020022A00D10B201870EE
:2096900000202070944901200025087009E010202070012505E00225022A02D1387814F0E1
:2096B0001BFE284604B0F0BDF0B584B00A9C40F6020101AD0EC5099A884E116005213176C2
:2096D000012800F29680844908780138012800F2908083490120834F0870029814F0C1FC06
:2096F00001284ED1039814F0EEFC01282CD17E490878012810D17D497D4A01AB0878242114
:2097100048433968401841680C2014F09EFA18B122202070012500E00025002030767349FC
:20973000FF20087073490020087001203871002D60D1029A1046039900252B462FC666493E
:2097500005200870257055E0312051E0029814F0F5FC01280AD10399B1F5847F02D1022043
:209770003076E6E731202070012502E001253120207000950C22FF200223002114F02EFC20
:2097900038E0029814F0B4FC0128DFD1574A30762420137839685843425C4018012AC8D16E
:2097B0003A79012A23D1534A15789D42C1D04E4A40681378012B12D1242303FB0511496847
:2097D0008142B6D04A4A01AB0C2014F03EFA50B9464A10782421484339684018406814F0F2
:2097F00007FA0028A5D04349087840490870222020700125284604B0F0BDF0B583B002927B
:209810001E46374DB8BB3449087805287AD12878012803D068680299884228D02F4C277E7F
:20983000022F00D077B9344A1946106801900BF052FD38B1019A101A8119E1606168091844
:20985000616000E0E660022F0AD12C4F2C4AFF2138460BF032F83246089938460BF071F856
:20987000089961610299696001242C7256E0022400943C234DE0032801D0012846D1164937
:209890000878042822D005283CD1287AF0B9134C60682169884206D9E368A068C018A06010
:2098B0005818206110E0E3600899207E616102280AD1124F124AFF2138460AF0FEFF3246A4
:2098D000089938460BF03DF8002427E0012425E04E1301087CEA041052130108E849010848
:2098F00020540108D44001084B13010834540108DD4001083554010844540108DD4801083F
:2099100008010000022400943D2302E0022400943F230D22FF20002114F060FB204603B02F
:20993000F0BD10B581B0AD4900241C704A680969AB488A4204D1AB4A0221147001700AE01F
:20995000242108220124197002700094FF200223002114F043FB204601B010BDF0B583B071
:20997000089DA14C40F60200A04E01901020287001230293002752B99D4A9E49107814F081
:20999000FCFB0120A07137700C202F709AE0012A02D0032A40F095803078012815D341D069
:2099B000062850D0072863D00B2874D00C287ED0904AE3711946107814F046FD7220287068
:2099D000874A0120082111707CE08B49087801280DD18A4824218A4A007801AB4843216801
:2099F00040184168052014F030F950B902908549087814F09FFD50B97949062008700120F1
:209A100046E0722028700D2030700A205AE00D20307002980090FF2007230522394614F0CB
:209A3000DDFA36E0784908780128EED014F087FD01282ED0002801D1062029E00120009078
:209A5000FF2007231FE06A4A39461078FFF7AEFB002810D066490878FFF767FA002801D1CC
:209A7000072015E001200090FF2005231A460BE0FFF771FA08B90B200AE0022809D101201B
:209A90000090FF2006230522394614F0A7FA0D2030700A2079E7574AE7713946107814F038
:209AB000D3FC4F4A2F700220107038460AE0514AE7713946107814F0C7FC494A072010708A
:209AD000E7E7022003B0F0BD10B50C4608B913F0CAFD0020207010BDF0B581B04148404D1B
:209AF0002978042975D344D0062905D36FD007296FD1FFF7D0FA6CE0007A012869D1374C0A
:209B100004202870207E28B92046052114F071FA07462CE0012815D137490878012815D188
:209B3000364814F10C0324270078354E78432E4F616932463F68C019406814F074F8666164
:209B5000F0BB03E0022801D130486061294EE3686269A168307814F0F4FB0746012806D1B4
:209B70000090FF2005230322002114F037FA87B326E00646007A083601282AD1174C207E1A
:209B900018B914F022FA012811D11A49087814F014FC02280AD101200090FF20062303229F
:209BB000002114F01BFA0020307009E088B9207E40B92046042114F01CFA022809D008B179
:209BD000082002E0002030700520287001E014F0A7FE13F0B0FD01B0F0BD00BFE84901085D
:209BF0005213010820540108D44001081D5401084E1301084C1301084B1301083454010809
:209C1000DD4001084D130108884A0108DD480108B8EF0410BCEF0410B8EF0410BCEF0410A8
:209C3000002814D00C68254626462746A046A146A246A3464A688B6802EB030323E9F00F0F
:209C50009A42FBD1A0F1010001F10C01E8E77047F4461AF03EFB32480068324910EA01025E
:209C70001BD1314800680121090410EA010214D12B4800682D4910EA01022B4800682C4958
:209C900010EA010342EA0302002A0DD129480068FF2110EA010200D106E05FF8840000688D
:209CB0005FF88810FFF7BCFF1AF014FB16F08DFF21480921016021480168214A41EA0201EA
:209CD000016020484FF0000101601F484FF0010101601E480160E64670471D481D4910225A
:209CF000016000F10400A2F10102002AF8D11A4801601A48012101600221016018480021C8
:209D10000160184800210160174810210160144816490160114803210160FEE7704700BFAA
:209D3000001826400100FF7104182640FF01FF77FFFF010008102640400220405401214057
:209D5000000004280C012140C0012140C8012140401320400200FA058813204040C02640F8
:209D700000C0264008C0264010C026400100008071B61EF0040F33D0EFF3098084460CF14B
:209D9000200C20E9F05FA0F10400A0F10400F1EE101A016020ED200B80F30988C14A4DF80F
:209DB00004AD5DF804AB1278002A78D1DFF868242DE90804BDE8080412681268A2EC200BFE
:209DD000116002F1040202F10402A2E8F05F00F1B00090E8F00F82E8F00F4FF000044BE048
:209DF00006A8EC460CF1200C2DE9F05F81B081B0F1EE101A00912DED200BAA4A4DF804ADBA
:209E10005DF804AB1278002A49D14FF000040068AFF2A40181421DD021466846FE4A2DE94C
:209E30000804BDE808041268126808B4A2EC200BF1EE103A136002F1040202F1040208BC9A
:209E5000A2E8F05F00F1B00090E8F00F82E8F00F0C4611E04FF0010496482DE90804BDE86C
:209E70000804EFF30981016093482DE90804BDE80804EFF3088101608C484DF804AD5DF860
:209E900004AB007800280AD082482DE90804BDE80804006840F804DCA0F104008546EFF32A
:209EB00005800F2858D0794901EB000109784FEA51114FEA8103014A02E000BF00012040D9
:209ED0002DE90006BDE80006D05810F0004F00F0838040F2FF3210EA0203694A4FEA4303AD
:209EF000D05A6E4A1288914238DC6D494FEA80000A5864494DF804AD5DF804AB087800F106
:209F10000100087067494DF804AD5DF804AB087800F1010008702DE90044964661B6F047A0
:209F300071B6BDE800445F494DF804AD5DF804AB087800F1FF30087052494DF804AD5DF861
:209F500004AB087800F1FF3008702DE9004418F062F9BDE800445BE055490868002C24D01B
:209F7000AD4A2DE90804BDE8080412681268DFF83CB14DF804AD5DF804AB9BF800B0BBF166
:209F9000000F02D1EFF3098C09E0DFF82CB12DE90804BDE80804DBF800B0DC46FFE70CF160
:209FB000D00C02F1A802C2F800C021462DE9004417F03CFEBDE8004499494DF804AD5DF886
:209FD00004AB4FF000020A70FF25314E356000281ED0DFF8B4E07047002C19D13149334A8A
:209FF0004DF804AD5DF804AB0978002910D11278002A0DD18949884A2DE90804BDE80804C3
:20A01000096812689268914202D0DFF87CE070471EF0040F13D0EFF30980B0EC200B01681D
:20A03000E1EE101A00F1040000F10400B0E8F05F80F30988BFF34F8FBFF36F8F70471948EA
:20A050004DF804AD5DF804AB0078002809D117484DF804AD5DF804AB0078002801D000981A
:20A070008546BDEC200B0099E1EE101A01B001B0BDE8F05FBFF34F8FBFF36F8F704700BF93
:20A0900000F004106E1D0108651A0410F0E300E080E200E0541D0108581D010802FC041086
:20A0B000F8EF0410701D01083D1C0410711D0108FCEF04105C1D0108601D010871B61EF0BF
:20A0D000040F12D0EFF309830CB49C4623E9F05FA3F10403A3F10403F1EE102A1A6023ED37
:20A0F000200B83F309880CBC0DE0EFF30883EC462DE9F05F02B481B081B0F1EE101A0091B3
:20A110002DED200B02BC03F118031B686FF0010C63441B78442B54DA2DE908045FF89C3012
:20A1300093F800C00CF1010C83F800C0BDE80804DFF8F0C04FEA83039C442DE90044DCF87A
:20A1500000E0F047BDE800445FF8C8104DF804AD5DF804AB0A7802F1FF320A7030494DF8E8
:20A1700004AD5DF804AB0A78002A2AD0042A22D101B4294A12681268EFF3098002B4B0EC7A
:20A19000200B0168E1EE101A00F1040000F10400A2EC200B116002F1040202F1040202BC5E
:20A1B000B0E8F05F0CF1200CA2E8F05F90E8F00F10BC82E8F00F4FF000020A705FF838E1CF
:20A1D00070471EF0040F16D0EFF3098104B4B1EC200B0A68E1EE102A01F1040101F104015C
:20A1F00004BCB1E8F05F81F309880860BFF34F8FBFF36F8F704702B4BDEC200B0099E1EE51
:20A21000101A01B001B002BCBDE8F05F0090BFF34F8FBFF36F8F7047641E0108681E01084F
:20A230006F1D010810FC0410000020405FF898112DE90006BDE80006096881F3088800F1CC
:20A25000B00999E8FE01D0F8A890D0F8ACE029E9FE01494600F1880292E8F00F00F180025A
:20A270001368E1EE103A90EC200B1EF0040F02D081F3098801E081F30888BFF34F8FBFF374
:20A290006F8F70471EF0040F12D0EFF3098084460CF1200C20E9F05FA0F10400A0F1040016
:20A2B000F1EE101A016020ED200B80F309880AE0EC462DE9F05F81B081B0F1EE101A00916B
:20A2D0002DED200B68462DE90044EFF30581DFF854E0F047BDE800441EF0040F13D0EFF3A8
:20A2F0000980B0EC200B0168E1EE101A00F1040000F10400B0E8F05F80F30988BFF34F8F37
:20A31000BFF36F8F7047BDEC200B0099E1EE101A01B001B0BDE8F05FBFF34F8FBFF36F8FCA
:20A33000704700BF352204101EF0040F12D0EFF3098084460CF1200C20E9F05FA0F10400DE
:20A35000A0F10400F1EE101A016020ED200B80F3098809E0EC462DE9F05F81B081B0F1EEF1
:20A37000101A00912DED200B2DE90044DFF848E0F047BDE800441EF0040F0FD0EFF30980E9
:20A39000B0EC200B0168E1EE101A00F1040000F10400B0E8F05F80F309887047BDEC200B24
:20A3B0000099E1EE101A01B001B0BDE8F05FBFF34F8FBFF36F8F7047932204101EF0040FC4
:20A3D00012D0EFF3098084460CF1200C20E9F05FA0F10400A0F10400F1EE101A016020ED34
:20A3F000200B80F3098809E0EC462DE9F05F81B081B0F1EE101A00912DED200B2DE9004403
:20A41000DFF848E0F047BDE800441EF0040F0FD0EFF30980B0EC200B0168E1EE101A00F188
:20A43000040000F10400B0E8F05F80F309887047BDEC200B0099E1EE101A01B001B0BDE804
:20A45000F05FBFF34F8FBFF36F8F704745420410EFF30880704700BF80F30888BFF36F8F78
:20A47000704700BF70B55FF8D4432DE90006BDE8000624689E466D46A546F047AD46BDE81F
:20A4900070407047F1EE100A704700BF0000000000000000000000000000000000000000D6
:20A4B00000000000000000000000000000000000000000000000000000000000B0FA80F072
:20A4D0007047000070B506460D4601F097FC287AFF280FBF0124002401302872304600212B
:20A4F00000F039F901F08CFC204670BD70B505460E4601F083FC307A08B9012402E0002454
:20A510000138C0B23072002100B90121284600F022F901F075FC204670BD00F0E1B910B525
:20A53000497A012401290ED30ED0032905D00AD200F0DEF8022807D103E000F0D9F80328C6
:20A5500002D1044600E00024204610BD70B505460E46002401F052FC284600F0C9F8012828
:20A570000BD1284600F0A3F90446707A022804D101207072284600F08CF901F041FC204648
:20A5900070BD70B505460E46002401F037FC284600F0AEF801280CD1284600F08DF904463A
:20A5B000707A0238012804D801207072284600F070F901F025FC204670BDF0B517460024CD
:20A5D0000E46054600F0ECFB28B13A463146284600F004FD04462046F0BD00F0FABE30B5DC
:20A5F00004460D4601F00AFC2946204600F0D8FB60B101206872204600F04BF90120A8723E
:20A6100001F0FEFB204601F0F6FB01E001F0F8FB30BD30B505460C46002088720146207AC9
:20A6300000B90121284600F096F8224621682846012300F096F830BD30B50C46054600F0E3
:20A650000DFF284600F025FE00212176207AE17200B90121284600F07EF8224621682846AA
:20A67000002300F07EF830BD000010B50C460021217600F00EF90120607210BD1949085C08
:20A6900070471949085C70471849085C704710B582B005AC2478019404AC2478009400F051
:20A6B000E9FE02B010BD00F04FBF10B5044600F0A3FE204600F0B5FD10BD00F069BF90F811
:20A6D0005110012900F01381704710B504460122002100F017F920460122114600F012F976
:20A6F00010BD0000A47003109C700310B470031000B590F85010406A00F07FF90146C00743
:20A7100003D4890603D4022002E0012000E0032000BDF0B506460C46002701F06FFB96F8B4
:20A730005010706A00F069F9C1070AD4617A012905D10325800600D4022565720F46012402
:20A7500000E03C4601F05CFB1FB12946304601F0DCF92046F0BD0A4690F85010406A00F0DF
:20A7700009BAF0B587B00746059306920C46456A90F85060104600228088049200B9088815
:20A7900009790139C9B20191A1790139C9B2009161794B1EDBB2421E92B23146284600F037
:20A7B0005EF9227BFF2A05D0012004903146284600F0C4FA0698C08800B9208A217A013931
:20A7D000C9B20191A17A0139C9B20091617A049A4B1E0292DBB2421E92B23146284600F07F
:20A7F00081F931462846002200F0F1F931462846002200F05DFA31462846002200F05CFA53
:20A810007FF000023146284600F094F8B98A4B06090A404AB87D049251430B4310EB8000FD
:20A83000314653EA802050F40012284600F09AF9F87D059A38495043049B484302FB1331DA
:20A850007B7D59430843354908433146C243284600F08CF9059A3146E379284613B900F045
:20A87000A4F902E0E37A00F089F903A8032101F0C9FA044606993846FFF74BFF054603986A
:20A890000322052101F0BDF928432043F2D007B0F0BD30B5054610F150042178406A0022D8
:20A8B00000F060F92178686A00F040F930BD90F85010406A00F0BDB870B50646002410F131
:20A8D00050052978406A00F059F84FF40012800204D52978706A00F02DF80124204670BD8F
:20A8F0004FF0007290F85010406A00F023B810B50446406A00F0ADF818B9606A012100F03F
:20A910003BFA10BD13460A4690F85010406A00F022BA00BF9900080011000800001420026F
:20A9300003490878704700000149012008707047584C010810EB41200265704710EB412067
:20A9500001219140C0F89810B2F1200101228A40C0F89C20704700000000000010EB41205C
:20A97000F4300068C0B2704781B010EB4120F430006800906846407801B0704710EB41203F
:20A99000006D7047000010B510EB4124D4F89C00FFF794FDC0B220280CD3D4F89800FFF77C
:20A9B0008DFDC0B2FF21202802D2D0F11F01C9B2084602E0D0F13F00C0B210BD82B010EB57
:20A9D00041201AB9A4300068009002E0B43000680190C0B202B0704782B010EB41202AB95C
:20A9F000A430006800906846407804E0B430006801909DF8050002B0704710EB412080690C
:20AA1000704710EB4121D1F8DC00D83109688843D04000F00100704710EB4120C4300068B8
:20AA3000C0F30440704710EB4120406C00F00700704710EB4120406CC0F3C010704710EB65
:20AA50004120D0F8A801704710EB4120D0F8B80170474FF484514058C0F30040704730B58A
:20AA700081B08D4D10EB41202C6805AD00942D7865F35F226D466A806B7004AD2D78009A9F
:20AA900065F306020092C26101B030BD81B010EB4120D0F8F8106B4600911A700099C0F879
:20AAB000F81001B0704710B581B06C46A27023800122E27010EB41200099C0F8F01001B0E6
:20AAD00010BD81B010EB4120D0F88810009169460A808B700099C0F888107049C0F89010ED
:20AAF00001B0704760B581B06D4E356862F314456E460095737004AE3678320105AE367872
:20AB100006F00F036E461A43327006AE3678009B66F3D75310EB41200093C36001B060BD0A
:20AB300010EB4120C0F880207047000082B010EB412398690090694601200870009898619F
:20AB500040F2051099690191C9B2012901D00138F8D2986900906946032008700098986125
:20AB700002B0704710EB41204265704710EB41208265704710EB4120C265704750B581B038
:20AB9000484E346854F0030462F345145A0052F0010666F3092410EB412000948461816992
:20ABB00031F00301816101B050BD20B581B03E4D2B6853F0030362F3451310EB41200093B7
:20ABD0008361816931F00301816101B020BD10EB41204261704781B010EB4120D0F8AC103B
:20ABF0006B4600911A800099C0F8AC1001B0704730B581B02D4D10EB41202C68009462F38B
:20AC1000020404AD63F306142D7865F30A24C0F8BC4001B030BD82B010EB41203AB9D0F837
:20AC3000A8106A46009113700099A82206E0D0F8B81001918DF804300199B822115002B0DD
:20AC5000704730B582B0BDF8144010EB412053F4807542B9D0F8A0106A4600911480558058
:20AC70000099A02207E0D0F8B01001AA0191558014800199B022115002B030BD81B010EBBC
:20AC90004120D0F88410009169460A808B700099C0F8841001B07047FC700310FFFFFF1F3A
:20ACB0000071031004710310087103100C71031010EB41208262704710EB412002627047EE
:20ACD00010EB412001219140C0F8D0107047F0B581B0314E01241546376864F39F1537F020
:20ACF000FE4252EA056200926E4606AFB3703F88378010EB41200099C0F8C01001B0F0BDEA
:20AD100010EB4120C0F8E420704710EB412001219140C0F8D410704781B010EB4120D0F85D
:20AD3000C8106B4600911A700099C0F8C81001B0704710EB4120C0F8E020704710B581B00D
:20AD5000164C10EB412023686C46009362700099816401B010BD10B581B010EB4121D1F86B
:20AD70008001002A0CBF63F3000063F341000090C1F8800101B010BD10B54FF484540359DC
:20AD900061F31043035110BD31F0030289071058C90EC840C0B27047107103101471031089
:20ADB00030B50D4690F85010406A0024FFF7E6FD2A7EDA49012A00D1D949084000D0012496
:20ADD000204630BDF0B581B006460F46426A90F85050009229461046FFF7D0FD4FF0C0525A
:20ADF000104003D000982946FFF7A4FD002415E00068182104FB0100807D01280DD100982C
:20AE10002946FFF710FE410707D000F00700072803D03946304600F030FF0134787E18B987
:20AE3000386941688C42E3D301B0F0BDF0B583B017461E46436A009390F85030019311B997
:20AE5000B84C303001E0B84C3A304078FFF719FC029001990098A0470546400003D4C5F3A7
:20AE70008A40306006E035F0604050F0004030608020387001990098A0470546000C81066E
:20AE900008D5316851F08041316000F00F00FFF7F5FB06E0089900F00F000870082803D9AA
:20AEB0000820089908700878029988429F4934BF0120002008703878C5F306610843387006
:20AED000089800788610800700D00136002507E001990098A047099B43F825000135EDB228
:20AEF000B542F5D303B0F0BDF0B581B000911646069F1D468469428DA41828304078FFF7DA
:20AF1000C0FB08300099C0B201FB00442068420003D4C0F38A40286006E030F0604050F057
:20AF3000004028608020307020460621FFF72CFF820608D52A6852F080422A6000F00F00C7
:20AF5000FFF79CFB05E000F00F003870082801D90820387020460721FFF716FF00F07F02E4
:20AF700030781043307038788210800700D00132002006E0830007991D19AD685D50013008
:20AF9000C0B29042F6D301B0F0BDD0B595B006460F4611461C4600200490ADF80E0005A8FE
:20AFB000019006380090831C421C3046012902D8FFF73CFF02E02146FFF796FF19AC247845
:20AFD000029405A803AC0190A078049B0090E2783946304600F0ACFE15B0D0BDF0B586B081
:20AFF00003AB07C34D4A90F85060456A0C460020029031462846FFF79DFC237E012B03D132
:20B0100004990398FFF7DEFE31462846FFF7BBFC01904024019F3F2F15D805983B460090E6
:20B0300003980499FF22FFF7B0FF3A4631462846FFF784FC31462846FFF7A5FC0190013CDD
:20B05000E4B2002CE6D10027402419E03A4631462846FFF7C1FC0190034605980090039829
:20B0700004993A46FFF791FF30480378012B05D1019B3A4631462846FFF7CDFD013CE4B294
:20B090003A4631462846FFF799FC002801D9002CDCD10137022FD7D331462846FFF76EFC7D
:20B0B00010F0880306D0882231462846FFF742FC01200290029806B0F0BDF0B587B0069238
:20B0D0000591054695F8503000936B8A446AE86A16780490A8690194C21803922B8A0F7877
:20B0F0006A8DC118029100992046FFF774FD002429E0019800992246FFF720FC049850F8BA
:20B110002400002814D4039A54EA004050F0605042F827000137FFB213E000BF11000800CB
:20B13000110008184FAA021059AA0210594C0108029AF30050F060409850D01844600136E6
:20B15000F6B20134E4B295F82800A042D1D8059807700698067007B0F0BDF0B589B007912A
:20B1700008921C460E46416A154610F138020291478A8369117EDF190697078A3678DB1987
:20B1900003932D78034644B94FF0005730330597BF100497476B107807E04FF080473A338B
:20B1B0000597BF100497076C107B0190588800901B7802982246FFF744FD002028E017EB84
:20B1D000C00423684FF00041002B0ED464685B051A0C62F3DF24049A54EA0203069A1943FC
:20B1F00042F826100136F6B210E003B4EA000599079833F060430343535064688A1834F0E1
:20B21000604403BC0C4354600135EDB20130C0B201998142D3D8079806700898057009B055
:20B23000F0BDF0B582B0044690F85060456A002001AF3F22788031462846FFF771FC94F84C
:20B250002900009094F83B3094F8312031462846FFF7CEFCFA1CB91C2046FFF72EFF2046D2
:20B27000FA1CB91C0023FFF778FF2046FA1CB91C0123FFF772FFFB78228A31462846FFF76D
:20B2900020FCBB78628A31462846FFF7F7FC02B0F0BDF0B50546466A90F85070002406E044
:20B2B000224639463046FFF749FB0134E4B295F82800A042F4D8F0BDF0B582B00746456A39
:20B2D00090F8506020241BE031462846FFF74CFB0090C000C11DF889BA698018FFF754FD14
:20B2F0004FF48052019031462846FFF723FB009A31462846FFF7CAFB019800F06EFDE4B2DB
:20B3100031462846FFF72AFB002801D9013CDBD202B0F0BDF0B596B00646436A90F8501006
:20B330000293184696F8463003914FF480620593FFF700FB002447E0029803992246FFF7E5
:20B3500060FBF8B3B56996F84700FFF79AF9B6F84810083004FB0010281801900721FFF71F
:20B3700013FD049000F096FD4FF6FF71884229D001980621FFF708FD00F00F05019806219F
:20B39000FFF702FD800604D52846FFF777F9054602E0082D00D90825AA08D2B2A80701D057
:20B3B0000132D2B2002006E0019B8700FB189B687B500130C0B206A99042F5D304982A46C4
:20B3D00000F0F5FC0134E4B20598A042B4D816B0F0BD30B5044690F85010606AFFF7CEFA94
:20B3F0000546C00402D52046FFF766FF680502D52046FFF78FFF30BDF0B581B00446E389EF
:20B4100090F85060227B456A31462846FFF74BFB4434A0880090A378A27931462846FFF736
:20B4300056FCE27831462846FFF776FC4FF4A05231462846FFF77EFAA178D1F120007FF011
:20B450000007C7403A4631462846FFF759FC3A4631462846FFF76DFC01B0F0BD90F846101E
:20B47000D1F120017FF00002CA4090F85010406AFFF746BCF0B586B00546059104929DF8ED
:20B490002C701E46426A029290F850100191996818680391040059BF4005C408022161F329
:20B4B0005F7495F84600B84204D801991046FFF7B3FA07460097AF6995F84700FFF7E1F8CE
:20B4D0000099B5F84830083001FB003004993C503D18080650F400043079FFF7D5F8059F56
:20B4F00003073F6854EA1334FB79012B09D133685B0006D5FB7A54F40014012B01D154F4A4
:20B5100080146C600835FFF7B9F8002312E0002427463179FA189142CBBF03990CAA895CE1
:20B530001178FA0091400C430137042FF1D310C50433DBB28342EAD36A460BCA02461846E3
:20B55000FFF7BEFB06B0F0BDF0B581B004460D4616461F468269463000924078FFF791F86B
:20B57000083000FB05F1B4F84800009A4018105830F06040B04203D8012F07D1B04205D1E7
:20B59000606A94F850102A46FFF7BFFB01B0F0BD70B590F85050446A294620460022FFF77F
:20B5B000AFFB0026324629462046FFF7AEFB01361F2EF7D900260AE029462046FFF7D4F9C3
:20B5D000294602462046FFF761FA0136F6B229462046FFF7C3F9002801D91F2EECD970BD46
:20B5F000000030B50446FFF79BF9F0B1204600F069FD044600F034FC0546204600F03FFCDF
:20B61000044605B124B92121042000F0EAFA42E02846FEF782FF21462846FEF780FF01288B
:20B6300003D305D0032819D32ED021210520ECE7287D01282FD121462846FEF787FF10B121
:20B65000284600F05FFA21462846FEF79AFF10B321210E20012200F0F3FB1CE0A87D012842
:20B6700004D1207E10B92846FEF7B7FF687D012811D1212221462846FEF79FFF58B10120A0
:20B69000E07221210720C0E7E87D012803D121462846FEF7A4FF30BD000070B505460E46B8
:20B6B0000024012A09D313D0032A0ED310D00321062000F096FA012410E0007900F00CFD2D
:20B6D00031462846FEF7B8FF08E0FEF7A2FF05E0FEF7CBFF2846012100F017FA204670BD83
:20B6F00070B505460E460024012A0FD312D1FEF7E4FF314628460322FEF75FFF50B93146AD
:20B710002846FEF7B2FF2846012100E0022100F0FCF904E00321062000F063FA0124204687
:20B7300070BD30B50024022A07D0032A09D10546FEF79BFF2846012100E0032100F0E5F97D
:20B7500004E00321062000F04CFA0124204630BDF0B505460F460126FFF7E2F808B90520DB
:20B7700032E0284600F07CFB0446284600F087FB05460CB1290001D1042025E02046FEF721
:20B79000A1FE00BB29462046FEF7C9FE3A4629460346012B20460DD305D0032B07D309D14D
:20B7B000FFF7BFFF01E0FFF778FF064606E0FFF797FFFAE70321052000F013FA29462046BD
:20B7D000FEF794FE18B11020032100F00AFA3046F0BD002807D440F2FF7130F0804088424F
:20B7F00006D8002005E0C64930F040408842F8D901207047F0B515461E4600240F46FEF762
:20B810008EFE0121022801D031700C463868C07920B9680002D505980C4601702046F0BD18
:20B8300007B49DF80400402807D8082807D91868C07910B10098400001D4012000E0002005
:20B8500003B070470CB4F0B585B007469DF834600D460C98002420B90621012000F0C1F978
:20B8700001240C220AA902A809F06BF802AA2B4607CAFFF7D5FF01280AD10621032000F0B6
:20B89000B0F901244FF6FF71304600F033FB0DE0002CF7D10EAA0AAB12780FA801920078E7
:20B8B0003246009029463846FEF7F1FE204605B0BDE8F04002B070470000F0B58DB0054619
:20B8D0000F460024FFF72CF820B90621052000F088F9012417B9062101201CE0002C40F09A
:20B8F000A88038798DF82C003E680A96B868B9890C9009913046FFF76CFF012804D10446B1
:20B910000B20062100F06DF94FF6FF700999814241D10F20062100F064F9012489E054EAD5
:20B9300005001FD109999DF8190000F0E3FA00F067FA07A948780590099804390490C878DD
:20B9500003900879029048780C220190103182B0684608F0A8FE0A9938460CBCFFF772FFA3
:20B97000044658E0022D4CD106A9C878202848D2002C46D1887800F073FA9DF81B10002E0A
:20B9900000D4B6042C4636F060420123FEF78BFE00F036FA3FE0002C4BD106AF7C70BC70D9
:20B9B000FC703C717C71BC71FC71043700F026FA0DF11B00019000977B1C821E411E284647
:20B9D00000F006FB0546012DA9D006A8807800F047FA074606A8807800F051FA324608905F
:20B9F00001460DF11E000090431C3846FFF702FF04460898007E012891D1002C8FD10225CA
:20BA10002C4600F0FDF904B92C46012D03D10621022000F0E6F89DF81F0018B10621084684
:20BA300000F0DFF89DF81E0018B10B20062100F0D8F820460DB0F0BD70B505460024FEF748
:20BA50006FFF20B12146062000F0CBF801242846FDF790F920B90A20002100F0C2F84EE04B
:20BA7000002C4CD1284600F0F3F9254616E0284600F0F6F90646284600F001FA0EB1010010
:20BA900001D1012004E03046FEF749FD20B10620002100F0A6F801240135EDB200F0DBF9AA
:20BAB000A842E4D825002AD100F0FFF921E0284600F0D6F90446284600F0E1F90646204666
:20BAD000FEF7FDFD307B10B9204600F0D8FA2046FEF7FBFDA068306031462046FEF77FFD92
:20BAF00031462046FEF7C1FD2046FEF7DEFD0135EDB200F0B0F9A842D9D8FEF715FF70BD31
:20BB1000FFFFFF1F007913F0F7BE012904D3032902D8CE4A895C00E00021007913F0B7BED2
:20BB300030B5037C0025012B10D309D0032BD0E9023412D314D0944216D18B4214D112E03D
:20BB50008368C4684B405440234304E0C368806808401340184307D005E08B42944101E00D
:20BB70009942A24100D20125284630BDF0B583B0029016460027182206FB0215A9682A68C2
:20BB900062B9EA681340994200D03ABB029949697200535A0133535201271FE033F0404323
:20BBB00099421BD101923C4615E00198142104FB01000899026843681140099A1A40FFF7DC
:20BBD000AFFF012806D10299720049690746535A01335352013469688C42E6D3384603B057
:20BBF000F0BD30B504460D460A4603465020002114F00DFE23462A465020002114F007FE5A
:20BC100030BD70B582B00E461546009000242046019401AA69460EF027FA20B901988642BF
:20BC30000ED801240CE02A4601240D235020002114F0EDFD2A460D235020002114F0E7FDA0
:20BC5000204602B070BDF0B5059D0C46182103FB01220126116967695B00928ADB5B9A42A2
:20BC700000D82E7041B1407D212200B90822E069FFF7C7FF00B12E70F0BD10B50C46497E8A
:20BC900021B9C06C15F0CAFC0120607610BDF0B589B0059006920E4600248DF80B4008693B
:20BCB00025462246006803940490082B00D90823214608E00E9F200E7F5C50EA052557EA2D
:20BCD00004240131C9B29942F4D3174623E0CDE90045069B3A4604993046FFF747FF039976
:20BCF0000143C9B20391717EA1B93B460DF10B010091049A05983146FFF7A5FF9DF80B1080
:20BD1000012907D1717E29B90598C06C15F086FC012171760137316949688F42D7D303984E
:20BD300010B901218DF80B109DF80B0009B0F0BDF0B587B0029204460CAA1E4613789DF86E
:20BD500038700C930D46087E38B10D98009032462046FFF79CFF012827D120792A7E029929
:20BD70000DF1070300F0CCF878B901AA207905961075D07850750D9A03920C9B04AA138031
:20BD9000111F101D13F020FE0FE0304600F041F958B93A460C235020002114F038FD3A467C
:20BDB0000C235020002114F032FD07B0F0BDF0B582B00E461746054600F06CF80446009615
:20BDD0004FF6FF71ADF80470284600F093F86946204613F0B7FE02B0F0BD30B5054600F050
:20BDF00059F84FF6FF710446284600F083F8204613F09CFE30BDC06C18F0EDBA10F094BAF1
:20BE100010F0D6BA70B581B006460D4600200090044669460EF018F968B12A460D235020AC
:20BE3000214614F0F4FC2A460D235020214614F0EEFC012401E000983060204601B070BDC0
:20BE50000A4603465020002114F0E1BC17710310B04908607047AF4908682030007870476D
:20BE7000AC4A136893F82020824205D90146542041431868401800E0002070470000A54A17
:20BE9000136893F82020824283BF410158684018002070479F4A136893F824201AB1196995
:20BEB0004000405A00E01046704710B500200DE0496811EB40110022134614461CC10A70AF
:20BED0004A608A608A810A610130C0B2914B196891F820208242EBD8002006E04FF6FF743A
:20BEF0000B694200D4520130C0B291F824208242F4D810BD874B1A681269400081527047F0
:20BF1000F0B583B0009001920293824A1768012097F8216056B3002413E06C1CA4B210E017
:20BF300001B435196D1012EB85031A780198824201BC05D8F1D39B788B4201D8EDD32C46B4
:20BF50002E46BA68B442EBD312EB84042278009B9A420BD1A2788A4208D1019911B9E17899
:20BF7000012903D0029A61781170002003B0F0BDF0B5684C2568ED680001455D0D70256856
:20BF9000069FED682D18A97B39702568059FED682D18697B39702568ED682D18297B1970D9
:20BFB0002368DB681B1859689B685B1802200AE0266836694D00AD5B4FF6FF76B54201D128
:20BFD000117000200131994201D20228F0D0F0BDF0B582B04F4F3D68012495F82460AEB18A
:20BFF0002035AE7846B1864210D8ED78AD19A8420CDA801BC0B202E0ED78A84206D2089D59
:20C010000195079D0095FFF7B3FF0446204602B0F0BDF0B583B03F4900220D6800926B692D
:20C0300053B3114624E00C244C431A590292002218E001B41826039F5643B859F719BE683A
:20C05000002801BC03D030F04047B74206E001B4FF683840864201BC01D0002F01D101277F
:20C0700000970132E61876689642E2D80131C9B295F825208A42D6D8009803B0F0BD10B5C2
:20C09000C1698A088069002103E0002340F8213001318A42F9D800210CE01468542301FB70
:20C0B00003439B69834204D1526812EB4112012313730131174B1A6892F820308B42ECD857
:20C0D00010BD0000134B1A6892F8261081428ABFD1690846085C7047F0B5002113E0DC6837
:20C0F00014EB0114227890420BD16268A468A41805E01E694FF6FF775500AF5301329442BB
:20C11000F7D80131C9B2034A136893F823208A42E5D8F0BD5C4C0108F0B50968002411EBE0
:20C13000C01700F097F87D6C3E683F6900F094F82046810008228A402A4002D101218140EB
:20C150000C4301300828F4D32640A7433743F8B2F0BD1B68C90112B95B18191D01E0591824
:20C170000831012282400A60704710B5044648680831E208D2B210EB42004078FFF7CCFF54
:20C1900004F0070101228A401040003818BF012010BD10B51446646812F108030A46C10847
:20C1B000C9B214EB4101497800F00700FFF7D1FF10BD10B50246CB080478DBB20020A3427A
:20C1D00009D2526801F0070101248C4012F81310214000D0012010BD60B50646144D01467B
:20C1F0002846FFF7E6FF20B90A2100F023F8002003E029463046FFF7B8FF60BD70B50646B4
:20C210000C460B4D01462846FFF7D3FF08B90A2103E0012C05D024B10B21012000F00AF802
:20C2300004E02A4621463046FFF7B3FF70BD00004C71031030B504460D460B460246782065
:20C25000002114F0E4FA2B4622467820002114F0DEFA30BD10F090B810F0D2B8000000009E
:20C2700070B5064600F045FB002000F099FB032000F099FB00F0FDFA002424E0204601212B
:20C2900000F085FB20460122002100F074FB2046002100F059FB2046002100F04FFB3168F0
:20C2B0001C2004FB001568688047426A2846002190472969204600F04CFB297E204600F049
:20C2D00051FB0134A4B2308A8442D7D300F0D3FA012000F065FB70BDF0B5074600F006FB0F
:20C2F000064600F0C6FA002417E071681C2004FB001568688047426A394628469047204681
:20C31000022100F04AFB2969204600F028FB297E204600F02DFB0134A4B2B07C8442E4D351
:20C330003C000FD10BE071681C2004FB001568688047826AE968284690470134A4B2B07CED
:20C350008442F0D300F097FAF0BD00000000000070B50546002400F0C9FA06681C2105FB24
:20C37000016600F086FA2846012100F0E7FAF07DC00703D42846042100F009FB00F07BFA7E
:20C39000284600F0CEFA800706D500F0D4FA032802D1284600F0A2FA284600F0C2FA4007EE
:20C3B00004D500F0C8FA052800D10124204670BD10B5044600F09AFA1C21614304686418D0
:20C3D00000F057FA61688847416820468847044600F051FA204610BD00000000000010B519
:20C3F000044600F046FA204600F008FA00F043FA10BD00BFC3487047F0B50368C47D1A680D
:20C4100032F000421A601A6802F0F002E507ED0F01D152F48022670701D552F080421A6064
:20C43000C2681A62027D12025A64002201B10A4640F6F3769A64477D16F10C0207B9324623
:20C4500009B132F44072DA64007E0022072800D802461A637722200700D57222E00602D5AA
:20C47000022060F306125A65012005B10020986700209860186850F000401860F0BD0268C3
:20C49000C07D136833F000431360136853F000431360C00700D40139116200209060106CB3
:20C4B00050F010001064106C70470068016831F000410160816C31F0FF018164016851F044
:20C4D00000410160006870470068012904D10167016F0121816702E000218167806F7047B1
:20C4F0000068806870470268106FC00754BF90680846704700688068081A704703681A6F48
:20C51000D2075ABF9868081A0020704700687E4A016831F000410160016811407FF0000398
:20C530000160036200218160416C31F47F414164416C51F480714164816CFF2231F0FF0135
:20C550008164C16C51F44371C164016B31F0FF0101633221416500218167806F7047016899
:20C57000CA6FD20704D501200867086F012000E0002070470346127A0120022A0CD11A6C5C
:20C59000D2060DD45A6812040AD4C97DC90706D1196FC90704D102E05968090400D500205D
:20C5B00070470346097A0120022901D0042904D13AB1996CC9B28A4201E0996C090600D0CD
:20C5D0000020704703460120127A1B6892B14F4A1A40B2F1004F00D00020C97D91EA93424D
:20C5F000D207D20F00D110469A0F92EA9101C90704D502E04649194000D00020704710B5B4
:20C610000346147A012044B1022C11D1C97DCC0711681A6A09D1013907E08A7D196A202A28
:20C6300001D1E24301E04FF6FF72914200D0002010BD024601200B7A126B1BB1C97AD2B2CE
:20C65000914200E0120600D000207047137A426C0120C2F3072213B1097D914200E0012AF6
:20C6700000D00020704710B504460120127AE46C62B14A7DC4F381010AB9002900E00329EC
:20C6900000D000204BB1A105890F04E040F6FF72C4F30B01914200D0002010BD0346012018
:20C6B000127A5B6D9AB1C97D0A0704D503F00702022A00D00020CA0604D5C3F30212022AE4
:20C6D00000D0002011F0180104D1772B00E0322B00D00020704710B502460B7A01205BB126
:20C6F00013685B0304D4897A8C0701D4490703D5916FC90704D402E0916FC90700D5002097
:20C7100010BD00BF58710310FFFFF8BF0F0733870F0737C7F0B581B0074600931546066889
:20C730004878012837D1107A002858D039463046FFF720FF009A294604463046FFF731FF25
:20C750002A46394604403046FFF73CFF2A46394604403046FFF753FF294604403046FFF7DF
:20C7700068FF2A46394604403046FFF76FFF009B2A46394604403046FFF775FF2A46394698
:20C7900004403046FFF78AFF294604403046FFF7A2FF204024E010BB107A00BB3946304627
:20C7B000FFF710FF0446B168012001B100202A46394604403046FFF722FF29460440304625
:20C7D000FFF737FF2A46394604403046FFF73EFF009A294604403046FFF7E3FEC7E70020D9
:20C7F00001B0F0BD0068026832F0004202600163016851F0004101600068704707210167D4
:20C81000016F0021816770470068036833F000430360836C33F0FF038364012A02D1826C55
:20C830000A43826400218160016851F00041016070470168496809044CBF01200020704786
:20C8500010B50446FCF7ACFA10B90E21012004E000F06EF8012803D10D2100F04FF805E086
:20C870002046FFF7FDFCE07CFFF736FD10BD000000000FF08BBD0FF0CDBD00000000000031
:20C8900070B504460E461C4D2868FCF789FA58B160002C68E468045B4FF6FF70844219D04B
:20C8B00000F046F8012804D02221FF2000F026F810E02046FFF77CFD01280ED12046FFF7A4
:20C8D00047FD012809D12868806850F8240017F082FD02E03046FFF782FD70BD064B1968CB
:20C8F00009681C2202FB001080680047024908687047014908607047604C010830B504467E
:20C910000D460B4602466420002113F080FF2B4622466420002113F07AFF30BD000000000D
:20C9300000000C21484321494018807A704700002049487870471F49087870470C2250437C
:20C950001A4A8018417270470C225043174A815070470C225043154A80184160704714484B
:20C97000016070470C225043104A8018C17270470F484171704710B50C4B0C2404FB0033B4
:20C99000012A987A0CBF08400843987210BD0C225043064A801801727047054801717047CC
:20C9B0000449487070470349087070476C4C0108644C010859540108153801288CBF01201E
:20C9D0000020704770B5054600260FF0E3FC686D012100F0D8FC2846012100F0E4FCA86ACF
:20C9F000344648B10124214600F01DFDA86A817D11B1052400F02EFDE86A58B154F008045D
:20CA1000012100F053FDE86AC17C19B154F0100400F074FD0FF002FDE86BE0B1017B01290A
:20CA30000ED1407B01280BD10FF0B4FC304600F079FD0FF0F3FC4FF47A7000F0BAFD0646AE
:20CA50004EB90FF0A7FC54F00204E86B012100F08BFD0FF0E3FC210003D0284600F045FE73
:20CA70000646304670BDF0B5074600241AE000250FE00FF08FFC3A6CB01890F823109259F5
:20CA9000D5EBC500801800F006FC0FF0C7FC0135ADB224266643386C3018408B8542E8D3F4
:20CAB0000134E4B297F8A1008442E0D3F0BD0000000070B50546006808B100F04FFC00F089
:20CAD000E0FB002407E0696C11EB0410002101F064F90134A4B215F19C06B0798442F2D325
:20CAF000284600F004FC2846002100F070FF2846002101F035F8284600F0A2FB286B10B1DE
:20CB1000407F00F006FB002409E0696B142004FB0010417CC06800F026FB0134A4B2B07888
:20CB30008442F2D3002409E0A96B1C2004FB0010417E406900F03EFB0134A4B2F0788442A4
:20CB5000F2D370BD30B50546002408E06A68E00081581018007900F05EFF0134E4B295F8C6
:20CB70009D008442F2D3002408E0AA68E00081581018007900F047FF0134E4B295F89C00DB
:20CB90008442F2D330BD000000000000000010B50446C06B10B1002100F0E6FC2046002198
:20CBB00000F001FCE06A10B1002100F07FFCA06A10B1002100F037FC606D002100F0E3FB16
:20CBD00010BDF0B581B00546002785E024267E43286C301890F823100091002407E04268E3
:20CBF000009912EBC40001F048F80134A4B2286C3018018B8C42F2D3002411E000000000FF
:20CC1000000000000FF0C6FB286C30188268009912EB440001F03DF80FF000FC0134A4B2F8
:20CC3000286C3018808B8442ECD300240DE00FF0B1FB286C3018C268009912EB840001F0AB
:20CC50003AF80FF0EBFB0134A4B2286C3018C08B8442ECD300240DE00FF09CFB286C3018F3
:20CC70000269009912EB840001F037F80FF0D6FB0134A4B2286C3018008C8442ECD3002493
:20CC90000DE00FF087FB286C30184269009912EBC40001F038F80FF0C1FB0134A4B2286C3A
:20CCB0003018223000788442EBD300240DE00FF071FB2A6C00999259D4EBC400801801F02C
:20CCD00038F80FF0ABFB0134A4B2286C3018408B8442ECD30137FFB295F8A1008742FFF4E5
:20CCF00075AF01B0F0BD10B50446006B10B101F0C3F930B9204601F093F910B9204601F0CE
:20CD100061F910BDF0B581B0009001250C1E00F084800846FFF756FE051E7ED1204601F0D1
:20CD300000F92046FFF79FFE0FF034FBB94A01212046117001F0E6FD051E72D12046FFF721
:20CD5000B8FE2046FFF7FEFE206B18B101F047F8051E66D1064607E0626B142106FB012080
:20CD700001F07FF80136F6B214F19C05A9788E42F2D3002607E0A26B1C2106FB012001F096
:20CD900090F80136F6B2E9788E42F4D3002706E0E26812EBC70001F0EDF80137FFB214F145
:20CDB0009806317A8F42F3D3204600F03CFEE97AA06C00F06CFE626A1AB1317C106800F07E
:20CDD0007BFE2046012100F0CBFE2046012100F0FEFD204600F0ABFC002707E0626C12EB40
:20CDF0000710012100F0D9FF0137FFB2A9798F42F4D3306800F039FF206808B100F070FE20
:20CE10002046FFF7C4FE0FF009FB2046FFF7D9FE2046FFF768FF051E06D0009801F0FFFE6C
:20CE300004E00FF0FBFAF8E701F0FFFE284601B0F0BD70B5784C0546261D304601F090F90A
:20CE5000687D400601D501F012FA304601F093F92070FFF7B1FD08B901F0E1FE687D000621
:20CE700007D5A87CB0214843296841180020FFF749FF70BD70B506460FF08CFA002408E0CF
:20CE9000B16B1C2004FB0010406901F02CF90134E4B216F19C05E8788442F1D3002408E0F3
:20CEB000716B142004FB0010C06801F02DF90134E4B2A8788442F3D301F039F90FF0AEFAC3
:20CED00070BD10B50446006B10B101F0C6F830B9204601F0F4F810B9204601F0DCF80038D3
:20CEF00018BF012010BD4B49087870474A4908787047000070B505460C460FF04BFA607CE6
:20CF1000012802D101F04FFB0646206801F00EFC50B901F092FE2146022201F0A4FA0FF058
:20CF30007DFA01F089FE07E00FF078FA072001F07DFE207C012803D1284601F008F909E025
:20CF5000607C012806D10FF025FA304601F072FB0FF064FA70BD30B50546002401F0C2FA68
:20CF700095F83210884200D00124204630BD000070B5064600240FF00DFA254612E016F1C1
:20CF90003300405D0338012804D9284601F0C3FA022804D12946304601F0CBFA00E00124B5
:20CFB0000135EDB296F835008542E8D30FF036FA204670BD70B5064610F13005A878013885
:20CFD00005D23046FFF7D4FF041E09D102E00024012804D86978F06801F002FA00E00124F9
:20CFF000204670BD70B5064610F13005A878013805D23046FFF7BCFF041E09D102E000248E
:20D01000012804D86978F06801F0EAF900E00124204670BD9C4C0108904C0108F0B50400D7
:20D030006FD010F13406B078012805D10FF0B2F901F0CAFB0FF0F2F9206800B3016821B17F
:20D050000820FFF75FFE051E5CD125680FF0A2F9284601F017F995F8200010B1286901F06F
:20D0700070F90FF0DBF90FF095F9284601F05CF90FF0D4F9284601F037FB050042D114F1A9
:20D090002C0001F081F9206901F088FB051E39D1F078012802D101F086FA0746606901F0E3
:20D0B00045FB051E26D1204601F0BAF994F83000012808D194F832000025D8B92046FFF76E
:20D0D00057FF054616E0022803D12046FFF772FFF7E7032803D12046FFF784FFF1E704281E
:20D0F00007D16068002520B194F8311001F0B9FA00E00125F078012804D1384601F09AFAAA
:20D1100000E001252846F0BD000000000C490860704770B50A4A14680128646A22D141F258
:20D130003051605800281DD541F238520221A05861F31D70A05001F082FD0646002503E01F
:20D15000A04C010800BF0135B542FBD341F23051605830F00040605041F23C51605830F0FC
:20D170000040605070BDF0B504460B4A156801296D6A1ED1800015F5B0514158002918D597
:20D19000022262F31D7115F5B0528150204601F059FD0746002603E0A04C010800BF0136AD
:20D1B000BE42FBD3A20015F5B051505830F000405050F0BD70B50A4A136802015B6A13F5CB
:20D1D000C853012916D1D158D418002912D5022262F31D71216001F038FD0646002503E0EC
:20D1F000A04C010800BF0135B542FBD3206830F00040206070BD0000000070B5A54B1D6841
:20D2100000226D6A17E0C46814EBC201097915F5925656F8213054F83240302634401E4027
:20D23000A64206D233F03003234315F5925444F821300132D2B290F8A0108A42E3D370BD47
:20D2500020B5944A116810F1A8029378496A012B08D14FF4A8554B591B0403D54B5933F47E
:20D2700000434B51D278012A08D141F20453CA58002A03D5CA5832F00042CA50FFF7BDFF71
:20D2900020BD844A4FF6FF7110684FF40072006881508058704730B57E4A13685A6812EB42
:20D2B00041328179012921D1417819B9007812F5805510E0012903D1007812F5A0550AE0AA
:20D2D000022903D1007812F5C05504E003290DD1007812F5E05555F82040E40706D09B6898
:20D2F00050EA012050F080409850985830BD30B568490C680023626A0DE0056915EB031196
:20D31000097B12F5A05515EB0115296831F0004129600133DBB290F8A3108B42EDD34369B6
:20D330005D4923B141F2107553590B405351836923B14FF4B95553590B405351C36923B164
:20D3500041F2307553590B405351006A28B14FF48073A26AD0580840D05030BD4D4B186830
:20D3700041F20813406AC15831F04041C1504FF4A073C15831F00F11C1500433C15831F0A7
:20D39000FF01C1507047434A136800F000425B6A012901D122B100E012B941F218515850F8
:20D3B000704700000000F0B53A4A4FF00046C36C156800246A6A03F00047012905D107B162
:20D3D0000C46016D0E4008D004E007B90124016D0E4002D141F20C569151012C22D1A9308F
:20D3F0000078696A012817D12C4E8C597618A50704D02A4E7050022088517618284DA00777
:20D41000800F53510ED00322326003280AD0E04300F00300306005E0204C0859800701D17E
:20D430001F481350F0BD1B4B1A680129526A0AD1017D012903D141F244534168D150006844
:20D45000002806D502E00068002802D441F21C515050704710B50F4B427D1968012A496A3D
:20D4700010D1104BCA58D20705D0043BCA580E4C52F000620A510B4B80684FF08052C8506F
:20D49000C85801E04FF00062074BC8581043C85010BD00BFA04C0108FFFFFF7F40C0000000
:20D4B00008150000201500001C15000010B5CC4B047C01291A68CB4B926A16D1012C1CD1BE
:20D4D000417C012904D18024A1581940A150A158D2F88010002910D4006880239850985856
:20D4F000985850F00040985007E034B98024A1581940A1500068A158A05010BDB84B827CEA
:20D510001968012A896A0CD1D1F88420D20708D140688423585058588023585850F0805056
:20D5300058507047AE4A1168896A7FF008028B6833F001038B608B688B6853F002038B6081
:20D550008B680B6801280CBF43F0080313400B600868886830F0020088608868886850F0DB
:20D57000010088608868704770B505469C4A007B14680129A46A0FD1012819D121680807FB
:20D5900016D40CCD994313EA02000843206020680120FFF7C7FF0BE050B9FFF7C3FF216878
:20D5B00048CD56F00802914316EA03000843206070BD8B4A13689B6A1A6812070AD4014612
:20D5D00001201A6912F0040201D1104603E00139F7D100E00020704710B50246804C0020D2
:20D5F0002368C9075B6A11D541F21C54195900290CD5111E00D10121012041F224541A5995
:20D61000D20701D5002001E00139F6D110BD30B50246734C0020236849075B6A11D541F2B7
:20D630001C555959C9000CD5111E00D1012101204FF4A9541A59D20701D5002001E001392D
:20D65000F6D130BD50B50246654B00201C680907A46A17D5B4B1D4F88030002B12D5111E39
:20D6700000D10121012003F08043D4F88820960706D5B3F1804F01D1D20701D0002001E0F4
:20D690000139F2D150BD20B50246554D00202B68C9069B6A10D57BB1D3F88010C9000BD515
:20D6B000111E00D101210120D3F88420D20701D5002001E00139F7D120BD10B50246484C78
:20D6D0000020236889079B6A0ED56BB1196809070AD5111E00D1012101201A69520701D596
:20D6F000002001E00139F8D110BD70B505460C46866A002046B1F068FFF76EFFB0B93069C3
:20D710002146FFF784FF88B9EE6A4EB1B0682146FFF798FF50B9F0682146FFF7B4FF28B923
:20D73000EA6B1AB190682146FFF7C7FF70BD70B52B4A4FF4B855116800244A6A8B6A816D53
:20D7500051511AE0056915EB0415297B12F5A05616EB01116E684E60AE688E602D6835F0A0
:20D7700000460E60002D06D54D688D680D680D6855F000450D600134E4B290F8A3108C427E
:20D79000E0D344691749C4B141F2147665689551A568961975602468134E34F00045002CC1
:20D7B00095510AD59619746841F2187694590E4E9459945954F000449451846914B341F2D1
:20D7D000247665689551A5689619756024684FF4B95614EA0105002C955113D506E000BFDA
:20D7F000A04C0108FFFFFF7F101700009619746841F2287694594FF4B9569459945954F0C8
:20D8100000449451C469C4B141F2347665689551A568961975602468BF4E14EA0105002C43
:20D8300095510AD59619746841F238769459BA4E9459945954F000449451006AA8B14FF465
:20D85000827442681A518268C3F8082100680140043C1951002808D5D3F80401D3F80801E3
:20D870001859E05850F00040E05070BDF0B5AB4A4FF440731468AA4A24697FF00305A25814
:20D8900002F0030600F00307012908D1BE4201D92A403A431840134083420BD907E0BE4284
:20D8B00001D22A403A4318401340834202D232F4407202439A482250F0BDF0B5974A4FF473
:20D8D00040731468974A24697FF00305A25802F0030600F00307012908D1BE4201D92A40EE
:20D8F0003A431840134083420BD907E0BE4201D22A403A4318401340834202D232F440728A
:20D91000024388482250F0BDF0B5844A4FF440731468854A24697FF00305A25802F0030616
:20D9300000F00307012908D1BE4201D92A403A431840134083420BD907E0BE4201D22A40A1
:20D950003A4318401340834202D232F44072024375482250F0BDF0B5704A4FF4407314682C
:20D97000724A24697FF00305A25802F0030600F00307012908D1BE4201D92A403A431840CC
:20D99000134083420BD907E0BE4201D22A403A4318401340834202D232F4407202436348CE
:20D9B0002250F0BD10B55D4A13681B6A00F00F001A6802F00F04012902D1844206D901E0C3
:20D9D000844203D232F00F0202431A6010BD30B50446406F0D46FFF749FFE06F2946743408
:20D9F000FFF76BFFE06818B120692946FFF78CFF606918B1A0692946FFF7ADFF206A294688
:20DA1000FFF7D0FF30BD454B1A68526A12F5905242F820107047414B1A68526A12F58072A9
:20DA300042F820107047D0B53C49414E0A6890F8A910526A012993591CD13E4FD459BF1819
:20DA5000A60705D03B4F0121B9500221D151BF18806C374960F3020353505058A007800F1E
:20DA700014D003213960032810D0E04300F0030038600BE02F4C7FF007061159890705D18A
:20DA9000806C2B4960F3020353505058D0BD70B5224A1368264E5B6A4FF400449A5915040E
:20DAB00009D4000A60F30E229A519859012902D1F0582043F05070BD10B5184B1A6841F21E
:20DAD0000454526A1359002B09D430F000401051012904D1A058A05850F00040A05010BDC1
:20DAF0000E4B19688268496A41F20413C1F84021C268C1F844210268CA504068CB1858602C
:20DB100070470368012A02D18B4203D901E08B4200D20160704700BF30170000A04C010899
:20DB3000C41300000013000080130000A01300000015000040C0000030B50468012B2346AA
:20DB5000154604D113400D40AB4207D903E013400D40AB4202D2944311400C43046030BD0C
:20DB7000F0B581B004460A4600910B46DA490E68012A36693CD100250BE014EB8500C16D11
:20DB9000321D12EB852004300122FFF7BAFF0135EDB214F1A40778788542EED3B87870B928
:20DBB000CE48CF4A616E80190123FFF7C5FFCB48CC4AA16E80190123FFF7BEFF53E0CA48F3
:20DBD000E16E80190122FFF79CFFC448616E80190122FFF796FFC548A16E80190122FFF7A9
:20DBF00090FF216F16F548700122FFF78AFF3AE010F1A407B87868B9B848BA4AA16E8019CE
:20DC1000FFF79AFF009BB548B54A616E8019FFF793FF17E01A46216F16F54870FFF771FFCE
:20DC3000B248009AA16E8019FFF76BFFAB48009A616E8019FFF765FFAB48009AE16E801974
:20DC5000FFF75FFF00250BE014EB8500009AC16D331D13EB85200430FFF753FF0135EDB2C0
:20DC700078788542F0D301B0F0BD9B4A11684FF400720968885088587047974B1A685268AB
:20DC900012EB4132818812F54062006842F821007047914B1A68526812EB4133417889000D
:20DCB00013F580525258D20704D4007813F58052000250507047884B1A68526812EB4133F4
:20DCD0008178890013F5A0525258D20704D4008813F5A0520002505070477F4B1A6852687C
:20DCF00012EB4133C178890013F5C0525258D20708D413F5C05203888078C006000E50EABD
:20DD1000032050507047744B1A68526812EB41334179890013F5E0525258D20708D413F529
:20DD3000E05203790068DB06000250EA13605050704770B5684B1C68626812EB4132417986
:20DD5000012929D143781BB9017812F5805610E0012B03D1017812F5A0560AE0022B03D159
:20DD7000017812F5C05604E0032B15D1017812F5E05656F82150ED070ED1A468A4188278FB
:20DD9000C0788007800950EA0240084350EA032050F000402060206870BD30B54E4A146859
:20DDB000027B256815F58045E36815EB421503FB02524B4D146803682C401D40012909D13A
:20DDD000AC4200D9136011698368406899430843106103E0AC4201D21360106830BD30B5F3
:20DDF00001463D4B1A68424C526A00201359002B36D4CB683F4D33F0004454513C4D0C68EF
:20DE100054514C6855196C603B4D8C68002B54510CD5374D535955196B68374D5359551923
:20DE30006B68344D535953F0004353510B7F012B16D1304C1059486900B1034601204FF417
:20DE5000AA555459640709D5294C105950F000401051886900F0FCFE002001E0013BEED127
:20DE700030BD30B501461C480368C8685B6A820013F5B054A458002C12D413F5B0540D6898
:20DE9000A5500C7C012C0BD113F5B054A45813F5B054A35853F00043A350896800F0DBFEAA
:20DEB00030BD10B501460C4A4069136802015B6A13F5C8539C58D3180A68002C26D41A6003
:20DED0004A685A608A689A600A7E012A28D11A685A689A6812E000BFA04C0108081000002A
:20DEF00000FF0000000000FF101000000C100000301500003C150000381500001A6852F031
:20DF100000421A60096900F0A9FE09E018684240120605D15868496861F3170058605868FF
:20DF300010BD70B5C94A156800236D6A1CE0C26812EBC3063279920015F592518958002935
:20DF500003D4316831F00F0106E0066B56B1767F012E07D10E0705D1247B15F592562143D6
:20DF7000B150B1580133DBB210F1A00421788B42DDD370BD10B5B5490A680179526A8900EA
:20DF900012F592535B583024006823400440A34202D830F03000184312F59252505010BDAD
:20DFB000AA4B41691A68007E526A12F5C85212EB0111012804D1C868C00701D1012000E0FE
:20DFD0000020704770B506460020044612E0002505E00846FFF7E4FF40B10135EDB2B26B79
:20DFF0001C2104FB0121CA689542F2D3012805D00134E4B296F89F108C42E8D370BD934B4B
:20E01000027C1968012A496A08D1C06811F5B25151F82000C00701D1104600E000207047FA
:20E0300070B506460020044612E0002505E00846FFF7E5FF40B10135EDB2726B142104FBFA
:20E0500001214A689542F2D3012805D00134E4B296F89E108C42E8D370BD7C4A007F1168C7
:20E070000128496A06D14FF4AA528858C00701D1012000E00020704730B5054600200446B3
:20E0900005E02846FFF7E9FF20B10134E4B229698C42F6D330BD30B505460020044609E00A
:20E0B000A96B1C2004FB0010FFF77AFF012805D00134E4B295F89F108C42F1D330BD30B519
:20E0D00005460020044609E0696B142004FB0010FFF795FF012805D00134E4B295F89E10ED
:20E0F0008C42F1D330BD594A1168496A11F5C85111EB0011086800F04052B2F1005F02D1CF
:20E1100050F040500860704750490A68526A12F5B05353F8201001F04053B3F1005F05D157
:20E1300051F0405112F5B05242F82010704710B54648016841F23854496A085900F04052C2
:20E15000B2F1005F02D150F04050085110BD012805D13E4A10683E49006BC0F80C1D70475B
:20E170003A4B19684FF4C053496ACA58CB18026059684160704710B5364C026814405AD0D1
:20E19000D00701D5022170E04FF6FF73910701D503216AE00421500767D4100701D50521F2
:20E1B00063E0D00601D506215FE0900601D507215BE0500601D5082157E0100601D5092189
:20E1D00053E0D00501D50A214FE0581C104001D00B214AE0900301D50C2146E0500301D527
:20E1F0000D2142E0100301D50E213EE0D00201D50F213AE0900201D5102136E0500201D5C0
:20E21000112132E0100201D512212EE0D00101D513212AE0900101D5182126E0500101D5CF
:20E23000192122E0D00001D51A211EE0012190001BD5142119E040680021C20304D016214A
:20E25000000412D0152110E0004A05E0A04C01080400FA05FF01FF77106841F20802406AA6
:20E270008058C0B2FF2800D11721084610BD654A654910684FF4C052406A8150634982180E
:20E2900051607047F0B55F4B1A680024526A46E043680C2104FB013501212B799940012B57
:20E2B00002D14FF4815301E041F224032E7A9B18012E03D11E6836F440461E601F684FF44D
:20E2D00000463F0416D42F681F606F79012F11D101B4D2F808724E488F43875087581F680D
:20E2F0003743A8791F60012801BC03D11E6856F480461E60EB79464D012B53590AD10B4031
:20E310000BD14FF4007551515359414D53590B43535102E08B43535151590134E4B290F88E
:20E3300021108C42B4D3F0BD10B5364941F204040A68C368526A80681159994308431051E8
:20E3500010BD30B52F4A1168324D496A4A5990EA0203DB0607D54C5934F0C0044C514B592A
:20E3700033F480734B514240D20208D5294C0A5932F440020A510A5932F080720A51254AC8
:20E390008A58244A885030BD70B51E4A0178224BCC070AD5156846786D69012E2C6807BF99
:20E3B00044F000442C601C402C608D070AD515688678AD69012E2C6807BF44F000442C60D0
:20E3D0001C402C6049070AD51168C478C969012C086807BF40F0004008601840086070BD07
:20E3F00030B5084A146841F20805626A535933F000435351E36A0129C3F8100D50590ED1C1
:20E410000CE000BFA04C0108FF01FF77FFFF01000802000018100000FFFFFF7F30BF30BD4D
:20E4300030B557494FF49E540B6800221B69816A195109E08168D5006C584919097913F54D
:20E450009A5545F82140013290F838108A42F1D3016A11B141F288329950406A10B141F2EB
:20E47000A831585030BDF0B584B0039002914F68434C44493E001ED0002318E001259D4002
:20E4900015EA07000AD020B42068006910F59A5052EA010540F8235020BCAE4336B92568A2
:20E4B0002D6915F59A5555F8233004E00133039D2D78AB42E2D3029B9B683BB1236841F2D4
:20E4D00088301B6952EA01051D501B58029BDB6833B1236841F2A8301B690A431A501A58C7
:20E4F00004B0F0BD264A1168C96A4FF6F070D1F8001D0140B1F5464F01D100200AE04CF26E
:20E510004022914201D1012004E0303291420CBF0220FF2070471A4A1168096911EB8020FC
:20E530004168C807C00F03D089074CBF022001207047134A13681B6913F5905313EB0112C4
:20E5500010EB81039B6933305360405C5368042802D00C4908431060704770B5084B1868FE
:20E570000021006B0022C0F8841DD0F8801DC1F3C905C1F34E340FE05101002309E000BF5B
:20E59000A04C01080000FA0551EA8376C0F86C6F0133AB42F8D90132A242EDD9BFF34F8F51
:20E5B000BFF36F8F70BD10B5064B196840F61453096BC85810F440340ED030F44030C850A4
:20E5D00002E000BFA04C0108BFF34F8FBFF36F8FE00301D5FFF7C1FF204610BDF0B5084CBA
:20E5F000236800201B6B0021C3F8840DD3F8800DC0F3C906C0F34E350CE04801002206E020
:20E61000A04C010850EA8277C3F8607F0132B242F8D90131A942F0D9BFF34F8FBFF36F8F0A
:20E630002068006B0021C0F8501FBFF34F8FBFF36F8FF0BD10B50446FFF7D0FF054B1968FD
:20E6500040F61453096BC85830F440302043C85002E000BFA04C0108BFF34F8FBFF36F8F94
:20E6700010BD70B543680268124C13402268124C526A13511351C3681BB14FF48755846864
:20E69000545144691CB141F2E40605699551007E012806D1234304D041F2EC030748D05091
:20E6B000D05801290DD1044BD05850F00040D050D05805E0A04C010808100000FFFFFFE00C
:20E6D00030BF70BD30B5464B1C680200646A01D1002008E0022041F2040563590B408B4238
:20E6F000F6D0013AF7D130BD30B505463C4A14683C4A646A0020A158C90704D4A8690221D9
:20E71000FFF7E0FF88B9374BE158C90205D44FF400116869FFF7D6FF38B9324BE158C90113
:20E7300003D4E869D905FFF7CDFF30BD70B50146002091B32A4B1A684FF4985512694FF45F
:20E7500080335459E40309D50C4641F204369559ED0702D4013CF8D11EE0ECB14FF49C5538
:20E7700054591C4009D00C4641F284369559ED0702D4013CF8D10FE074B14FF49D555459B4
:20E790001C400AD00C4641F2A433D158C90702D4013CF8D100E004B9022070BD30B50146EA
:20E7B0000F4B002041B11A680F4D526A5259920609D40139F7D105E019680B4C496A09594F
:20E7D000890600D4022030BD054B196841F20803496A064AC8581040C85070470000000066
:20E7F000A04C01080410000000100000FFC5FDFF30B5A8B1417B012912D130C86A4B1A68FA
:20E810000079926A55F0080312681A4015EA0401012801D151F00801914201D0012000E061
:20E83000002030BD10B5014691F8A9200020012A0BD15D4B41F208541A68C96C526A002963
:20E85000125902D5914200D0012010BD98B1417C012910D1544B02681968007C896A80311A
:20E87000096831F08051012801D152F000428A4201D0012000E00020704798B1C17C89B171
:20E89000817C01290ED1417C01290BD1464A11684068896A8431096831F00101884201D017
:20E8B000012000E00020704730B5011E14D03E48036841F21C555B6A0C685A5932F0C052D3
:20E8D0000120944209D10A7D012A05D141F2445449681A59914200D1002030BD80B1817D00
:20E8F00071B1314B8168407D1A684FF4A953526A0128D25800D10143914201D0012000E03A
:20E9100000207047F0B50446C16B002039B10A7B012A04D10846FFF76BFF002842D1E16C30
:20E930004FF00045002903D52046FFF77BFFC8BB216D1D4E00290AD594F8A41039B1316825
:20E9500041F20C53496A226DC9588A4229D1E76A6FB1397C012909D13846FFF777FF08BB15
:20E97000B97C012903D13846FFF787FFD0B9A76A67B13968294009D03846FFF795FF88B97C
:20E99000797D012903D13846FFF7A8FF50B9616D0D4007D0326841F21853526AD25891426C
:20E9B00000D00120F0BD0000A04C0108000000000000000030B50546FAF7FAF960B9112353
:20E9D00065200022114611F022FF112365200022114611F01CFF0EE08D4C8E482560FEF7A2
:20E9F00095FB2068417D090601D5817C6171FEF720FA0220207130BD30B50546844C207935
:20EA1000022803D12068FAF7D3F968B90F2365200222002111F0FBFE0F2365200222002190
:20EA300011F0F5FE01201CE02068C17CA94201D9006838B90B2365200222002111F0E7FEF4
:20EA50000B23EAE77348FEF761FB206865710068B02105FB01010220FEF754F9003818BF8F
:20EA7000012030BD30B56A4D00242879022803D12868FAF79DF938B90F23652003222146CE
:20EA900011F0C5FE0F2316E0FEF72DFA002817D06048FEF73BFB6879B0214143286800684E
:20EAB0004018FEF70EFA68B10E2365200322214611F0ADFE0E2365200322214611F0A7FE02
:20EAD000012407E06879B0214143286800684018FEF7D0F9204630BD10B54D4C2079022862
:20EAF00003D12068FAF764F968B90F2365200422002111F08CFE0F2365200422002111F0B3
:20EB100086FE02200EE0FEF7EEF90028F9D04148FEF7FCFA206861790068B02212FB010066
:20EB3000FEF7CFF910BD00B53B49087802280DD00F2365200522002111F069FE0F2365205D
:20EB50000522002111F063FE002001E0FEF7CEF900BD000010B52E4C2079022803D1206823
:20EB7000FAF726F960B90F2365200722002111F04EFE0F2365200722002111F048FE07E0DF
:20EB90002448FEF7C3FA21680120C968FEF7B2F910BD30B504461E4D2879022803D1286836
:20EBB000FAF706F938B90F2308226520002111F02EFE0F2325E02868017DA14210D940687C
:20EBD00070B13C2101FB04041248FEF79FFA2046FEF7C1F920B92046FEF720FA012807D157
:20EBF0000C2308226520002111F011FE0C2308E002280BD1802308226520002111F007FE60
:20EC1000802308226520002111F001FE30BD00005C54010890710310605401080000402397
:20EC300002466520002111F0F2BD7047412302466520002111F0EBBD704709487047094963
:20EC5000086870470849086870474FF4FA707047044908607047044801607047704700BF5B
:20EC7000C47103106454010868540108F0B582B0044601921D46084694F89C1000F02BF905
:20EC90000090019A00201060286001272168874039401ED083000F2600999E403140226917
:20ECB000D9403240DA408A4203D0530705D0490703D0019A116831431160C300032892BF76
:20ECD0006168203BA168D940C90602D029683943296001300828D8D302B0F0BDF0B587B060
:20ECF00006900C4600F06EF9002509E0426812EBC5014A680978204600F028F90135EDB2CB
:20ED1000069801788D42F1D300F05EF90022B5E0A42203FB021515F1840104910E7E00F0C4
:20ED300051F901AB6A4621462846FFF79FFF3146204600F0C7F80199EA6808408A430243E2
:20ED500005922969009A0A403146204600F0BEF815F19C07F97821B131462046002200F038
:20ED7000F9F8059A3146204600F0A8F86A683146204600F0E2F8AA683146204600F0E1F855
:20ED9000F978A1B3EA6B3146204600F0E7F800200290012102982A688140114010D0024663
:20EDB000800041190B6C05903146204600F0DBF8059841190B6E029A3146204600F0DAF812
:20EDD0000298013002900828E3D3D5F880203146204600F0D6F8049A31461268204600F0F3
:20EDF000D6F8049A31465268204600F0D6F86A693146204600F074F8AA693146204600F056
:20EE100074F80499097F21B1EA6A3146204600F085F8797949B12A6B3146204600F083F818
:20EE30006A6B3146204600F083F8B97849B1EA693146204600F05EF82A6A3146204600F0A3
:20EE50005EF86A6A3146204600F05EF8797821B1AA6A3146204600F05CF8F97821B1AA6B05
:20EE70003146204600F076F82A693146204600F02DF800F0A9F8039B0133DAB206980392A0
:20EE90001346427881689342FFF442AF9C310978204600F020F807B0F0BD30B50246002040
:20EEB000034607E00D6815EB0314A24200D101200133DBB24C7FA342F4D330BDC068C90199
:20EED00042507047C068C90140587047C06810EBC11042647047C06810EBC110406C7047F0
:20EEF000C06810EBC11082647047C06810EBC110C2647047C06810EBC11002657047C06866
:20EF100010EBC11042657047C06810EBC11082657047C06810EBC11002667047C06810EBEF
:20EF3000C11042667047C06810EBC11082667047C06810EBC110C2667047406809014250E7
:20EF50007047406810EB011042607047806840F8212070470069090242507047006910EBA4
:20EF7000012002617047006910EB0120203040F822307047006910EB0120403040F82230B1
:20EF90007047006910EB0120C0F8C0207047006910EB0120C0F8C4207047006910EB012079
:20EFB000C0F8F0207047406901607047806910EB812040F822307047806910EB812050F86E
:20EFD000220070470DF0E8B90DF02ABAF0B581B004460F460DF0E0F938460021FFF7E3FF07
:20EFF0000DF01EFAE2680092002635460DF0D4F900240DE0009B104611F1580253F82630A6
:20F01000B25C415C3846FFF7D1FF01360134E4B21649AA00881840888442EBD30DF000FA03
:20F030000135162DE2D3384600221146FFF7C4FF01B0F0BD30B50E4D04462946FFF72DFF69
:20F0500010B160780F2804D90C21002000F018F809E029462046FFF741FE29462046FFF7E8
:20F07000B5FF044A146030BD00000000E8710310C8710310A44C010800000000000000BFAD
:20F0900030B504460D460B4602467C20002111F0BEFB2B4622467C20002111F0B8FB30BD97
:20F0B00030B5002419E0104B8969DA6812EB04156001425840182A604168837B696013B980
:20F0D0000120288104E083892B81204600F090FA00206881A8810134E4B2044A116891F88D
