S00F0000474E375F50455F5750430000E7
S3251002800000B40008018C02109DA3021065A2021065A2021065A2021065A2021009A3021079
S3251002802009A3021009A3021009A302109DA0021009A3021009A3021009A30210519D021065
S32510028040519D0210519D0210519D0210519D0210519D0210519D0210519D0210519D021008
S32510028060519D0210519D0210519D0210519D0210519D0210519D0210519D0210519D0210E8
S3251002808009A3021009A3021009A3021009A3021009A3021009A3021009A3021009A30210D8
S325100280A009A3021009A3021009A3021009A3021009A3021009A3021009A3021009A30210B8
S325100280C009A3021009A3021009A3021009A3021009A3021009A3021009A3021009A3021098
S325100280E009A3021009A3021009A3021009A3021009A3021009A3021009A3021009A3021078
S3251002810009A3021009A3021009A3021009A3021009A3021009A3021009A3021009A3021057
S3251002812009A3021009A3021009A3021009A3021009A3021009A3021009A3021009A3021037
S3251002814009A3021009A3021009A3021009A3021009A3021009A3021009A3021009A3021017
S3251002816009A3021009A3021009A3021009A3021009A3021009A3021009A3021009A30210F7
S3251002818009A3021009A3021009A3021009A3021009A3021009A3021009A3021009A30210D7
S325100281A009A3021009A3021009A3021009A3021009A3021009A3021009A3021009A30210B7
S325100281C009A3021009A3021009A3021009A3021009A3021009A3021009A3021009A3021097
S325100281E009A3021009A3021009A3021009A3021009A3021009A3021009A3021009A3021077
S3251002820009A3021009A3021009A3021009A3021009A3021009A3021009A3021009A3021056
S3251002822009A3021009A3021009A3021009A3021009A3021009A3021009A3021009A3021036
S3251002824009A3021009A3021009A3021009A3021009A3021009A3021009A3021009A3021016
S3251002826009A3021009A3021009A3021009A3021009A3021009A3021009A3021009A30210F6
S3251002828009A3021009A3021009A3021009A3021009A3021009A3021009A3021009A30210D6
S325100282A009A3021009A3021009A3021009A3021009A3021009A3021009A3021009A30210B6
S325100282C009A3021009A3021009A3021009A3021009A3021009A3021009A3021009A3021096
S325100282E009A3021009A3021009A3021009A3021009A3021009A3021009A3021009A3021076
S3251002830009A3021009A3021009A3021009A3021009A3021009A3021009A3021009A3021055
S3251002832009A3021009A3021009A3021009A3021009A3021009A3021009A3021009A3021035
S3251002834009A3021009A3021009A3021009A3021009A3021009A3021009A3021009A3021015
S3251002836009A3021009A3021009A3021009A3021009A3021009A3021009A3021009A30210F5
S3251002838009A3021009A3021009A3021009A3021009A3021009A3021009A3021009A30210D5
S325100283A009A3021009A3021009A3021009A3021009A3021009A3021009A3021009A30210B5
S325100283C009A3021009A3021009A3021009A3021009A3021009A3021009A3021009A3021095
S325100283E009A3021009A3021009A3021009A3021009A3021009A3021009A30210FFFFFFFF37
S32510028400FFFFFFFFFFFFFFFFFFFFFFFFFFFFFFFFFFFFFFFFFFFFFFFFFFFFFFFFFFFFFFFF64
S32510028420FFFFFFFFFFFFFFFFFFFFFFFFFFFFFFFFFFFFFFFFFFFFFFFFFFFFFFFFFFFFFFFF44
S32510028440FFFFFFFFFFFFFFFFFFFFFFFFFFFFFFFFFFFFFFFFFFFFFFFFFFFFFFFFFFFFFFFF24
S32510028460FFFFFFFFFFFFFFFFFFFFFFFFFFFFFFFFFFFFFFFFFFFFFFFFFFFFFFFFFFFFFFFF04
S32510028480FFFFFFFFFFFFFFFFFFFFFFFFFFFFFFFFFFFFFFFFFFFFFFFFFFFFFFFFFFFFFFFFE4
S325100284A0FFFFFFFFFFFFFFFFFFFFFFFFFFFFFFFFFFFFFFFFFFFFFFFFFFFFFFFFFFFFFFFFC4
S325100284C0FFFFFFFFFFFFFFFFFFFFFFFFFFFFFFFFFFFFFFFFFFFFFFFFFFFFFFFFFFFFFFFFA4
S325100284E0FFFFFFFFFFFFFFFFFFFFFFFFFFFFFFFFFFFFFFFFFFFFFFFFFFFFFFFFFFFFFFFF84
S32510028500FFFFFFFFFFFFFFFFFFFFFFFFFFFFFFFFFFFFFFFFFFFFFFFFFFFFFFFFFFFFFFFF63
S32510028520FFFFFFFFFFFFFFFFFFFFFFFFFFFFFFFFFFFFFFFFFFFFFFFFFFFFFFFFFFFFFFFF43
S32510028540FFFFFFFFFFFFFFFFFFFFFFFFFFFFFFFFFFFFFFFFFFFFFFFFFFFFFFFFFFFFFFFF23
S32510028560FFFFFFFFFFFFFFFFFFFFFFFFFFFFFFFFFFFFFFFFFFFFFFFFFFFFFFFFFFFFFFFF03
S32510028580FFFFFFFFFFFFFFFFFFFFFFFFFFFFFFFFFFFFFFFFFFFFFFFFFFFFFFFFFFFFFFFFE3
S325100285A0FFFFFFFFFFFFFFFFFFFFFFFFFFFFFFFFFFFFFFFFFFFFFFFFFFFFFFFFFFFFFFFFC3
S325100285C0FFFFFFFFFFFFFFFFFFFFFFFFFFFFFFFFFFFFFFFFFFFFFFFFFFFFFFFFFFFFFFFFA3
S325100285E0FFFFFFFFFFFFFFFFFFFFFFFFFFFFFFFFFFFFFFFFFFFFFFFFFFFFFFFFFFFFFFFF83
S32510028600FFFFFFFFFFFFFFFFFFFFFFFFFFFFFFFFFFFFFFFFFFFFFFFFFFFFFFFFFFFFFFFF62
S32510028620FFFFFFFFFFFFFFFFFFFFFFFFFFFFFFFFFFFFFFFFFFFFFFFFFFFFFFFFFFFFFFFF42
S32510028640FFFFFFFFFFFFFFFFFFFFFFFFFFFFFFFFFFFFFFFFFFFFFFFFFFFFFFFFFFFFFFFF22
S32510028660FFFFFFFFFFFFFFFFFFFFFFFFFFFFFFFFFFFFFFFFFFFFFFFFFFFFFFFFFFFFFFFF02
S32510028680FFFFFFFFFFFFFFFFFFFFFFFFFFFFFFFFFFFFFFFFFFFFFFFFFFFFFFFFFFFFFFFFE2
S325100286A0FFFFFFFFFFFFFFFFFFFFFFFFFFFFFFFFFFFFFFFFFFFFFFFFFFFFFFFFFFFFFFFFC2
S325100286C0FFFFFFFFFFFFFFFFFFFFFFFFFFFFFFFFFFFFFFFFFFFFFFFFFFFFFFFFFFFFFFFFA2
S325100286E0FFFFFFFFFFFFFFFFFFFFFFFFFFFFFFFFFFFFFFFFFFFFFFFFFFFFFFFFFFFFFFFF82
S32510028700FFFFFFFFFFFFFFFFFFFFFFFFFFFFFFFFFFFFFFFFFFFFFFFFFFFFFFFFFFFFFFFF61
S32510028720FFFFFFFFFFFFFFFFFFFFFFFFFFFFFFFFFFFFFFFFFFFFFFFFFFFFFFFFFFFFFFFF41
S32510028740FFFFFFFFFFFFFFFFFFFFFFFFFFFFFFFFFFFFFFFFFFFFFFFFFFFFFFFFFFFFFFFF21
S32510028760FFFFFFFFFFFFFFFFFFFFFFFFFFFFFFFFFFFFFFFFFFFFFFFFFFFFFFFFFFFFFFFF01
S32510028780FFFFFFFFFFFFFFFFFFFFFFFFFFFFFFFFFFFFFFFFFFFFFFFFFFFFFFFFFFFFFFFFE1
S325100287A0FFFFFFFFFFFFFFFFFFFFFFFFFFFFFFFFFFFFFFFFFFFFFFFFFFFFFFFFFFFFFFFFC1
S325100287C0FFFFFFFFFFFFFFFFFFFFFFFFFFFFFFFFFFFFFFFFFFFFFFFFFFFFFFFFFFFFFFFFA1
S325100287E0FFFFFFFFFFFFFFFFFFFFFFFFFFFFFFFFFFFFFFFFFFFFFFFFFFFFFFFFFFFFFFFF81
S32510028800FFFFFFFFFFFFFFFFFFFFFFFFFFFFFFFFF8F60200008002100F880210008C021087
S32510028820FF7F0510FFFFFFFFFFFFFFFFFFFFFFFFFFFFFFFFFFFFFFFFFFFFFFFFFFFFFFFFA9
S32510028840FFFFFFFFFFFFFFFFFFFFFFFFFFFFFFFFFFFFFFFFFFFFFFFFFFFFFFFFFFFFFFFF20
S32510028860FFFFFFFFFFFFFFFFFFFFFFFFFFFFFFFFFFFFFFFFFFFFFFFFFFFFFFFFFFFFFFFF00
S32510028880FFFFFFFFFFFFFFFFFFFFFFFFFFFFFFFFFFFFFFFFFFFFFFFFFFFFFFFFFFFFFFFFE0
S325100288A0FFFFFFFFFFFFFFFFFFFFFFFFFFFFFFFFFFFFFFFFFFFFFFFFFFFFFFFFFFFFFFFFC0
S325100288C0FFFFFFFFFFFFFFFFFFFFFFFFFFFFFFFFFFFFFFFFFFFFFFFFFFFFFFFFFFFFFFFFA0
S325100288E0FFFFFFFFFFFFFFFFFFFFFFFFFFFFFFFFFFFFFFFFFFFFFFFFFFFFFFFFFFFFFFFF80
S32510028C001A4908684FEA102000F00F0090F00E0F08BF1749086820F00B000860BFF34F8FBA
S32510028C201449012008600220086013490020086012490020086012490120000708601149A0
S32510028C40002008601049102008600B490F4808600F494FF0010008600649032008600D4841
S32510028C600D490160BFF34F8F00F01CB8000020400C00204040C0264000C0264004C026404F
S32510028C8008C026400CC0264010C026400100008044C0264008ED00E00080021001808FE2E2
S32510028CA018FF2FE106460F46904600F0C1FF4FF014004FF0010110F0B7F948F6CB45C1F209
S32510028CC00205A5F101057A46A2EB05059146002803D131463A4643460AE04BF20040C0F612
S32510028CE0000085464FF000014FF000024FF0000340F20200012817D308D04EF68850CEF2D3
S32510028D000000046844F4700404600DE011EE500F40F4A00001EE500FBFF36F8FF8EE100AA2
S32510028D2040F08040E8EE100A4FF0000448F20000C1F20200814506DB48F20000C1F2050070
S32510028D40814500DC2C4645F28C40C1F20300A0EB040000EB05004FF000044FF000054FF0E9
S32510028D6000060BF01AFE00BFFDE70000000000BF000000B5002002F024FC0149086800BD02
S32510028D80500452400146002019B1024A914200D101207047E85603100349022003F060BD0D
S32510028DA00249002003F05CBD8001384080033840024A90420CBF012000207047A057031045
S32510028DC0024A90420CBF0120002070473858031005487047054908607047034A90420CBF9C
S32510028DE001200020704700BFFC6A0310604001080146002019B1024A914200D10120704789
S32510028E00BC6B031004280FDB104A402012180120106000BF0220106000BF0120506000BFD5
S32510028E200320106000BF10E0094A90215218000280180122026000BF0222026000BF012224
S32510028E40426000BF0322026000BF704700C02640008026400249086070470248704700BF66
S32510028E6000A0000810A0000800000C4A012010600B4A106830F0004010600A4A106850F0EA
S32510028E8000401060084A106830F480201060074A0020106062B6BFF36F8F704700F4244054
S32510028EA00004244008042440000024405403214010B5044600F0C6F9002114EB01102F4A3E
S32510028EC00069904202D101310F29F6D3CCB200F0BAF9204610BD10B500240146204600F05F
S32510028EE043F900B10124204610BDD0B50346244991F82C000969234A49681031002423B954
S32510028F00D4540133102BFBD304E02346D4540133102BFBD3194B27461E46D8C2103A1023D6
S32510028F2015F0F5F9D0BD10B500240146204600F035F900B10124204610BDE0B5104991F865
S32510028F402C000969002349680E4A0025D5540133102BF9D30C4E2F463346E8C2103A102337
S32510028F6015F0D5F9E0BD00B50849087815F008FA10B1012800D0022000BD00BF4224489046
S32510028F809CEA041094400108171280194C130108F0B582B008AC24780194079C00940BF02A
S32510028FA0D9FA003818BF012002B0F0BD00B50BF05AFB003818BF012000BD00B50BF067FB33
S32510028FC0844A003818BF01200021117000BD7047F0B58BB0074615461E464FF480600090C6
S32510028FE02020019081200290082103A80BF0D5FE794A40F2E9312846012314F037FA044693
S325100290001098119BC2190D21284614F02FFA6A46044328460E21042314F028FA02AA04436C
S3251002902028460F21042314F021FA0443284614F04DFA03AA044330462023012114F016FA51
S325100290400443304614F042FA0443E4B2F4B93146284614F0A1F901AB03AA044630460121B3
S3251002906014F0D0F9044311D121465C4803AB02685B5C535401311029F7D32146826803AB2D
S32510029080CB181B7C535401311029F7D320460BB0F0BD0000524A1068C0F3001090F001003C
S325100290A070470020704770B581B00224684603301CF036FDA8BB6846C0780A282FD04B4861
S325100290C0C3684B491A688A4223D105692E688E421FD10021CA1812794254421D4C1924792E
S325100290E0545401310529F5D30178412901D3E03101701178412901D3E03111700021445C35
S32510029100535CA3420BD80CD3002401310529F6D308E0013206D100690068884202D1002410
S3251002912000E00224204601B070BD0020704770477047704700207047009931200870012077
S325100291407047019931200870012070470120704731201870012070470099312008700120F9
S32510029160704700207047704710B582B02548012402692C305268019200782202009229B9E5
S325100291806B4601AA214615F009F920B90198FFF78FFE00B10024204602B010BD10B582B047
S325100291A01848012402692C305268019200782202009229B96B4601AA214615F0EFF830BB54
S325100291C00198114A0168914221D1806890421ED11CE000BF4B13010850130108044B0108C6
S325100291E0001826400CED00E00000FA050054010869626F6D0000000000800212008C0212C9
S32510029200088902129CEA0410171280190024204602B010BD012070477047000000207047C6
S3251002922000207047002070470020704700207047002070470020704700207047002070475E
S32510029240002070477047704701460E4823F09CB801460C4823F06AB80A4822F056BE4FF422
S32510029260967102201AF0E8BA4FF4967101201AF0E3BA05490120086070470349002008608D
S32510029280704700BFC040010800F4244000B514F0F7FF13F049FA9C49012008709B49087010
S325100292A09B49002008709B4908709B4908709B4908709B4908609B49087000BDF0B582B0CA
S325100292C01D4601200021197001ABD870964C974E7AB997493270104614F056FF944A012129
S325100292E0107815F08CF8032020700C200021297007E1012A02D0032A40F003812078033813
S325100293000D2800F2FB8001A1D1E800F00714243266F8F88A959FC6F1F6F4FFF7C4FE08B9A9
S3251002932004200BE0022855D10C2020700020009040230CE0FFF7F9FE10B90520207049E067
S32510029340022847D111202070002000904123FF2005223CE00020FFF7E6FD08B906202BE091
S32510029360112020700020009031231022FF202EE03078D91C14F03BFF9DF80700070018BF5C
S32510029380012730780021FFF7EFFE317878B9481C3070307840B9664914F0F6FE644A0121EB
S325100293A0107815F02CF808E00A20207005E03846FFF79BFD20B9072020700020287009E020
S325100293C011202070002000901022FF200523002114F027FE0A2094E0FFF7C5FDB0B93078DA
S325100293E00021FFF7C1FE98B9307801303070307850B94F4914F0C8FE4D4A0121107814F05D
S32510029400FEFF0620207070E00A20FBE702286CD11120207000200090FF200623052261E09D
S3251002942014F095FF08B90B20ECE71120207001200090242344E0002014F0A2FF08B90E202C
S32510029440E0E7022851D1112046E03078FFF729FEC0B9374B0121187814F0D1FF3548344B48
S3251002946041698069401A421C187814F035FF08B90D20C7E710202070012000901022FF2063
S3251002948003232FE02C4A30781178013988421ADB002030701020B5E72549087814F070FFF2
S325100294A0012822D0B8B9244A307811780139884209DB0020307010202070012000902D2300
S325100294C01022FF200EE0013030701949307814F05BFE0C2096E710202070012000901022B1
S325100294E0FF200723002114F09CFD0A20FEE60020287006E0F42002E0722000E01020287071
S32510029500012002B0F0BD00BF51130108521301085313010854130108551301084B13010862
S32510029520E0400108385401081A5401084E1301084C1301089CEA041026540108F0B583B017
S32510029540089CC94D10202070C84F92BB0846C8496A7114F028FEC64A0646C649107814F0BA
S3251002956013FEC44AC449107814F067FF86B9C3490878012819D12868B8B114F07DFB061E3E
S3251002958001D022202070BD4900200870286066B12078222801D03120207000960E22FF205A
S325100295A00123002114F03DFDA4E0042038700C26A0E0032A02D0012A40F0958038780238B5
S325100295C0072800F28C8001A1D1E800F0040D216476898987012014F04DF808B90320387060
S325100295E00020207054E014F056F830B9A04AA149107814F0C9FD042038E00128F0D00920C0
S325100296003870002000900E22FF2003233DE09C490878002844D1964A9649107814F0B4FDAA
S32510029620934A30211078934A4843964946181078012114F0E4FE7269B0690192801A421CA8
S325100296407068029218B100214068297128600299019814F0D5FD060011D1864B029A0199D9
S32510029660187814F039FE002801D10520B7E7072038700020009025230E22FF2005E00096B9
S32510029680072038700E22FF200223002114F0C9FC0A262FE07749087814F072FE012801D197
S325100296A00A2603E00A2620B9062038700020207020E0072038701DE06979012901D10A2024
S325100296C003E00020022900D10B201870002020706D490120002608700CE0102000E072200D
S325100296E02070012606E00226022A03D16149087814F0DAFD304603B0F0BDF0B583B0019247
S325100297000293099C40F60201089A604F11600521397601286BD85C4908780138012845D817
S3251002972001985B4E14F0BDFC012843D1029814F0D5FC01281DD1307B012803BF24202070E5
S3251002974001250025002038765249FF20087001203073002D4CD101980299024600252B4686
S325100297602FC7E9433160484935710520087025703EE031203AE0019814F0E8FC01280AD1A7
S325100297800299B1F5847F02D102203876E3E731202070012502E001253120207000950C224D
S325100297A0FF200223002114F03CFC21E00125242020701DE0019814F0A6FC0128DBD1354A65
S325100297C03876B1681078242250430A5C012AC2D1327B012A09D1294A1278002ABBD1401868
S325100297E0406814F0F9F90028B5D0222020700125284603B0F0BDF0B583B00292244D00283B
S3251002980052D121491E46087805286AD128680299884245D01D4C277E022F00D077B9164AAE
S325100298201946106801900BF06CFD38B1019A101A8119E16061680918616000E0E660022FB9
S325100298400BD1154F4FF40072FF2138460BF04CF83246089938460BF08BF80899616102990B
S32510029860296001241AE000BFE04001081C5401084E1301084C130108305401084B13010801
S32510029880385401089CEA041051130108E84A0108D840010824540108E64801082C712CE057
S325100298A0022400943C2323E0032801D001281CD1C2490878042812D0052812D1287970B9EF
S325100298C0BF4C60682169884207D9E368A068C018A060581820610024E0E702240DE001242A
S325100298E00BE0022400943D2302E0022400943F230D22FF20002114F094FB204603B0F0BD85
S3251002990010B581B000201870AD48AC4942680069824203D10220087000240BE02420187087
S3251002992007200124009408700822FF200223002114F077FB204601B010BD70B582B0069CD5
S3251002994040F602009F4D019010202070002642B99D4A9E49107814F017FC2E700C2026708C
S32510029960A2E0012A02D0032A40F09D802878012817D32ED0062836D0072846D00928C0F0CB
S32510029980868056D00B2865D340F081808F4A3146107814F034FD894A267002201070304659
S325100299A082E08B490878012866D18A498A4A01AB08782421484311684018884A4168052065
S325100299C014F040F9002857D02670092028700A206AE014F08AFD01284DD008BB77490220A2
S325100299E00870062046E0784A31461078FFF7D6FB70B175490878FFF7A0FA08B9072039E013
S32510029A000096FF2005231A460EE0FFF7ACFA08B90B202FE0022838D10096FF20062302E079
S32510029A200096FF2007230522314614F0FAFA092020E06B48654B41698069401A421C187832
S32510029A4014F04AFC08B90A2014E001200090FF2003230AE05D49087814F092FC01280AD02A
S32510029A6038B101200090FF2004230522314614F0D8FA0D20287008E05A49087814F030FD79
S32510029A804E4906200870012028700A2067E74F4A0121107814F0B3FC72202070474A01207E
S32510029AA00721117000E0012002B070BD10B50C4608B913F0DFFD0020207010BDF0B582B0FA
S32510029AC03E4D2978012909D04748042971D344D0062906D36DD114F0F0FE6AE0FFF777FA42
S32510029AE067E00179012964D1354C04212970217E29B92046052114F09FFA07462BE00129C3
S32510029B0016D1334A1178012914D101B4314F334E6169387814F10C0324273246474301BCE3
S32510029B2080683818406814F076F86661D8BB01E02E486061254EE3686269A168307814F00B
S32510029B40E6FB0746012806D10090FF2005230322002114F066FA67B325E0061D007901285A
S32510029B6027D1174C207E18B914F052FA012811D11649087814F004FC02280AD1012000900F
S32510029B80FF2006230322002114F04BFA0020307009E070B9207E40B92046042114F04CFA98
S32510029BA0022806D008B1072002E0002030700520287013F0BAFD02B0F0BD00BF5113010809
S32510029BC0E84A01081B5401084E1301084C1301084B13010824540108E0400108E6400108A8
S32510029BE09CEA04104D130108D8400108E6480108D8EF0410DCEF0410D8EF0410DCEF04107E
S32510029C00002814D00C68254626462746A046A146A246A3464A688B6802EB030323E9F00F27
S32510029C209A42FBD1A0F1010001F10C01E8E77047F4461AF026FB32480068324910EA01028E
S32510029C401BD1314800680121090410EA010214D12B4800682D4910EA01022B4800682C4970
S32510029C6010EA010342EA0302002A0DD129480068FF2110EA010200D106E05FF884000068A5
S32510029C805FF88810FFF7BCFF1AF0FCFA16F073FF21480921016021480168214A41EA020135
S32510029CA0016020484FF0000101601F484FF0010101601E480160E64670471D481D49102272
S32510029CC0016000F10400A2F10102002AF8D11A4801601A48012101600221016018480021E0
S32510029CE00160184800210160174810210160144816490160114803210160FEE7704700BFC3
S32510029D00001826400100FF7104182640FF01FF77FFFF01000810264040022040540121406F
S32510029D20000004280C012140C0012140C8012140401320400200FA058813204040C0264010
S32510029D4000C0264008C0264010C026400100008071B61EF0040F33D0EFF3098084460CF163
S32510029D60200C20E9F05FA0F10400A0F10400F1EE101A016020ED200B80F30988C14A4DF827
S32510029D8004AD5DF804AB1278002A78D1DFF868242DE90804BDE8080412681268A2EC200B16
S32510029DA0116002F1040202F10402A2E8F05F00F1B00090E8F00F82E8F00F4FF000044BE060
S32510029DC006A8EC460CF1200C2DE9F05F81B081B0F1EE101A00912DED200BAA4A4DF804ADD2
S32510029DE05DF804AB1278002A49D14FF000040068AFF2A40181421DD021466846FE4A2DE965
S32510029E000804BDE808041268126808B4A2EC200BF1EE103A136002F1040202F1040208BCB2
S32510029E20A2E8F05F00F1B00090E8F00F82E8F00F0C4611E04FF0010496482DE90804BDE884
S32510029E400804EFF30981016093482DE90804BDE80804EFF3088101608C484DF804AD5DF878
S32510029E6004AB007800280AD082482DE90804BDE80804006840F804DCA0F104008546EFF342
S32510029E8005800F2858D0794901EB000109784FEA51114FEA8103014A02E000BF00012040F1
S32510029EA02DE90006BDE80006D05810F0004F00F0838040F2FF3210EA0203694A4FEA4303C5
S32510029EC0D05A6E4A1288914238DC6D494FEA80000A5864494DF804AD5DF804AB087800F11E
S32510029EE00100087067494DF804AD5DF804AB087800F1010008702DE90044964661B6F047B9
S32510029F0071B6BDE800445F494DF804AD5DF804AB087800F1FF30087052494DF804AD5DF879
S32510029F2004AB087800F1FF3008702DE9004418F048F9BDE800445BE055490868002C24D04D
S32510029F40AD4A2DE90804BDE8080412681268DFF83CB14DF804AD5DF804AB9BF800B0BBF17E
S32510029F60000F02D1EFF3098C09E0DFF82CB12DE90804BDE80804DBF800B0DC46FFE70CF178
S32510029F80D00C02F1A802C2F800C021462DE9004417F022FEBDE8004499494DF804AD5DF8B8
S32510029FA004AB4FF000020A70FF25314E356000281ED0DFF8B4E07047002C19D13149334AA2
S32510029FC04DF804AD5DF804AB0978002910D11278002A0DD18949884A2DE90804BDE80804DB
S32510029FE0096812689268914202D0DFF87CE070471EF0040F13D0EFF30980B0EC200B016836
S3251002A000E1EE101A00F1040000F10400B0E8F05F80F30988BFF34F8FBFF36F8F7047194802
S3251002A0204DF804AD5DF804AB0078002809D117484DF804AD5DF804AB0078002801D0009832
S3251002A0408546BDEC200B0099E1EE101A01B001B0BDE8F05FBFF34F8FBFF36F8F704700BFAB
S3251002A06020F00410721D0108011A0410F0E300E080E200E0581D01085C1D010822FC0410B6
S3251002A08018F00410741D0108D91B0410751D01081CF00410601D0108641D010871B61EF0EA
S3251002A0A0040F12D0EFF309830CB49C4623E9F05FA3F10403A3F10403F1EE102A1A6023ED4F
S3251002A0C0200B83F309880CBC0DE0EFF30883EC462DE9F05F02B481B081B0F1EE101A0091CB
S3251002A0E02DED200B02BC03F118031B686FF0010C63441B78442B54DA2DE908045FF89C302B
S3251002A10093F800C00CF1010C83F800C0BDE80804DFF8F0C04FEA83039C442DE90044DCF892
S3251002A12000E0F047BDE800445FF8C8104DF804AD5DF804AB0A7802F1FF320A7030494DF800
S3251002A14004AD5DF804AB0A78002A2AD0042A22D101B4294A12681268EFF3098002B4B0EC92
S3251002A160200B0168E1EE101A00F1040000F10400A2EC200B116002F1040202F1040202BC76
S3251002A180B0E8F05F0CF1200CA2E8F05F90E8F00F10BC82E8F00F4FF000020A705FF838E1E7
S3251002A1A070471EF0040F16D0EFF3098104B4B1EC200B0A68E1EE102A01F1040101F1040174
S3251002A1C004BCB1E8F05F81F309880860BFF34F8FBFF36F8F704702B4BDEC200B0099E1EE69
S3251002A1E0101A01B001B002BCBDE8F05F0090BFF34F8FBFF36F8F7047681E01086C1E010860
S3251002A200731D010830FC0410000020405FF898112DE90006BDE80006096881F3088800F1C0
S3251002A220B00999E8FE01D0F8A890D0F8ACE029E9FE01494600F1880292E8F00F00F1800272
S3251002A2401368E1EE103A90EC200B1EF0040F02D081F3098801E081F30888BFF34F8FBFF38C
S3251002A2606F8F70471EF0040F12D0EFF3098084460CF1200C20E9F05FA0F10400A0F104002E
S3251002A280F1EE101A016020ED200B80F309880AE0EC462DE9F05F81B081B0F1EE101A009183
S3251002A2A02DED200B68462DE90044EFF30581DFF854E0F047BDE800441EF0040F13D0EFF3C0
S3251002A2C00980B0EC200B0168E1EE101A00F1040000F10400B0E8F05F80F30988BFF34F8F4F
S3251002A2E0BFF36F8F7047BDEC200B0099E1EE101A01B001B0BDE8F05FBFF34F8FBFF36F8FE3
S3251002A300704700BFD12104101EF0040F12D0EFF3098084460CF1200C20E9F05FA0F104005B
S3251002A320A0F10400F1EE101A016020ED200B80F3098809E0EC462DE9F05F81B081B0F1EE09
S3251002A340101A00912DED200B2DE90044DFF848E0F047BDE800441EF0040F0FD0EFF3098001
S3251002A360B0EC200B0168E1EE101A00F1040000F10400B0E8F05F80F309887047BDEC200B3C
S3251002A3800099E1EE101A01B001B0BDE8F05FBFF34F8FBFF36F8F70472F2204101EF0040F40
S3251002A3A012D0EFF3098084460CF1200C20E9F05FA0F10400A0F10400F1EE101A016020ED4C
S3251002A3C0200B80F3098809E0EC462DE9F05F81B081B0F1EE101A00912DED200B2DE900441B
S3251002A3E0DFF848E0F047BDE800441EF0040F0FD0EFF30980B0EC200B0168E1EE101A00F1A1
S3251002A400040000F10400B0E8F05F80F309887047BDEC200B0099E1EE101A01B001B0BDE81C
S3251002A420F05FBFF34F8FBFF36F8F7047E5410410EFF30880704700BF80F30888BFF36F8FF1
S3251002A440704700BF70B55FF8D4432DE90006BDE8000624689E466D46A546F047AD46BDE837
S3251002A46070407047F1EE100A704700BF0000000000000000000000000000000000000000EE
S3251002A48000000000000000000000000000000000000000000000000000000000B0FA80F08A
S3251002A4A07047000070B506460D4601F097FC287AFF280FBF01240024013028723046002143
S3251002A4C000F039F901F08CFC204670BD70B505460E4601F083FC307A08B9012402E000246C
S3251002A4E00138C0B23072002100B90121284600F022F901F075FC204670BD00F0E1B910B53E
S3251002A500497A012401290ED30ED0032905D00AD200F0DEF8022807D103E000F0D9F80328DE
S3251002A52002D1044600E00024204610BD70B505460E46002401F052FC284600F0C9F8012840
S3251002A5400BD1284600F0A3F90446707A022804D101207072284600F08CF901F041FC204660
S3251002A56070BD70B505460E46002401F037FC284600F0AEF801280CD1284600F08DF9044652
S3251002A580707A0238012804D801207072284600F070F901F025FC204670BDF0B517460024E5
S3251002A5A00E46054600F0ECFB28B13A463146284600F004FD04462046F0BD00F0FABE30B5F4
S3251002A5C004460D4601F00AFC2946204600F0D8FB60B101206872204600F04BF90120A87256
S3251002A5E001F0FEFB204601F0F6FB01E001F0F8FB30BD30B505460C46002088720146207AE2
S3251002A60000B90121284600F096F8224621682846012300F096F830BD30B50C46054600F0FB
S3251002A6200DFF284600F025FE00212176207AE17200B90121284600F07EF8224621682846C2
S3251002A640002300F07EF830BD000010B50C460021217600F00EF90120607210BD1949085C20
S3251002A66070471949085C70471849085C704710B582B005AC2478019404AC2478009400F069
S3251002A680E9FE02B010BD00F04FBF10B5044600F0A3FE204600F0B5FD10BD00F069BF90F829
S3251002A6A05110012900F01381704710B504460122002100F017F920460122114600F012F98E
S3251002A6C010BD0000C0700310B8700310D070031000B590F85010406A00F07FF90146C00707
S3251002A6E003D4890603D4022002E0012000E0032000BDF0B506460C46002701F06FFB96F8CD
S3251002A7005010706A00F069F9C1070AD4617A012905D10325800600D4022565720F4601241A
S3251002A72000E03C4601F05CFB1FB12946304601F0DCF92046F0BD0A4690F85010406A00F0F7
S3251002A74009BAF0B587B00746059306920C46456A90F85060104600228088049200B908882D
S3251002A76009790139C9B20191A1790139C9B2009161794B1EDBB2421E92B23146284600F04F
S3251002A7805EF9227BFF2A05D0012004903146284600F0C4FA0698C08800B9208A217A013949
S3251002A7A0C9B20191A17A0139C9B20091617A049A4B1E0292DBB2421E92B23146284600F097
S3251002A7C081F931462846002200F0F1F931462846002200F05DFA31462846002200F05CFA6B
S3251002A7E07FF000023146284600F094F8B98A4B06090A404AB87D049251430B4310EB800016
S3251002A800314653EA802050F40012284600F09AF9F87D059A38495043049B484302FB1331F2
S3251002A8207B7D59430843354908433146C243284600F08CF9059A3146E379284613B900F05D
S3251002A840A4F902E0E37A00F089F903A8032101F0C9FA044606993846FFF74BFF0546039882
S3251002A8600322052101F0BDF928432043F2D007B0F0BD30B5054610F150042178406A0022F0
S3251002A88000F060F92178686A00F040F930BD90F85010406A00F0BDB870B50646002410F149
S3251002A8A050052978406A00F059F84FF40012800204D52978706A00F02DF80124204670BDA7
S3251002A8C04FF0007290F85010406A00F023B810B50446406A00F0ADF818B9606A012100F057
S3251002A8E03BFA10BD13460A4690F85010406A00F022BA00BF99000800110008000014200288
S3251002A90003490878704700000149012008707047544D010810EB41200265704710EB412082
S3251002A92001219140C0F89810B2F1200101228A40C0F89C20704700000000000010EB412074
S3251002A940F4300068C0B2704781B010EB4120F430006800906846407801B0704710EB412057
S3251002A960006D7047000010B510EB4124D4F89C00FFF794FDC0B220280CD3D4F89800FFF794
S3251002A9808DFDC0B2FF21202802D2D0F11F01C9B2084602E0D0F13F00C0B210BD82B010EB6F
S3251002A9A041201AB9A4300068009002E0B43000680190C0B202B0704782B010EB41202AB974
S3251002A9C0A430006800906846407804E0B430006801909DF8050002B0704710EB4120806924
S3251002A9E0704710EB4121D1F8DC00D83109688843D04000F00100704710EB4120C4300068D1
S3251002AA00C0F30440704710EB4120406C00F00700704710EB4120406CC0F3C010704710EB7D
S3251002AA204120D0F8A801704710EB4120D0F8B80170474FF484514058C0F30040704730B5A2
S3251002AA4081B08D4D10EB41202C6805AD00942D7865F35F226D466A806B7004AD2D78009AB7
S3251002AA6065F306020092C26101B030BD81B010EB4120D0F8F8106B4600911A700099C0F891
S3251002AA80F81001B0704710B581B06C46A27023800122E27010EB41200099C0F8F01001B0FE
S3251002AAA010BD81B010EB4120D0F88810009169460A808B700099C0F888107049C0F8901005
S3251002AAC001B0704760B581B06D4E356862F314456E460095737004AE3678320105AE36788A
S3251002AAE006F00F036E461A43327006AE3678009B66F3D75310EB41200093C36001B060BD23
S3251002AB0010EB4120C0F880207047000082B010EB41239869009069460120087000989861B7
S3251002AB2040F2051099690191C9B2012901D00138F8D298690090694603200870009898613D
S3251002AB4002B0704710EB41204265704710EB41208265704710EB4120C265704750B581B050
S3251002AB60484E346854F0030462F345145A0052F0010666F3092410EB4120009484618169AA
S3251002AB8031F00301816101B050BD20B581B03E4D2B6853F0030362F3451310EB41200093CF
S3251002ABA08361816931F00301816101B020BD10EB41204261704781B010EB4120D0F8AC1053
S3251002ABC06B4600911A800099C0F8AC1001B0704730B581B02D4D10EB41202C68009462F3A3
S3251002ABE0020404AD63F306142D7865F30A24C0F8BC4001B030BD82B010EB41203AB9D0F850
S3251002AC00A8106A46009113700099A82206E0D0F8B81001918DF804300199B822115002B0F5
S3251002AC20704730B582B0BDF8144010EB412053F4807542B9D0F8A0106A4600911480558070
S3251002AC400099A02207E0D0F8B01001AA0191558014800199B022115002B030BD81B010EBD4
S3251002AC604120D0F88410009169460A808B700099C0F8841001B0704718710310FFFFFF1F35
S3251002AC801C71031020710310247103102871031010EB41208262704710EB41200262704796
S3251002ACA010EB412001219140C0F8D0107047F0B581B0314E01241546376864F39F1537F038
S3251002ACC0FE4252EA056200926E4606AFB3703F88378010EB41200099C0F8C01001B0F0BD02
S3251002ACE010EB4120C0F8E420704710EB412001219140C0F8D410704781B010EB4120D0F876
S3251002AD00C8106B4600911A700099C0F8C81001B0704710EB4120C0F8E020704710B581B025
S3251002AD20164C10EB412023686C46009362700099816401B010BD10B581B010EB4121D1F883
S3251002AD408001002A0CBF63F3000063F341000090C1F8800101B010BD10B54FF484540359F4
S3251002AD6061F31043035110BD31F0030289071058C90EC840C0B270472C7103103071031069
S3251002AD8030B50D4690F85010406A0024FFF7E6FD2A7EDA49012A00D1D949084000D00124AE
S3251002ADA0204630BDF0B581B006460F46426A90F85050009229461046FFF7D0FD4FF0C05272
S3251002ADC0104003D000982946FFF7A4FD002415E00068182104FB0100807D01280DD1009844
S3251002ADE02946FFF710FE410707D000F00700072803D03946304600F030FF0134787E18B9A0
S3251002AE00386941688C42E3D301B0F0BDF0B583B017461E46436A009390F85030019311B9AF
S3251002AE20B84C303001E0B84C3A304078FFF719FC029001990098A0470546400003D4C5F3BF
S3251002AE408A40306006E035F0604050F0004030608020387001990098A0470546000C810686
S3251002AE6008D5316851F08041316000F00F00FFF7F5FB06E0089900F00F000870082803D9C2
S3251002AE800820089908700878029988429F4934BF0120002008703878C5F30661084338701E
S3251002AEA0089800788610800700D00136002507E001990098A047099B43F825000135EDB240
S3251002AEC0B542F5D303B0F0BDF0B581B000911646069F1D468469428DA41828304078FFF7F2
S3251002AEE0C0FB08300099C0B201FB00442068420003D4C0F38A40286006E030F0604050F070
S3251002AF00004028608020307020460621FFF72CFF820608D52A6852F080422A6000F00F00DF
S3251002AF20FFF79CFB05E000F00F003870082801D90820387020460721FFF716FF00F07F02FC
S3251002AF4030781043307038788210800700D00132002006E0830007991D19AD685D50013020
S3251002AF60C0B29042F6D301B0F0BDD0B595B006460F4611461C4600200490ADF80E0005A816
S3251002AF80019006380090831C421C3046012902D8FFF73CFF02E02146FFF796FF19AC24785D
S3251002AFA0029405A803AC0190A078049B0090E2783946304600F0ACFE15B0D0BDF0B586B099
S3251002AFC003AB07C34D4A90F85060456A0C460020029031462846FFF79DFC237E012B03D14A
S3251002AFE004990398FFF7DEFE31462846FFF7BBFC01904024019F3F2F15D805983B460090FF
S3251002B00003980499FF22FFF7B0FF3A4631462846FFF784FC31462846FFF7A5FC0190013CF5
S3251002B020E4B2002CE6D10027402419E03A4631462846FFF7C1FC0190034605980090039841
S3251002B04004993A46FFF791FF30480378012B05D1019B3A4631462846FFF7CDFD013CE4B2AC
S3251002B0603A4631462846FFF799FC002801D9002CDCD10137022FD7D331462846FFF76EFC95
S3251002B08010F0880306D0882231462846FFF742FC01200290029806B0F0BDF0B587B0069250
S3251002B0A00591054695F8503000936B8A446AE86A16780490A8690194C21803922B8A0F788F
S3251002B0C06A8DC118029100992046FFF774FD002429E0019800992246FFF720FC049850F8D2
S3251002B0E02400002814D4039A54EA004050F0605042F827000137FFB213E000BF11000800E4
S3251002B100110008181FAA021029AA0210554D0108029AF30050F060409850D0184460013661
S3251002B120F6B20134E4B295F82800A042D1D8059807700698067007B0F0BDF0B589B0079142
S3251002B14008921C460E46416A154610F138020291478A8369117EDF190697078A3678DB199F
S3251002B16003932D78034644B94FF0005730330597BF100497476B107807E04FF080473A33A3
S3251002B1800597BF100497076C107B0190588800901B7802982246FFF744FD002028E017EB9C
S3251002B1A0C00423684FF00041002B0ED464685B051A0C62F3DF24049A54EA0203069A194314
S3251002B1C042F826100136F6B210E003B4EA000599079833F060430343535064688A1834F0F9
S3251002B1E0604403BC0C4354600135EDB20130C0B201998142D3D8079806700898057009B06E
S3251002B200F0BDF0B582B0044690F85060456A002001AF3F22788031462846FFF771FC94F864
S3251002B2202900009094F83B3094F8312031462846FFF7CEFCFA1CB91C2046FFF72EFF2046EA
S3251002B240FA1CB91C0023FFF778FF2046FA1CB91C0123FFF772FFFB78228A31462846FFF785
S3251002B26020FCBB78628A31462846FFF7F7FC02B0F0BDF0B50546466A90F85070002406E05C
S3251002B280224639463046FFF749FB0134E4B295F82800A042F4D8F0BDF0B582B00746456A51
S3251002B2A090F8506020241BE031462846FFF74CFB0090C000C11DF889BA698018FFF754FD2C
S3251002B2C04FF48052019031462846FFF723FB009A31462846FFF7CAFB019800F06EFDE4B2F3
S3251002B2E031462846FFF72AFB002801D9013CDBD202B0F0BDF0B596B00646436A90F850101F
S3251002B3000293184696F8463003914FF480620593FFF700FB002447E0029803992246FFF7FD
S3251002B32060FBF8B3B56996F84700FFF79AF9B6F84810083004FB0010281801900721FFF737
S3251002B34013FD049000F096FD4FF6FF71884229D001980621FFF708FD00F00F0501980621B7
S3251002B360FFF702FD800604D52846FFF777F9054602E0082D00D90825AA08D2B2A80701D06F
S3251002B3800132D2B2002006E0019B8700FB189B687B500130C0B206A99042F5D304982A46DC
S3251002B3A000F0F5FC0134E4B20598A042B4D816B0F0BD30B5044690F85010606AFFF7CEFAAC
S3251002B3C00546C00402D52046FFF766FF680502D52046FFF78FFF30BDF0B581B00446E38907
S3251002B3E090F85060227B456A31462846FFF74BFB4434A0880090A378A27931462846FFF74F
S3251002B40056FCE27831462846FFF776FC4FF4A05231462846FFF77EFAA178D1F120007FF029
S3251002B4200007C7403A4631462846FFF759FC3A4631462846FFF76DFC01B0F0BD90F8461036
S3251002B440D1F120017FF00002CA4090F85010406AFFF746BCF0B586B00546059104929DF805
S3251002B4602C701E46426A029290F850100191996818680391040059BF4005C408022161F341
S3251002B4805F7495F84600B84204D801991046FFF7B3FA07460097AF6995F84700FFF7E1F8E6
S3251002B4A00099B5F84830083001FB003004993C503D18080650F400043079FFF7D5F8059F6E
S3251002B4C003073F6854EA1334FB79012B09D133685B0006D5FB7A54F40014012B01D154F4BC
S3251002B4E080146C600835FFF7B9F8002312E0002427463179FA189142CBBF03990CAA895CFA
S3251002B5001178FA0091400C430137042FF1D310C50433DBB28342EAD36A460BCA02461846FB
S3251002B520FFF7BEFB06B0F0BDF0B581B004460D4616461F468269463000924078FFF791F883
S3251002B540083000FB05F1B4F84800009A4018105830F06040B04203D8012F07D1B04205D1FF
S3251002B560606A94F850102A46FFF7BFFB01B0F0BD70B590F85050446A294620460022FFF797
S3251002B580AFFB0026324629462046FFF7AEFB01361F2EF7D900260AE029462046FFF7D4F9DB
S3251002B5A0294602462046FFF761FA0136F6B229462046FFF7C3F9002801D91F2EECD970BD5E
S3251002B5C0000030B50446FFF79BF9F0B1204600F069FD044600F034FC0546204600F03FFCF7
S3251002B5E0044605B124B92121042000F0EAFA42E02846FEF782FF21462846FEF780FF0128A4
S3251002B60003D305D0032819D32ED021210520ECE7287D01282FD121462846FEF787FF10B139
S3251002B620284600F05FFA21462846FEF79AFF10B321210E20012200F0F3FB1CE0A87D01285A
S3251002B64004D1207E10B92846FEF7B7FF687D012811D1212221462846FEF79FFF58B10120B8
S3251002B660E07221210720C0E7E87D012803D121462846FEF7A4FF30BD000070B505460E46D0
S3251002B6800024012A09D313D0032A0ED310D00321062000F096FA012410E0007900F00CFD45
S3251002B6A031462846FEF7B8FF08E0FEF7A2FF05E0FEF7CBFF2846012100F017FA204670BD9B
S3251002B6C070B505460E460024012A0FD312D1FEF7E4FF314628460322FEF75FFF50B93146C5
S3251002B6E02846FEF7B2FF2846012100E0022100F0FCF904E00321062000F063FA01242046A0
S3251002B70070BD30B50024022A07D0032A09D10546FEF79BFF2846012100E0032100F0E5F995
S3251002B72004E00321062000F04CFA0124204630BDF0B505460F460126FFF7E2F808B90520F3
S3251002B74032E0284600F07CFB0446284600F087FB05460CB1290001D1042025E02046FEF739
S3251002B760A1FE00BB29462046FEF7C9FE3A4629460346012B20460DD305D0032B07D309D165
S3251002B780FFF7BFFF01E0FFF778FF064606E0FFF797FFFAE70321052000F013FA29462046D5
S3251002B7A0FEF794FE18B11020032100F00AFA3046F0BD002807D440F2FF7130F08040884267
S3251002B7C006D8002005E0C64930F040408842F8D901207047F0B515461E4600240F46FEF77A
S3251002B7E08EFE0121022801D031700C463868C07920B9680002D505980C4601702046F0BD31
S3251002B80007B49DF80400402807D8082807D91868C07910B10098400001D4012000E000201D
S3251002B82003B070470CB4F0B585B007469DF834600D460C98002420B90621012000F0C1F990
S3251002B84001240C220AA902A809F092F802AA2B4607CAFFF7D5FF01280AD10621032000F0A7
S3251002B860B0F901244FF6FF71304600F033FB0DE0002CF7D10EAA0AAB12780FA801920078FF
S3251002B8803246009029463846FEF7F1FE204605B0BDE8F04002B070470000F0B58DB0054631
S3251002B8A00F460024FFF72CF820B90621052000F088F9012417B9062101201CE0002C40F0B2
S3251002B8C0A88038798DF82C003E680A96B868B9890C9009913046FFF76CFF012804D10446C9
S3251002B8E00B20062100F06DF94FF6FF700999814241D10F20062100F064F9012489E054EAEE
S3251002B90005001FD109999DF8190000F0E3FA00F067FA07A948780590099804390490C878F5
S3251002B92003900879029048780C220190103182B0684608F0CFFE0A9938460CBCFFF772FF94
S3251002B940044658E0022D4CD106A9C878202848D2002C46D1887800F073FA9DF81B10002E22
S3251002B96000D4B6042C4636F060420123FEF78BFE00F036FA3FE0002C4BD106AF7C70BC70F1
S3251002B980FC703C717C71BC71FC71043700F026FA0DF11B00019000977B1C821E411E28465F
S3251002B9A000F006FB0546012DA9D006A8807800F047FA074606A8807800F051FA3246089077
S3251002B9C001460DF11E000090431C3846FFF702FF04460898007E012891D1002C8FD10225E2
S3251002B9E02C4600F0FDF904B92C46012D03D10621022000F0E6F89DF81F0018B1062108469D
S3251002BA0000F0DFF89DF81E0018B10B20062100F0D8F820460DB0F0BD70B505460024FEF760
S3251002BA206FFF20B12146062000F0CBF801242846FDF7A8F920B90A20002100F0C2F84EE04B
S3251002BA40002C4CD1284600F0F3F9254616E0284600F0F6F90646284600F001FA0EB1010028
S3251002BA6001D1012004E03046FEF749FD20B10620002100F0A6F801240135EDB200F0DBF9C2
S3251002BA80A842E4D825002AD100F0FFF921E0284600F0D6F90446284600F0E1F9064620467E
S3251002BAA0FEF7FDFD307B10B9204600F0D8FA2046FEF7FBFDA068306031462046FEF77FFDAA
S3251002BAC031462046FEF7C1FD2046FEF7DEFD0135EDB200F0B0F9A842D9D8FEF715FF70BD49
S3251002BAE0FFFFFF1F007913F0DDBE012904D3032902D8CE4A895C00E00021007913F09DBE1F
S3251002BB0030B5037C0025012B10D309D0032BD0E9023412D314D0944216D18B4214D112E055
S3251002BB208368C4684B405440234304E0C368806808401340184307D005E08B42944101E025
S3251002BB409942A24100D20125284630BDF0B583B0029016460027182206FB0215A9682A68DA
S3251002BB6062B9EA681340994200D03ABB029949697200535A0133535201271FE033F040433B
S3251002BB8099421BD101923C4615E00198142104FB01000899026843681140099A1A40FFF7F4
S3251002BBA0AFFF012806D10299720049690746535A01335352013469688C42E6D3384603B06F
S3251002BBC0F0BD30B504460D460A4603465020002114F0F3FD23462A465020002114F0EDFDA8
S3251002BBE030BD70B582B00E461546009000242046019401AA69460EF03FFA20B901988642C0
S3251002BC000ED801240CE02A4601240D235020002114F0D3FD2A460D235020002114F0CDFDEC
S3251002BC20204602B070BDF0B5059D0C46182103FB01220126116967695B00928ADB5B9A42BA
S3251002BC4000D82E7041B1407D212200B90822E069FFF7C7FF00B12E70F0BD10B50C46497EA2
S3251002BC6021B9C06C15F0B0FC0120607610BDF0B589B0059006920E4600248DF80B4008696D
S3251002BC8025462246006803940490082B00D90823214608E00E9F200E7F5C50EA052557EA45
S3251002BCA004240131C9B29942F4D3174623E0CDE90045069B3A4604993046FFF747FF03998E
S3251002BCC00143C9B20391717EA1B93B460DF10B010091049A05983146FFF7A5FF9DF80B1098
S3251002BCE0012907D1717E29B90598C06C15F06CFC012171760137316949688F42D7D3039881
S3251002BD0010B901218DF80B109DF80B0009B0F0BDF0B587B0029204460CAA1E4613789DF886
S3251002BD2038700C930D46087E38B10D98009032462046FFF79CFF012827D120792A7E029941
S3251002BD400DF1070300F0CCF878B901AA207905961075D07850750D9A03920C9B04AA138049
S3251002BD60111F101D13F006FE0FE0304600F041F958B93A460C235020002114F01EFD3A46C8
S3251002BD800C235020002114F018FD07B0F0BDF0B582B00E461746054600F06CF80446009647
S3251002BDA04FF6FF71ADF80470284600F093F86946204613F09DFE02B0F0BD30B5054600F082
S3251002BDC059F84FF6FF710446284600F083F8204613F082FE30BDC06C18F0D5BA10F0ACBA23
S3251002BDE010F0EEBA70B581B006460D4600200090044669460EF030F968B12A460D23502095
S3251002BE00214614F0DAFC2A460D235020214614F0D4FC012401E000983060204601B070BD0C
S3251002BE200A4603465020002114F0C7BC33710310B04908607047AF49086820300078704783
S3251002BE40AC4A136893F82020824205D90146542041431868401800E0002070470000A54A2F
S3251002BE60136893F82020824283BF410158684018002070479F4A136893F824201AB11969AD
S3251002BE804000405A00E01046704710B500200DE0496811EB40110022134614461CC10A70C7
S3251002BEA04A608A608A810A610130C0B2914B196891F820208242EBD8002006E04FF6FF7452
S3251002BEC00B694200D4520130C0B291F824208242F4D810BD874B1A68126940008152704708
S3251002BEE0F0B583B0009001920293824A1768012097F8216056B3002413E06C1CA4B210E030
S3251002BF0001B435196D1012EB85031A780198824201BC05D8F1D39B788B4201D8EDD32C46CC
S3251002BF202E46BA68B442EBD312EB84042278009B9A420BD1A2788A4208D1019911B9E178B1
S3251002BF40012903D0029A61781170002003B0F0BDF0B5684C2568ED680001455D0D7025686E
S3251002BF60069FED682D18A97B39702568059FED682D18697B39702568ED682D18297B1970F1
S3251002BF802368DB681B1859689B685B1802200AE0266836694D00AD5B4FF6FF76B54201D140
S3251002BFA0117000200131994201D20228F0D0F0BDF0B582B04F4F3D68012495F82460AEB1A2
S3251002BFC02035AE7846B1864210D8ED78AD19A8420CDA801BC0B202E0ED78A84206D2089D71
S3251002BFE00195079D0095FFF7B3FF0446204602B0F0BDF0B583B03F4900220D6800926B6946
S3251002C00053B3114624E00C244C431A590292002218E001B41826039F5643B859F719BE6852
S3251002C020002801BC03D030F04047B74206E001B4FF683840864201BC01D0002F01D1012797
S3251002C04000970132E61876689642E2D80131C9B295F825208A42D6D8009803B0F0BD10B5DA
S3251002C060C1698A088069002103E0002340F8213001318A42F9D800210CE01468542301FB88
S3251002C08003439B69834204D1526812EB4112012313730131174B1A6892F820308B42ECD86F
S3251002C0A010BD0000134B1A6892F8261081428ABFD1690846085C7047F0B5002113E0DC684F
S3251002C0C014EB0114227890420BD16268A468A41805E01E694FF6FF775500AF5301329442D3
S3251002C0E0F7D80131C9B2034A136893F823208A42E5D8F0BD584D0108F0B50968002411EBFC
S3251002C100C01700F097F87D6C3E683F6900F094F82046810008228A402A4002D10121814003
S3251002C1200C4301300828F4D32640A7433743F8B2F0BD1B68C90112B95B18191D01E059183C
S3251002C1400831012282400A60704710B5044648680831E208D2B210EB42004078FFF7CCFF6C
S3251002C16004F0070101228A401040003818BF012010BD10B51446646812F108030A46C1085F
S3251002C180C9B214EB4101497800F00700FFF7D1FF10BD10B50246CB080478DBB20020A34292
S3251002C1A009D2526801F0070101248C4012F81310214000D0012010BD60B50646144D014693
S3251002C1C02846FFF7E6FF20B90A2100F023F8002003E029463046FFF7B8FF60BD70B50646CC
S3251002C1E00C460B4D01462846FFF7D3FF08B90A2103E0012C05D024B10B21012000F00AF81B
S3251002C20004E02A4621463046FFF7B3FF70BD00006871031030B504460D460B460246782061
S3251002C220002114F0CAFA2B4622467820002114F0C4FA30BD10F0A8B810F0EAB800000000BA
S3251002C24070B5064600F045FB002000F099FB032000F099FB00F0FDFA002424E02046012143
S3251002C26000F085FB20460122002100F074FB2046002100F059FB2046002100F04FFB316808
S3251002C2801C2004FB001568688047426A2846002190472969204600F04CFB297E204600F061
S3251002C2A051FB0134A4B2308A8442D7D300F0D3FA012000F065FB70BDF0B5074600F006FB27
S3251002C2C0064600F0C6FA002417E071681C2004FB001568688047426A394628469047204699
S3251002C2E0022100F04AFB2969204600F028FB297E204600F02DFB0134A4B2B07C8442E4D36A
S3251002C3003C000FD10BE071681C2004FB001568688047826AE968284690470134A4B2B07C05
S3251002C3208442F0D300F097FAF0BD00000000000070B50546002400F0C9FA06681C2105FB3C
S3251002C340016600F086FA2846012100F0E7FAF07DC00703D42846042100F009FB00F07BFA96
S3251002C360284600F0CEFA800706D500F0D4FA032802D1284600F0A2FA284600F0C2FA400706
S3251002C38004D500F0C8FA052800D10124204670BD10B5044600F09AFA1C21614304686418E8
S3251002C3A000F057FA61688847416820468847044600F051FA204610BD00000000000010B531
S3251002C3C0044600F046FA204600F008FA00F043FA10BD00BFC3487047F0B50368C47D1A6825
S3251002C3E032F000421A601A6802F0F002E507ED0F01D152F48022670701D552F080421A607D
S3251002C400C2681A62027D12025A64002201B10A4640F6F3769A64477D16F10C0207B932463B
S3251002C42009B132F44072DA64007E0022072800D802461A637722200700D57222E00602D5C2
S3251002C440022060F306125A65012005B10020986700209860186850F000401860F0BD0268DB
S3251002C460C07D136833F000431360136853F000431360C00700D40139116200209060106CCB
S3251002C48050F010001064106C70470068016831F000410160816C31F0FF018164016851F05C
S3251002C4A000410160006870470068012904D10167016F0121816702E000218167806F7047C9
S3251002C4C00068806870470268106FC00754BF90680846704700688068081A704703681A6F60
S3251002C4E0D2075ABF9868081A0020704700687E4A016831F000410160016811407FF00003B1
S3251002C5000160036200218160416C31F47F414164416C51F480714164816CFF2231F0FF014D
S3251002C5208164C16C51F44371C164016B31F0FF0101633221416500218167806F70470168B1
S3251002C540CA6FD20704D501200867086F012000E0002070470346127A0120022A0CD11A6C74
S3251002C560D2060DD45A6812040AD4C97DC90706D1196FC90704D102E05968090400D5002075
S3251002C58070470346097A0120022901D0042904D13AB1996CC9B28A4201E0996C090600D0E5
S3251002C5A00020704703460120127A1B6892B14F4A1A40B2F1004F00D00020C97D91EA934265
S3251002C5C0D207D20F00D110469A0F92EA9101C90704D502E04649194000D00020704710B5CC
S3251002C5E00346147A012044B1022C11D1C97DCC0711681A6A09D1013907E08A7D196A202A41
S3251002C60001D1E24301E04FF6FF72914200D0002010BD024601200B7A126B1BB1C97AD2B2E6
S3251002C620914200E0120600D000207047137A426C0120C2F3072213B1097D914200E0012A0E
S3251002C64000D00020704710B504460120127AE46C62B14A7DC4F381010AB9002900E0032904
S3251002C66000D000204BB1A105890F04E040F6FF72C4F30B01914200D0002010BD0346012030
S3251002C680127A5B6D9AB1C97D0A0704D503F00702022A00D00020CA0604D5C3F30212022AFC
S3251002C6A000D0002011F0180104D1772B00E0322B00D00020704710B502460B7A01205BB13E
S3251002C6C013685B0304D4897A8C0701D4490703D5916FC90704D402E0916FC90700D50020AF
S3251002C6E010BD00BF74710310FFFFF8BF0F0733870F0737C7F0B581B0074600931546066886
S3251002C7004878012837D1107A002858D039463046FFF720FF009A294604463046FFF731FF3D
S3251002C7202A46394604403046FFF73CFF2A46394604403046FFF753FF294604403046FFF7F7
S3251002C74068FF2A46394604403046FFF76FFF009B2A46394604403046FFF775FF2A463946B0
S3251002C76004403046FFF78AFF294604403046FFF7A2FF204024E010BB107A00BB394630463F
S3251002C780FFF710FF0446B168012001B100202A46394604403046FFF722FF2946044030463D
S3251002C7A0FFF737FF2A46394604403046FFF73EFF009A294604403046FFF7E3FEC7E70020F1
S3251002C7C001B0F0BD0068026832F0004202600163016851F0004101600068704707210167EC
S3251002C7E0016F0021816770470068036833F000430360836C33F0FF038364012A02D1826C6E
S3251002C8000A43826400218160016851F00041016070470168496809044CBF0120002070479E
S3251002C82010B50446FCF7C4FA10B90E21012004E000F06EF8012803D10D2100F04FF805E086
S3251002C8402046FFF7FDFCE07CFFF736FD10BD000000000FF0A3BD0FF0E5BD00000000000019
S3251002C86070B504460E461C4D2868FCF7A1FA58B160002C68E468045B4FF6FF70844219D04B
S3251002C88000F046F8012804D02221FF2000F026F810E02046FFF77CFD01280ED12046FFF7BC
S3251002C8A047FD012809D12868806850F8240017F06AFD02E03046FFF782FD70BD064B1968FB
S3251002C8C009681C2202FB0010806800470249086870470149086070475C4D010830B5044699
S3251002C8E00D460B4602466420002113F066FF2B4622466420002113F060FF30BD000000005A
S3251002C90000000C21484321494018807A704700002049487870471F49087870470C22504394
S3251002C9201A4A8018417270470C225043174A815070470C225043154A801841607047144863
S3251002C940016070470C225043104A8018C17270470F484171704710B50C4B0C2404FB0033CC
S3251002C960012A987A0CBF08400843987210BD0C225043064A801801727047054801717047E4
S3251002C980044948707047034908707047684D0108604D01083A540108153801288CBF01205B
S3251002C9A00020704770B5054600260FF0FBFC686D012100F0D8FC2846012100F0E4FCA86ACF
S3251002C9C0344648B10124214600F01DFDA86A817D11B1052400F02EFDE86A58B154F0080475
S3251002C9E0012100F053FDE86AC17C19B154F0100400F074FD0FF01AFDE86BE0B1017B01290B
S3251002CA000ED1407B01280BD10FF0CCFC304600F079FD0FF00BFD4FF47A7000F0BAFD064695
S3251002CA204EB90FF0BFFC54F00204E86B012100F08BFD0FF0FBFC210003D0284600F045FE5B
S3251002CA400646304670BDF0B5074600241AE000250FE00FF0A7FC3A6CB01890F823109259F5
S3251002CA60D5EBC500801800F006FC0FF0DFFC0135ADB224266643386C3018408B8542E8D3F4
S3251002CA800134E4B297F8A1008442E0D3F0BD0000000070B50546006808B100F04FFC00F0A1
S3251002CAA0E0FB002407E0696C11EB0410002101F064F90134A4B215F19C06B0798442F2D33D
S3251002CAC0284600F004FC2846002100F070FF2846002101F035F8284600F0A2FB286B10B1F6
S3251002CAE0407F00F006FB002409E0696B142004FB0010417CC06800F026FB0134A4B2B078A1
S3251002CB008442F2D3002409E0A96B1C2004FB0010417E406900F03EFB0134A4B2F0788442BC
S3251002CB20F2D370BD30B50546002408E06A68E00081581018007900F05EFF0134E4B295F8DE
S3251002CB409D008442F2D3002408E0AA68E00081581018007900F047FF0134E4B295F89C00F3
S3251002CB608442F2D330BD000000000000000010B50446C06B10B1002100F0E6FC20460021B0
S3251002CB8000F001FCE06A10B1002100F07FFCA06A10B1002100F037FC606D002100F0E3FB2E
S3251002CBA010BDF0B581B00546002785E024267E43286C301890F823100091002407E04268FB
S3251002CBC0009912EBC40001F048F80134A4B2286C3018018B8C42F2D3002411E00000000017
S3251002CBE0000000000FF0DEFB286C30188268009912EB440001F03DF80FF018FC0134A4B2E1
S3251002CC00286C3018808B8442ECD300240DE00FF0C9FB286C3018C268009912EB840001F0AB
S3251002CC203AF80FF003FC0134A4B2286C3018C08B8442ECD300240DE00FF0B4FB286C3018DA
S3251002CC400269009912EB840001F037F80FF0EEFB0134A4B2286C3018008C8442ECD3002493
S3251002CC600DE00FF09FFB286C30184269009912EBC40001F038F80FF0D9FB0134A4B2286C22
S3251002CC803018223000788442EBD300240DE00FF089FB2A6C00999259D4EBC400801801F02C
S3251002CCA038F80FF0C3FB0134A4B2286C3018408B8442ECD30137FFB295F8A1008742FFF4E5
S3251002CCC075AF01B0F0BD10B50446006B10B101F0C3F930B9204601F093F910B9204601F0E6
S3251002CCE061F910BDF0B581B0009001250C1E00F084800846FFF756FE051E7ED1204601F0EA
S3251002CD0000F92046FFF79FFE0FF04CFBB94A01212046117001F0E6FD051E72D12046FFF721
S3251002CD20B8FE2046FFF7FEFE206B18B101F047F8051E66D1064607E0626B142106FB012098
S3251002CD4001F07FF80136F6B214F19C05A9788E42F2D3002607E0A26B1C2106FB012001F0AE
S3251002CD6090F80136F6B2E9788E42F4D3002706E0E26812EBC70001F0EDF80137FFB214F15D
S3251002CD809806317A8F42F3D3204600F03CFEE97AA06C00F06CFE626A1AB1317C106800F096
S3251002CDA07BFE2046012100F0CBFE2046012100F0FEFD204600F0ABFC002707E0626C12EB58
S3251002CDC00710012100F0D9FF0137FFB2A9798F42F4D3306800F039FF206808B100F070FE38
S3251002CDE02046FFF7C4FE0FF021FB2046FFF7D9FE2046FFF768FF051E06D0009801F0FFFE6D
S3251002CE0004E00FF013FBF8E701F0FFFE284601B0F0BD70B5784C0546261D304601F090F909
S3251002CE20687D400601D501F012FA304601F093F92070FFF7B1FD08B901F0E1FE687D000639
S3251002CE4007D5A87CB0214843296841180020FFF749FF70BD70B506460FF0A4FA002408E0CF
S3251002CE60B16B1C2004FB0010406901F02CF90134E4B216F19C05E8788442F1D3002408E00B
S3251002CE80716B142004FB0010C06801F02DF90134E4B2A8788442F3D301F039F90FF0C6FAC3
S3251002CEA070BD10B50446006B10B101F0C6F830B9204601F0F4F810B9204601F0DCF80038EB
S3251002CEC018BF012010BD4B49087870474A4908787047000070B505460C460FF063FA607CE6
S3251002CEE0012802D101F04FFB0646206801F00EFC50B901F092FE2146022201F0A4FA0FF071
S3251002CF0095FA01F089FE07E00FF090FA072001F07DFE207C012803D1284601F008F909E00D
S3251002CF20607C012806D10FF03DFA304601F072FB0FF07CFA70BD30B50546002401F0C2FA50
S3251002CF4095F83210884200D00124204630BD000070B5064600240FF025FA254612E016F1C1
S3251002CF603300405D0338012804D9284601F0C3FA022804D12946304601F0CBFA00E00124CD
S3251002CF800135EDB296F835008542E8D30FF04EFA204670BD70B5064610F13005A878013885
S3251002CFA005D23046FFF7D4FF041E09D102E00024012804D86978F06801F002FA00E0012411
S3251002CFC0204670BD70B5064610F13005A878013805D23046FFF7BCFF041E09D102E00024A6
S3251002CFE0012804D86978F06801F0EAF900E00124204670BD984D01088C4D0108F0B50400F6
S3251002D0006FD010F13406B078012805D10FF0CAF901F0CAFB0FF00AFA206800B3016821B166
S3251002D0200820FFF75FFE051E5CD125680FF0BAF9284601F017F995F8200010B1286901F06F
S3251002D04070F90FF0F3F90FF0ADF9284601F05CF90FF0ECF9284601F037FB050042D114F179
S3251002D0602C0001F081F9206901F088FB051E39D1F078012802D101F086FA0746606901F0FB
S3251002D08045FB051E26D1204601F0BAF994F83000012808D194F832000025D8B92046FFF786
S3251002D0A057FF054616E0022803D12046FFF772FFF7E7032803D12046FFF784FFF1E7042836
S3251002D0C007D16068002520B194F8311001F0B9FA00E00125F078012804D1384601F09AFAC2
S3251002D0E000E001252846F0BD000000000C490860704770B50A4A14680128646A22D141F271
S3251002D1003051605800281DD541F238520221A05861F31D70A05001F082FD0646002503E037
S3251002D1209C4D010800BF0135B542FBD341F23051605830F00040605041F23C51605830F017
S3251002D1400040605070BDF0B504460B4A156801296D6A1ED1800015F5B0514158002918D5AF
S3251002D160022262F31D7115F5B0528150204601F059FD0746002603E09C4D010800BF0136C8
S3251002D180BE42FBD3A20015F5B051505830F000405050F0BD70B50A4A136802015B6A13F5E3
S3251002D1A0C853012916D1D158D418002912D5022262F31D71216001F038FD0646002503E004
S3251002D1C09C4D010800BF0135B542FBD3206830F00040206070BD0000000070B5A54B1D685C
S3251002D1E000226D6A17E0C46814EBC201097915F5925656F8213054F83240302634401E4040
S3251002D200A64206D233F03003234315F5925444F821300132D2B290F8A0108A42E3D370BD5F
S3251002D22020B5944A116810F1A8029378496A012B08D14FF4A8554B591B0403D54B5933F496
S3251002D24000434B51D278012A08D141F20453CA58002A03D5CA5832F00042CA50FFF7BDFF89
S3251002D26020BD844A4FF6FF7110684FF40072006881508058704730B57E4A13685A6812EB5A
S3251002D28041328179012921D1417819B9007812F5805510E0012903D1007812F5A0550AE0C2
S3251002D2A0022903D1007812F5C05504E003290DD1007812F5E05555F82040E40706D09B68B0
S3251002D2C050EA012050F080409850985830BD30B568490C680023626A0DE0056915EB0311AE
S3251002D2E0097B12F5A05515EB0115296831F0004129600133DBB290F8A3108B42EDD34369CF
S3251002D3005D4923B141F2107553590B405351836923B14FF4B95553590B405351C36923B17C
S3251002D32041F2307553590B405351006A28B14FF48073A26AD0580840D05030BD4D4B186848
S3251002D34041F20813406AC15831F04041C1504FF4A073C15831F00F11C1500433C15831F0BF
S3251002D360FF01C1507047434A136800F000425B6A012901D122B100E012B941F21851585010
S3251002D380704700000000F0B53A4A4FF00046C36C156800246A6A03F00047012905D107B17A
S3251002D3A00C46016D0E4008D004E007B90124016D0E4002D141F20C569151012C22D1A930A7
S3251002D3C00078696A012817D12C4E8C597618A50704D02A4E7050022088517618284DA0078F
S3251002D3E0800F53510ED00322326003280AD0E04300F00300306005E0204C0859800701D197
S3251002D4001F481350F0BD1B4B1A680129526A0AD1017D012903D141F244534168D15000685C
S3251002D420002806D502E00068002802D441F21C515050704710B50F4B427D1968012A496A55
S3251002D44010D1104BCA58D20705D0043BCA580E4C52F000620A510B4B80684FF08052C85087
S3251002D460C85801E04FF00062074BC8581043C85010BD00BF9C4D0108FFFFFF7F40C000001B
S3251002D48008150000201500001C15000010B5CC4B047C01291A68CB4B926A16D1012C1CD1D6
S3251002D4A0417C012904D18024A1581940A150A158D2F88010002910D400688023985098586E
S3251002D4C0985850F00040985007E034B98024A1581940A1500068A158A05010BDB84B827C02
S3251002D4E01968012A896A0CD1D1F88420D20708D140688423585058588023585850F080506F
S3251002D50058507047AE4A1168896A7FF008028B6833F001038B608B688B6853F002038B6099
S3251002D5208B680B6801280CBF43F0080313400B600868886830F0020088608868886850F0F3
S3251002D540010088608868704770B505469C4A007B14680129A46A0FD1012819D12168080713
S3251002D56016D40CCD994313EA02000843206020680120FFF7C7FF0BE050B9FFF7C3FF216890
S3251002D58048CD56F00802914316EA03000843206070BD8B4A13689B6A1A6812070AD401462A
S3251002D5A001201A6912F0040201D1104603E00139F7D100E00020704710B50246804C0020EA
S3251002D5C02368C9075B6A11D541F21C54195900290CD5111E00D10121012041F224541A59AD
S3251002D5E0D20701D5002001E00139F6D110BD30B50246734C0020236849075B6A11D541F2D0
S3251002D6001C555959C9000CD5111E00D1012101204FF4A9541A59D20701D5002001E0013945
S3251002D620F6D130BD50B50246654B00201C680907A46A17D5B4B1D4F88030002B12D5111E51
S3251002D64000D10121012003F08043D4F88820960706D5B3F1804F01D1D20701D0002001E00C
S3251002D6600139F2D150BD20B50246554D00202B68C9069B6A10D57BB1D3F88010C9000BD52D
S3251002D680111E00D101210120D3F88420D20701D5002001E00139F7D120BD10B50246484C90
S3251002D6A00020236889079B6A0ED56BB1196809070AD5111E00D1012101201A69520701D5AE
S3251002D6C0002001E00139F8D110BD70B505460C46866A002046B1F068FFF76EFFB0B93069DB
S3251002D6E02146FFF784FF88B9EE6A4EB1B0682146FFF798FF50B9F0682146FFF7B4FF28B93C
S3251002D700EA6B1AB190682146FFF7C7FF70BD70B52B4A4FF4B855116800244A6A8B6A816D6B
S3251002D72051511AE0056915EB0415297B12F5A05616EB01116E684E60AE688E602D6835F0B8
S3251002D74000460E60002D06D54D688D680D680D6855F000450D600134E4B290F8A3108C4296
S3251002D760E0D344691749C4B141F2147665689551A568961975602468134E34F00045002CD9
S3251002D78095510AD59619746841F2187694590E4E9459945954F000449451846914B341F2E9
S3251002D7A0247665689551A5689619756024684FF4B95614EA0105002C955113D506E000BFF2
S3251002D7C09C4D0108FFFFFF7F101700009619746841F2287694594FF4B9569459945954F0E3
S3251002D7E000449451C469C4B141F2347665689551A568961975602468BF4E14EA0105002C5C
S3251002D80095510AD59619746841F238769459BA4E9459945954F000449451006AA8B14FF47D
S3251002D820827442681A518268C3F8082100680140043C1951002808D5D3F80401D3F80801FB
S3251002D8401859E05850F00040E05070BDF0B5AB4A4FF440731468AA4A24697FF00305A2582C
S3251002D86002F0030600F00307012908D1BE4201D92A403A431840134083420BD907E0BE429C
S3251002D88001D22A403A4318401340834202D232F4407202439A482250F0BDF0B5974A4FF48B
S3251002D8A040731468974A24697FF00305A25802F0030600F00307012908D1BE4201D92A4006
S3251002D8C03A431840134083420BD907E0BE4201D22A403A4318401340834202D232F44072A2
S3251002D8E0024388482250F0BDF0B5844A4FF440731468854A24697FF00305A25802F003062F
S3251002D90000F00307012908D1BE4201D92A403A431840134083420BD907E0BE4201D22A40B9
S3251002D9203A4318401340834202D232F44072024375482250F0BDF0B5704A4FF44073146844
S3251002D940724A24697FF00305A25802F0030600F00307012908D1BE4201D92A403A431840E4
S3251002D960134083420BD907E0BE4201D22A403A4318401340834202D232F4407202436348E6
S3251002D9802250F0BD10B55D4A13681B6A00F00F001A6802F00F04012902D1844206D901E0DB
S3251002D9A0844203D232F00F0202431A6010BD30B50446406F0D46FFF749FFE06F2946743420
S3251002D9C0FFF76BFFE06818B120692946FFF78CFF606918B1A0692946FFF7ADFF206A2946A0
S3251002D9E0FFF7D0FF30BD454B1A68526A12F5905242F820107047414B1A68526A12F58072C2
S3251002DA0042F820107047D0B53C49414E0A6890F8A910526A012993591CD13E4FD459BF1831
S3251002DA20A60705D03B4F0121B9500221D151BF18806C374960F3020353505058A007800F36
S3251002DA4014D003213960032810D0E04300F0030038600BE02F4C7FF007061159890705D1A2
S3251002DA60806C2B4960F3020353505058D0BD70B5224A1368264E5B6A4FF400449A59150426
S3251002DA8009D4000A60F30E229A519859012902D1F0582043F05070BD10B5184B1A6841F236
S3251002DAA00454526A1359002B09D430F000401051012904D1A058A05850F00040A05010BDD9
S3251002DAC00E4B19688268496A41F20413C1F84021C268C1F844210268CA504068CB18586044
S3251002DAE070470368012A02D18B4203D901E08B4200D20160704700BF301700009C4D0108B5
S3251002DB00C41300000013000080130000A01300000015000040C0000030B50468012B2346C2
S3251002DB20154604D113400D40AB4207D903E013400D40AB4202D2944311400C43046030BD24
S3251002DB40F0B581B004460A4600910B46DA490E68012A36693CD100250BE014EB8500C16D29
S3251002DB60321D12EB852004300122FFF7BAFF0135EDB214F1A40778788542EED3B87870B940
S3251002DB80CE48CF4A616E80190123FFF7C5FFCB48CC4AA16E80190123FFF7BEFF53E0CA480B
S3251002DBA0E16E80190122FFF79CFFC448616E80190122FFF796FFC548A16E80190122FFF7C1
S3251002DBC090FF216F16F548700122FFF78AFF3AE010F1A407B87868B9B848BA4AA16E8019E6
S3251002DBE0FFF79AFF009BB548B54A616E8019FFF793FF17E01A46216F16F54870FFF771FFE7
S3251002DC00B248009AA16E8019FFF76BFFAB48009A616E8019FFF765FFAB48009AE16E80198C
S3251002DC20FFF75FFF00250BE014EB8500009AC16D331D13EB85200430FFF753FF0135EDB2D8
S3251002DC4078788542F0D301B0F0BD9B4A11684FF400720968885088587047974B1A685268C3
S3251002DC6012EB4132818812F54062006842F821007047914B1A68526812EB41334178890025
S3251002DC8013F580525258D20704D4007813F58052000250507047884B1A68526812EB41330C
S3251002DCA08178890013F5A0525258D20704D4008813F5A0520002505070477F4B1A68526894
S3251002DCC012EB4133C178890013F5C0525258D20708D413F5C05203888078C006000E50EAD5
S3251002DCE0032050507047744B1A68526812EB41334179890013F5E0525258D20708D413F542
S3251002DD00E05203790068DB06000250EA13605050704770B5684B1C68626812EB413241799E
S3251002DD20012929D143781BB9017812F5805610E0012B03D1017812F5A0560AE0022B03D171
S3251002DD40017812F5C05604E0032B15D1017812F5E05656F82150ED070ED1A468A418827813
S3251002DD60C0788007800950EA0240084350EA032050F000402060206870BD30B54E4A146871
S3251002DD80027B256815F58045E36815EB421503FB02524B4D146803682C401D40012909D152
S3251002DDA0AC4200D9136011698368406899430843106103E0AC4201D21360106830BD30B50B
S3251002DDC001463D4B1A68424C526A00201359002B36D4CB683F4D33F0004454513C4D0C6807
S3251002DDE054514C6855196C603B4D8C68002B54510CD5374D535955196B68374D535955193C
S3251002DE006B68344D535953F0004353510B7F012B16D1304C1059486900B1034601204FF42F
S3251002DE20AA555459640709D5294C105950F000401051886900F0FCFE002001E0013BEED13F
S3251002DE4030BD30B501461C480368C8685B6A820013F5B054A458002C12D413F5B0540D68B0
S3251002DE60A5500C7C012C0BD113F5B054A45813F5B054A35853F00043A350896800F0DBFEC2
S3251002DE8030BD10B501460C4A4069136802015B6A13F5C8539C58D3180A68002C26D41A601B
S3251002DEA04A685A608A689A600A7E012A28D11A685A689A6812E000BF9C4D01080810000045
S3251002DEC000FF0000000000FF101000000C100000301500003C150000381500001A6852F049
S3251002DEE000421A60096900F0A9FE09E018684240120605D15868496861F317005860586818
S3251002DF0010BD70B5C94A156800236D6A1CE0C26812EBC3063279920015F59251895800294D
S3251002DF2003D4316831F00F0106E0066B56B1767F012E07D10E0705D1247B15F592562143EE
S3251002DF40B150B1580133DBB210F1A00421788B42DDD370BD10B5B5490A680179526A890002
S3251002DF6012F592535B583024006823400440A34202D830F03000184312F59252505010BDC5
S3251002DF80AA4B41691A68007E526A12F5C85212EB0111012804D1C868C00701D1012000E016
S3251002DFA00020704770B506460020044612E0002505E00846FFF7E4FF40B10135EDB2B26B91
S3251002DFC01C2104FB0121CA689542F2D3012805D00134E4B296F89F108C42E8D370BD934B63
S3251002DFE0027C1968012A496A08D1C06811F5B25151F82000C00701D1104600E00020704713
S3251002E00070B506460020044612E0002505E00846FFF7E5FF40B10135EDB2726B142104FB12
S3251002E02001214A689542F2D3012805D00134E4B296F89E108C42E8D370BD7C4A007F1168DF
S3251002E0400128496A06D14FF4AA528858C00701D1012000E00020704730B5054600200446CB
S3251002E06005E02846FFF7E9FF20B10134E4B229698C42F6D330BD30B505460020044609E022
S3251002E080A96B1C2004FB0010FFF77AFF012805D00134E4B295F89F108C42F1D330BD30B531
S3251002E0A005460020044609E0696B142004FB0010FFF795FF012805D00134E4B295F89E1005
S3251002E0C08C42F1D330BD594A1168496A11F5C85111EB0011086800F04052B2F1005F02D1E7
S3251002E0E050F040500860704750490A68526A12F5B05353F8201001F04053B3F1005F05D170
S3251002E10051F0405112F5B05242F82010704710B54648016841F23854496A085900F04052DA
S3251002E120B2F1005F02D150F04050085110BD012805D13E4A10683E49006BC0F80C1D704773
S3251002E1403A4B19684FF4C053496ACA58CB18026059684160704710B5364C026814405AD0E9
S3251002E160D00701D5022170E04FF6FF73910701D503216AE00421500767D4100701D505210A
S3251002E18063E0D00601D506215FE0900601D507215BE0500601D5082157E0100601D50921A1
S3251002E1A053E0D00501D50A214FE0581C104001D00B214AE0900301D50C2146E0500301D53F
S3251002E1C00D2142E0100301D50E213EE0D00201D50F213AE0900201D5102136E0500201D5D8
S3251002E1E0112132E0100201D512212EE0D00101D513212AE0900101D5182126E0500101D5E8
S3251002E200192122E0D00001D51A211EE0012190001BD5142119E040680021C20304D0162162
S3251002E220000412D0152110E0004A05E09C4D01080400FA05FF01FF77106841F20802406AC1
S3251002E2408058C0B2FF2800D11721084610BD654A654910684FF4C052406A81506349821826
S3251002E26051607047F0B55F4B1A680024526A46E043680C2104FB013501212B799940012B6F
S3251002E28002D14FF4815301E041F224032E7A9B18012E03D11E6836F440461E601F684FF465
S3251002E2A000463F0416D42F681F606F79012F11D101B4D2F808724E488F43875087581F6825
S3251002E2C03743A8791F60012801BC03D11E6856F480461E60EB79464D012B53590AD10B4049
S3251002E2E00BD14FF4007551515359414D53590B43535102E08B43535151590134E4B290F8A7
S3251002E30021108C42B4D3F0BD10B5364941F204040A68C368526A8068115999430843105100
S3251002E32010BD30B52F4A1168324D496A4A5990EA0203DB0607D54C5934F0C0044C514B5942
S3251002E34033F480734B514240D20208D5294C0A5932F440020A510A5932F080720A51254AE0
S3251002E3608A58244A885030BD70B51E4A0178224BCC070AD5156846786D69012E2C6807BFB1
S3251002E38044F000442C601C402C608D070AD515688678AD69012E2C6807BF44F000442C60E8
S3251002E3A01C402C6049070AD51168C478C969012C086807BF40F0004008601840086070BD1F
S3251002E3C030B5084A146841F20805626A535933F000435351E36A0129C3F8100D50590ED1D9
S3251002E3E00CE000BF9C4D0108FF01FF77FFFF01000802000018100000FFFFFF7F30BF30BD69
S3251002E40030B557494FF49E540B6800221B69816A195109E08168D5006C584919097913F565
S3251002E4209A5545F82140013290F838108A42F1D3016A11B141F288329950406A10B141F203
S3251002E440A831585030BDF0B584B0039002914F68434C44493E001ED0002318E001259D401A
S3251002E46015EA07000AD020B42068006910F59A5052EA010540F8235020BCAE4336B92568BA
S3251002E4802D6915F59A5555F8233004E00133039D2D78AB42E2D3029B9B683BB1236841F2EC
S3251002E4A088301B6952EA01051D501B58029BDB6833B1236841F2A8301B690A431A501A58DF
S3251002E4C004B0F0BD264A1168C96A4FF6F070D1F8001D0140B1F5464F01D100200AE04CF286
S3251002E4E04022914201D1012004E0303291420CBF0220FF2070471A4A1168096911EB802015
S3251002E5004168C807C00F03D089074CBF022001207047134A13681B6913F5905313EB0112DC
S3251002E52010EB81039B6933305360405C5368042802D00C4908431060704770B5084B186816
S3251002E5400021006B0022C0F8841DD0F8801DC1F3C905C1F34E340FE05101002309E000BF73
S3251002E5609C4D01080000FA0551EA8376C0F86C6F0133AB42F8D90132A242EDD9BFF34F8F6C
S3251002E580BFF36F8F70BD10B5064B196840F61453096BC85810F440340ED030F44030C850BC
S3251002E5A002E000BF9C4D0108BFF34F8FBFF36F8FE00301D5FFF7C1FF204610BDF0B5084CD5
S3251002E5C0236800201B6B0021C3F8840DD3F8800DC0F3C906C0F34E350CE04801002206E038
S3251002E5E09C4D010850EA8277C3F8607F0132B242F8D90131A942F0D9BFF34F8FBFF36F8F26
S3251002E6002068006B0021C0F8501FBFF34F8FBFF36F8FF0BD10B50446FFF7D0FF054B196815
S3251002E62040F61453096BC85830F440302043C85002E000BF9C4D0108BFF34F8FBFF36F8FAF
S3251002E64010BD70B543680268124C13402268124C526A13511351C3681BB14FF4875584687C
S3251002E660545144691CB141F2E40605699551007E012806D1234304D041F2EC030748D050A9
S3251002E680D05801290DD1044BD05850F00040D050D05805E09C4D010808100000FFFFFFE027
S3251002E6A030BF70BD30B5464B1C680200646A01D1002008E0022041F2040563590B408B4250
S3251002E6C0F6D0013AF7D130BD30B505463C4A14683C4A646A0020A158C90704D4A8690221F1
S3251002E6E0FFF7E0FF88B9374BE158C90205D44FF400116869FFF7D6FF38B9324BE158C9012C
S3251002E70003D4E869D905FFF7CDFF30BD70B50146002091B32A4B1A684FF4985512694FF477
S3251002E72080335459E40309D50C4641F204369559ED0702D4013CF8D11EE0ECB14FF49C5550
S3251002E74054591C4009D00C4641F284369559ED0702D4013CF8D10FE074B14FF49D555459CC
S3251002E7601C400AD00C4641F2A433D158C90702D4013CF8D100E004B9022070BD30B5014602
S3251002E7800F4B002041B11A680F4D526A5259920609D40139F7D105E019680B4C496A095967
S3251002E7A0890600D4022030BD054B196841F20803496A064AC8581040C8507047000000007E
S3251002E7C09C4D01080410000000100000FFC5FDFF30B5A8B1417B012912D130C86A4B1A6815
S3251002E7E00079926A55F0080312681A4015EA0401012801D151F00801914201D0012000E07A
S3251002E800002030BD10B5014691F8A9200020012A0BD15D4B41F208541A68C96C526A00297B
